:020000040800F2
:1020000070100020652100086D2100086F21000874
:1020100071210008732100087521000800000000EC
:102020000000000000000000000000007721000810
:1020300079210008000000007B210008B95B00083E
:102040007F2100087F2100087F2100087F210008F0
:102050007F2100087F2100087F2100087F210008E0
:10206000015F00087F2100087F2100087F21000810
:102070007F210008415E00087F210008D95E00082A
:102080007F2100087F21000800000000A55E0008F5
:102090007F2100087F2100087F2100087F210008A0
:1020A0007F2100087F2100087F2100085572000869
:1020B00091720008000000007F210008000000006D
:1020C0007F210008000000007F2100087F21000818
:1020D0007F21000800000000000000000000000058
:1020E00000000000000000007F2100080000000048
:1020F00000000000000000000000000000000000E0
:102100007F21000800000000000000007F2100087F
:1021100000000000000000000000000000000000BF
:1021200000000000000000000000000000000000AF
:10213000000000000000000000000000000000009F
:102140000000000000000000000000007F210008E7
:10215000DFF80CD000F05EFA00480047BB7F0008B3
:10216000701000200648804706480047FEE7FEE75B
:10217000FEE7FEE7FEE7FEE7FEE7FEE7FEE7FEE737
:10218000BD5B00085121000840EA01039B0703D012
:1021900009E008C9121F08C0042AFAD203E011F8A6
:1021A000013B00F8013B521EF9D27047D2B201E068
:1021B00000F8012B491EFBD270470022F6E710B54C
:1021C00013460A4604461946FFF7F0FF204610BDA5
:1021D00030B505462A460B4612F8010B13F8014BA1
:1021E00008B1A042F8D01CB1002802D06D1CF1E764
:1021F000284630BD421C10F8011B0029FBD1801A73
:10220000704730B504460020034600E05B1C934253
:1022100003D2E05CCD5C401BF8D030BD034611F822
:10222000012B00F8012B002AF9D118467047000055
:102230000FB400B58DB010A909900B9000914FF02C
:10224000FF300A9000200C90054806900548079042
:102250006A4609A80F9900F0AFF90DB05DF814FBBC
:10226000D5250008F32500082DE9FF5F1D464FF036
:10227000FF3BD5E9014691465F464FF00008A9694A
:102280007F1C01988847296A824688470028F6D132
:10229000BAF1FF3F0CD024F4C064002E19DD6006B3
:1022A00014D5BAF12B0F09D0BAF12D0F0ED103E0DE
:1022B000584604B0BDE8F09F44F48064A9697F1CCF
:1022C00001988847761E8246002E02DDBAF1300F53
:1022D00003D0B9F1000F26D032E0A969761E44F48C
:1022E00000747F1C019888478246002E05DDBAF1F4
:1022F000780F06D0BAF1580F03D0B9F1000F10D003
:102300001EE0B9F1000F02D0B9F1100F18D1A96980
:10231000761E24F400747F1C0198884782461020A2
:1023200002E0082000E00A20814609E008FB0908D5
:10233000A969761E44F400747F1C01988847824680
:10234000002E05DD4946504600F022F90028EDDA5E
:10235000E96901988847A00502D46FF00100A8E759
:10236000E00725D1600613D5600502D5C8F100004D
:1023700000E0404629680A1D2A600968220501D547
:10238000087015E0220701D5088011E008600FE011
:102390002868011D29600068210502D580F80080A9
:1023A00006E0210702D5A0F8008001E0C0F8008017
:1023B00038467EE72DE9FF5FD2E901A74FF000081C
:1023C000916999461446DDF838B046460198884729
:1023D000054659EA0B0005D009E0A169761C019871
:1023E00088470546216A284688470028F5D1681C99
:1023F00003D05FEACA7005D015E04FF0FF3004B09B
:10240000BDE8F09F2068011D2160D0F800800AE03F
:102410005FEACA7001D108F8015BA169761C7F1ED2
:10242000019888470546002F1ADD681C18D0B9F1BD
:10243000000F0DD0E81705EBD060421120F01F000F
:1024400059F822102A1A012090400142E0D107E0F9
:10245000BBF1000FDCD1216A284688470028D7D07D
:10246000E16901988847BBF1000F07D1002E05DD17
:102470005FEACA7002D1002188F80010A068B84253
:1024800003DDBBF1000F03D017B16FF00100B6E719
:102490003046B4E72DE9F05F0546002092469B46A2
:1024A00088460646814640241BE02846414647466A
:1024B000224600F0D0F853465A46C01A914110D334
:1024C00011461846224600F0B7F82D1A67EB0108AE
:1024D0004F4622460120002100F0AEF817EB00091C
:1024E0004E41201EA4F10104DFDC484631462A4655
:1024F0004346BDE8F09F0000014900F003B800002A
:10250000440C002010B500683C22B0FBF2F302FB43
:102510001303B0FBF2F00B60B0FBF2F302FB13030A
:10252000B0FBF2F018224B60B0FBF2F302FB130396
:10253000B0FBF2F0021D8B600723B2FBF3F403FB48
:102540001422800040F2B55300F66C308A61B0FB73
:10255000F3F2B0FBF3F403FB1400443280084A6149
:10256000C8613B2802D3920700D0401C0022074CD0
:1025700013460A61E25C824203D8801A5B1C0B613D
:10258000F8E7401CC860084610BD0000208E000817
:102590003A2800D2303820F02002412A01D3A2F19B
:1025A0003700884201D34FF0FF3070470268114472
:1025B0001378016018467047D1600449516104499D
:1025C000116200211161114600F05AB8AD250008D2
:1025D00077260008426842B1016811F8013B23B137
:1025E000521EC0E90012184670470121C160881EC2
:1025F000704742685AB1C368016843B983688B4227
:1026000005D0491E521CC0E90012002070474FF04F
:10261000FF307047064C074D06E0E06840F00103CC
:1026200094E8070098471034AC42F6D3FFF794FDC6
:10263000908F0008B08F0008202A04DB203A00FAAF
:1026400002F1002070479140C2F1200320FA03F309
:10265000194390407047202A04DB203A21FA02F007
:102660000021704721FA02F3D040C2F120029140CC
:10267000084319467047C0B24FF4F05100F096B9C4
:102680002DE9F34F8BB04FF0000801F10C000C4620
:102690004FF0010B46460DF1080A019062690121D5
:1026A0000198904705002DD0252D2CD0216A884710
:1026B000C0B16269012101989047216A88470028CA
:1026C000F7D1411E62690198904700E0761CA1692C
:1026D0000B988847216A88470028F7D1E1690B9851
:1026E0008847DBE7A1690B9888470746A84201D1D4
:1026F000761CD3E7E1690B9888477F1C02D1B8F1BB
:10270000000F6FD046E1002762693D4639460198C7
:1027100090472A2804D16269012101989047012538
:10272000DFF884926269012101989047A0F130019D
:102730000A290AD24F45E5DC07EB870100EB410788
:10274000303FDFD445F01005ECE7E90601D46FF027
:1027500000476C280AD04C2814D0682815D06A2865
:102760000DD074281CD07A281AD01DE0626901218E
:10277000019890476C2802D045F0040514E045F01C
:1027800002050DE045F020050AE06269012101988B
:102790009047682802D045F0080505E045F400653B
:1027A0006269012101989047C4E9015765283DD02D
:1027B00019DC58287AD00CDC452837D004DC2528D1
:1027C00026D0412831D131E046282FD047282CD1BE
:1027D0002CE05B2877D0612828D063287CD064283F
:1027E00023D15AE0D0E06F2848D008DC66281DD0FD
:1027F00067281BD0692821D06E2816D127E07028C1
:1028000045D0732868D0752847D078280DD14DE081
:10281000A1690B988847054625283FF469AFE1690F
:102820000B9888476D1C3FF46AAFB3E023466A46B5
:102830006FF001000B99AFF300809EE045F040007F
:102840006060A80723464FF0000236D43EE0E80758
:102850007FF447AF2068011D21600068290501D57C
:1028600006701BE7290701D5068017E7A90703D5DE
:10287000F117C0E9006111E706600FE745F040007D
:102880006060A80723464FF0080216D41EE040F609
:102890000E0125EA0100606016E045F0400060602E
:1028A000A80723464FF00A0207D40FE045F0400086
:1028B0006060A80708D5234610226FF001000B992D
:1028C000AFF3008059E007E0234610226FF00100CB
:1028D0000B99FFF7C9FC50E04FF000094F464B46FB
:1028E000632802D05B2806D040E0E80601D401202E
:1028F000A06001273AE062690121019890475E28B3
:1029000005D14FF001096269494601989047216954
:1029100039B900210A46534643F82120491C0829A9
:10292000FADBB0B3216969B9C11700EBD162531169
:102930000AEB830122F01F02821A01200B689040EB
:1029400003430B6062690121019890475D28E8D13B
:10295000B9F1000F09D00020514651F82020D24390
:1029600041F82020401C0828F7DB02AB22460097E4
:102970006FF001000B99FFF71DFD00280CDA401CD9
:1029800008D1BBF1000F05D04FF0FF300DB0BDE80E
:10299000F08FFFE74046F9E7E90701D108F10108A8
:1029A00006444FF0000B79E6CCCCCC0C7F2801D943
:1029B000002208E0064A02EB5002C007127800D15C
:1029C000120902F00F0201209040084070470000F9
:1029D0002C8E000870B50446AA2020705520607027
:1029E00010480D4610F8291F61710178491C0170CB
:1029F000681D608001202071281DA27181B2E371E1
:102A0000201D01F091FB014660190B3501720D216B
:102A100041720A218172AAB22146BDE870400120AC
:102A200004F0D0BE4C0700200021A0F13002092A9A
:102A300001D8D1B20BE0A0F14102052A01D8373804
:102A400004E0A0F16102052A01D85738C1B2084656
:102A50007047000070B586B016460C460546142235
:102A600010A16846FFF790FB002318460CB1002E1A
:102A700002DC002006B070BD69460CE0E25C01EBB0
:102A8000121212782A54E25C401C02F00F028A5C97
:102A90002A54401C5B1CB342F0DB00212954284619
:102AA000E8E70000303132333435363738394142C7
:102AB00043444546000000002DE9FF4F8DB000243F
:102AC0001F4692468B464FF0FF392646DDF8688058
:102AD00001F036FB41463846FFF76FFBA6E0322097
:102AE00001F01DF801F02CFB05460FE001F028FB7A
:102AF00005469DF8300018B1A04501DD3855641C2D
:102B00000CA94E4801F03AF80028EFD001F018FB6C
:102B100005F10A01884203D801F012FBA842EFD266
:102B200059463846FFF754FB00287DD044A10D9844
:102B3000FFF74EFB454C10B3182101A8FFF73DFBF2
:102B400001AA43A13846FFF773FB01A8FFF752FB28
:102B5000142805D3142201A9A01CFFF715FB03E0DC
:102B600001A9A01CFFF75AFB01F0B0FA0146374853
:102B70007C23801C0090394A39A004F097FE41A1C3
:102B80000D98FFF725FB20B3142107A8FFF715FBCD
:102B900007AA3FA13846FFF74BFB07A8FFF72AFB20
:102BA0002A4D16350C2807D3079844F8160F0898B5
:102BB00060600998A06003E007A92846FFF72EFB94
:102BC00001F084FA01468B23244A34A0009504F0D6
:102BD0006DFE3BA10D98FFF7FBFAB0B1142101A8DF
:102BE000FFF7EBFA01AA39A13846FFF721FB01A94B
:102BF000394802F08DFF01F069FA014601A8009002
:102C00009523164A35A004F051FE3CA10D98FFF71C
:102C1000DFFA28B1304A3CA1121F3846FFF708FB03
:102C20004FF0000905E0FFE73236B6B25645FFF433
:102C300056AF11B04846BDE8F08F0000CC09002027
:102C400041542B564552533F0000000024070020FA
:102C50002B564552533A202573000000BF890008C7
:102C60005B5831304B422025735D2025733A28256F
:102C7000642920626C7565207665723A25732E0A88
:102C80000000000041542B4E414D453F0000000024
:102C90002B4E414D453A2025730000005B583130E2
:102CA0004B422025735D2025733A28256429206234
:102CB0006C7565206E616D653A25732E0A00000003
:102CC00041542B475749443F000000002B475749C8
:102CD000443A202573000000340000205B58313056
:102CE0004B422025735D2025733A282564292067EF
:102CF000776D61633A25732E0A00000041542B441E
:102D00004556543F000000002B444556543A2025B8
:102D1000640000002DE9F04140F2115005F03CFB49
:102D200040F2125005F038FB4FF4807401224FF04E
:102D3000904523461146284605F0E4F82346032231
:102D40000021284605F002F9184E012223461146BB
:102D5000304605F0D7F8234603220021304605F01F
:102D6000F5F8E7013B4601220021304605F0CAF89C
:102D70003B4603220021304605F0E8F867000122B7
:102D80003B461146304605F0BDF83B460322002184
:102D9000304605F0DBF82146284605F0ACF8214620
:102DA0003046BDE8F04105F0A6B800000004004838
:102DB0002DE9F043DFF878900F4605464FF4007890
:102DC000A1B0164601244146484605F092F800F0AD
:102DD000A8FF022000F0A3FE01F078F90146AD2320
:102DE000144A15A0009504F061FD2846FFF702FA89
:102DF00082B22946002004F0E5FC57B14EB1802094
:102E0000009001AB324639462846FFF755FE40B1E7
:102E100008E04146484605F06EF8002021B0BDE8C4
:102E2000F08300244146484605F065F82046F5E762
:102E300000040048CC8900085B5831304B42202503
:102E4000735D2025733A2825642920B7A2CBCDC312
:102E5000FCC1EE5B25735D2E0A0000002DE9F041F8
:102E60000546002440F6B8364FF47A770FE0324634
:102E700009A10AA0FFF79CFF00280BD0012D04DD5B
:102E800000F04FFF384600F04AFE641CE4B2AC424A
:102E9000EDDB0020BDE8F0814F4B000041540D0AEE
:102EA0000000000070B5394D0026394C68780028C4
:102EB00034D194F86900002830D101F041F9216F34
:102EC000401A4EF66021884228D301F039F9206774
:102ED0000120FFF7C3FFC8B101F0F8F801464FF435
:102EE00024732C4A2CA004F0E1FC01F029F9A0F590
:102EF00043405038206701206870A52084F8750091
:102F000094F87400401C84F8740007E084F875603D
:102F10006E7084F8746029A004F0C8FC2B484078D7
:102F2000C0B994F874000F2814D36878012811D11F
:102F300000F060FB70B901F0C9F8014640F2A62329
:102F4000144A23A004F0B2FC01F0FAF8A0F55640B0
:102F5000D838206794F86900012816D101F0F0F8FC
:102F6000E16E401A234988420FD901F0E9F8E06682
:102F700084F8696001F0AAF8BDE8704001464FF49A
:102F80002C73044A1CA004F091BC70BD48000020C2
:102F90004C0700209C8A00085B5831304B422025AA
:102FA000735D2025733A2825642920BCECB2E2C069
:102FB000B6D1C0B4EDCEF32E0A000000C0B6D1C029
:102FC000BCECB2E2B3C9B9A62E0A00002407002067
:102FD0005B5831304B422025735D2025733A2825FC
:102FE000642920B8B4CEBBC0B6D1C0204F4B2E0A46
:102FF00000000000C0D401005B5831304B42202556
:10300000735D2025733A2825642920B4F2BFAABC39
:10301000ECB2E2C0B6D1C0B1EAD6BE2E0A000000C2
:1030200001214FF4E132002004F08AB810B5FFF717
:1030300071FEBDE81040FFF7F3BF000010B501F0CE
:1030400065FA00F06EFE01224FF47A7421461046B4
:1030500003F05AFE02F0D2FE02F08AFC204600F095
:103060005EFD04F0A9FB02F00BFA204600F057FDCC
:1030700001F09CFA02F0ECFD08A004F017FC03F04C
:1030800021FEFFF7D3FF00F0BDFD08A004F00EFC09
:10309000BDE8104009A004F009BC0000557361723E
:1030A00074496E6974204F4B210D0A000D0A2042AD
:1030B0007370496E6974206F6B0A00000A3D3D3DD4
:1030C0003D3D3D3D3D3D3D3D3D3D3D3D3D3D3D3D30
:1030D0003D3D3D3D3D3D3D3D3D3D3D3D3D3D3D3D20
:1030E0003D3D3D3D3D3D3D3D3D3D3D3D3D3D3D3D10
:1030F0003D3D3D3D3D3D3D3D0A0A0A0070B5002481
:1031000000F000FB1C49012040F6B83548701B490F
:103110004FF47A7648702A4619A11AA0FFF748FEA4
:1031200000281BD000F0D2FF0146E823174A18A060
:1031300004F0BCFB00F0F5FD304600F0F0FC641C30
:10314000E4B2022CE7D300F0C1FF0146EC230F4AA2
:103150001AA004F0ABFB4FF0FF3070BD00F0B6FFDB
:103160000146E423094A1FA004F0A0FB2649087881
:10317000401C0870002070BD24070020480000207B
:103180004F4B000041540D0A00000000E789000881
:103190005B5831304B422025735D2025733A28253A
:1031A000642920626C7565207265736574206661A0
:1031B000696C2C72657472792E0A00005B5831308C
:1031C0004B422025735D2025733A2825642920620F
:1031D0006C7565207265736574206661696C2E0A72
:1031E000000000005B5831304B422025735D2025E4
:1031F000733A2825642920626C75652074657374A0
:10320000206F6B2E0A000000240000202DE9F04101
:10321000002440F6B8354FF49C764FF4FA672A46FE
:1032200017A118A0FFF7C4FDD8B100F04FFF014669
:103230003346174A17A004F039FB384600F06FFCFC
:10324000641CE4B2022CEAD300F040FF014640F2D5
:103250003B130F4A19A004F029FB4FF0FF30BDE8E3
:10326000F08100F033FF01464FF49A73084A1CA026
:1032700004F01CFB23490878401C08700020EEE78E
:103280004F4B000041542B4E414D453F0D0A00006D
:10329000248A00085B5831304B422025735D20257D
:1032A000733A2825642920BBF1C8A1C3FBD7D6CA2D
:1032B000A7B0DC2C72657472792E0A005B5831302D
:1032C0004B422025735D2025733A2825642920BBB5
:1032D000F1C8A1C3FBD7D6CAA7B0DC2E0A000000F4
:1032E0005B5831304B422025735D2025733A2825E9
:1032F000642920BBF1C8A1C3FBD7D6206F6B2E0A6F
:1033000000000000240000202DE9F041002440F6D8
:10331000B8354FF489764FF4FA672A4617A118A0FA
:10332000FFF746FDD8B100F0D1FE01463346174AFB
:1033300017A004F0BBFA384600F0F1FB641CE4B2BD
:10334000022CEAD300F0C2FE014640F215130F4AE8
:1033500019A004F0ABFA4FF0FF30BDE8F08100F0A7
:10336000B5FE01464FF48773084A1BA004F09EFA8D
:1033700021490878401C08700020EEE74F4B000000
:1033800041542B4543484F3D310D0A00FD8900084B
:103390005B5831304B422025735D2025733A282538
:1033A000642920C0B6D1C0BBD8CFD4CAA7B0DC2C0A
:1033B00072657472792E0A005B5831304B422025B9
:1033C000735D2025733A2825642920BBD8CFD4CA41
:1033D000A7B0DC2E0A0000005B5831304B4220259C
:1033E000735D2025733A2825642920BBD8CFD420CB
:1033F0006F6B2E0A00000000240000202DE9F04130
:10340000002440F6B8354FF4A6764FF4FA672A4602
:1034100017A118A0FFF7CCFCD8B100F057FE014669
:103420003346174A17A004F041FA384600F077FBFC
:10343000641CE4B2022CEAD300F048FE014640F2DC
:103440004F130F4A19A004F031FA4FF0FF30BDE8D6
:10345000F08100F03BFE01464FF4A473084A1CA023
:1034600004F024FA23490878401C08700020EEE795
:103470004F4B000041542B504149523D310D0A0041
:10348000378A00085B5831304B422025735D202578
:10349000733A2825642920C0B6D1C0C6A5C5E4CAA0
:1034A000A7B0DC2C72657472792E0A005B5831303B
:1034B0004B422025735D2025733A2825642920C0BE
:1034C000B6D1C0C6A5C5E4CAA7B0DC2E0A0000006C
:1034D0005B5831304B422025735D2025733A2825F7
:1034E000642920C0B6D1C0C6A5C5E4B3C9B9A62E0B
:1034F0000A000000240000202DE9F041002440F6DD
:10350000B83540F225164FF4FA672A4617A118A0DD
:10351000FFF74EFCD8B100F0D9FD01463346174AFB
:1035200017A004F0C3F9384600F0F9FA641CE4B2BD
:10353000022CEAD300F0CAFD01464FF494730F4AFF
:1035400019A004F0B3F94FF0FF30BDE8F08100F0AE
:10355000BDFD014640F22113084A1CA004F0A6F963
:1035600023490878401C08700020EEE74F4B00000C
:1035700041542B564552533F0D0A0000118A000852
:103580005B5831304B422025735D2025733A282546
:10359000642920BBF1C8A1B0E6B1BECAA7B0DC2C3B
:1035A00072657472792E0A005B5831304B422025C7
:1035B000735D2025733A2825642920BBF1C8A1B08A
:1035C000E6B1BECAA7B0DC2E0A0000005B5831305D
:1035D0004B422025735D2025733A2825642920BBA2
:1035E000F1C8A1B0E6B1BE206F6B2E0A000000004A
:1035F000240000202DE9F04100252C4600F0A0FD1C
:103600002C4AA5216F1E82F875104EF660214618CF
:1036100049E000F09BFD052D39D2DFE805F0030EEF
:1036200013181E00FFF76AFD28B1200000F1010405
:10363000E4B23CD134E001250DE0FFF765FE78B936
:10364000022508E0FFF758FF50B9032503E0FFF714
:10365000DDFD28B90425002422E0FFF7CFFE28B1C4
:103660002046641CE4B20A2821D819E0124900203F
:1036700048701249487000F029FD014640F243238A
:103680000F4A10A004F012F90020BDE8F08100F00C
:103690001DFD014640F24F23094A13A004F006F92C
:1036A000642000F03CFA00F04BFDB042B1D938463E
:1036B000EBE700004C070020240700204800002012
:1036C0008E8A00085B5831304B422025735D2025DF
:1036D000733A2825642920C0B6D1C0B3F5CABCBB53
:1036E000AFB3C9B9A62E0A005B5831304B42202532
:1036F000735D2025733A2825642920B4EDCEF32E7E
:103700000A00000070B54FF480744FF090452146D8
:10371000284604F0EEFB00F004FB4FF4FA6000F0E2
:10372000FEF92146284604F0E6FB00F0FAFABDE86F
:1037300070404FF47A7000F0F2B900007CB50A399D
:103740000478421C8DB2402D0BD900F0BFFCCDE9AE
:10375000005401469523104A10A004F0A7F8012058
:103760007CBD1948C16A01290ED0016BA1420BD161
:1037700000F0ACFCCDE9005401469C23064A1348F6
:1037800004F094F800207CBD046329461046BDE88F
:103790007C4003F05DBE0000208900085B5831309A
:1037A0004B422025735D2025733A28256429206C1F
:1037B000656E205B25645D2C205B25645D2C657245
:1037C000726F72210A0000004C0700206C8E000806
:1037D00070B5A0B00E46054680216846FEF7EDFCA8
:1037E0006C468DF80850102231460DF10900FEF7A5
:1037F000CBFC02231A4611212046FFF7EBF820B03C
:10380000002070BD30B5A1B00D4604468021684649
:10381000FEF7D3FC8DF808402968CDF809106846FA
:10382000012302220521FFF7D5F821B0002030BD89
:10383000FEB5214D002495F8680001281BD102AA8D
:10384000694601A803F07AFB002814D16B461B4A95
:10385000022101F059FA20B9012469462046FFF7F8
:10386000D1FF03F085FB164F00262CB100F068FC59
:10387000386085F86860FEBD02AA694601A803F0B9
:103880005DFB0028F7D16B460C4A0C2101F03CFA95
:1038900070B10CA004F00AF869460220FFF7B2FFED
:1038A00000F04EFC386085F8686003F061FBFEBDF7
:1038B00069460120F2E700004C07002018000020B4
:1038C00000000020B7C7C3DCD4BFBFA80A000000B7
:1038D00070B50D46044601F0D1FD20EA05012046F1
:1038E000BDE8704003F0DDBF10B580210A2001F073
:1038F000F3FF0A2001F0C2FD002800D0012010BD16
:103900002DE9FC476B4C00F01BFC07464FF0080804
:103910000025694EC0E000F004FADFF8A091B4E0A1
:1039200000F0FFF900F00CFC07463078092837D288
:10393000DFE800F0050D183D4D5B6A7F91009DF8B2
:103940000400AA28EBD12070012070805AE09DF875
:103950000400552824D1708855212154401C7080C2
:1039600002204FE07088022802D0032804D01AE019
:103970009DF80410B18016E0B1889DF8042041EA5A
:103980000221B180757005290BD200F09FFB014622
:10399000B088009040F29D33494A4AA003F086FF68
:1039A00072E0032131709DF8041021543EE09DF82F
:1039B0000410012968D17078401C707070882154FF
:1039C000B188491EB180401C708004201AE07078D4
:1039D0009DF804100844707070882154B188491E05
:1039E000B180401C708005200CE070789DF80410B8
:1039F0000844707070882154B188491EB180401C01
:103A000070800620307040E070789DF80410084403
:103A1000707070882154B188491E0904090CB18066
:103A200002D00721317001E086F80080401C7080D0
:103A30002BE070789DF80410084470707088215451
:103A4000401C7080B088401E80B2B08001281CD11C
:103A500086F8008019E070889DF804102154401CFD
:103A600081B271809DF804007278904203D12046A3
:103A700001F0D0F808E000F029FB014640F2F233F3
:103A80000F4A1AA003F012FF357001A9484600F052
:103A900075F800283FF444AF00F052FB07F10A012B
:103AA000884204D800F04CFBB842BFF434AFBDE804
:103AB000FC870000230100201E000020D809002000
:103AC0009D8900085B5831304B422025735D2025CD
:103AD000733A28256429206C656E6774683D2564F7
:103AE0002C6572726F722E0A000000005B58313034
:103AF0004B422025735D2025733A2825642920BD7B
:103B0000D3CAD578313070B5C4CAFDBEDDD0A3D1DB
:103B1000E9B4EDCEF32E0A00642000F00DB870B5C4
:103B2000054600244FF47A7603E0304600F004F8AE
:103B3000641CAC42F9D370BD70B54FF0E025002194
:103B40006C69094AAB6912785043AA699A42FCD061
:103B500002D2A3EB020302E0A4EB020633441944B1
:103B600013468142F1D370BD9C0000200028FDD097
:103B70000021C18001814181084670474289038943
:103B80009A4213D0028903681344521C02811A78A6
:103B90000A7081880289914201D800210181C1887F
:103BA00011B1C188491EC180002070474FF0FF301D
:103BB000704700234360836001608280184670472D
:103BC000428903899A42428901D283881A4403892F
:103BD000D21A8388521C934210D942890368134435
:103BE000521C42811970C188491CC1808188428958
:103BF000914201D800214181002070474FF0FF30F1
:103C0000704700002DE9F0410024144D012640F2D8
:103C10000E2700F086F800F06FF880B100F081F810
:103C2000641CE4B2AE7000F051FA01463B460C4A07
:103C30000CA003F03BFE322CEBD3BDE8F08100F08A
:103C400070F80020A87000F041FABDE8F04101468C
:103C500040F20523024A0EA003F028BE48000020CF
:103C6000F58A00085B5831304B422025735D2025D2
:103C7000733A2825642920464D31373558585F4915
:103C80006E6974206572726F722E0D0A000000005A
:103C90005B5831304B422025735D2025733A28252F
:103CA000642920464D31373558585F496E69742074
:103CB0004F4B2E0D0A00000010B50E4C402120463F
:103CC00004F017F90A20FFF72AFF00F02AF8402134
:103CD000204604F010F90A20FFF721FF00F021F838
:103CE000012001F0CBFB202801D0012010BD0020D5
:103CF00010BD00000014004810B500F012F801F0EB
:103D00006FFEFFF7D9FF10B14FF0FF3010BD00F08C
:103D100008F8002001F00BFA032001F0E9FD002073
:103D200010BD04F0B3B810B5002303E010F8014B48
:103D3000CC545B1C9342F9D3002010BD0A460146C7
:103D40000148FFF7F0BF000000F001082DE9F05F27
:103D5000154689468346FFF7E4FF04F05DF8ABF1B2
:103D60000060C0F30906C6F580644FEA9028A542BA
:103D700000D82C46FFF7D5FF4FF0006000EB8820FD
:103D800082464FF480622449FFF7CDFF00270EE002
:103D90002148F119405CFF2808D000F097F901464E
:103DA0007D231E4A1EA003F081FD02E07F1CA74276
:103DB000EED3A74214D2504603F0F0FF342003F0B4
:103DC000DFFF0020144A04E019F800108319401C9A
:103DD000D154A042F8D350464FF480720E4906E009
:103DE000A0074FEA940200D0521C4946584600F002
:103DF00059F8A5420BD0281BA144A344002685B244
:103E00004FF4806408F10108A542B3D8B1E703F08C
:103E1000BDFF0020BDE8F09F23030020C98A0008F1
:103E20005B5831304B422025735D2025733A28259D
:103E3000642920D0E8D2AAB2C1B3FD2E0A00000046
:103E40002DE9FC410024124D0E46074600940194D2
:103E5000324639462846FFF779FF08226946284648
:103E6000FFF761FF324639466846FEF7CAF918B1D6
:103E7000641C052CECD301E0052C06D305A003F04F
:103E800015FD4FF0FF30BDE8FC810020FBE700008E
:103E900000F00108D0B4666C617368B4EDCEF32114
:103EA000200D0A002DE9F84390468946064603F0A6
:103EB000B3FF00254FF47A771AE00024342003F092
:103EC0005FFF59F82510304603F0B6FFB8B1012066
:103ED000FFF725FE2046641CB842F8D900F0F6F83A
:103EE00001464123074A08A0009603F0DFFC6D1C41
:103EF0004545E2D303F04AFF0020BDE8F883361DB4
:103F0000F5E70000BA8A00085B5831304B422025A3
:103F1000735D2025733A2825642920D0B4666C612E
:103F20007368B3ACCAB12C205B307825785D2C2047
:103F3000B4EDCEF3212121200A0000001FB5014677
:103F40002D484078002813D1C87901F108040128D0
:103F50000FD0022820D003280AD0042834D000F043
:103F6000B5F801464FF4D073244A25A003F09EFC17
:103F70001FBD00F0ABF801464FF4B3731F4A2AA0EF
:103F8000009403F093FC204601F014FC10B10122D0
:103F9000012128E00022FBE700F098F8014640F2FA
:103FA0007113164A2AA0009403F080FC05222146D2
:103FB00001A8FEF74FFD01A801F028FC10B1012275
:103FC000022110E00022FBE74888032811D3B4F84F
:103FD00001202078E11C01F0A7FA40B126A003F0EF
:103FE00065FC01220421032001F028FB1FBD0022F3
:103FF000F8E72BA0F3E700004800002045890008FF
:104000005B5831304B422025735D2025733A2825BB
:104010006429205B476574426C7565496E666F2044
:10402000B4EDCEF35D0A00005B5831304B422025E1
:10403000735D2025733A2825642920CAD5B5BDC0F3
:10404000B6D1C0C3FBD7D65B25735D2E0A00000036
:104050005B5831304B422025735D2025733A28256B
:10406000642920C9E8D6C3CDF8B9D8B5D8D6B75B8E
:1040700025735D2E0A000000476574426C75654922
:104080006E666F20B8F878313070B5C4C0B6D1C054
:10409000CFECD3A6B0FC2CCAA7B0DC0A000000000D
:1040A000476574426C7565496E666F20B8F8783163
:1040B0003070B5C4C0B6D1C0CFECD3A6B0FCB4ED5F
:1040C000CEF32C20B4EDCEF30A0000001FB50D484E
:1040D00004F098F90B48443890F8461090F84A409C
:1040E00090F8493090F848208DE81E0090F845304F
:1040F00090F8442004A10B4803F0E8FB04B0094801
:1041000010BD000090070020253278253032782538
:1041100030327820253032783A253032783A2530DE
:1041200032780000FC0A0020034610B50020024649
:1041300003E09C5C521C2044C0B28A42F9D310BDFB
:1041400001488068704700003C000020064B4FF497
:1041500000411A78501C187004481AB100221A70D5
:1041600003F0C9BE03F0C5BEA4000020000800484B
:10417000104810B590F875000F4CA52812D0FFF725
:10418000DFFF616801F5FA71884204D2FFF7D8FFBA
:10419000616888420CD2FFF7D3FF6060BDE8104031
:1041A000FFF7D4BFFFF7CCFF616801F6B831EBE74A
:1041B00010BD00004C070020A40000200A21B0FB25
:1041C000F1F201FB1202B0FBF1F002EB0010C0B201
:1041D000704700002DE9FE4F4FF0AB094FF001088A
:1041E0004FF0040A4FF0060B6E4D00266E4CCFE0E8
:1041F000607808287ED2DFE800F00410385265921B
:10420000A2BE9DF80800AB28F1D184F8018085F8A2
:1042100000904846A4F8048019E09DF80800CD28D5
:104220000CD0AB2815D06670FFF750FF01464FF455
:1042300047735E4A5EA003F039FBA9E0022060707C
:10424000CD206870A088401CA080A078CD30A070E0
:104250009EE085F80090A4F8048084F80290FFF7AF
:1042600035FF014640F21733E3E7A0889DF80810B8
:104270002954401CA080E68041B103206070A178E1
:104280009DF808000144A170E07081E0524F84F86D
:1042900001A087F86980FFF753FFF866EFE7A08871
:1042A0009DF808102954401CA080A0780844A070F4
:1042B000E088401C80B2E080062869D1E68084F85E
:1042C00001A065E0A0889DF808102954401C80B228
:1042D000A080A2781144A170E188491C89B2E180D4
:1042E000022955D1284430F8020CE0802081FF28B3
:1042F0000ED900E04BE06670FFF7E8FE0146E0886B
:10430000009040F24533294A34A003F0CFFA3FE051
:1043100010B1052060703BE084F801B038E0A0885F
:104320009DF808102954401CA080A0780844A07073
:10433000E088401E0004000CE08029D1ECE7A08852
:104340009DF808102954401CA080A078814203D118
:1043500007206070E6801BE0FFF7B8FE01469DF87D
:104360000820A078CDE9000240F263330F4A2448C8
:1043700003F09CFA0BE0E088401C80B2E080022849
:1043800006D1E07818B92189064802F003FD66706D
:1043900002A91C48FFF7F2FB00283FF429AFBDE853
:1043A000FE8F00002302002024000020AC8A0008B9
:1043B0005B5831304B422025735D2025733A282508
:1043C00064292063616E206E6F742066696E6420BC
:1043D00063642E0A000000004C0700205B58313057
:1043E0004B422025735D2025733A28256429206CD3
:1043F000656E3D25642C6572726F722E0A00000096
:104400004C8F0008CC090020002909D1054A00285A
:104410004FF00201104601D003F06DBD03F069BDFD
:10442000704700000004004810B540F2115003F03E
:10443000B3FF40F2125003F0AFFF40F2135003F00D
:10444000ABFF40F2145003F0A7FF40F2165003F008
:10445000A3FF4FF09041086860F0705008600020A2
:10446000C8600B4A411E1160094A0C321060094AAB
:104470001160084A0C321060074A1160064A0C327B
:104480001060064A116005490C31086010BD00003B
:104490000004004800080048000C004800140048D0
:1044A00038B50446FF280CD00B2C0AD800F01CF8B5
:1044B000FFF70CFE01469423024A03A0009403F088
:1044C000F5F938BD1E8B00085B5831304B42202572
:1044D000735D2025733A28256429205B6B65793A42
:1044E0002025645D0D0A000010B5A0B004468021AF
:1044F0006846FDF762FE012368468DF808401A46BB
:104500001946FEF767FA20B0002010BD70B540F2E2
:10451000135003F041FF0A4D4FF40044012223469B
:104520001146284603F0EEFC2346032200212846CC
:1045300003F00CFD21462846BDE8704003F0D9BCCD
:104540000008004813B50C466846FDF7D5FF017E0C
:104550002170017D64396170017C491CA170017B6F
:10456000E170017A08312171017961710078A071DF
:1045700004E018382071E078401CE0702079182899
:10458000F7D204E03C3860712079401C20716079DA
:104590003C28F7D204E03C38A0716079401C60717F
:1045A000A0793C28F7D200201CBD00002DE9FC4773
:1045B00027213548FDF701FE344800240821046016
:1045C00004710830FFF7BAFB2F4880212830FDF72F
:1045D000F4FD2D4EDFF8B8A02836012586F8685086
:1045E000504601F03FF9294FDFF8A8800837A7F1BE
:1045F0001409396841450BD127A003F057F9FFF79B
:1046000065FD01464723344A34A003F04FF916E014
:104610003AA003F04BF9FFF759FD01464C232E4A0F
:1046200046A003F043F9504601F01CF91748C9F8B9
:10463000184008210830C7F80080FFF701FCFFF799
:1046400045FD01465323244A45A0009503F02EF969
:10465000FFF73CFD014655231F4A4EA0009503F08D
:1046600025F9FFF733FD014657A25AA0CDE9000214
:104670005723194A5AA003F019F903480570D9F8CD
:104680000800B067BDE8FC87240700204800002030
:10469000FFF3255CAE5634120A0A0A3D3D3D3D3D0E
:1046A0003D3D3D3D3D3D3D3D3D3D3D3D3D3D3D3D3A
:1046B0003D3D3D3D3D3D3D3D3D3D3D3D3D3D3D3D2A
:1046C0003D3D3D3D3D3D3D3D3D3D3D3D3D3D3D3D1A
:1046D0003D3D3D3D3D3D0A00D48A00085B583130E8
:1046E0004B422025735D2025733A28256429200D2F
:1046F000C6F4B6AF4170700A000000000A0A0A2A28
:104700002A2A2A2A2A2A2A2A2A2A2A2A2A2A2A2A09
:104710002A2A2A2A2A2A2A2A2A2A2A2A2A2A2A2AF9
:104720002A2A2A2A2A2A2A2A2A2A2A2A2A2A2A2AE9
:104730002A2A2A2A2A2A2A2A2A2A0A005B583130B7
:104740004B422025735D2025733A28256429200DCE
:10475000B3F5B4CEC6F4B6AF4170700A00000000E5
:104760005B5831304B422025735D2025733A282554
:104770006429200A20C9E8B1B8B0E6B1BEBAC53A8A
:104780002066775F76657273696F6E203D202564C1
:104790002E200A005B5831304B422025735D2025C6
:1047A000733A28256429200A20B2E2CAD4B0E6B1BF
:1047B000BEBAC53A2076657273696F6E203D2025BA
:1047C000642E200A0000000031313A30333A34318F
:1047D000000000004665622031342032303139005B
:1047E0005B5831304B422025735D2025733A2825D4
:1047F0006429200A20CEC4BCFEB1E0D2EBCAB1BC11
:10480000E42C20D4C2C8D5C4EA20257320CAB1B78D
:10481000D6C3EB2573200A001CB50446C079304B83
:10482000062855D2DFE800F05403100F3F4B2D4906
:1048300001200870FFF74AFC01464FF498732A4A9A
:104840002AA003F033F81CBD00220221104600F01C
:10485000F5FE207A01280FD0022818D00328F2D1C3
:10486000FFF734FC01464FF4A2731F4A29A003F05E
:104870001DF8FEF7C3FD1CBDFFF728FC014640F202
:104880003913194A2DA003F011F800F06BFBFFF764
:104890001DFC01464FF49F73134A33A003F006F842
:1048A000FEF7A8FE1CBD082204F108011846FFF718
:1048B0004DFA00220421104600F0C0FE1CBD082263
:1048C00069461846FFF72FFA684600F05BFB1CBDEF
:1048D000FFF7FCFB01464FF4AB73034A2CA0B0E793
:1048E00000F8010804000020328900085B583130CC
:1048F0004B422025735D2025733A2825642920BD6D
:10490000D3CAD5B5BDBBF9B1BED0C5CFA2D3A6B46D
:10491000F02E0A005B5831304B422025735D202574
:10492000733A2825642920C7EBC7F3B4F2BFAAC0A5
:10493000B6D1C0B9E3B2A52E0A0000005B583130F1
:104940004B422025735D2025733A2825642920CA0F
:10495000D5B5BDD6F7B0E5B5C4B8B4CEBBCFB5CDEF
:10496000B3C7EBC7F32E0A005B5831304B4220250A
:10497000735D2025733A2825642920C7EBC7F3B857
:10498000B4CEBBC0B6D1C0C4A3BFE92E0A0000009C
:104990005B5831304B422025735D2025733A282522
:1049A000642920B4EDCEF32E0A000000F0B589B0E2
:1049B000044600200090019002900390E0790128C5
:1049C0000ED0022812D003285DD0FFF77FFB0146EE
:1049D00040F2DA234D4A4EA002F068FF09B0F0BD64
:1049E000207A0028FAD002F0C3FAF7E76088082896
:1049F000F4D3A0680490A089ADF81400062204A99D
:104A00004AA000F07DFCA57BE47B2946224649A014
:104A100002F04CFF08AA06A907A802F08FFA4E4F31
:104A2000012648B102F0A4FA69460120FEF7D0FE43
:104A300087F8686049A01EE006AB04AA294600205A
:104A400000F062F938B102F093FA69460120FEF7EE
:104A5000BFFE45A00FE004EB8500C0B2694600F040
:104A600097F958B102F084FA69460120FEF7B0FECA
:104A700087F8686040A002F019FFAFE769460020A0
:104A8000FEF7A6FEAFE7A0680490A089ADF8140079
:104A9000A67BE07B00EB8600C5B202F069FA08AAAB
:104AA00006A907A802F04AFA30B906AB04AA3146B3
:104AB000002000F029F940B133A002F0F7FE02F027
:104AC00057FA012002F0CEFE88E704F11006082D07
:104AD0000BD03146284600F079F9A0B12EA002F0A3
:104AE000E5FE012002F0BEFE7DE70F213046FFF714
:104AF0001BFBE17F8842C5D13146082000F066F9F2
:104B000008B129A0EBE70020ECE700008B89000842
:104B10005B5831304B422025735D2025733A2825A0
:104B2000642920B4EDCEF32E0A0000006B657941B4
:104B300000000000D1B0BFA82C20736563746F72B1
:104B4000203D2025642C20626C6F636B203D202566
:104B500064200D0A000000004C070020D1B0BFA85F
:104B6000CAA7B0DC2E0D0A00C3DCC2EBC8CFD6A4A6
:104B7000CAA7B0DC0D0A0000B6C1CAFDBEDDBFE9A0
:104B8000CAA7B0DC2E0D0A00575249544520666171
:104B9000696C65642E0D0A00D0B4BFA8BFE978CA5D
:104BA000A7B0DC0D0A000000D0B4BFA8BFE938CA26
:104BB000A7B0DC0D0A00000010B5154C207888B9AC
:104BC000FFF7BEFA616841F288321144884204D28C
:104BD000FFF7B6FA6168884204D2FFF7B1FA606065
:104BE00000F0B8FFFFF7ACFAA16847F23052114469
:104BF000884204D2FFF7A4FAA168884206D2FFF7E0
:104C00009FFAA060BDE8104000F0BEBF10BD0000DC
:104C10000400002070B50D460446FFF782F8A27923
:104C2000052A1ED2DFE802F0031D090F15002946F0
:104C30002046BDE87040FFF7EFBD29462046BDE89D
:104C40007040FFF7B3BE29462046BDE87040FFF72D
:104C500075B9FFF766F829462046BDE8704000F0B8
:104C600001B870BD70B50546C07900240E46012814
:104C700006D0022825D12846BDE8704000F01ABDB4
:104C80000A4629460FA000F03BFB3146284602F0B9
:104C90003FFB70B1FFF71AFA014640F21E230F4A9C
:104CA0000FA002F003FE01242046BDE8704002F090
:104CB0000DBB052000F0EAFA1249A52081F82B006F
:104CC000F2E770BD454E554D5F5550475241444542
:104CD0005F52455155455354000000007A89000841
:104CE0005B5831304B422025735D2025733A2825CF
:104CF000642920B2BBBFC9D2D4C9FDBCB6212121D1
:104D00000A0000004C07002000B587B010B1012850
:104D100002D004E0602000E061208DF804008800EB
:104D20008DF8050010788DF8060050788DF8070092
:104D300090788DF80800D0788DF8090010798DF8FA
:104D40000A0050798DF80B0018788DF80C0058780F
:104D50008DF80D0098788DF80E00D8788DF80F003A
:104D6000012000F06AFAFEF7BFFD05A8009004AB31
:104D70000C2201A90E2000F01CF938B9082000F01F
:104D80007DFB000702D5002007B000BD0120FBE736
:104D90003EB504460D46012000F04FFA30228DF852
:104DA00004208DF80540FEF79FFD02A800902B46D9
:104DB000022201A90C2000F0FCF810B9029880280A
:104DC00001D001203EBD00203EBD000030B50446AC
:104DD0008BB00D46012000F030FAA0218DF81410A0
:104DE0008DF8154009AC01AB022205A90C200094F6
:104DF00000F0DFF80998042801D0012000E000202D
:104E00009DF8041001F00F010A2901D0012200E0F1
:104E10000022104307D0FFF759F9014640F2EB1387
:104E2000144A15A021E0052000F007FA01AB10227A
:104E300029460C20009400F0BCF80998042801D001
:104E4000012000E000209DF8041001F00F010A2964
:104E500001D0012100E00021084309D0FFF736F915
:104E600001464FF4FA73034A0FA002F01FFD012020
:104E70000BB030BD048B00085B5831304B4220250D
:104E8000735D2025733A28256429204D6966617277
:104E9000655F426C6F636B777269746520B4EDCEA9
:104EA000F3313A0A000000005B5831304B422025B4
:104EB000735D2025733A28256429204D6966617247
:104EC000655F426C6F636B777269746520B4EDCE79
:104ED000F3323A0A00000000642000F085FFFBE78F
:104EE000704710B5FEF71DFFBDE81040FEF7A0BCEF
:104EF00070B5FFF725F9174C174D216864318842CA
:104F000004D2FFF71DF9216888420DD2134880783A
:104F100050B9FFF715F9206095F82B00A52801D0AE
:104F2000FFF7DFFFFEF7FDFEFFF70AF90C4C41F239
:104F3000883221681144884204D2FFF701F92168C0
:104F4000884205D2FFF7FCF82060012085F8680050
:104F500070BD0000140000204C0700204800002015
:104F600000000020BFF34F8F04480168044A01F499
:104F7000E06111430160BFF34F8FFEE70CED00E0ED
:104F80000400FA0530B5A1B0044680216846FDF75B
:104F900014F96D46FEF7C5FE206802906068039024
:104FA0000523002208212846FDF714FD21B000202A
:104FB00030BD2DE9F047994614468846074600263D
:104FC000DDF820A0FEF790FCFEF7ABFE20210B20C1
:104FD00002F067FC7F21042002F063FC0E2F07D152
:104FE0004146204602F050FC80210D2000F074FC68
:104FF00080212A2000F070FC3946012002F051FC8B
:10500000FEF78FFE042000F039FA0546C00703D0F2
:1050100020250C2F5CD076E00E2F11D0042F12D05B
:105020000C2FEDD1680739D5C4B3202C414629D9BE
:10503000202002F029FC203CE4B208F1200825E001
:10504000E806DDD560E0680717D5B4B1202C4146ED
:1050500004D2204602F018FC002406E0202002F0D2
:1050600013FC203CE4B208F1200880210D2000F060
:1050700033FC0421084602F014FC6806C0D5002C5D
:10508000BED141E0204602F0FFFB002480210D202C
:1050900000F022FC0421084602F003FC280712D588
:1050A000680610D57CB90A2000F0E8F920280AD952
:1050B00009EB0601202000F0D3F92036F6B20821D2
:1050C000042002F0EEFBA8069AD5002C98D100250A
:1050D0000A2000F0D3F907460C2000F0CFF900F0C9
:1050E00007040FB904B1012709EB0601384600F0A7
:1050F000B7F9F019C0B21CB1C0000838011900E0BE
:10510000C100CAF800101DB9062000F0B7F9054625
:1051100080210C2000F0E0FB2021012002F0C1FBE7
:1051200080210D20FEF7D4FB2846BDE8F08710B59E
:105130000446FEF7F6FD24B1012C45D0022C5DD0CB
:105140005AE010210C2000F0C7FB4021152000F090
:10515000C3FB0021122002F0A4FB0021132002F067
:10516000A0FB8021392000F0B7FB01213C20FEF795
:10517000AFFB07213D20FEF7ABFB03213E20FEF7EE
:10518000A7FBFF21332002F08CFB0721322002F025
:1051900088FBF121272002F084FB3F21282002F028
:1051A00080FB0121292002F07CFB4021262002F017
:1051B00078FB0D21192002F074FB8421182002F0E5
:1051C00070FB4021362015E010210C2002F069FB15
:1051D0008321122002F065FB8321132002F061FB82
:1051E000F421272002F05DFBF421232002F059FB7B
:1051F000002120E002F055FB002010BD10210C2002
:1052000002F04FFB9221122002F04BFB962113205B
:1052100002F047FBF421272002F043FB2021282045
:1052200002F03FFB4F21232002F03BFB20212920ED
:1052300002F037FB07211520DCE770B540F29F61D3
:1052400000244843611E01224FF6FF7301EBC001A9
:105250001D1102EB4400B1FBF0F0984202D3641C34
:10526000AC42F6D385B2C4F307212A2000F034FB08
:10527000E1B22B2002F015FB290A2C2002F011FBD1
:10528000E9B22D2002F00DFB002070BD70B505467F
:1052900000241A4E09E00A20FEF741FC2046641C57
:1052A000C82802DD4FF0FF3070BD2021304602F0EB
:1052B00024FE0028EFD10821304602F01CFEFEF744
:1052C0002BFC0821304602F014FEFEF725FC0024DA
:1052D0000FE0FEF726FD1021304602F00CFEFEF72F
:1052E0001BFC1021304602F004FEFEF715FC641C86
:1052F000E4B2AC42EDD3002070BD000000040048D1
:1053000070B515460E460446FEF7E0FE01462B46F4
:10531000224608A002F0CAFA002404E0315D0DA084
:1053200002F0C4FA641CAC42F8D3BDE870400BA094
:1053300002F0BCBA5B5831304B422025735D20250A
:10534000732C6C656E3D2564202C70646174613A29
:105350000000000025303258000000000A00000064
:105360002DE9F84F374D0027DFF8E080FF21009747
:1053700085F87C10344898F801203E46B946825C96
:105380000A2A01D088F80110DFF8C4B00024824650
:1053900004EB84005BF820100BEB800091F800C058
:1053A0000AF807C080687F1C028927480C3020F863
:1053B00016200878761C0A283FD198F80110A142DF
:1053C0003ED088F801400C2C22D2DFE804F0060819
:1053D0000C0E11131517191B1D1F0B2000E00820C0
:1053E00085F87C0017E00720FAE785F87C9012E04A
:1053F0000A20F5E70920F3E70320F1E70220EFE7B1
:105400000120EDE70620EBE70520E9E70420E7E7C8
:1054100010A002F04BFAFEF793FEA96FC831884244
:1054200004D2FEF78DFEA96F884206D2FEF788FEF1
:10543000A86795F87C00FFF733F8641C0C2CA7D301
:10544000BDE8F88F4C070020F40000200400002085
:10545000D08C00084572726F7221210D0A00000085
:1054600070B50D460646002405E0092000F006F858
:105470002855641CE4B2B442F7D370BD00F020B8E4
:1054800010B503F05DF8FEF721FE0146BDE81040BF
:105490006A23024A02A002F009BA0000168B000833
:1054A0005B5831304B422025735D2025733A282507
:1054B000642920B3F5CABCBBAF205254430A000094
:1054C00070B504464FF400454FF0904629463046EB
:1054D00002F00FFD802040EA4400C0B200F0EAFA7A
:1054E00000F0E4FA04462946304602F004FD204666
:1054F00070BD2DE9F0410E4607464FF400444FF0D1
:1055000090452146284602F0F4FC7E2000EA470040
:1055100000F0D0FA304600F0CDFA21462846BDE82A
:10552000F04102F0E8BC00002DE9F047C4B0154698
:105530008A46064600244FF4FA774FF40049DFF814
:10554000BC8012E00A20FEF7EAFA641CBC420CD3CD
:10555000FEF7BCFD01461623294A2AA002F0A6F94F
:105560004FF0FF3044B0BDE8F0874946404602F0B6
:10557000C4FC0028E6D14FF4007739464446404643
:1055800002F0BBFC30B93946204602F0B4FC0220E0
:10559000FEF7C5FA4FF486716846FCF70EFEAB20A5
:1055A0008DF80000CD208DF80100012E07D1224892
:1055B00050F8221FCDF8031000798DF807008DF800
:1055C0000260ADF809502A4651460DF10B00FCF778
:1055D000DBFD05F10B0081B26846FEF7A5FD0DEB82
:1055E00005010E35C8720D2008730A204873AAB24F
:1055F0006946002002F0E6F80020B3E70004004806
:10560000B28900085B5831304B422025735D20255C
:10561000733A2825642920434B423234207761694C
:10562000742069646C652074696D656F75742C6590
:1056300072726F722E0A000024070020F0B5A1B02C
:105640000D460646174680216846FCF7B6FD6C46B7
:105650008DF808702A46314608A002F027F92B463B
:10566000324601212046FDF7B5F90B22214609A05B
:10567000FFF746FE21B00020F0BD00007479706590
:10568000203D2025642C20636D64203D202564206E
:105690000A00000053656E644D73675F41434B2001
:1056A000B8F858313050B5C4C0B6D1C0D3A6B4F0A4
:1056B0000000000070B51E4E00F10804002596F8A9
:1056C0002B00A52801D001250FE02046FEF736F873
:1056D000022810D048B10125FEF7F8FC01464FF42E
:1056E0000173144A14A002F0E1F82178284600F072
:1056F0004BF8002070BD2178002000F045F84FF4F1
:105700007A742046FEF70BFA2F20FFF7BFFDFEF755
:10571000DDFC01464FF4FC73064A0FA002F0C6F808
:10572000002086F82B002046FEF7F9F9FFF71AFC57
:105730004C070020678900085B5831304B42202518
:10574000735D2025733A2825642920C9FDBCB6B4B1
:10575000EDCEF32121210A005B5831304B42202548
:10576000735D2025733A2825642920444542554716
:105770005F434D445F5245424F4F54D6D8C6F4CF95
:10578000B5CDB3A3A10A000030B5A1B00C460546C3
:1057900080216846FCF711FD8DF808500223684609
:1057A0008DF8094004221946FDF714F921B00020B4
:1057B00030BD000070B588B0054600242021684641
:1057C000FCF7FBFC2A460CA1684602F07FF84FF478
:1057D000FA656E102A460CA16846FDF7E9FA002822
:1057E00007D03046FEF79BF9641C022CF2D34FF031
:1057F000FF3008B070BD000041542B4E414D453D77
:1058000025730D0A000000004F4B000070B588B0F2
:105810000546002420216846FCF7CFFC2A460CA14F
:10582000684602F053F84FF4FA656E102A460CA150
:105830006846FDF7BDFA002807D03046FEF76FF93D
:10584000641C022CF2D34FF0FF3008B070BD000092
:1058500041542B475749443D25730D0A0000000071
:105860004F4B00001CB56946FEF76CFE9DF8010029
:10587000FEF7A4FC164B03F8440F9DF80200FEF758
:105880009DFC58709DF80300FEF798FC98709DF8F9
:105890000000FEF793FCD8709DF80400FEF78EFC24
:1058A00018719DF80500FEF789FC58719DF80600F7
:1058B000FEF784FC98710748016819814068588197
:1058C0000020D86018610248443002F0C9FD1CBDB8
:1058D0004C070020AC00002070B50C460546FFF7D1
:1058E000CDFD40EA0401284601F0DBFF002070BD39
:1058F00070B50446FEF715FA1420FFF7BFFD00F05F
:105900000300A04201D1002070BD34B1012C06D0AB
:10591000022C0ED0032C0ED006E0032100E0012162
:105920001420FDF7D5FF0546C820FEF7F8F82846F5
:1059300070BD0221F4E703211420FFF7CDFFF2E749
:1059400070B540F2135002F027FD084D4FF400549B
:10595000012223461146284602F0D4FA234628465F
:10596000BDE870400322002102F0F0BA00080048B0
:1059700010B5002418210C48FCF71FFC0A48092127
:1059800004EB440200EBC2025170641CF8D0012108
:1059900081713421C171FFF7D3FF01223421BDE8A9
:1059A0001040002001F0B0B9E40A002058B10928E5
:1059B0000CD00A280DD00123401E834003EA0100C9
:1059C0001146FEF721BD11460020FAE711460120DD
:1059D000F7E7704700E0401E0028FCD17047000048
:1059E0002DE9F04140F2115002F0D6FC40F2165081
:1059F00002F0D2FC40F2125002F0CEFC4FF4004410
:105A000001224FF0904523461146284602F07AFACB
:105A1000234603220021284602F098FA214E012253
:105A200040231146304602F06DFA40230322002144
:105A3000304602F08BFA1C4F0122082311463846EB
:105A400002F060FA082303220021384602F07EFAB1
:105A5000012220231146384602F054FA2023032263
:105A60000021384602F072FA102301220021384644
:105A700002F048FA102303220021384602F066FAA9
:105A80004021304602F037FA2146284602F033FA28
:105A90002021384602F02FFA3846BDE8F0410821AF
:105AA00002F027BA0014004800040048A52000F0C6
:105AB00001B800002DE9F041144F054600242806E6
:105AC0004FF02001384602D502F015FA01E002F04D
:105AD00010FA0821384602F00EFA0A20FEF72CF8D8
:105AE0006806060E1021384602F007FA40EA06055D
:105AF0000821384602F0FDF90A20FEF71DF8641C63
:105B0000E4B2082CDBD32846BDE8F081000400484D
:105B10002DE9F04105460C460846FCF76BFB0646AE
:105B200000230FE0E05CFCF77FFF0746E0184078B9
:105B3000FCF77AFF03EBD37105EB610140EA071034
:105B400008709B1CB342EDDB06EBD6704010BDE83D
:105B5000F081000030B5A1B080216846FCF72DFB34
:105B60006C4602ADFEF7DDF8272206492846FCF711
:105B70000BFB0123002227212046FCF72BFF21B03D
:105B8000002030BD2407002000B5A1B08021684668
:105B9000FCF713FB074968460323096802910121BA
:105BA0008DF80C1000220521FCF714FF21B0002015
:105BB00000BD000048000020704700001E4801683A
:105BC00041F00101016001688907FCD541681B4A69
:105BD0001140416041681A4A11404160416821F416
:105BE00040014160016B174A114001630168164A88
:105BF00011400160C16A154A1140C162016B40F257
:105C0000031291430163016B21F480310163016B45
:105C100021F000410163416B21F001014163D0F8A3
:105C2000C01021F48031C0F8C01000218160C0F89C
:105C3000CC1002F0D1BC0000001002400C00FF08A4
:105C4000FFFFC277BFFFFFBFFFFFF2FEF0FFFF3F86
:105C500010B540F61A1002F013FB01281ED040F6D2
:105C60001B1002F00DFB01281FD040F61C1002F0A3
:105C700007FB012820D040F61D1002F001FB01288F
:105C800021D040F61E1002F0FBFA012822D040F687
:105C90001F1002F0F5FA012823D02AE0FEF716FAC9
:105CA00001466E23154A16A021E0FEF70FFA0146C1
:105CB0007223124A1DA01AE0FEF708FA0146762365
:105CC0000E4A23A013E0FEF701FA01467A230B4A9D
:105CD00028A00CE0FEF7FAF901467E23074A2FA020
:105CE00005E0FEF7F3F901468223044A35A001F0EE
:105CF000DDFDBDE8104002F0E3B90000E38A0008D2
:105D00005B5831304B422025735D2025733A28259E
:105D1000642920CFB5CDB3CDE2B2BFB8B4CEBBB904
:105D2000DCBDCCB8B4CEBB0A000000005B583130FB
:105D30004B422025735D2025733A2825642920CF06
:105D4000B5CDB3C9CFB5E7B8B4CEBB0A00000000EB
:105D50005B5831304B422025735D2025733A28254E
:105D6000642920CFB5CDB3C8EDBCFEB8B4CEBB0A14
:105D7000000000005B5831304B422025735D202528
:105D8000733A2825642920CFB5CDB3B6C0C1A2BFD0
:105D9000B4C3C5B9B7B8B4CEBB0A00005B58313044
:105DA0004B422025735D2025733A2825642920CF96
:105DB000B5CDB3B4B0BFDABFB4C3C5B9B7B8B4CE0C
:105DC000BB0A00005B5831304B422025735D202513
:105DD000733A2825642920CFB5CDB3B5CDB9A6BA7D
:105DE000C4B8B4CEBB0A000001B503480099C16035
:105DF000C1680029FCD108BD0400002010B50420B2
:105E000002F02EFC0B480C490C4B0068B0FBF1F281
:105E1000B0FBF1F14FF47A7041434FF0E0201A707B
:105E2000026942F0020202614161016941F001012F
:105E3000016110BDB400002040420F009C00002012
:105E400070B5174D154C0121284602F0C1FC002801
:105E50001BD00121284602F0B7FC6179207900228D
:105E6000FFF7A4FD2079401C207120790B280CD16C
:105E7000E08A401C80B2E082A18A884206D2E18A90
:105E80002069405C60710020207170BDA5202070E9
:105E90002846BDE8704002F035BC0000E40A00204E
:105EA000002C014010B50A4C0121204602F090FC64
:105EB000012807D10749086810B10A68521E0A6014
:105EC00000F03EFC2046BDE81040012102F07CBC01
:105ED000002000401000002010B501218C07204652
:105EE00002F076FC002807D00121204602F06CFC6D
:105EF00002488168491C816010BD00003C00002000
:105F00000448816841F00301816003490120C860B1
:105F10007047000000400240C0000020054910B555
:105F2000486000F0D5FB002803D1BDE8104000F028
:105F300001B910BD1C0B0020F0B5154C00EB400260
:105F4000144E616801EBC201D1E900232072086997
:105F5000B06248693063002015E01C888D6804EB4E
:105F6000440415F82440C4F3C104032C08D09568F8
:105F7000376BAF4337631CB95468B56AA543B56244
:105F8000401C0C329B1C8C898442E6D80020F0BD5A
:105F90001C0B0020004002402DE9F74F514900EB57
:105FA000400082B049684FF0000B01EBC0055F462E
:105FB000D5E900894FF0080A8BE0B9F80010A8680D
:105FC00001EB410450F82410C1F3C102032A7AD135
:105FD00041F0010140F8241098F8000000F0A2F808
:105FE00006460A20AA6800EB84010091505A0190ED
:105FF00056523D490A88B2420DD9A86850F824107B
:1060000021F00601091D40F82410AA6800200AEBBF
:10601000840150520EE04888B042A8680DD250F872
:10602000241041F0060140F82410AA6800210AEB70
:10603000840011524FF0020B45E000EB840000F0A9
:1060400043F958B3039838B1039A31460198904701
:106050000646A96800980E52A968042000EB840047
:10606000085A314600F058F8064600F053F8014649
:10607000A86850F8242061F3420240F824200498D4
:1060800038B1049930468847AA680AEB8401505217
:1060900019E0A9680AEB84000E5214E0A9680420F4
:1060A00000EB8400085A314600F036F8AA680AEB83
:1060B0008401505200F02EF8A96851F8242060F3B2
:1060C000420241F824207F1C09F1020908F10C0862
:1060D000FFB2A889B8423FF670AF05B05846BDE898
:1060E000F08F00001C0B0020E0000020074900B5E5
:1060F000886840F00300886005480068FFF76AFC84
:10610000086840F00200086000BD00000040024046
:10611000B800002000207047401A00B27047401AB3
:1061200080B27047024951F8200080B270470000E9
:106130003440024010B500F043F84FF4A36002F081
:106140002BF91A4801210160016841F0805101607A
:10615000016841F080710160016841F4A041016073
:10616000016841F0A0010160016821F010010160A7
:10617000416841F0030141600D49002081F80004AD
:106180004FF0E0214FF48070C1F8000109480A493E
:106190000068B0FBF1F04FF47A7148433021B0FB56
:1061A000F1F006490860002010BD000000400240E8
:1061B00008E000E0B400002040420F00B8000020DA
:1061C0002DE9F04740F2115002F0E6F840F212508B
:1061D00002F0E2F840F2135002F0DEF840F21650FE
:1061E00002F0DAF80220002580462E4641F211091D
:1061F00001464FF0904401274B463246204601F0BD
:1062000081FE4B462A463946204601F09FFE40F665
:10621000010332464146254801F074FE40F6010371
:106220002A463946214801F091FE002740F6E263F4
:1062300032464146204601F065FE40F6E2632A46BA
:106240003946204601F082FE47F2060332464146B7
:10625000164801F057FE47F206032A46394613480E
:1062600001F074FE124A216A101311432162616A1F
:1062700001436162031202020C4820300168194395
:106280000160001D0168114301604FF4A36002F03A
:1062900083F809490748096901400748016107492E
:1062A000006A084304490862BDE8F087000400481A
:1062B000330033330C010FFF004002401182100005
:1062C0000120704700207047012070472DE9F047FA
:1062D0008046002480792746400759D500264FF094
:1062E0000C09DFF8B0A0D8F8005030E0284600F0E4
:1062F00089F9DAF80C0051460078102801D01128ED
:1063000022D10869006802780A2A1DD102681202A7
:106310000DD54FB180F80090DAF8100000680168E0
:1063200041F4800101600FE0012700240CE080F8B7
:106330000090DAF810000068016841F48001016003
:1063400054EA070000D12C46761CF6B20835B8F89E
:106350000400B042CAD8002C1AD0204600F052F9EE
:10636000DAF80C0052460078102801D011280FD11D
:1063700011690A200968087010690168086840F40A
:1063800080000860DAF8101040F400000968086026
:10639000BDE8F0871C0B00202DE9F74F01260024F3
:1063A000824607688B46A14625462046BAF8041067
:1063B000804641452CD9384600F024F91749C86871
:1063C0000078102801D0112807D1086901680978E0
:1063D000022918D185684FF001090020421E10E003
:1063E000B5F90810002906D003DA002C03DC1446A6
:1063F00004E0002C01DA002600E00124401CC0B2B9
:106400000C354845ECD308F101000837C0B2CDE7A0
:106410000EB1DDF808B05846BDE8FE8F1C0B002019
:1064200070B50446C0884FF00001C20702D010F0DA
:106430003E0F02D0A17261722AE0A07A012510B14C
:10644000607A78B117E04FF0E020026922F0020292
:106450000261104A1288A281026942F002020261BE
:10646000A572617204F10C014FF4FA7000F0D6F8D5
:1064700060B1607A60B114220A212046FFF78CFFD8
:106480000146204600F008F8002070BD6572F2E772
:10649000012070BD1C0B00202DE9F35F4FF00009B7
:1064A00000988A464C46066881F0FF00401CC846AA
:1064B0001FFA80FB4F4637E0304600F0A3F81D4935
:1064C000C8680078102801D0112809D1086901682E
:1064D0000978022925D1DFF8608084684FF001092E
:1064E00000251CE0B4F90810A088FFF718FE01028F
:1064F000A088A27902EB002000FB0BF00AFB010050
:10650000010AA171000CA0802046FFF7DBFE0128E4
:1065100002D10020414688476D1CEDB20C344D4538
:10652000E0D308367F1CFFB200988088B842C3D8F9
:10653000BDE8FC9F1C0B0020896B00082DE9F0478B
:1065400000270568044607723E46DFF850804FF08A
:1065500001091DE0284600F055F82878102814D1CC
:10656000D8F81000006900688047D8F8100000686B
:106570000068400201D584F80890D8F81000C1687E
:106580000068007811F830000743761CF6B2083531
:10659000A088B042DED8E780BDE8F0871C0B002061
:1065A0002DE9F04700270568044607723E46DFF8EC
:1065B00050804FF001091DE0284600F023F82878AC
:1065C000102814D1D8F81000006940688047D8F826
:1065D000100000680068400201D584F80890D8F8DF
:1065E0001000C1680068007811F830000743761C7D
:1065F000F6B20835A088B042DED8E780BDE8F08763
:106600001C0B0020044AD0600178102901D0112908
:1066100001D14068106170471C0B002030B54FF06D
:10662000E024226922F002022261124A128828B173
:106630000B8893420B8807D8D31A0AE0206940F0F0
:1066400002002061022030BD4FF6FF75EB1A1344A3
:106650005B1C9BB2834206D30A80206940F0020093
:106660002061002030BD206940F00200206101203F
:1066700030BD00001C0B002010B54FF0E024226953
:1066800022F002022261114A927828B10B789342DB
:106690000B7807D8D31A09E0206940F00200206186
:1066A000022010BDC3F13F0313445B1CDBB28342E5
:1066B00006D30A70206940F002002061002010BD5E
:1066C000206940F002002061012010BD1C0B002059
:1066D0001FB54FF4E16001F05FFE00221146132068
:1066E00001F092FC134C204601F0CCFF12481349F4
:1066F0000068B0FBF1F1ADF80010002140F2E73086
:10670000ADF80C10ADF80210ADF8041002908DF841
:106710000E106946204602F003F8204601F0ACFF57
:106720000121204602F04CF8204601F0F0FF04B0B1
:10673000002010BD00200040B400002040420F00A7
:106740000A490B4A0888401C08801088401C80B207
:106750001080B0F57A7F08D388780023401CC0B23F
:1067600088703F2800D98B70138070471C0B002065
:10677000BC00002070B5274D4FF00D032A699068CA
:10678000017849088C0711680AD5506882794A70E7
:106790002869006812B10E21017070BD037070BDD0
:1067A0001D4A497844891279002691420AD121462E
:1067B000FFF786FD00282869806801D084800DE0FD
:1067C000868070BD8188214489B281802869A14278
:1067D000806803D2868028690068DFE7286901683D
:1067E000487820B1401E10F0FF004870E9D12869B8
:1067F0000A4A806812788188D1408180286980683F
:1068000086712869806806812969022009680870F4
:1068100070BD00001C0B0020E0000020BE00002026
:106820004FF0E021086920F00200086106488378F3
:1068300000690068026863F315420260086940F06D
:1068400002000861704700001C0B00200F4810B4C4
:1068500001694FF002038A681078400884070868CD
:1068600002D5037010BC70474968B2F908208978D6
:1068700049428A42F5DC417821B1491E11F0FF01FD
:106880004170EFD110BC002000F07EB91C0B00203D
:10689000104B30B419694FF002048A681078400830
:1068A0008507086802D5047030BC70474968B2F9A2
:1068B000082009788A42F6DB417821B1491E11F09F
:1068C000FF014170F0D119690A200968087030BCD5
:1068D000FFF7A6BF1C0B002008B51A4B186981688A
:1068E00009784908890709D50168487820B1401E10
:1068F00010F0FF0048701ED10D2019E000F0A2F842
:106900008DF800009DF8000000F05F008DF8000099
:106910009DF8000001280AD002280DD004280DD0CF
:1069200008280DD0BDE80840002000F02DB9022055
:1069300019690968087008BD0620F9E70A20F7E719
:106940000C20F5E71C0B002030B50F4B4FF00A046C
:1069500019698A68107840088507086805D449686D
:10696000B2F9082049788A4201DD047030BD4178CF
:1069700021B1491E11F0FF014170F7D119690220C0
:106980000968087030BD00001C0B002030B50F4BAB
:106990004FF00C0419698A68107840088507086868
:1069A00005D44968B2F9082049788A4201DD0470AB
:1069B00030BD417821B1491E11F0FF014170F7D17E
:1069C000196902200968087030BD00001C0B002006
:1069D00038B51A4B19698A681078400884074868E6
:1069E0000AD58279086842701869006812B11121CD
:1069F000017038BD0D21FBE7B2F908204478A242AE
:106A000012DD0F488079821E3E2AF2D20968096899
:106A1000C1F305418DF800106946FFF72DFE0028EF
:106A2000E7D100F0B1F838BD4279086842701869C2
:106A300000680AB10421DBE70221D9E71C0B002022
:106A4000E000002006490020CA681278102A05D10B
:106A50000869C1680068007811F8300070470000CC
:106A60001C0B00200D481421026952681170036943
:106A70000F225B685A7002695268917002690321A3
:106A80005268D1700269526811710269526851717D
:106A9000006940688171002000F076B81C0B00206E
:106AA00070B51B4D286981680A68D30703D1006857
:106AB000007813282BD122F00100086028690168B2
:106AC0000C78E9680978102905D10422C16802EB25
:106AD000C40008588047286900680178A14201680D
:106AE00002D121F4800101E041F4800101602869B4
:106AF000006801780A290AD0016821F400010160C8
:106B00002869006801780C2901D10A21017070BD43
:106B10001C0B00201B4B10B419698A6810784008C0
:106B20008407486809D58279086842701869006846
:106B30000AB10F210DE00D210BE0B2F90820047815
:106B4000A2420EDB027908684270186900681AB127
:106B50000B21017010BC70470A21017010BCFFF7B7
:106B60005FBE84786442A242F4DC0968C078487051
:106B70001969096810B101200870EBE710BC00200A
:106B800000F002B81C0B002030B5144A0025154C4B
:106B9000116909680D70116909680B6843F4800375
:106BA0000B60116989680B6843F018030B600C4B8C
:106BB0009988042905D0102905D00821998003213E
:106BC00002E0022100E004212180197908441169C2
:106BD0000968487010698068858030BD1C0B0020F2
:106BE000E0000020BE00002038B51A4B19698A6801
:106BF00010784008840748680AD58279086842708E
:106C00001869006812B11221017038BD0D21FBE72F
:106C1000B2F908204478A24212DD0F488079821E22
:106C20003E2AF2D209680968C1F305418DF80010C7
:106C30006946FFF721FD0028E7D1FFF7A5FF38BD22
:106C4000427908684270186900680AB10521DBE7DB
:106C50000221D9E71C0B0020E000002070B5184C81
:106C60000025A06838B92079FFF766F9FFF73EFAEA
:106C70000120C4E90205E06840B1002220791146F4
:106C8000FFF78AF96068401CC4E9010560680228C2
:106C900014D90B4865601030A560FFF781FC0848E7
:106CA0001030FFF713FB06496420FFF7B7FC18B953
:106CB00003481030FFF7B4FB002070BD012070BD09
:106CC000C000002010B50548FFF738FC0448FFF766
:106CD00025F9BDE8104000F005B80000D000002004
:106CE000E08B0008074A0020C0EBC001401C535C49
:106CF000C0B21E33535411444B781E334B700C28D2
:106D0000F2D37047F00B00202DE9FF4104462048E4
:106D100016460F4630F8140001F03EFB1C4D1A35A4
:106D200055F8240001F0AEFC6B20ADF80000002007
:106D3000ADF80C00ADF80200ADF8040002978DF834
:106D40000E0055F82400694601F0EAFC012E10D12E
:106D500055F82400012101F033FD55F824000121EC
:106D600001F0DAFCA5F11C000122005D114601F0E2
:106D70004BF955F8240001F07FFC55F8240001F090
:106D8000C6FC002C02D1286801F0BCFCBDE8FF81E4
:106D90003E00002070B5C0B00D4606464FF480712D
:106DA0006846FBF70AFA6C46FCF7BBFFED1C2A4667
:106DB000B11C04F10800FBF7E7F90323A9B21A4656
:106DC0002046FBF707FE40B0002070BD2DE9F043E0
:106DD0008DB006460020019002900390049005902B
:106DE000086008710C4620218DF818108DF81C00E1
:106DF0008DF820008DF8240080211220FCF768FD1A
:106E000080211320FCF764FD80210E2000F049FD55
:106E100000211D2000F045FD0DF128080DF10409A9
:106E200004AD8DF828609DF818008DF829009DF8B4
:106E30001C100D2000F035FD9DF82420214608F19E
:106E40000200FBF7A1F99DF82400801CC7B20120C5
:106E5000FEF7F3F902AB3A460AA90C20CDF80090F0
:106E6000FEF7A7F8202867D000072AD50E20FEF7E6
:106E700005FB00F01F0709AB08AA06A9384600F079
:106E80001EF907A9384600F0F9F89DF8242002A958
:106E900004A8FBF779F99DF824009DF820202844E8
:106EA00010F8011D11400170002205E0A05CA95CF2
:106EB0000843A054521CD2B29DF824008242B0D2A2
:106EC000F4E70198082802D9C0F3C70600E00126BC
:106ED0009DF8240018B1311806292DD107E0052EA0
:106EE0002AD1324602A92046FBF74EF916E0284483
:106EF000324602A9401EFBF747F900200CE09DF83E
:106F0000241001440A19294412F8013D11F8011C0A
:106F10000B43401C1370C0B2B042F0D320786178AC
:106F2000E2784840A178514048402179884203D115
:106F300000200DB0BDE8F0830120FAE770B51546DA
:106F40000E46044600F038F880B9617871B92178AE
:106F500089090CD131469320FFF738FF30B92A4612
:106F60003146932000F059F8002800D0012070BD70
:106F70001FB550208DF8040000208DF80500014653
:106F80000D2000F08EFC80211220FEF7A5FC802150
:106F90001320FEF7A1FC08210846FCF799FC01200C
:106FA000FEF74BF903A8009002AB022201A90C20C6
:106FB000FDF7FFFF04B010BD1FB50446002002908E
:106FC00080211220FCF784FC80211320FCF780FC38
:106FD00008211320FEF780FC07210D2000F061FC42
:106FE00026208DF80C000120FEF727F902A800905A
:106FF00001AB012203A90C20FDF7DBFF10B90298B9
:10700000102802D0012004B010BD9DF804002070AB
:107010009DF8050060700020F5E770B50C46064647
:1070200086B0154600210D2000F03BFC8021122087
:10703000FEF752FC80211320FEF74EFC8DF8046011
:1070400070208DF80500002001A9225C0B18401C5F
:10705000C0B29A700528F8D30120FEF7EEF805A813
:10706000009003AB072201A90C20FDF7A2FF002826
:1070700002D19DF80C10297006B070BDE8B1421E17
:10708000082A02D200EB001017E0A0F10903020168
:10709000082B03D2803A104408380EE0A0F1110307
:1070A000082B02D21044103807E0A0F11903072B77
:1070B00004D2A2F5C0721044183808707047F0B5B9
:1070C000042510B958240C701D70441E0126082C8C
:1070D00002D221340C701E70A0F10904082C03D2D6
:1070E00031340C7002241C70A0F111040327082C09
:1070F00002D241340C701F70A0F11904072C02D287
:10710000383008701D70087800F00700092807D291
:10711000DFE800F0060507090B0D0F1113001670CC
:10712000F0BD1770F0BD072008E00F2006E01F201B
:1071300004E03F2002E07F2000E0FF201070F0BD5F
:107140002DE9F05F894604463F4900EB440001EB1E
:10715000800A3E48934630F8140001F01DF93B4880
:10716000001D30F8140001F017F9384F2837A7F147
:10717000200606F1100857F8242056F8241058F875
:10718000240000F08BFE06F1280556F8241018366E
:1071900055F8242056F8240000F080FE57F82430DB
:1071A00058F824000122022100F0ACFE57F8240018
:1071B0004FF6FF7703463A46002100F0C7FE55F828
:1071C000243056F824000122022100F09BFE55F8DD
:1071D000243056F824003A46002100F0B7FE203D46
:1071E00055F8240001F032FB55F82400594601F00F
:1071F000F9FA55F82400042101F07BFB55F824002E
:10720000082101F07EFBB9F1010F16D155F82400D9
:10721000052101F043FBA5F114000122005D0221CC
:1072200000F0F2FE0A484FF4807200EB0421504651
:10723000FCF7BFFC5046FCF799FC55F8240001F020
:107240001DFB0020BDE8F09FCC0900206400002059
:10725000CC07002070B50C4E0C4C0A4D3146204630
:1072600001F02FFB00280CD0204601F0E7FAC1B254
:107270002846FCF7A5FC31462046BDE8704001F0E9
:1072800018BB70BDCC09002005000507003801407F
:1072900070B50C4E0C4D0A4C3146284601F011FBDE
:1072A00000280CD0284601F0C9FAC1B22046FCF7EC
:1072B00087FC31462846BDE8704001F0FABA70BD3F
:1072C000D8090020050005070044004030B5A1B0F2
:1072D000054680216846FAF770FF6C4601238DF859
:1072E0000850042219462046FBF774FB0B22214666
:1072F00002A0FEF705F821B0002030BD557067727E
:107300006164655265717565737441636B0000005B
:107310007FB5204D816800242960C1686960018AB9
:107320002981807CA872FCF7D1FE01462868AE7ADC
:107330002B896A688DE84D0040F2BD13164A174844
:1073400000F0B4FA16480121C162002101634163D3
:10735000286898B1686888B100F05EFD114D05EBB2
:10736000842000F01BFD342000F00AFD641C3A2C40
:10737000F5D300F00BFD002004B070BDFCF7A6FEB5
:10738000014640F2C513044A07A000F08FFA4FF0FF
:10739000FF30F1E71801002051890008B08E000885
:1073A0004C070020000801085B5831304B42202573
:1073B000735D2025733A282564292066696C6573FE
:1073C000697A65206F72207061636B616765206FF9
:1073D000722066775F766572736F6E2C20657272AD
:1073E0006F72212121000000F8B500258DF80050B2
:1073F0002C46FCF796FC0D4E0D4F09E00122694624
:10740000E019FCF790FC9DF80000641C284485B24C
:107410003068A042F2D83289AA4205D0294605A098
:1074200000F044FA0120F8BD0020F8BD180100204A
:1074300000080108D0A3D1E9B3F6B4ED2121215B06
:107440002523785D2C205B2523785D0D0A00000044
:107450002DE9F0416D4F0D4601466D4A786B8CB0B9
:10746000104400242A46FCF771FC01284AD0786BAE
:10747000684E2844642148433168B0FBF1F8FCF7BA
:1074800025FE7A6B33682A44CDE900320146CDF8F7
:1074900008803C23604A61A000F008FAF86A71682D
:1074A00088427DD100297BD07A6B31682A44914291
:1074B000F7D1FCF70BFE01464023574A63A000F0CA
:1074C000F5F972686EA0F96A00F0F0F9786B32682D
:1074D000411973A000F0EAF9FCF7F8FD0146786B5A
:1074E000009043234C4A75A000F0E0F9FFF77CFFC1
:1074F00060B1FCF7EBFD01464723474A7FA000F04F
:10750000D5F97AE088A000F0D1F976E08D4F8E4D64
:107510004FF00008CDF82880CDF81480CDF8188001
:10752000CDF81C803089ADF828003068CDE90850CE
:1075300000F072FC384600F031FC342000F020FCF2
:1075400000F024FC0A2208A93846FCF7FFFB0A22B7
:1075500005A93846FCF7E7FB1420FCF7E0FA0A22FD
:1075600008A93846FCF7DFFBBDF8280031898842BE
:1075700023D10999326891421FD10899A9421CD19F
:10758000BDF81C10884218D106990998884214D178
:1075900005990898884210D1FCF798FD014600E053
:1075A0002DE061231C4A69A000F080F93020FDF72E
:1075B0006DFE02200CB0BDE8F081FCF787FD0146AE
:1075C000DDE90832BDF828008DE80D006823124A75
:1075D00068A000F06BF9FCF779FD0146326830894C
:1075E000CDE9000269230C4A724800F05FF9032CD0
:1075F00003D0641C032C8DD306E00120DAE7401C85
:10760000F862786B284478630020D3E74C070020A9
:107610000008010818010020128900085B58313069
:107620004B422025735D2025733A28256429207458
:107630006F74616C2025642C6765742025642C2090
:107640005B256425255D2E0A000000005B58313063
:107650004B422025735D2025733A2825642920D7C5
:10766000EEBAF3D2BBB8F6B0FCD2D1BEADD0B4CD39
:10767000EA2C20BFAACABCD0A3D1E92E0A00000080
:1076800043757272656E745061636B616765203D0E
:10769000205B25645D2C205B25645D0A00000000F2
:1076A0005265636569766553697A65203D205B257F
:1076B000645D2C205B25645D0A0000005B5831305E
:1076C0004B422025735D2025733A282564292047E5
:1076D0006C6F62616C496E666F2E55706772616483
:1076E0006546772E416464724F6666736574203D0B
:1076F000205B2523785D2E0A000000005B583130A6
:107700004B422025735D2025733A28256429207576
:1077100070677261646520636865636B73756D2063
:107720006572726F722E0A0031313131313131316F
:107730003131313131313131312C206572726F721A
:107740002100000000FC0108DEBC55AA5B58313066
:107750004B422025735D2025733A28256429207526
:1077600070677261646520737563636573732E0A55
:10777000000000005B5831304B422025735D20250E
:10778000733A2825642920757067726164652065E5
:1077900072726F722C205B2523785D2C205B252371
:1077A000785D2C205B2523785D2C206572726F72CA
:1077B0002E0A0000008F000801214FF4E132084634
:1077C000FFF7BEBC2DE9F047174688460546002462
:1077D0000E4E40F2077910E0FCF7A3FA18F80410F7
:1077E00056F8250001F02EF856F82500494601F01C
:1077F0004AF80028F8D0641CA4B2BC42ECD3142090
:10780000FCF78DF90020BDE8F0870000740000202F
:107810002DE9F041124F05464FF400560024314641
:10782000384600F066FB0820FCF786F9E807314689
:10783000384602D000F05FFB01E000F05AFB082060
:10784000FCF77AF9641C6D08E4B2082CEED33146DB
:10785000384600F050FBBDE8F0410820FCF76CB959
:107860000008004810B5A0B0044680216846FAF729
:10787000A4FC68468DF80840032302220121FBF78F
:10788000A9F820B0002010BD70B50D4606460024B2
:1078900004E0295D092000F004F8641CB442F8D328
:1078A00070BD10B5FDF725FE002010BD0FB4054BCF
:1078B00010B503A9044A029800F02CF810BC5DF83A
:1078C00014FB00006D7E0008F00000200FB4084B90
:1078D00010B504A902AA039800F01CF8044602A9F6
:1078E000002000F048FA204610BC5DF814FB0000B0
:1078F000777D000802E008C8121F08C1002AFAD1EB
:1079000070477047002001E001C1121F002AFBD11F
:10791000704700002DE9FF4F8DB00F460546002649
:1079200006E025280BD0DDE90F1290476D1C761C70
:1079300028780028F5D111B03046BDE8F08F00243A
:10794000A246A1460122EC4900E0044315F8013F9C
:10795000203B02FA03F00842F7D128782A2810D0F9
:107960006FF02F022878A0F13001092914D80AEB12
:107970008A0102EB410144F0020400EB010A6D1C94
:10798000F0E701CF5FEA000A03D544F40054CAF1DE
:10799000000A44F002046D1C28782E2817D115F82F
:1079A000010F44F004042A280ED06FF02F0228782B
:1079B000A0F1300109290AD809EB890102EB410144
:1079C00000EB01096D1CF2E757F8049B6D1C287849
:1079D0006C280FD006DC4C2817D068280DD06A28F8
:1079E00014D104E0742810D07A280FD10DE044F4AB
:1079F00000140AE044F4801401E044F4401469786F
:107A0000814202D104F580146D1C6D1C2A786E2A07
:107A10001FD00CDC632A31D004DC002A8BD0582A1A
:107A200011D1A3E0642A68D0692A0CD165E0732AD9
:107A30002ED004DC6F2A73D0702A04D19BE0752A03
:107A40006FD0782A6ED01046DDE90F129047761C71
:107A500050E1C4F30250022806D0032809D00428BC
:107A600001CF09D0066045E101CFF117C0E90061FF
:107A700040E101CF06803DE106703BE117F8040BC1
:107A80008DF8000000208DF80100EB46012003E096
:107A900057F804BB4FF0FF3061074FF0000102D4EC
:107AA0000DE008F10101884649450FDA8045F8DB11
:107AB0001BF808100029F4D108E008F101018846FC
:107AC0008142FADB1BF808100029F6D1DDE90F230B
:107AD000AAEB08008146214600F036F9304400EB5D
