:020000040800F2
:10000000C8100020650100086D0100086F0100089C
:10001000710100087301000875010008000000006C
:100020000000000000000000000000007701000850
:1000300079010008000000007B0100088131000800
:100040007F0100087F0100087F0100087F01000890
:100050007F0100087F0100087F0100087F01000880
:100060007F0100087F0100087F0100087F01000870
:100070007F010008FD3300087F010008613400089B
:100080007F0100087F010008000000007F010008D8
:100090007F0100087F0100087F0100087F01000840
:1000A0007F0100087F0100087F010008153A000861
:1000B000513A0008000000007F0100080000000025
:1000C0007F010008000000007F0100087F01000898
:1000D0007F01000800000000000000000000000098
:1000E00000000000000000007F0100080000000088
:1000F0000000000000000000000000000000000000
:100100007F01000800000000000000007F010008DF
:1001100000000000000000000000000000000000DF
:1001200000000000000000000000000000000000CF
:1001300000000000000000000000000000000000BF
:100140000000000000000000000000007F01000827
:10015000DFF80CD000F01AF900480047D545000838
:10016000C81000200648804706480047FEE7FEE723
:10017000FEE7FEE7FEE7FEE7FEE7FEE7FEE7FEE757
:10018000853100085101000838B5D0E90221491E27
:1001900001EB410102EBC1014268C1EB011102EB2D
:1001A00081010268C1EB011102EB8102D0E9043147
:1001B00001EB410103EB81013023A1F5527191FB69
:1001C000F3F4174D6C4302EBC41291FBF3F403FB01
:1001D000141100921A2902DB124B1A4400920C22CD
:1001E00091FBF2F3104C6343009C04EBC3130093A8
:1001F00091FBF2F302FB13110C4A08E0491E40F296
:10020000A324535C6343009C04EBC31300930029B5
:10021000F4DC0146684600F073F8009838BD000031
:100220003F0C0F008051010067C203003B530008E0
:1002300040EA01039B0703D009E008C9121F08C068
:10024000042AFAD203E011F8013B00F8013B521EE8
:10025000F9D27047D2B201E000F8012B491EFBD25F
:1002600070470022F6E710B513460A4604461946C1
:10027000FFF7F0FF204610BD30B5044600200346CE
:1002800000E05B1C934203D2E05CCD5C401BF8D0E5
:1002900030BD2DE9F05F0546002092469B4688461A
:1002A0000646814640241BE02846414647462246F2
:1002B00000F08DF853465A46C01A914110D31146AA
:1002C0001846224600F074F82D1A67EB01084F46D5
:1002D00022460120002100F06BF817EB00094E4187
:1002E000201EA4F10104DFDC484631462A4643467D
:1002F000BDE8F09F014900F003B80000980C002011
:1003000010B500683C22B0FBF2F302FB1303B0FB14
:10031000F2F00B60B0FBF2F302FB1303B0FBF2F060
:1003200018224B60B0FBF2F302FB1303B0FBF2F0B8
:10033000021D8B600723B2FBF3F403FB1422800041
:1003400040F2B55300F66C308A61B0FBF3F2B0FBBB
:10035000F3F403FB1400443280084A61C8613B286F
:1003600002D3920700D0401C0022074C13460A61BA
:10037000E25C824203D8801A5B1C0B61F8E7401CE8
:10038000C860084610BD000047530008064C074DE2
:1003900006E0E06840F0010394E807009847103455
:1003A000AC42F6D3FFF7D8FE9C530008BC530008BC
:1003B000202A04DB203A00FA02F100207047914025
:1003C000C2F1200320FA03F3194390407047202A1A
:1003D00004DB203A21FA02F00021704721FA02F3EF
:1003E000D040C2F1200291400843194670470000F6
:1003F00070B50446AA202070552060700E480D4646
:1004000010F8211F61710178491C0170681D60801E
:1004100001202071281DA27181B2E371201D01F01D
:100420009FFB611909350872AAB22146BDE87040E8
:10043000012003F03BBB00002807002000F00F0163
:10044000000900EB800001EB4000C0B270470000E3
:100450002DE9FC4700270546914688463C46AA46BA
:10046000960801972FE05FEA897023D0721C4146FD
:10047000504601F07DF8042201A9504600F039FFF2
:10048000D8F800000199884219D02046641CE4B2D3
:10049000322811D901F0A6FB4FF47A71B0FBF1F1CB
:1004A00039230B4A0BA0009503F098FB4FF0FF3067
:1004B000BDE8FC873246DAE700F019FFD3E72D1DCF
:1004C00008F104083F1D4F45CDD30020F0E70000A0
:1004D000AE5200085B5831304B422025645D202528
:1004E000733A2825642920666C617368D0B4CAFD0C
:1004F000BEDDB3F6B4ED5B2523785D21200A000054
:1005000010B501F071FD03F021FB00F0F0FE0122B7
:100510004FF47A742146104602F0B6FF02F04CFF09
:1005200002F036FD204600F0DCFD03F0AFFA02F0E9
:10053000D5FB204600F0D5FD01F0A2FD02F06CFED7
:1005400007A003F04BFB02F0E5FF00F03DFE08A022
:1005500003F044FBBDE8104009A003F03FBB0000DE
:100560005573617274496E6974204F4B210D0A00F6
:100570000D0A20427370496E6974206F6B0A000087
:100580000A3D3D3D3D3D3D3D3D3D3D3D3D3D3D3DCE
:100590003D3D3D3D3D3D3D3D3D3D3D3D3D3D3D3D8B
:1005A0003D3D3D3D3D3D3D3D3D3D3D3D3D3D3D3D7B
:1005B0003D3D3D3D3D3D3D3D3D3D3D3D0A0A0A0041
:1005C00070B5A0B00E46054680216846FFF749FE8B
:1005D0006C468DF80850102231460DF10900FFF7E6
:1005E00027FE02231A4611212046FFF701FF1B2296
:1005F000214603A002F024FB20B0002070BD0000C3
:1006000050434242756D55704C6F616400000000AC
:1006100070B5A0B00E46054680216846FFF721FE62
:100620008DF8085030686C46CDF80900012302228D
:1006300005212046FFF7DCFE0F22214602A002F032
:10064000FFFA20B0002070BD50434242756D5570D6
:100650004C6F6164000000002DE9FF473B4E002411
:100660003078012862D103AA01A902A803F048F852
:1006700000285BD1042201A935A002F0E1FA022290
:1006800002A936A002F0DCFA01F0ACFADFF8D8904B
:10069000A04601ABC9F8000086F80080334A022169
:1006A000404602F033F801274FF47A75B8B90124B7
:1006B00001F098FAB0FBF5F15A232D4A2DA00097CE
:1006C00003F08CFA01F08EFAB0FBF5F15B23284AB7
:1006D00031A003F083FA01A90120FFF799FF03F08D
:1006E00029F8002C22D103AA01A902A803F008F8D6
:1006F00000281BD101F076FAC9F8000086F80080C6
:1007000001AB1A4A0C21002002F000F880B101F080
:1007100069FAB0FBF5F17523154A29A003F05EFADA
:1007200001A90220FFF774FF03F004F8BDE8FF877A
:1007300001F058FAB0FBF5F16E230D4A0DA00097B9
:1007400003F04CFA01A90120ECE7000000000020B2
:10075000504943435F5549443A00000050494343E0
:100760005F41545141313A0004000020080000204C
:10077000C25100085B5831304B422025645D202572
:10078000733A2825642920726573756C74203D20A6
:100790002564200A000000005B5831304B422025C0
:1007A000645D2025733A28256429207468697320C4
:1007B000697320536563726574436172642E0A0025
:1007C0005B5831304B422025645D2025733A282543
:1007D000642920B7C7C3DCD4BFBFA80A000000004B
:1007E00070B50D46044602F077FA20EA050120466E
:1007F000BDE8704003F0EDB910B580210A2002F089
:100800007BFB0A2002F068FA002800D0012010BD0E
:100810002DE9FC476D4C01F0E5F907464FF008085B
:100820004FF47A7900256A4EC2E000F060FDDFF8EF
:10083000A4A1B6E000F05BFD01F0D4F907463078E2
:10084000092838D2DFE800F0050D183E4E5C6B80B9
:1008500092009DF80400AA28EBD12070012070803E
:100860005BE09DF80400552825D17088552121545E
:10087000401C7080022050E07088022802D00328BB
:1008800004D01BE09DF80410B18017E0B1889DF8FA
:10089000042041EA0221B180757005290CD201F0D3
:1008A000A1F9B0FBF9F1B088009040F2DF234A4A89
:1008B0004AA003F093F973E0032131709DF804100E
:1008C00021543EE09DF80410012969D17078401C44
:1008D000707070882154B188491EB180401C7080AE
:1008E00004201AE070789DF8041008447070708835
:1008F0002154B188491EB180401C708005200CE055
:1009000070789DF804100844707070882154B18884
:10091000491EB180401C70800620307041E0707824
:100920009DF804100844707070882154B188491EE5
:100930000904090CB18002D00721317001E086F86A
:100940000080401C70802CE070789DF804100844F2
:10095000707070882154401C7080B088401E80B236
:10096000B08001281DD186F800801AE070889DF8BB
:1009700004102154401C81B271809DF804007278EB
:10098000904203D1204601F0A9FE09E001F02AF9C6
:10099000B0FBF9F14FF44D730F4A1AA003F01EF9A2
:1009A000357001A9504600F0CBFB00283FF442AF60
:1009B00001F018F907F10A01884204D801F012F990
:1009C000B842BFF432AFBDE8FC870000FF01002051
:1009D0001400002094090020535200085B58313065
:1009E0004B422025645D2025733A28256429206C1C
:1009F000656E6774683D25642C6572726F722E0A8D
:100A0000000000005B5831304B422025645D2025FA
:100A1000733A2825642920434220636865636B7319
:100A2000756D206572722E0A000000002DE9F047F6
:100A300088B0884604460127002601F0D3F84FF419
:100A40007A75B0FBF5F1207CA37C627C8DE80D000B
:100A500028238D4A8DA003F0C1F808F10102214638
:100A600097A002F0EDF8207C4FF00109162866D01F
:100A700008DC052840D00A287DD013287CD0152812
:100A80000CD146E0172878D0DFF84482282875D0AA
:100A90004FF0A50A2B2872D099280BD001F0A2F8AC
:100AA000B0FBF5F1207C00909423774A89A003F0F5
:100AB00095F8DEE0607C70B101F094F8B0FBF5F1E0
:100AC0003723714A90A003F089F884F8129088F8CF
:100AD00031600227D1E001F085F8B0FBF5F1302359
:100AE000694A92A003F07AF8A674454688F831A0C6
:100AF00001F078F86863ECE701F074F8B0FBF5F109
:100B00004023614A92A003F069F8022002F05EF8E7
:100B1000B2E001F067F8B0FBF5F146235A4A96A01F
:100B200003F05CF8207D617CE27C00EB0160A17C3D
:100B3000090401EB0221084402F0A4F99CE001F051
:100B400051F82F46B0FBF7F151234F4A94A003F020
:100B500045F801F011F89C4A851841F1000601F0B2
:100B600041F8B0FBF7F15523474A98A0009503F0F0
:100B700035F8280E04E037E055E072E075E02EE02D
:100B800040EA06206074280C40EA0640A074280A57
:100B900040EA0660E074257503A803F089FF9DF81C
:100BA0000C00FFF74BFC60759DF80D00FFF746FC4D
:100BB000A0759DF80E00FFF741FCE0759DF8100050
:100BC000FFF73CFC20769DF81100FFF737FC6076BC
:100BD0009DF81200FFF732FCA0760A274DE088F856
:100BE00030A008B0BDE8F08700F0FCFFB0FBF5F1E5
:100BF000607C00906C23244A7EA002F0EFFF607CB2
:100C000078B10220A074E67400F0ECFFB0FBF5F1BF
:100C1000E27CA07CCDE9000275231B4A82A002F091
:100C2000DDFF032729E0667401222146002002F03F
:100C3000ABF800F0D7FFB0FBF5F17D23124A83A09B
:100C400002F0CCFF284600F04CFABFF34F8F8B49DF
:100C500008688B4A00F4E06010430860BFF34F8FD0
:100C6000FEE700F059FB607407E098F82200A52821
:100C700002D084F8119000E066743A4621460020C4
:100C800002F082F8ADE70000DD5100085B5831301A
:100C90004B422025645D2025733A28256429206372
:100CA0006F6D636F6D20636D64203D205B2523783D
:100CB0005D2C205B25645D2C205B25645D0A0000B3
:100CC0004465627567BDD3CAD5CAFDBEDD000000AC
:100CD000280700205B5831304B422025645D2025D9
:100CE000733A2825642920B4EDCEF3636F6D636FEA
:100CF0006D20636D64203D205B2523785D2C20658D
:100D000072726F720A0000005B5831304B4220252E
:100D1000645D2025733A2825642920B9D8B1D5C946
:100D2000CFCEBBBBFABCECB2E2210A005B5831303B
:100D30004B422025645D2025733A2825642920B480
:100D4000F2BFAAC9CFCEBBBBFABCECB2E2210A000B
:100D50005B5831304B422025645D2025733A2825AD
:100D600064292044454255475F434D445F545255E2
:100D70004D505445200A00005B5831304B4220252D
:100D8000645D2025733A282564292044454255474F
:100D90005F434D445F5345545F525443200A000063
:100DA0005B5831304B422025645D2025733A28255D
:100DB00064292044454255475F434D445F524544B2
:100DC0005F525443200A00000073EEBB5B58313081
:100DD0004B422025645D2025733A2825642920474D
:100DE000455420525443CAB1BCE4B4C15B25645D90
:100DF0000A0000005B5831304B422025645D2025FD
:100E0000733A282564292044454255475F434D44A1
:100E10005F4745545356455220646174615B305DB1
:100E20003D2564200A0000005B5831304B422025EC
:100E3000645D2025733A2825642920B0E6B1BEBA46
:100E4000C55B25642E25645D0A0000005B583130C7
:100E50004B422025645D2025733A282564292044CF
:100E6000454255475F434D445F5245424F4F54D62C
:100E7000D8C6F4CFB5CDB3A3A10A00000CED00E0B5
:100E80000400FA052DE9FE43734C00F0ABFE074663
:100E90004FF001094FF47A780026704DD0E000F051
:100EA000A1FE074628780C282AD2DFE800F0060FBA
:100EB000C2C21A2A395C69768EA19DF80800AA2858
:100EC0001ED120704846A5F802907CE09DF80810DD
:100ED0005529F5D10420287068882154401C688069
:100EE0000DE068889DF808102154401C6880A8888F
:100EF000401C80B2A880052802D305200EE0AE80F9
:100F000097E068889DF808102154401C6880A888E4
:100F1000401C80B2A8800528F2D306202870EEE796
:100F200068889DF808102154401C80B26880A98808
:100F3000491C89B2A98002297BD3204430F8020CD5
:100F4000A880FF280BD900F04DFEB0FBF8F1A8886F
:100F50000090E423424A43A002F040FE68E00720EC
:100F600028706E7065E068889DF808102154401C58
:100F7000688068789DF8081008446870082022E0AE
:100F800068889DF808102154401C688068789DF896
:100F9000081008446870092015E068889DF808105A
:100FA0002154401C688068789DF8081008446870D7
:100FB000A888042801D3001F00E000200004000CD2
:100FC000A88013D00A20287033E068889DF80810A4
:100FD0002154401C688068789DF8081008446870A7
:100FE000A888401E0004000CA88022D10B20EAE74C
:100FF00068789DF8081088420BD16A88214622A0A3
:1010000001F01EFE2448067169882046FFF70EFD98
:101010000EE000F0E7FDB0FBF8F19DF808206878DD
:10102000CDE900024FF48A730D4A1CA002F0D6FDF0
:101030002E7002A9284800F083F800283FF42FAF53
:1010400000F0D0FD07F10A01884203D800F0CAFD84
:10105000B842EED2BDE8FE83F40000200E0000206E
:10106000EA5100085B5831304B422025645D202551
:10107000733A28256429206C656E3D25642C6572C1
:10108000726F722E0A0000004465627567526563D4
:101090007650726F630000002C0000205B583130E6
:1010A0004B422025645D2025733A2825642920734E
:1010B000756D3D253032782C706B742073756D3DE5
:1010C000253032782C6572726F722C64726F7020CA
:1010D000706B742E0A00000088090020642000F064
:1010E0000DB870B5054600244FF47A7603E030461B
:1010F00000F004F8641CAC42F9D370BD70B54FF039
:10110000E02500216C69094AAB6912785043AA694D
:101110009A42FCD002D2A3EB020302E0A4EB020647
:101120003344194413468142F1D370BD700000204E
:101130000028FDD00021C18001814181084670470F
:10114000428903899A4213D0028903681344521CCE
:1011500002811A780A7081880289914201D800219F
:101160000181C18811B1C188491EC180002070472A
:101170004FF0FF307047002343608360016082803E
:1011800018467047428903899A42428901D283886E
:101190001A440389D21A8388521C934210D9428977
:1011A00003681344521C42811970C188491CC180D4
:1011B00081884289914201D80021418100207047F5
:1011C0004FF0FF30704700002DE9F0410024164D2C
:1011D0004FF47A7601274FF4037800F088F800F096
:1011E00071F888B100F083F8641CE4B2AF7000F0CD
:1011F000F9FCB0FBF6F143460C4A0DA002F0EEFC00
:10120000322CEAD3BDE8F08100F071F80020A8701C
:1012100000F0E8FCB0FBF6F1BDE8F04140F203233A
:10122000024A0EA002F0DABC1E000020C6520008DE
:101230005B5831304B422025645D2025733A2825C8
:10124000642920464D31373558585F496E697420FE
:101250006572726F722E0D0A000000005B5831300B
:101260004B422025645D2025733A282564292046B9
:101270004D31373558585F496E6974204F4B2E0DEC
:101280000A00000010B50E4C4021204602F0E1FF9C
:101290000A20FFF726FF00F02AF84021204602F03E
:1012A000DAFF0A20FFF71DFF00F021F8012001F00E
:1012B00013FD202801D0012010BD002010BD00002A
:1012C0000014004810B500F012F801F093FEFFF78B
:1012D000D9FF10B14FF0FF3010BD00F008F800202A
:1012E00001F0C4FB032001F013FE002010BD02F04A
:1012F00075BF10B5002303E010F8014BCC545B1C04
:101300009342F9D3002010BD0A4601460148FFF779
:10131000F0BF000000F00108F8B518480024184D8F
:10132000009002F0F9FE284602F0B8FE342002F0E8
:10133000A7FE02F0ABFE4FF47A766F1404226946E2
:101340002846FFF785F850B100F04CFCB0FBF6F1F1
:1013500056230C4A0CA002F041FC0120F8BD241DCC
:101360002D1DBC42EAD300F03DFCB0FBF6F15D233D
:10137000044A10A002F032FC0020F8BD6655443348
:1013800000FC0108BC5200085B5831304B4220255C
:10139000645D2025733A2825642920466C617368B2
:1013A00054657374206661696C6564212121200A8B
:1013B000000000005B5831304B422025645D202541
:1013C000733A2825642920466C61736854657374E8
:1013D000204F4B212121200A000000002DE9F05F61
:1013E000154689468346FFF782FF02F095FEABF172
:1013F0000060C0F30906C6F580644FEA9028A54254
:1014000000D82C46FFF773FF4FF0006000EB8820F8
:1014100082464FF480622B49FFF76BFF002711E0F3
:101420002848F119405CFF280BD000F0DBFB4FF49B
:101430007A71B0FBF1F17D23234A24A002F0CEFBA8
:1014400002E07F1CA742EBD3A74214D2504602F021
:1014500025FE342002F014FE00201A4A04E019F898
:1014600000108319401CD154A042F8D350464FF4C9
:101470008072144906E0A0074FEA940200D0521C83
:101480004946584600F074F8A5420FD100F0AAFB77
:101490004FF47A71B0FBF1F193230B4A13A002F0E1
:1014A0009DFB02F0F3FD0020BDE8F09F281BA14446
:1014B000A344002685B24FF4806408F10108A542D8
:1014C000A0D89EE7FF020020775200085B58313019
:1014D0004B422025645D2025733A2825642920D0BD
:1014E000E8D2AAB2C1B3FD2E0A0000005B58313029
:1014F0004B422025645D2025733A2825642920D09D
:10150000B4CDEAB3C9B9A62E0A0000002DE9FC410A
:101510000024124D0E460746009401943246394687
:101520002846FFF75BFF082269462846FFF7E1FEE1
:10153000324639466846FEF79FFE18B1641C052CFA
:10154000ECD301E0052C06D305A002F047FB4FF0D9
:10155000FF30BDE8FC810020FBE7000000F001083F
:10156000D0B4666C617368B4EDCEF321200D0A002F
:101570002DE9F84390468946064602F0CDFD002548
:101580004FF47A771BE00024342002F079FD59F8FB
:101590002510304602F0D0FDC0B10120FFF7A1FDBB
:1015A0002046641CB842F8D900F01CFBB0FBF7F1F0
:1015B0004123074A07A0009602F010FB6D1C454529
:1015C000E1D302F063FD0020BDE8F883361DF5E7A6
:1015D000685200085B5831304B422025645D20255D
:1015E000733A2825642920D0B4666C617368B3AC63
:1015F000CAB12C205B307825785D2C20B4EDCEF379
:10160000212121200A00000038B5022003F022FD2C
:10161000012003F09FFC154C012802D103F0A4FC2B
:1016200060801248618808304088411A0F48153898
:10163000202914DD0D4C01214170163C0B20207037
:1016400000F0D0FA4FF47A71B0FBF1F120780090FD
:1016500040F26923064A07A002F0C0FA01E0002127
:101660004170BDE83840022003F012BC9A0000200F
:10167000155300085B5831304B422025645D20250E
:10168000733A28256429205B4B65793A2025645DEF
:101690000A0000002DE9F84F202003F0DBFC0120B8
:1016A00003F058FC3C4F012802D103F063FC788022
:1016B000DFF8E4A079880AF1080AAAF12E06BAF840
:1016C00002000025401A741D4FF001084FF47A798A
:1016D00020280FDD84F80180357000F083FAB0FB1C
:1016E000F9F13078009040F2BA232C4A2CA002F095
:1016F00075FA00E06570202003F0CAFB402003F07B
:10170000A9FC012003F026FC012802D103F032FCE1
:10171000B880BAF80400B988401A202810DD84F88F
:1017200002800A20307000F05DFAB0FBF9F13078E9
:10173000009040F2CF23194A21A002F04FFA00E0B6
:10174000A570402003F0A4FB802003F083FC01205F
:1017500003F000FC012802D103F00CFCF880BAF879
:101760000600F988401A202810DD84F8038009203B
:10177000307000F037FAB0FBF9F13078009040F2A9
:10178000E323064A06A002F029FA00E0E570BDE86E
:10179000F84F802003F07CBBAA0000201E530008F5
:1017A0005B5831304B422025645D2025733A282553
:1017B0006429205B4B65793A2025645D0A000000AE
:1017C0005B5831304B422025645D2025733A282533
:1017D0006429205BB7B5BBD84B65793A2025645D99
:1017E0000A0000002DE9F84F4FF4806B584603F0D3
:1017F00031FC012003F0AEFB2B4D012802D103F098
:10180000BFFBA880284FA9880837A7F13E06B888F3
:101810004FF00108401A4FF47A794FF0000A06F1B0
:101820000904202810DD84F802800820307000F0C0
:10183000D9F9B0FBF9F13078009040F226331B4A19
:101840001BA002F0CBF901E084F802A0584603F097
:101850001FFB4FF4006B584603F0FCFB012003F024
:1018600079FB012802D103F08BFBE880F988E88836
:10187000081A202810DD84F803800720307000F05B
:10188000B1F9B0FBF9F13078009040F23A33074AF1
:1018900007A002F0A3F901E084F803A05846BDE8D0
:1018A000F84F03F0F5BA0000BA00002027530008F3
:1018B0005B5831304B422025645D2025733A282542
:1018C0006429205B4B65793A2025645D0A0000009D
:1018D0002DE9F84F4FF40058404603F0BBFB0120C0
:1018E00003F038FB3A4D012802D103F04FFB68802A
:1018F000374F69880837A7F14E0478884FF47A7615
:10190000401A20280DDD0220207000F06BF9B0FB9A
:10191000F6F12078009040F289132E4A2EA002F0B2
:101920005DF9404603F0B4FA4FF4804A504603F0A4
:1019300091FB012003F00EFB012802D103F026FBEE
:10194000A880B888A988DFF88890401A4FF000086E
:10195000A9F1390920280EDD0120207000F042F99C
:10196000B0FBF6F1207800904FF4CF73194A1AA01B
:1019700002F034F901E089F80280504603F088FA59
:101980004FF4805A504603F065FB012003F0E2FA61
:10199000012802D103F0FAFA288038882988401AF1
:1019A00020280EDD0320207000F01CF9B0FBF6F1BA
:1019B000207800904FF4DA73064A07A002F00EF97F
:1019C00001E089F800805046BDE8F84F03F060BAA6
:1019D000CA000020035300085B5831304B422025D9
:1019E000645D2025733A28256429205B4B65793A8C
:1019F0002025645D0A0000002DE9F84F4FF4001B1C
:101A0000584603F027FB012003F0A4FA3F4E0128BB
:101A100002D103F0C1FA7080DFF8F0A071880AF1FA
:101A2000080A0127BAF80200AAF15E05401A4FF42D
:101A30007A784FF0000905F1110420280FDD062007
:101A4000287000F0CFF8B0FBF8F12878009040F251
:101A500006232F4A2FA002F0C1F8677001E084F836
:101A60000190584603F014FA4FF4800B584603F0E7
:101A7000F1FA012003F06EFA012802D103F08CFA8A
:101A8000B080BAF80400B188401A20280FDD052084
:101A9000287000F0A7F8B0FBF8F12878009040F229
:101AA0001B231B4A1BA002F099F8A77001E084F8E1
:101AB0000290584603F0ECF94FF4000B584603F03F
:101AC000C9FA012003F046FA012802D103F064FAB2
:101AD000F080BAF80600F188401A20280FDDE77080
:101AE0000420287000F07EF8B0FBF8F12878009010
:101AF00040F23123064A07A002F070F801E084F8B2
:101B000003905846BDE8F84F03F0C2B9DA00002050
:101B10000C5300085B5831304B422025645D202572
:101B2000733A28256429205B4B65793A2025645D4A
:101B30000A00000010B5094CFF202070FFF764FD7B
:101B4000FFF7A8FDFFF74EFEFFF7C2FEFFF754FFB9
:101B50002078BDE8104002F013BD00008400002092
:101B6000034610B50020024603E09C5C521C204452
:101B7000C0B28A42F9DB10BD00B591B014210BA8A8
:101B8000FEF76FFB0BA802F093FF2C216846FEF7CF
:101B900068FB9DF82C00FEF751FC05909DF82D0088
:101BA000FEF74CFC04909DF82E00FEF747FC0390D6
:101BB0009DF82F00FEF742FC06909DF83000FEF7DE
:101BC0003DFC02909DF83100FEF738FC01909DF835
:101BD0003200FEF733FC00906846FEF7D5FA11B0EC
:101BE000002100BD0148C068704700001C000020B3
:101BF000064B4FF400411A78501C187004481AB173
:101C000000221A7002F025BB02F025BB78000020EC
:101C1000000800480A21B0FBF1F201FB1202B0FB00
:101C2000F1F002EB0010C0B270470000002909D1AA
:101C3000054A00284FF00201104601D002F00BBB0C
:101C400002F007BB70470000000400482DE9F04196
:101C5000144E00254FF48057022003F0FBF90120B9
:101C600003F078F9012803D103F07EF926F8150076
:101C7000022003F00DF93C46641EFDD16D1C142DAD
:101C8000EAD30949012036F810304A88401C1A442A
:101C90004A801428F7D390B21322B0FBF2F04880A8
:101CA000BDE8F081B80A0020A20000202DE9F04133
:101CB0002E4D00244FF4805805F1280605F15007F9
:101CC000202003F0C7F9012003F044F9012803D1D3
:101CD00003F050F925F81400202003F0D9F8402033
:101CE00003F0B8F9012003F035F9012803D103F01E
:101CF00041F926F81400402003F0CAF8802003F0D0
:101D0000A9F9012003F026F9012803D103F032F9E3
:101D100027F81400802003F0BBF84046401EFDD198
:101D2000641C142CCCD3124901204A8835F8103099
:101D30001A444A808A8836F810301A448A8037F864
:101D40001030CA88401C1A44CA801428EDD34A882F
:101D50001320B2FBF0F24A808A88B2FBF0F28A804C
:101D6000CA88B2FBF0F0C880BDE8F081E00A00202C
:101D7000B20000202DE9F047244D00244FF4806884
:101D80004FF400694FF4805A05F128064746404653
:101D900003F060F9012003F0DDF8012803D103F01E
:101DA000EFF825F81400384603F072F84F4648461D
:101DB00003F050F9012003F0CDF8012803D103F01E
:101DC000DFF826F81400384603F062F85046401E4B
:101DD000FDD1641C142CD9D30D4901208A8835F813
:101DE00010301A448A8036F81030CA88401C1A44D1
:101DF000CA801428F2D38A881320B2FBF0F28A80BA
:101E0000CA88B2FBF0F0C880BDE8F087580B00200C
:101E1000C20000202DE9F05F324D00244FF4005A3B
:101E20004FF4804B4FF4805905F1280605F1500816
:101E30005746504603F00EF9012003F08BF80128B5
:101E400003D103F0A3F825F81400384603F020F876
:101E50005F46584603F0FEF8012003F07BF80128A6
:101E600003D103F093F826F81400384603F010F875
:101E70004F46484603F0EEF8012003F06BF80128C6
:101E800003D103F083F828F81400384603F000F873
:101E90007F1EFDD1641C142CCAD313490120434674
:101EA0004A8835F8104022444A808A8836F8104023
:101EB00022448A8033F810400A88401C22440A8059
:101EC0001428EDD34A881320B2FBF0F24A808A88A6
:101ED000B2FBF0F28A800A88B2FBF0F00880BDE81D
:101EE000F09F0000A80B0020D20000202DE9F05F39
:101EF000324D00244FF400194FF4800A4FF4000BC8
:101F000005F1280605F15007C846484603F0A2F837
:101F1000012003F01FF8012803D103F03DF825F854
:101F20001400404602F0B4FFD046504603F092F849
:101F3000012003F00FF8012803D103F02DF826F853
:101F40001400404602F0A4FFD846584603F082F839
:101F5000012002F0FFFF012803D103F01DF827F84C
:101F60001400404602F094FF4FF48050401EFDD113
:101F7000641C142CC8D3124901204A8835F810304B
:101F80001A444A808A8836F810301A448A8037F812
:101F90001030CA88401C1A44CA801428EDD34A88DD
:101FA0001320B2FBF0F24A808A88B2FBF0F28A80FA
:101FB000CA88B2FBF0F0C880BDE8F09F200C00207A
:101FC000E200002010B5A0B0044680216846FEF76C
:101FD00048F9012368468DF808401A461946FEF76D
:101FE00007FA20B0002010BD70B540F2135002F087
:101FF00029FD084D4FF4004401222346114628468E
:1020000002F063FA23462846BDE87040032200210F
:1020100002F07FBA0008004813B50C466846FEF788
:1020200069F9017E2170017D64396170017C491C70
:10203000A170017BE170017A083121710179617130
:102040000078A07104E018382071E078401CE0703E
:1020500020791828F7D204E03C3860712079401CC0
:10206000207160793C28F7D204E03C38A071607997
:10207000401C6071A0793C28F7D200201CBD0000F4
:102080002DE9FC4727212E48FEF7EBF82D480026C6
:10209000082106600E30FFF737F929486021283003
:1020A000FEF7DFF8DFF8A090484600F0EBFE254F82
:1020B000DFF898800E37A7F1100439684FF47A756D
:1020C00041450BD122A001F089FDE0684623B0FB19
:1020D000F5F12F4A2FA001F081FD15E036A001F0A7
:1020E0007DFDE0684B23B0FBF5F1294A42A001F0E9
:1020F00075FD484600F0C6FE1248666108210E30A4
:10210000C7F80080FFF702FAE0680227B0FBF5F19C
:10211000CDE9007652231E4A414801F05FFDE06898
:1021200040A2B0FBF5F142A0CDE900025323184ACA
:1021300042A001F053FD02480770BDE8FC87000093
:10214000000700201E000020FFF3255CAE5634126D
:102150000A0A0A3D3D3D3D3D3D3D3D3D3D3D3D3D48
:102160003D3D3D3D3D3D3D3D3D3D3D3D3D3D3D3D9F
:102170003D3D3D3D3D3D3D3D3D3D3D3D3D3D3D3D8F
:102180003D3D3D3D3D3D3D3D3D3D3D3D3D3D0A00EF
:10219000825200085B5831304B422025645D202577
:1021A000733A28256429200D5538537562C6F4B654
:1021B000AF4170700A0000000A0A0A2A2A2A2A2A55
:1021C0002A2A2A2A2A2A2A2A2A2A2A2A2A2A2A2A6F
:1021D0002A2A2A2A2A2A2A2A2A2A2A2A2A2A2A2A5F
:1021E0002A2A2A2A2A2A2A2A2A2A2A2A2A2A2A2A4F
:1021F0002A2A2A2A2A2A0A005B5831304B422025F3
:10220000645D2025733A28256429200D55385375BF
:1022100062B3F5B4CEC6F4B6AF4170700A000000E8
:102220005453000831383A31363A30390000000052
:102230004A616E2020332032303139005B58313012
:102240004B422025645D2025733A28256429200A05
:1022500020CEC4BCFEB1E0D2EBCAB1BCE42C20D489
:10226000C2C8D5C4EA20257320CAB1B7D6C3EB25AE
:1022700073200A007CB50446C0792F4B4FF47A7561
:10228000062850D2DFE800F04F030F233A462B49CF
:1022900001200870FFF7A6FCB0FBF5F14FF4957331
:1022A000274A28A011E000220221104600F0CAFDB2
:1022B000207A01280CD0022809D1FFF793FCB0FB4B
:1022C000F5F14FF49C731E4A29A001F087FC7CBDF8
:1022D000FFF788FCB0FBF5F140F23313184A30A049
:1022E00001F07CFCBFF34F8F38480168384A01F495
:1022F000E06111430160BFF34F8FFEE7082204F154
:1023000008011846FFF76AF800220421104600F081
:1023100099FD7CBD082269461846FEF7EAFF68462B
:1023200000F0C4FA7CBDFFF75DFCB0FBF5F14FF4A3
:10233000A673034A27A0C8E700F80108010000209F
:10234000185200085B5831304B422025645D20252F
:10235000733A282564292072656376207379737433
:10236000656D20696E666F2061636B2E2E0A00001A
:102370005B5831304B422025645D2025733A282577
:10238000642920426C7565426C7565746F6F746862
:102390005F526573657420726571202E0A0000001B
:1023A0005B5831304B422025645D2025733A282547
:1023B000642920CAD5B5BDD6F7B0E5B5C4B8B4CE4A
:1023C000BBCFB5CDB3C7EBC7F32E0A000CED00E0D1
:1023D0000400FA055B5831304B422025645D20250E
:1023E000733A2825642920B4EDCEF32E0A000000AC
:1023F000F0B589B00446002000900190029003904F
:10240000E07901280ED04FF47A75022811D0032804
:102410007ED0FFF7E7FBB0FBF5F140F20223704AF4
:1024200070A044E0207A002801D001F083F909B0BF
:10243000F0BD60880828FAD3A0680490A089ADF8A0
:102440001400062204A96EA000F0FAFBA67BE47B30
:10245000FFF7C8FBB0FBF5F140F26F13604A6AA0CA
:1024600001F0BCFB08AA07A906A801F049F960B170
:1024700001F060F969460120FEF7A2F8FFF7B2FB10
:10248000B0FBF5F140F275130FE09DF81800042839
:1024900010D001F04FF969460120FEF791F8FFF7DF
:1024A000A1FBB0FBF5F140F281134D4A5DA001F0B4
:1024B00095FBBCE707AB04AA3146002000F026F9E3
:1024C00060B101F037F969460120FEF779F8FFF7AE
:1024D00089FBB0FBF5F140F28B13E6E704EB8600D5
:1024E000C0B2694600F056F968B101F023F96946B7
:1024F0000120FEF765F8FFF775FBB0FBF5F14FF42F
:10250000CC73D2E704E069460020FEF759F88CE767
:10251000A0680490A089ADF81400A77BE07B00EBD5
:102520008700C6B2FFF75EFBB0FBF5F140F2C113C6
:102530002B4A47A001F052FB01F0FCF808AA06A9BB
:1025400007A801F0DDF830B1FFF74CFBB0FBF5F167
:102550004FF4E3730CE006AB04AA3946002000F008
:10256000D5F878B1FFF73EFBB0FBF5F14FF4E87317
:102570001B4A3FA001F032FB01F0DCF8012001F022
:10258000FBFA54E704F11007082E12D03946304602
:1025900000F04AF910B3FFF725FBB0FBF5F14FF45B
:1025A000FA730F4A3BA001F019FB012001F0E4FA95
:1025B0003BE70F213846FFF7D3FAE17F8842A6D1E7
:1025C0003946082000F030F940B1FFF70BFBB0FBB3
:1025D000F5F14FF4F473024A37A0E4E70020E5E791
:1025E0002B5200085B5831304B422025645D20257A
:1025F000733A2825642920B4EDCEF32E0A0000009A
:102600006B657941000000005B5831304B4220255A
:10261000645D2025733A2825642920D1B0BFA80D18
:102620000A0000005B5831304B422025645D2025B4
:10263000733A2825642920436172642041757468C7
:102640006F72206661696C65642E0D0A00000000DF
:102650005B5831304B422025645D2025733A282594
:10266000642920D0B4BFA8D1B0BFA80D0A000000D3
:102670005B5831304B422025645D2025733A282574
:102680006429205752495445206661696C65642E5F
:102690000D0A00005B5831304B422025645D202537
:1026A000733A2825642920D0B4BFA8BFE978CAA707
:1026B000B0DC0D0A000000005B5831304B42202591
:1026C000645D2025733A2825642920D0B4BFA8BFB3
:1026D000E938CAA7B0DC0D0A0000000070B50D464D
:1026E0000446FEF704FEA2794AB1012A0DD0022A5F
:1026F0000BD129462046BDE87040FFF779BE294638
:102700002046BDE87040FFF7B5BD70BD00B587B08D
:1027100010B1012802D004E0602000E061208DF8B3
:10272000040088008DF8050010788DF806005078B8
:102730008DF8070090788DF80800D0788DF80900A2
:1027400010798DF80A0050798DF80B0018788DF803
:102750000C0058788DF80D0098788DF80E00D87818
:102760008DF80F00012000F007FAFEF745F805A8E4
:10277000009004AB0C2201A90E2000F0B9F838B982
:10278000082000F0A9FA000702D5002007B000BD1C
:102790000120FBE77FB504460D46012000F0ECF96F
:1027A00030228DF808208DF80940FEF725F803A89F
:1027B00000902B46022202A90C2000F099F8044652
:1027C000FFF710FA4FF47A71B0FBF1F10398CDE9FD
:1027D000000440F2CD13064A06A001F0FFF914B937
:1027E0000398802802D0012004B070BD0020FBE7D0
:1027F000D55200085B5831304B422025645D2025BE
:10280000733A2825642920726563655F6269746C78
:10281000656E3A202564202C726573756C74203DBA
:10282000202564200A00000030B504468BB00D4618
:10283000012000F0A1F9A0218DF814108DF81540A9
:1028400009AC01AB022205A90C20009400F050F85D
:1028500000B101209DF8041001F00F010A2901D0F8
:10286000012200E00022104316D1052000F084F977
:1028700001AB102229460C20009400F039F800B179
:1028800001209DF8041001F00F010A2901D0012157
:1028900000E00021084300D001200BB030BD10B58E
:1028A000FEF725FDBDE81040FDF7D6BE30B5A1B05E
:1028B000044680216846FDF7D4FC206802906068D9
:1028C0006D4603900523002208212846FDF790FD60
:1028D0001222294602A000F0B3F921B0002030BD39
:1028E00050434242756D55704C6F616400000000AA
:1028F0002DE9F04799461446884607460026DDF83C
:1029000020A0FDF779FFFEF7F2FC20210B2001F05B
:1029100060F97F21042001F05CF90E2F07D14146B8
:10292000204601F049F980210D2000F0E5FA8021D0
:102930002A2000F0E1FA3946012001F04AF9FEF7B9
:10294000D6FC042000F0C8F90546C00703D02025B6
:102950000C2F5CD076E00E2F11D0042F12D00C2F4C
:10296000EDD1680739D5C4B3202C414629D92020A0
:1029700001F022F9203CE4B208F1200825E0E80645
:10298000DDD560E0680717D5B4B1202C414604D2EC
:10299000204601F011F9002406E0202001F00CF996
:1029A000203CE4B208F1200880210D2000F0A4FAB8
:1029B0000421084601F00DF96806C0D5002CBED1EF
:1029C00041E0204601F0F8F8002480210D2000F0BD
:1029D00093FA0421084601F0FCF8280712D568068E
:1029E00010D57CB90A2000F077F920280AD909EB24
:1029F0000601202000F062F92036F6B208210420FA
:102A000001F0E7F8A8069AD5002C98D100250A20F5
:102A100000F062F907460C2000F05EF900F00704B0
:102A20000FB904B1012709EB0601384600F046F959
:102A3000F019C0B21CB1C0000838011900E0C10093
:102A4000CAF800101DB9062000F046F9054680219D
:102A50000C2000F051FA2021012001F0BAF8802169
:102A60000D20FDF7BDFE2846BDE8F08710B50446F1
:102A7000FEF73DFC24B1012C45D0022C5DD05AE07C
:102A800010210C2000F038FA4021152000F034FA13
:102A90000021122001F09DF80021132001F099F887
:102AA0008021392000F028FA01213C20FDF798FE12
:102AB00007213D20FDF794FE03213E20FDF790FE07
:102AC000FF21332001F085F80721322001F081F841
:102AD000F121272001F07DF83F21282001F079F82D
:102AE0000121292001F075F84021262001F071F81C
:102AF0000D21192001F06DF88421182001F069F8EA
:102B00004021362015E010210C2001F062F88321CD
:102B1000122001F05EF88321132001F05AF8F4210D
:102B2000272001F056F8F421232001F052F800216B
:102B300020E001F04EF8002010BD10210C2001F023
:102B400048F89221122001F044F89621132001F058
:102B500040F8F421272001F03CF82021282001F042
:102B600038F84F21232001F034F82021292001F0EA
:102B700030F807211520DCE770B540F29F61002492
:102B80004843611E01224FF6FF7301EBC0011D1186
:102B900002EB4400B1FBF0F0984202D3641CAC425B
:102BA000F6D385B2C4F307212A2000F0A5F9E1B2DB
:102BB0002B2001F00EF8290A2C2001F00AF8E9B2C6
:102BC0002D2001F006F8002070BD000070B505460C
:102BD00000241A4E09E00A20FEF783FA2046641CFE
:102BE000C82802DD4FF0FF3070BD2021304601F0D3
:102BF00067FC0028EFD10821304601F02CFBFEF7DE
:102C00006DFA0821304601F024FBFEF767FA002434
:102C10000FE0FEF76CFB1021304601F01CFBFEF7C5
:102C20005DFA1021304601F014FBFEF757FA641CE0
:102C3000E4B2AC42EDD3002070BD000000040048B7
:102C40007CB515460E460446FEF7CCFF4FF47A716C
:102C5000B0FBF1F15C230A4A0AA0CDE9004500F07F
:102C6000BDFF002404E0315D11A000F0B7FF641C3B
:102C7000AC42F8D3BDE87C400FA000F0AFBF00002D
:102C8000A35200085B5831304B422025645D20255B
:102C9000733A282564292063616C6C2062792025B1
:102CA000732C6C656E3D25642C70646174613A0010
:102CB00025303258000000000A00000070B50D46B3
:102CC0000646002405E0092000F006F82855641C9B
:102CD000E4B2B442F7D370BD00F022B810B501F0F1
:102CE00085FFFEF77FFF4FF47A71B0FBF1F1BDE88D
:102CF00010406A23014A02A000F070BFE6520008AB
:102D00005B5831304B422025645D2025733A2825DD
:102D1000642920B3F5CABCBBAF205254430A00005B
:102D200070B504464FF400454FF0904629463046B2
:102D300001F08FFA802040EA4400C0B200F0C4F9EC
:102D400000F0BEF904462946304601F084FA2046D8
:102D500070BD2DE9F0410E4607464FF400444FF098
:102D600090452146284601F074FA7E2000EA47008B
:102D700000F0AAF9304600F0A7F921462846BDE840
:102D8000F04101F068BA00003EB50C46AA2121705E
:102D900055216170E071101DA0810120A073D01C2D
:102DA00081B2154604F10E00FEF7DAFE611948748F
:102DB000FEF718FF4FF47A71B0FBF1F1207CA37C91
:102DC000627C8DE80D001023094A0AA000F006FF7E
:102DD00005F112021546214615A0FFF731FF03B099
:102DE000AAB22146BDE83040002000F05FBE0000DE
:102DF000D05100085B5831304B422025645D2025BE
:102E0000733A2825642920704672616D652D3E68ED
:102E10006561642E636D64203D205B2523785D2C05
:102E2000205B25645D2C205B25645D0A00000000AA
:102E3000B7A2CBCDCAFDBEDDB8F8B2FAB2E2C8ED9A
:102E4000BCFE0000F0B5A1B00E4607461546802135
:102E50006846FDF706FA6C468DF8085033463A4648
:102E600001212046FDF7C4FA0B22214602A0FFF7FC
:102E7000E7FE21B00020F0BD53656E644D73675FBF
:102E800041434B001CB56946FFF7C6F89DF80100A9
:102E9000FEF7C0FE164B03F83C0F9DF80200FEF74C
:102EA000B9FE58709DF80300FEF7B4FE98709DF8C7
:102EB0000000FEF7AFFED8709DF80400FEF7AAFEF2
:102EC00018719DF80500FEF7A5FE58719DF80600E3
:102ED000FEF7A0FE98710748016819814068588183
:102EE0000020D860186102483C3001F00FFE1CBD84
:102EF000280700207C00002070B50C460546FFF72F
:102F0000EBFE40EA0401284600F063FE002070BD9D
:102F100070B50446FEF7EBF91420FFF7DDFE00F074
:102F20000300A04201D1002070BD34B1012C06D0B5
:102F3000022C0ED0032C0ED006E0032100E001216C
:102F40001420FDF74DFC0546C820FEF7CAF82846B8
:102F500070BD0221F4E703211420FFF7CDFFF2E753
:102F600070B540F2135001F06DFD084D4FF4005460
:102F7000012223461146284601F0A7FA2346284697
:102F8000BDE870400322002101F0C3BA00080048E8
:102F900010B5002418210C48FDF763F90A480921EF
:102FA00004EB440200EBC2025170641CF8D0012112
:102FB00081713421C171FFF7D3FF01223421BDE8B3
:102FC0001040002000F060BAA00A002058B1092883
:102FD0000CD00A280DD00123401E834003EA0100D3
:102FE0001146FEF723BE11460020FAE711460120E4
:102FF000F7E770472DE9F04140F2115001F022FD52
:1030000040F2165001F01EFD40F2125001F01AFD80
:103010004FF4004401224FF09045234611462846C4
:1030200001F053FA234603220021284601F071FAE9
:10303000214E012240231146304601F046FA40233A
:1030400003220021304601F064FA1C4F01220823BC
:103050001146384601F039FA082303220021384688
:1030600001F057FA012220231146384601F02DFACB
:10307000202303220021384601F04BFA10230122BD
:103080000021384601F021FA10230322002138469E
:1030900001F03FFA4021304601F0DDF82146284694
:1030A00001F0D9F82021384601F0D5F83846BDE8BE
:1030B000F041082101F0CDB8001400480004004898
:1030C000A52000F001B800002DE9F041144F05469D
:1030D000002428064FF02001384602D501F0BBF845
:1030E00001E001F0B6F80821384601F0B4F80120FB
:1030F000FEF704F86806060E1021384601F0E0F9E4
:1031000040EA06050821384601F0A3F80120FDF742
:10311000F5FF641CE4B2082CDBD32846BDE8F0813F
:103120000004004810B5A2B080216846FDF799F868
:1031300002A820906C462722064920A8FDF778F8BF
:103140000123002227212046FDF752F922B000205A
:1031500010BD00000007002000B5A1B08021684626
:10316000FDF77FF8054968460323096802910022AC
:103170000421FDF73DF921B0002000BD1E00002014
:10318000704700001E48016841F0010101600168BC
:103190008907FCD541681B4A1140416041681A4AC1
:1031A00011404160416821F440014160016B174AC0
:1031B000114001630168164A11400160C16A154A55
:1031C0001140C162016B40F2031291430163016B34
:1031D00021F480310163016B21F000410163416BF7
:1031E00021F001014163D0F8C01021F48031C0F812
:1031F000C01000218160C0F8CC1001F043BD000078
:10320000001002400C00FF08FFFFC277BFFFFFBFA6
:10321000FFFFF2FEF0FFFF3F70B540F61A1001F01D
:1032200085FB294C4FF47A7501281ED040F61B10FF
:1032300001F07CFB01281FD040F61C1001F076FB4A
:10324000012820D040F61D1001F070FB012821D08C
:1032500040F61E1001F06AFB012822D040F61F1034
:1032600001F064FB012823D02AE0E0686923B0FB69
:10327000F5F1164A16A021E0E0686D23B0FBF5F1E8
:10328000124A1EA01AE0E0687123B0FBF5F10F4A64
:1032900023A013E0E0687523B0FBF5F10B4A29A0E9
:1032A0000CE0E0687923B0FBF5F1084A2FA005E0B7
:1032B000E0687D23B0FBF5F1044A36A000F08EFCF7
:1032C000BDE8704001F052BA1C0000209152000885
:1032D0005B5831304B422025645D2025733A282508
:1032E000642920CFB5CDB3CDE2B2BFB8B4CEBBB95F
:1032F000DCBDCCB8B4CEBB0A000000005B58313056
:103300004B422025645D2025733A2825642920CF6F
:10331000B5CDB3C9CFB5E7B8B4CEBB0A0000000045
:103320005B5831304B422025645D2025733A2825B7
:10333000642920CFB5CDB3C8EDBCFEB8B4CEBB0A6E
:10334000000000005B5831304B422025645D202591
:10335000733A2825642920CFB5CDB3B6C0C1A2BF2A
:10336000B4C3C5B9B7B8B4CEBB0A00005B5831309E
:103370004B422025645D2025733A2825642920CFFF
:10338000B5CDB3B4B0BFDABFB4C3C5B9B7B8B4CE66
:10339000BB0A00005B5831304B422025645D20257C
:1033A000733A2825642920CFB5CDB3B5CDB9A6BAD7
:1033B000C4B8B4CEBB0A000010B5042001F0A6FCCE
:1033C0000B480C490C4B0068B0FBF1F2B0FBF1F17B
:1033D0004FF47A7041434FF0E0201A70026942F0D6
:1033E000020202614161016941F00101016110BD08
:1033F000EC00002040420F007000002070B5174D17
:10340000154C0121284601F039FD00281BD001216F
:10341000284601F02FFD617920790022FFF7D6FDC3
:103420002079401C207120790B280CD1E08A401CA7
:1034300080B2E082A18A884206D2E18A2069405C9B
:1034400060710020207170BDA52020702846BDE865
:10345000704001F0ADBC0000A00A0020002C01402B
:1034600010B501218C07204601F008FD002807D087
:103470000121204601F0FEFC0248C168491CC160E0
:1034800010BD00001C0000202DE9FF41044620482B
:1034900016460F4630F8140001F0D4FA1C4D1235D0
:1034A00055F8240001F044FC6B20ADF8000000202A
:1034B000ADF80C00ADF80200ADF8040002978DF8ED
:1034C0000E0055F82400694601F080FC012E10D151
:1034D00055F82400012101F0C9FC55F82400012110
:1034E00001F070FCA5F118000122005D114601F009
:1034F000EBF855F8240001F015FC55F8240001F014
:103500005CFC002C02D1286801F052FCBDE8FF8170
:103510002200002010B540F2115001F093FA40F261
:10352000125001F08FFA4FF4A36001F08BFA00F013
:1035300095FE01F0BDFCFEF789FBFEF7B7FBFEF739
:1035400019FCFEF767FCFEF7D1FCFEF74BFB4FF4CE
:103550007A71B0FBF1F1BDE8104040F25533024AF8
:1035600002A000F03BBB0000305300085B58313034
:103570004B422025645D2025733A28256429205478
:1035800073694B6579496E6974204F4B0A000000DE
:103590002DE9F0438DB00646002001900290039083
:1035A00004900590086008710C4620218DF81810D1
:1035B0008DF81C008DF820008DF824008021122049
:1035C000FDF70EF980211320FDF70AF980210E2066
:1035D00000F0FFFA00211D2000F0FBFA0DF1280891
:1035E0000DF1040904AD8DF828609DF818008DF8E0
:1035F00029009DF81C100D2000F0EBFA9DF8242006
:10360000214608F10200FCF713FE9DF82400801CFF
:10361000C7B20120FFF7B0FA02AB3A460AA90C2064
:10362000CDF80090FFF764F9202867D000072AD56D
:103630000E20FFF751FB00F01F0709AB08AA06A9EF
:10364000384600F01EF907A9384600F0F9F89DF851
:10365000242002A904A8FCF7EBFD9DF824009DF8A6
:103660002020284410F8011D11400170002205E0BF
:10367000A05CA95C0843A054521CD2B29DF824005F
:103680008242B0D2F4E70198082802D9C0F3C706F5
:1036900000E001269DF8240018B1311806292DD12B
:1036A00007E0052E2AD1324602A92046FCF7C0FDCC
:1036B00016E02844324602A9401EFCF7B9FD00205E
:1036C0000CE09DF8241001440A19294412F8013D28
:1036D00011F8011C0B43401C1370C0B2B042F0D370
:1036E00020786178E2784840A178514048402179BB
:1036F000884203D100200DB0BDE8F0830120FAE735
:1037000070B515460E46044600F038F880B9617869
:1037100071B9217889090CD131469320FFF738FF20
:1037200030B92A463146932000F059F8002800D0DD
:10373000012070BD1FB550208DF8040000208DF8C9
:10374000050001460D2000F044FA80211220FFF709
:10375000D3FB80211320FFF7CFFB08210846FDF79C
:103760003FF80120FFF708FA03A8009002AB0222FD
:1037700001A90C20FFF7BCF804B010BD1FB504462A
:103780000020029080211220FDF72AF880211320CA
:10379000FDF726F808211320FFF7AEFB07210D20C7
:1037A00000F017FA26208DF80C000120FFF7E4F94D
:1037B00002A8009001AB012203A90C20FFF798F8A2
:1037C00010B90298102802D0012004B010BD9DF855
:1037D000040020709DF8050060700020F5E770B5CA
:1037E0000C46064686B0154600210D2000F0F1F982
:1037F00080211220FFF780FB80211320FFF77CFB44
:103800008DF8046070208DF80500002001A9225C6D
:103810000B18401CC0B29A700528F8D30120FFF79E
:10382000ABF905A8009003AB072201A90C20FFF714
:103830005FF8002802D19DF80C10297006B070BD09
:10384000E8B1421E082A02D200EB001017E0A0F1F6
:1038500009030201082B03D2803A104408380EE015
:10386000A0F11103082B02D21044103807E0A0F198
:103870001903072B04D2A2F5C0721044183808703F
:103880007047F0B5042510B958240C701D70441E03
:103890000126082C02D221340C701E70A0F10904FC
:1038A000082C03D231340C7002241C70A0F11104D6
:1038B0000327082C02D241340C701F70A0F11904A8
:1038C000072C02D2383008701D70087800F007000D
:1038D000092807D2DFE800F0060507090B0D0F11D4
:1038E00013001670F0BD1770F0BD072008E00F2020
:1038F00006E01F2004E03F2002E07F2000E0FF20E0
:103900001070F0BD2DE9F05F894604463E4900EB9A
:10391000440001EB800A3D48934630F8140001F062
:1039200091F83A48001D30F8140001F08BF8374F39
:1039300001212037A7F1100857F8242058F8240057
:1039400000F05CFC07F10805A5F1100655F82420ED
:1039500056F82400012100F051FC57F8243058F8A3
:1039600024000122022100F0B0FD57F824004FF698
:10397000FF7703463A46002100F0CBFD55F824308E
:1039800056F824000122022100F09FFD55F8243052
:1039900056F824003A46002100F0BBFD203D55F8C2
:1039A000240001F09DFB55F82400594601F064FB0A
:1039B00055F82400042101F0E6FB55F82400082105
:1039C00001F0E9FBB9F1010F16D155F824000521EA
:1039D00001F0AEFBA5F10C000122005D022100F018
:1039E00073FE0B484FF4807200EB04215046FDF744
:1039F000C2FB5046FDF79CFB55F8240001F088FB04
:103A00000020BDE8F09F0000880900204000002051
:103A10008807002070B50C4E0C4C0A4D31462046EC
:103A200001F099FB00280CD0204601F051FBC1B2F7
:103A30002846FDF7A7FB31462046BDE8704001F05F
:103A400082BB70BD880900200500050700380140D1
:103A500070B50C4E0C4D0A4C3146284601F07BFBEC
:103A600000280CD0284601F033FBC1B22046FDF7F8
:103A700089FB31462846BDE8704001F064BB70BD4B
:103A800094090020050005070044004010B54FF4DC
:103A9000964201210020FFF735FF0121BDE81040CB
:103AA0004FF4E1320846FFF72DBF00002DE9F04743
:103AB00017468846054600240E4E40F2077910E06E
:103AC000FDF715FC18F8041056F8250001F004FB6A
:103AD00056F82500494601F020FB0028F8D0641C68
:103AE000A4B2BC42ECD31420FDF7FBFA0020BDE8E1
:103AF000F0870000480000202DE9F041124F0546F4
:103B00004FF4005600243146384600F0A2FB08204E
:103B1000FDF7F4FAE8073146384602D000F09BFB87
:103B200001E000F096FB0820FDF7E8FA641C6D0840
:103B3000E4B2082CEED33146384600F08CFBBDE8E9
:103B4000F0410820FDF7DABA0008004810B54FF43C
:103B50001064204600F0FAFE204600F005FF012820
:103B6000FAD104214FF47F6000F010FB00F036FB27
:103B7000BDE8104000F03ABB30B5A1B00546802149
:103B80006846FCF76EFB6C468DF808500323022252
:103B900001212046FCF72CFC0B22214602A0FFF756
:103BA0004FF821B0002030BD50434242756D557032
:103BB0004C6F61640000000070B50D46064600249D
:103BC00004E0295D092000F004F8641CB442F8D335
:103BD00070BD10B5FFF7BDF8002010BD0FB4054B48
:103BE00010B503A9044A029800F018F810BC5DF85B
:103BF00014FB00006D410008F000002002E008C83E
:103C0000121F08C1002AFAD170477047002001E056
:103C100001C1121F002AFBD1704700002DE9FF4FA0
:103C20008DB00F460546002606E025280BD0DDE9BD
:103C30000F1290476D1C761C28780028F5D111B022
:103C40003046BDE8F08F0024A246A1460122EC498F
:103C500000E0044315F8013F203B02FA03F008425C
:103C6000F7D128782A2810D06FF02F022878A0F1F9
:103C70003001092914D80AEB8A0102EB410144F012
:103C8000020400EB010A6D1CF0E701CF5FEA000AB5
:103C900003D544F40054CAF1000A44F002046D1C38
:103CA00028782E2817D115F8010F44F004042A288B
:103CB0000ED06FF02F022878A0F1300109290AD820
:103CC00009EB890102EB410100EB01096D1CF2E7F0
:103CD00057F8049B6D1C28786C280FD006DC4C2804
:103CE00017D068280DD06A2814D104E0742810D0A9
:103CF0007A280FD10DE044F400140AE044F4801453
:103D000001E044F440146978814202D104F5801442
:103D10006D1C6D1C2A786E2A1FD00CDC632A31D0F2
:103D200004DC002A8BD0582A11D1A3E0642A68D081
:103D3000692A0CD165E0732A2ED004DC6F2A73D077
:103D4000702A04D19BE0752A6FD0782A6ED0104675
:103D5000DDE90F129047761C50E1C4F302500228AF
:103D600006D0032809D0042801CF09D0066045E118
:103D700001CFF117C0E9006140E101CF06803DE1CC
:103D800006703BE117F8040B8DF8000000208DF859
:103D90000100EB46012003E057F804BB4FF0FF3071
:103DA00061074FF0000102D40DE008F101018846DF
:103DB00049450FDA8045F8DB1BF808100029F4D1DB
:103DC00008E008F1010188468142FADB1BF808107F
:103DD0000029F6D1DDE90F23AAEB08008146214630
:103DE00000F036F9304400EB080604E0DDE90F127C
:103DF0001BF8010B9047B8F10108F7D2214648465D
:103E0000F7E00A21C4F302534FF0000B0891022B94
:103E100004D001CFC117032B09D00AE0FF1D27F002
:103E20000707F7E8020108E032E01FE020E000B2F7
:103E3000C117042B01D140B2C117031E71F1000359
:103E400007DA4FF0000CD0EB0C006CEB01012D23D6
:103E500002E0230504D52B238DF82430012303E051
:103E6000E30701D02023F7E7984658E00A2110E045
:103E700010210EE010204FF0000B08900CE01021F4
:103E80004FF0000B44F004044FF00809089103E0E0
:103E900008214FF0000B0891C4F30253022B04D009
:103EA00001CF0021032B06D006E0FF1D27F00707F6
:103EB000F7E8020103E080B2042B00D1C0B24FF05A
:103EC000000823072BD5702A07D0DDF820C08CF01E
:103ED000100C5CEA0B0C05D00EE040238DF824306A
:103EE000012308E050EA010306D030238DF8243086
:103EF0008DF8252002239846DDF820C08CF0080CB0
:103F00005CEA0B0C0BD150EA010301D1630706D523
:103F100030238DF824304FF00108A9F10109582A07
:103F200004D038A20B9208AA0A920BE03AA2F9E751
:103F30005B46089AFCF7ADF90B9B9B5C0A9A521EF4
:103F40000A92137050EA0102F2D10A98ADEB000018
:103F500000F1200B600702D524F4803401E04FF01B
:103F60000109D94502DDA9EB0B0000E0002000EBC0
:103F70000B0141440890AAEB010AE00306D4DDE9F5
:103F80000F232146504600F063F806444FF0000925
:103F900008E009A911F80900DDE90F12904709F1BD
:103FA0000109761CC145F4DBE0030CD5DDE90F23E4
:103FB0002146504600F04CF8064404E0DDE90F12BB
:103FC00030209047761C0899481E08900029F5DC9F
:103FD00008E00A980A990078491C0A91DDE90F1255
:103FE0009047761CBBF10001ABF1010BF1DC2146DF
:103FF0005046DDE90F2300F019F806446D1C1BE65E
:1040000009280100303132333435363738396162AE
:104010006364656600000000303132333435363772
:104020003839414243444546000000002DE9F04143
:10403000044600251E461746880404D405E0394688
:104040002020B0476D1C641EF9D52846BDE8F081DC
:104050002DE9F041044600251E469046C80301D5CF
:10406000302700E02027880404D505E04146384683
:10407000B0476D1C641EF9D52846BDE8F0810000EC
:104080000149C860704700000020024002480169F1
:1040900041F08001016170470020024070B5054683
:1040A0004FF47026304600F017F8002810D1094C64
:1040B000206940F0020020616561206940F0400005
:1040C0002061304600F008F8216921F002012161E9
:1040D00070BD00000020024000B5034600F008F863
:1040E0005B1E012802D1002BF8D1042000BD000086
:1040F00008490020CA68D20701D001207047CA6869
:10410000D20601D503207047C9684907FBD50220B4
:10411000704700000020024004480169090603D5E9
:10412000034941600349416070470000002002409C
:1041300023016745AB89EFCDF0B506464FF47027F4
:104140000D463846FFF7C8FF00280CD1064C206901
:1041500040F00100206135603846FFF7BDFF21695E
:1041600021F001012161F0BD0020024010B504469C
:10417000FDF7BDF80449A52081F83100E0B2FFF752
:10418000BBFC204610BD00002807002030B5124DB2
:10419000104B45F255541A462C60EC68521E04F040
:1041A000010402D0002CF8D100E04CB96960E96844
:1041B0005B1E01F0020102D00029F8D102E009B132
:1041C000002030BDC0F30B00A8604AF6AA2028608A
:1041D000012030BDFFFF0F000030004002494AF6C9
:1041E000AA200860704700000030004002494CF6E9
:1041F000CC4008607047000000300040F0B5046A11
:10420000456A00234FF0010C4FF00F0E0CFA03F635
:10421000164206D09E000EFA06F7BC4301FA06F7D6
:104220003C435B1C9BB2082BF0D308230CFA03F62B
:10423000164207D09E00203E0EFA06F7BD4301FA53
:1042400006F73D435B1C9BB2102BEFD30462456223
:10425000F0BD816270478161704700002DE9F04731
:104260004FF09048012300220221404600F02DF932
:10427000012300221946404600F04BF90223002298
:104280001946404600F021F900220223114640461B
:1042900000F03FF9012203214046FFF7AFFF022261
:1042A00003214046FFF7AAFF1023002202214046C7
:1042B00000F00BF9102300220121404600F029F9FB
:1042C000202300220221404600F0FFF80022202394
:1042D0001146404600F01DF94023002202214046CD
:1042E00000F0F3F8002240231146404600F011F997
:1042F000802300220221404600F0E7F800228023BC
:104300001146404600F005F9102203214046FFF710
:1043100075FF202203214046FFF770FF4022032152
:104320004046FFF76BFF802203214046FFF766FF00
:10433000DFF88891012300220221484600F0C5F8E9
:10434000012300221946484600F0E3F80223002228
:104350001946484600F0B9F80022022311464846A3
:1043600000F0D7F8042300220221484600F0ADF8FF
:10437000002204231146484600F0CBF80122032115
:104380004846FFF73BFF022203214846FFF736FF6E
:10439000042203214846FFF731FF4FF4805423469F
:1043A00000220221404600F090F82346002201211D
:1043B000404600F0AEF8A5102B46002202214046F0
:1043C00000F083F800222B461146404600F0A1F889
:1043D0006610334600220221404600F076F80022A3
:1043E00033461146404600F094F8E7103B46002261
:1043F0000221404600F069F800223B461146404643
:1044000000F087F83A4603214046FFF7F7FE2A46B8
:1044100003214046FFF7F2FE324603214046FFF7F4
:10442000EDFE224603214046FFF7E8FE3346002218
:104430000221484600F049F833460022012148464F
:1044400000F067F8234600220221484600F03DF8BC
:10445000002223461146484600F05BF865002B46D3
:1044600000220221484600F030F800222B46114677
:10447000484600F04EF8A7003B460022022148467D
:1044800000F023F800223B461146484600F041F870
:10449000324603214846FFF7B1FE22460321484633
:1044A000FFF7ACFE2A4603214846FFF7A7FE3A462F
:1044B0004846BDE8F0470321FFF7A0BE00040048CE
:1044C0000069084000D0012070472DE9F0470568D9
:1044D000C66800244FF0010A4FF003090AFA04F7F6
:1044E0001F420ED0670009FA07FC25EA0C0526EAF0
:1044F0000C0601FA07F802FA07FC48EA05054CEA3F
:104500000606641CA4B2102CE8D30560C660BDE8A2
:10451000F087F0B50129416830D099434160846843
:1045200001260327A2F57F41FF3913D0002106FAA7
:1045300001F51D4208D04D0007FA05FC24EA0C04E1
:1045400002FA05FC4CEA0404491C89B21029EED396
:104550008460F0BDC26B002106FA01F51D4206D051
:104560004FEA410C07FA0CFC4CEA04042A43491CAC
:1045700089B21029F0D38460C263F0BD1943CDE73E
:1045800038B50446FF280FD00B2C0DD8FDF71AFDC7
:10459000FDF728FB4FF47A71B0FBF1F19923034A40
:1045A00003A00094FFF71AFB38BD0000EE5200088C
:1045B0005B5831304B422025645D2025733A282515
:1045C0006429205B6B657968686868683A202564AF
:1045D0005D0D0A00FDF706FB81460546C846FDF75E
:1045E00001FB364C2F463E464FF44070656000F0AC
:1045F000ABF8FBF785FFA24647F2305BFCF777FE8E
:10460000FDF7F0FA0446FDF7EDFA014609F5FA70F8
:10461000814203D2FDF7E6FA484504D2FDF7E2FAFB
:104620008146FDF7E5FAFDF7DDFA014608F5AF70C2
:10463000814203D2FDF7D6FA404504D2FDF7D2FA03
:104640008046FDF777FAFCF7E3F805F57A70A042AB
:1046500001D9A5420CD91A48807848B9194825468D
:1046600090F82300A52801D0FEF719F9FCF73FFECA
:10467000DAF8040000F57A61A14201D9A04204D918
:104680000121CAF804408AF80010FCF7FBFB9AF8F5
:10469000010048B941F288303844A04201D9A7420C
:1046A00002D92746FEF73EFD06EB0B00A04201D9DA
:1046B000A642A3D92646FEF74FFD9FE70000002043
:1046C0001E0000202807002030B51E4D0024234680
:1046D0002D6805F4E065B5F5A06F12D006DCB5F5E0
:1046E000407F14D0B5F5806F12D10DE0B5F5C06FE5
:1046F00004D0B5F5E06F0BD1042309E001240323B6
:1047000006E00224234603E00324012300E00424FE
:10471000C4F10404A140C3F104040F23E340134097
:104720000B4300F1E022190182F8001400F01F028F
:10473000012191404009800000F1E020C0F8001103
:1047400030BD00000CED00E002490843024908605A
:10475000704700000000FA050CED00E00248016817
:1047600041F4807101607047007000400248416A66
:1047700041F0807141627047001002402DE9F0471E
:1047800060A288B074CA8DE874005FA2614ED2E95D
:104790000042CDE904425CA28046D2E90042CDE964
:1047A000064200207268014603465B4DC2F3810257
:1047B0001AB1012A01D0022A01D02A4623E07268E8
:1047C0007468C2F38342C4F3C067F46AE40F0FB1A4
:1047D000113200E0921C04B11F327468F76AC4F30E
:1047E0000044C7F3807764B1F46A04F00F04641CDA
:1047F00027B14A4FB7FBF4F4624304E0B5FBF4F48D
:10480000FAE7474C62437468C4F303141DF804705C
:1048100022FA07F477680DF1100CC7F302271CF891
:10482000077024FA07F977680DF1180CC7F3C2274F
:104830004FF4004A1CF8077024FA07F7B8F1070F85
:1048400006D2DFE808F004080A0C0E3C44001046CB
:1048500008B0BDE8F0872046FAE74846F8E7384652
:10486000F6E7306BC00506D4306BC00301D42D4988
:1048700023E02D4921E07068C0F38132306BC00F16
:1048800032B1012A09D0022A0ED0032A15D110E034
:1048900008B1032003E079080FE018B10520B7FB49
:1048A000F0F10AE0B90808E008B10720F7E70620B0
:1048B000F5E708B10920F2E7F9080846C8E7306BC8
:1048C000400602D448F21200C2E75046C0E7306BFF
:1048D00080070ED0306B00F0030001280BD0306B46
:1048E00000F00300022808D0306BC043800706D0D8
:1048F00006E03B4604E0134602E0534600E02B4648
:104900001846A5E7000000000000000001020304B3
:10491000060708090010024000127A00006CDC0251
:1049200000093D00809FD500003FAB01064A02EB25
:104930009011096800F01F0201209040014201D04F
:10494000012070470020704700100240054901EB2C
:1049500090110A6800F01F030120984002430A608A
:10496000704700000010024070B500234FF400664D
:10497000334D1C46B0421BD005DC30B310280ED09E
:1049800018285AD14DE0B0F5106F3FD0B0F5506FF8
:1049900026D000F57F60B0F5804F4ED12BE011207E
:1049A000FFF7C4FF5B1C08B9B342F8D1112040E007
:1049B00040F601066FF07C453046FFF7B7FF5B1C01
:1049C00008B9AB42F8D1304633E04FF4A06501207E
:1049D000FFF7ACFF5B1C08B9AB42F8D1012028E01F
:1049E00040F601563046FFF7A1FF5B1C0028EAD1D4
:1049F000AB42F7D1E7E743F211063046FFF796FFE7
:104A00005B1C0028DFD1AB42F7D1DCE740F6011692
:104A10003046FFF78BFF5B1C0028D4D1AB42F7D1A7
:104A2000D1E71920FFF782FF5B1C08B9AB42F8D130
:104A30001920FFF77BFF00B10124204670BD000064
:104A4000FFFF0F00054901EB90110A6800F01F03FA
:104A50000120984002430A607047000000100240A5
:104A6000054901EB90110A6800F01F0301209840EE
:104A700082430A607047000000100240054901EBC4
:104A800090110A6800F01F030120984002430A6059
:104A9000704700000010024004490A6A22F4407284
:104AA0000A620A6A02430A6270470000001002406C
:104AB00030B515490B68091D0968134A1032126890
:104AC000114C083424680D0C0570C1F304254570A1
:104AD00001F03F058570C1F34231C170C3F3054158
:104AE0000171C3F30621417103F07F018171C2F3AB
:104AF00006410181C2F30E01418102F48001C160CF
:104B000004F04001016130BD00280040F0B50446CA
:104B10000078E178E6684D0360F31F4560784FF454
:104B2000F85101EA00200543A0784FF47C1100F011
:104B30003F00054320791B4F01EA0040064360799E
:104B40004FF4FE4101EA0020A17901F07F01084302
:104B50000643CA2038605320386000F025F8E8B1D9
:104B600020894FF4FE0101EA00406189C1F30E0182
:104B700008430C49143908600A4824380660001DAF
:104B80000560001D016821F0400101600168226993
:104B90001143016000F022F800F04CF8FF21396069
:104BA000F0BD0000242800400B4B4FF48041002052
:104BB0001A6852060DD41A6842F080021A601A6808
:104BC000491E02F0400202D0002AF8D001E0002A7B
:104BD00000D00120704700000C2800400248016806
:104BE00021F08001016070470C28004010B540F2B0
:104BF0001C70FFF727FFFFF7B1FD4FF4106420464C
:104C0000FFF7A4FE2046FFF7AFFE4FF40070FFF75A
:104C100043FF074840F28F1141606321016040F675
:104C20000F00FFF70FFFBDE8104000F003B80000D1
:104C30007C00002018B512494FF40040009009682C
:104C4000002089061AD40E4CCA211C34216053213D
:104C500021600B4B1B1D196821F020011960196898
:104C600001F020020099491E009102D0002AF6D0DE
:104C700000E002B10120FF21216018BD012018BD14
:104C8000082800401E480021026842F48032026079
:104C9000C3140268491C12F4003F01D19942F8D1B3
:104CA000016889032BD541684160416841F4005196
:104CB0004160416841F4806141604168114A11409E
:104CC0004160C16A21F04041C162C16A41F0010105
:104CD000C16241680C4A11434160016841F0807132
:104CE000016001688901FCD5416821F00301416040
:104CF000416841F00201416041680907FCD57047F5
:104D000000100240FFFFC277000029084FF0E021A9
:104D10000428086903D020F004000861704740F0BF
:104D20000400FAE7016841F080010160704700006B
:104D30001D4A10B5811A4FF4E053904220D00DDC8B
:104D4000B0F1804F1FD0194940181FD0B0F5406F07
:104D50001FD0984226D14FF4816409E0B1F5A05FDD
:104D60001AD0B1F5C05F1AD099421BD140F212346B
:104D70002046FFF783FE2046BDE81040FFF770BED7
:104D800040F20B34F4E74FF48064F1E740F2014461
:104D9000EEE740F20444EBE74FF44474E8E740F2F6
:104DA0001134E5E710BD0000002C014000FCFFBFFE
:104DB000016821F0010101607047016841F00101C3
:104DC0000160704702698A4302617047F0B50A8842
:104DD0008262204A204B4FF08047904203D0B84275
:104DE00001D098420BD1046824F070040460046878
:104DF0004D882C43046004688D882C4304608C68C3
:104E0000C462164C164D174E90420CD0B8420AD0D0
:104E1000984208D0144B984205D0A04203D0A84233
:104E200001D0B04207D1036823F4407303600368E4
:104E30008F893B430360904205D0A04203D0A84233
:104E400001D0B04201D1897B0163416941F0010188
:104E50004161F0BD002C01400004004000400140D1
:104E6000004401400048014000200040C2680A435D
:104E7000C260704702698A4302617047C268006974
:104E80000A40084202D00AB1012070470020704752
:104E900002498A6A82438A627047000000400240E9
:104EA00002498A6A02438A62704700000040024059
:104EB00010B54FF0807260231101052000F082F8D8
:104EC00000F0B4F8012000F0A7F8012000F06AF823
:104ED000032000F06FF8102000F09EF8022000F090
:104EE00061F8F02000F066F84FF4007000F094F8DC
:104EF000042000F057F84FF4606000F05BF84FF4C6
:104F0000004000F089F8082000F04CF84FF47040A1
:104F100000F050F84FF4801000F07EF8202000F0F0
:104F200041F84FF4700000F045F8BDE8104000F083
:104F300001B800000248016841F0010101607047BA
:104F40000040024002498A6802438A6070470000BC
:104F5000004002400349C968014201D00120704766
:104F600000207047004002400148406B80B270470B
:104F7000004002400148806B80B270470040024010
:104F80000148C06B80B27047004002400148006C8D
:104F900080B27047004002400148806C80B2704788
:104FA0000040024002490A6B02430A637047000056
:104FB0000040024002490A6982430A6170470000CA
:104FC0000040024070B5124C2568AD071ED4114E4A
:104FD000256808280BD241EA0030104335401843B9
:104FE00028432060D4F8000320F080700CE020F00B
:104FF000080041EA00301043354018432843206040
:10500000D4F8000340F08070C4F8000370BD0000C5
:10501000004002401F8FFF0003490A68920702D434
:105020000A6A02430A62704700400240044801686D
:10503000890703D4016821F0040101607047000072
:10504000004002400248016841F0020101607047DF
:105050000040024010B5FFF723FF4FF45060401EA0
:10506000FDD10320FFF76EFFFFF7ECFF0320FFF7F2
:1050700071FF0028FAD010BD70B50D4604461349E3
:105080000020611804D0B1F5744F04D1062000E06F
:105090000220FFF773FB21680A044FF6F07108D570
:1050A000400000EB5500B0FBF5F0014000F00702B6
:1050B00006E000EB5500B0FBF5F0014000F00F02F8
:1050C000E06811430843E06070BD000000BCFFBF12
:1050D000406AC0F308007047C1F30801816270475D
:1050E0000A4910B5401805D0B0F5744F0CD140F204
:1050F0000E3401E040F211442046FFF7BFFC204689
:10510000BDE81040FFF7ACBC10BD000000BCFFBF05
:10511000016841F001010160704700EB91100068E7
:1051200001F01F0201219140084000D0012070478A
:1051300010B5C1F38912835801F01F040121A14069
:105140000B43835010BD026AC1F30443012199400F
:105150000A430262704730B5C1F38912825800EBEE
:10516000915001F01F05012404FA05F300681A406C
:10517000C1F3044104FA01F3184202D00AB101203C
:1051800030BD002030BD026822F0040202600268D7
:105190000A4302607047026822F008020260026857
:1051A0000A43026070474273774472765F464D311E
:1051B000373558585F536574506F776572446F7711
:1051C0006E00436865636B5F4D315F4361726400DD
:1051D00053656E644465627567506B740044656224
:1051E0007567506B7450726F6300446562756752E7
:1051F00065637650726F6300557067726164655FB6
:10520000577269746500434F4D5F557067726164F2
:10521000655F5772697465004D61696E426F6172B6
:10522000644261736963496E666F004D61696E42E5
:105230006F61726443617264496E666F0055706796
:10524000726164655265717565737448616E646CF2
:10525000657200436F6D526563764D61696E426F92
:105260006172644461746100466C6173685772696D
:105270007465576F726400466C6173685772697425
:1052800065004C6F616453797374656D496E666F28
:105290000053797374656D52657365745265636FFD
:1052A0007264005072696E746644617461004253A6
:1052B00050466C617368577269746500466C61731F
:1052C000685465737400464D31373558585F436FE5
:1052D0006E666967004D69666172655F426C6F63F7
:1052E0006B7265616400527463496E6974006B652A
:1052F000795F6F6E636C69636B5F63616C6C626135
:10530000636B0047334765744B65790047354765E4
:10531000744B65790047304765744B6579004731B8
:105320004765744B65790047324765744B65790072
:105330005473694B6579496E6974001F1C1F1E1FE9
:105340001E1F1F1E1F1E1F1F1D1F1E1F1E1F1F1E75
:105350001F1E1F005B5831304B422025645D202505
:10536000733A28256429200A20C9E8B1B8B0E6B10B
:10537000BEBAC53A2066775F76657273696F6E2034
:105380003D2025642C2073756256657273696F6EBB
:1053900031203D2025642E200A000000BC53000867
:1053A00000000020F4000000FC3B0008B05400089E
:1053B000F4000020D40F00000C3C000801000000A5
:1053C0000000000036663764326B00000000000009
:1053D00000000000000000000D0F000000000B06A0
:1053E00000070000000000000000000000000000B6
:1053F000002C0140000000401B1C0000120511059C
:105400000E06110700380140004400400004004827
:105410000000004800040048000000484000000070
:1054200004000000800000000800000000000000F0
:10543000000000000000000000000000000000006C
:10544000FF0000000000000000000000000000005D
:10545000000000000000000000000000000000004C
:10546000000000000000000000000000000000003C
:10547000000000000000000000000000000000002C
:10548000000000000000000000000000000000001C
:10549000000000000000000000000000000000000C
:1054A000000000000000000000F36F060000000094
:04000005080001519D
:00000001FF
