:020000040800F2
:1020000030110020652100086D2100086F210008B3
:1020100071210008732100087521000800000000EC
:102020000000000000000000000000007721000810
:1020300079210008000000007B21000805630008EA
:102040007F2100087F2100087F2100087F210008F0
:102050007F2100087F2100087F2100087F210008E0
:102060007F2100087F2100087F2100087F210008D0
:102070007F210008796500087F210008DD650008E0
:102080007F2100087F210008000000007F21000858
:102090007F2100087F2100087F2100087F210008A0
:1020A0007F2100087F2100087F210008C56B000800
:1020B000016C0008000000007F2100080000000003
:1020C0007F210008000000007F2100087F21000818
:1020D0007F21000800000000000000000000000058
:1020E00000000000000000007F2100080000000048
:1020F00000000000000000000000000000000000E0
:102100007F21000800000000000000007F2100087F
:1021100000000000000000000000000000000000BF
:1021200000000000000000000000000000000000AF
:10213000000000000000000000000000000000009F
:102140000000000000000000000000007F210008E7
:10215000DFF80CD000F05EFA004800471D7C000854
:10216000301100200648804706480047FEE7FEE79A
:10217000FEE7FEE7FEE7FEE7FEE7FEE7FEE7FEE737
:10218000096300085121000840EA01039B0703D0BE
:1021900009E008C9121F08C0042AFAD203E011F8A6
:1021A000013B00F8013B521EF9D27047D2B201E068
:1021B00000F8012B491EFBD270470022F6E710B54C
:1021C00013460A4604461946FFF7F0FF204610BDA5
:1021D00030B505462A460B4612F8010B13F8014BA1
:1021E00008B1A042F8D01CB1002802D06D1CF1E764
:1021F000284630BD421C10F8011B0029FBD1801A73
:10220000704730B504460020034600E05B1C934253
:1022100003D2E05CCD5C401BF8D030BD034611F822
:10222000012B00F8012B002AF9D118467047000055
:102230000FB400B58DB010A909900B9000914FF02C
:10224000FF300A9000200C90054806900548079042
:102250006A4609A80F9900F0AFF90DB05DF814FBBC
:10226000D5250008F32500082DE9FF5F1D464FF036
:10227000FF3BD5E9014691465F464FF00008A9694A
:102280007F1C01988847296A824688470028F6D132
:10229000BAF1FF3F0CD024F4C064002E19DD6006B3
:1022A00014D5BAF12B0F09D0BAF12D0F0ED103E0DE
:1022B000584604B0BDE8F09F44F48064A9697F1CCF
:1022C00001988847761E8246002E02DDBAF1300F53
:1022D00003D0B9F1000F26D032E0A969761E44F48C
:1022E00000747F1C019888478246002E05DDBAF1F4
:1022F000780F06D0BAF1580F03D0B9F1000F10D003
:102300001EE0B9F1000F02D0B9F1100F18D1A96980
:10231000761E24F400747F1C0198884782461020A2
:1023200002E0082000E00A20814609E008FB0908D5
:10233000A969761E44F400747F1C01988847824680
:10234000002E05DD4946504600F022F90028EDDA5E
:10235000E96901988847A00502D46FF00100A8E759
:10236000E00725D1600613D5600502D5C8F100004D
:1023700000E0404629680A1D2A600968220501D547
:10238000087015E0220701D5088011E008600FE011
:102390002868011D29600068210502D580F80080A9
:1023A00006E0210702D5A0F8008001E0C0F8008017
:1023B00038467EE72DE9FF5FD2E901A74FF000081C
:1023C000916999461446DDF838B046460198884729
:1023D000054659EA0B0005D009E0A169761C019871
:1023E00088470546216A284688470028F5D1681C99
:1023F00003D05FEACA7005D015E04FF0FF3004B09B
:10240000BDE8F09F2068011D2160D0F800800AE03F
:102410005FEACA7001D108F8015BA169761C7F1ED2
:10242000019888470546002F1ADD681C18D0B9F1BD
:10243000000F0DD0E81705EBD060421120F01F000F
:1024400059F822102A1A012090400142E0D107E0F9
:10245000BBF1000FDCD1216A284688470028D7D07D
:10246000E16901988847BBF1000F07D1002E05DD17
:102470005FEACA7002D1002188F80010A068B84253
:1024800003DDBBF1000F03D017B16FF00100B6E719
:102490003046B4E72DE9F05F0546002092469B46A2
:1024A00088460646814640241BE02846414647466A
:1024B000224600F0D0F853465A46C01A914110D334
:1024C00011461846224600F0B7F82D1A67EB0108AE
:1024D0004F4622460120002100F0AEF817EB00091C
:1024E0004E41201EA4F10104DFDC484631462A4655
:1024F0004346BDE8F09F0000014900F003B800002A
:10250000000D002010B500683C22B0FBF2F302FB86
:102510001303B0FBF2F00B60B0FBF2F302FB13030A
:10252000B0FBF2F018224B60B0FBF2F302FB130396
:10253000B0FBF2F0021D8B600723B2FBF3F403FB48
:102540001422800040F2B55300F66C308A61B0FB73
:10255000F3F2B0FBF3F403FB1400443280084A6149
:10256000C8613B2802D3920700D0401C0022074CD0
:1025700013460A61E25C824203D8801A5B1C0B613D
:10258000F8E7401CC860084610BD000075890008C7
:102590003A2800D2303820F02002412A01D3A2F19B
:1025A0003700884201D34FF0FF3070470268114472
:1025B0001378016018467047D1600449516104499D
:1025C000116200211161114600F05AB8AD250008D2
:1025D00077260008426842B1016811F8013B23B137
:1025E000521EC0E90012184670470121C160881EC2
:1025F000704742685AB1C368016843B983688B4227
:1026000005D0491E521CC0E90012002070474FF04F
:10261000FF307047064C074D06E0E06840F00103CC
:1026200094E8070098471034AC42F6D3FFF794FDC6
:10263000E88A0008088B0008202A04DB203A00FA08
:1026400002F1002070479140C2F1200320FA03F309
:10265000194390407047202A04DB203A21FA02F007
:102660000021704721FA02F3D040C2F120029140CC
:10267000084319467047C0B24FF4F05100F096B9C4
:102680002DE9F34F8BB04FF0000801F10C000C4620
:102690004FF0010B46460DF1080A019062690121D5
:1026A0000198904705002DD0252D2CD0216A884710
:1026B000C0B16269012101989047216A88470028CA
:1026C000F7D1411E62690198904700E0761CA1692C
:1026D0000B988847216A88470028F7D1E1690B9851
:1026E0008847DBE7A1690B9888470746A84201D1D4
:1026F000761CD3E7E1690B9888477F1C02D1B8F1BB
:10270000000F6FD046E1002762693D4639460198C7
:1027100090472A2804D16269012101989047012538
:10272000DFF884926269012101989047A0F130019D
:102730000A290AD24F45E5DC07EB870100EB410788
:10274000303FDFD445F01005ECE7E90601D46FF027
:1027500000476C280AD04C2814D0682815D06A2865
:102760000DD074281CD07A281AD01DE0626901218E
:10277000019890476C2802D045F0040514E045F01C
:1027800002050DE045F020050AE06269012101988B
:102790009047682802D045F0080505E045F400653B
:1027A0006269012101989047C4E9015765283DD02D
:1027B00019DC58287AD00CDC452837D004DC2528D1
:1027C00026D0412831D131E046282FD047282CD1BE
:1027D0002CE05B2877D0612828D063287CD064283F
:1027E00023D15AE0D0E06F2848D008DC66281DD0FD
:1027F00067281BD0692821D06E2816D127E07028C1
:1028000045D0732868D0752847D078280DD14DE081
:10281000A1690B988847054625283FF469AFE1690F
:102820000B9888476D1C3FF46AAFB3E023466A46B5
:102830006FF001000B99AFF300809EE045F040007F
:102840006060A80723464FF0000236D43EE0E80758
:102850007FF447AF2068011D21600068290501D57C
:1028600006701BE7290701D5068017E7A90703D5DE
:10287000F117C0E9006111E706600FE745F040007D
:102880006060A80723464FF0080216D41EE040F609
:102890000E0125EA0100606016E045F0400060602E
:1028A000A80723464FF00A0207D40FE045F0400086
:1028B0006060A80708D5234610226FF001000B992D
:1028C000AFF3008059E007E0234610226FF00100CB
:1028D0000B99FFF7C9FC50E04FF000094F464B46FB
:1028E000632802D05B2806D040E0E80601D401202E
:1028F000A06001273AE062690121019890475E28B3
:1029000005D14FF001096269494601989047216954
:1029100039B900210A46534643F82120491C0829A9
:10292000FADBB0B3216969B9C11700EBD162531169
:102930000AEB830122F01F02821A01200B689040EB
:1029400003430B6062690121019890475D28E8D13B
:10295000B9F1000F09D00020514651F82020D24390
:1029600041F82020401C0828F7DB02AB22460097E4
:102970006FF001000B99FFF71DFD00280CDA401CD9
:1029800008D1BBF1000F05D04FF0FF300DB0BDE80E
:10299000F08FFFE74046F9E7E90701D108F10108A8
:1029A00006444FF0000B79E6CCCCCC0C7F2801D943
:1029B000002208E0064A02EB5002C007127800D15C
:1029C000120902F00F0201209040084070470000F9
:1029D0008189000870B50446AA20207055206070D7
:1029E00010480D4610F8291F61710178491C0170CB
:1029F000681D608001202071281DA27181B2E371E1
:102A0000201D01F041FE014660190B3501720D21B8
:102A100041720A218172AAB22146BDE870400120AC
:102A200004F088BB540700200021A0F13002092ADD
:102A300001D8D1B20BE0A0F14102052A01D8373804
:102A400004E0A0F16102052A01D85738C1B2084656
:102A50007047000070B586B016460C460546142235
:102A600010A16846FFF790FB002318460CB1002E1A
:102A700002DC002006B070BD69460CE0E25C01EBB0
:102A8000121212782A54E25C401C02F00F028A5C97
:102A90002A54401C5B1CB342F0DB00212954284619
:102AA000E8E70000303132333435363738394142C7
:102AB00043444546000000002DE9FF4F8DB000243F
:102AC0001F4692468B464FF0FF392646DDF8688058
:102AD00001F0E6FD41463846FFF76FFBA6E03220E5
:102AE00001F01FF801F0DCFD05460FE001F0D8FD14
:102AF00005469DF8300018B1A04501DD3855641C2D
:102B00000CA94E4801F03CF80028EFD001F0C8FDB8
:102B100005F10A01884203D801F0C2FDA842EFD2B4
:102B200059463846FFF754FB00287DD044A10D9844
:102B3000FFF74EFB454C10B3182101A8FFF73DFBF2
:102B400001AA43A13846FFF773FB01A8FFF752FB28
:102B5000142805D3142201A9A01CFFF715FB03E0DC
:102B600001A9A01CFFF75AFB01F030FD01463748D0
:102B70007C23801C0090394A39A004F065FB41A1F8
:102B80000D98FFF725FB20B3142107A8FFF715FBCD
:102B900007AA3FA13846FFF74BFB07A8FFF72AFB20
:102BA0002A4D16350C2807D3079844F8160F0898B5
:102BB00060600998A06003E007A92846FFF72EFB94
:102BC00001F004FD01468B23244A34A0009504F053
:102BD0003BFB3BA10D98FFF7FBFAB0B1142101A814
:102BE000FFF7EBFA01AA39A13846FFF721FB01A94B
:102BF000394803F033FB01F0E9FC014601A80090DD
:102C00009523164A35A004F01FFB3CA10D98FFF751
:102C1000DFFA28B1304A3CA1121F3846FFF708FB03
:102C20004FF0000905E0FFE73236B6B25645FFF433
:102C300056AF11B04846BDE8F08F0000D009002023
:102C400041542B564552533F000000002C070020F2
:102C50002B564552533A202573000000FF87000889
:102C60005B5831304B422025735D2025733A28256F
:102C7000642920626C7565207665723A25732E0A88
:102C80000000000041542B4E414D453F0000000024
:102C90002B4E414D453A2025730000005B583130E2
:102CA0004B422025735D2025733A28256429206234
:102CB0006C7565206E616D653A25732E0A00000003
:102CC00041542B475749443F000000002B475749C8
:102CD000443A202573000000300000205B5831305A
:102CE0004B422025735D2025733A282564292067EF
:102CF000776D61633A25732E0A00000041542B441E
:102D00004556543F000000002B444556543A2025B8
:102D1000640000002DE9F04140F2115005F068F91F
:102D200040F2125005F064F94FF4807401224FF024
:102D3000904523461146284604F015FF23460322FA
:102D40000021284604F033FF184E01222346114685
:102D5000304604F008FF234603220021304604F0E9
:102D600026FFE7013B4601220021304604F0FBFE2E
:102D70003B4603220021304604F019FF6700012280
:102D80003B461146304604F0EEFE3B46032200214E
:102D9000304604F00CFF2146284604F0AAFD2146E7
:102DA0003046BDE8F04104F0A4BD00000004004836
:102DB0002DE9F043DFF878900F4605464FF4007890
:102DC000A1B0164601244146484604F090FD00F0AB
:102DD000AAFF022000F0A5FE01F0F8FB0146AD239A
:102DE000144A15A0009504F02FFA2846FFF702FABE
:102DF00082B22946002004F09DF957B14EB18020DF
:102E0000009001AB324639462846FFF755FE40B1E7
:102E100008E04146484604F06CFD002021B0BDE8C2
:102E2000F08300244146484604F063FD2046F5E760
:102E3000000400480C8800085B5831304B422025C4
:102E4000735D2025733A2825642920B7A2CBCDC312
:102E5000FCC1EE5B25735D2E0A0000002DE9F041F8
:102E60000546002440F6B8364FF47A770FE0324634
:102E700009A10AA0FFF79CFF00280BD0012D04DD5B
:102E800000F051FF384600F04CFE641CE4B2AC4246
:102E9000EDDB0020BDE8F0814F4B000041540D0AEE
:102EA0000000000070B5394D0026394C68780028C4
:102EB00034D194F86900002830D101F0F1FB216F82
:102EC000401A4EF66021884228D301F0E9FB2067C2
:102ED0000120FFF7C3FFC8B101F078FB01464FF4B2
:102EE00024732C4A2CA004F0AFF901F0D9FBA0F513
:102EF00043405038206701206870A52084F8750091
:102F000094F87400401C84F8740007E084F875603D
:102F10006E7084F8746029A004F096F92B4840780C
:102F2000C0B994F874000F2814D36878012811D11F
:102F300000F062FB70B901F049FB014640F2A623A4
:102F4000144A23A004F080F901F0AAFBA0F5564032
:102F5000D838206794F86900012816D101F0A0FB49
:102F6000E16E401A234988420FD901F099FBE066CF
:102F700084F8696001F02AFBBDE8704001464FF417
:102F80002C73044A1CA004F05FB970BD44000020FB
:102F900054070020DC8800085B5831304B42202564
:102FA000735D2025733A2825642920BCECB2E2C069
:102FB000B6D1C0B4EDCEF32E0A000000C0B6D1C029
:102FC000BCECB2E2B3C9B9A62E0A00002C0700205F
:102FD0005B5831304B422025735D2025733A2825FC
:102FE000642920B8B4CEBBC0B6D1C0204F4B2E0A46
:102FF00000000000C0D401005B5831304B42202556
:10300000735D2025733A2825642920B4F2BFAABC39
:10301000ECB2E2C0B6D1C0B1EAD6BE2E0A000000C2
:1030200001214FF4E132002003F042BD10B5FFF75B
:1030300071FEBDE81040FFF7F3BF000010B501F0CE
:1030400095FE04F0C7F800F06EFE01224FF47A748A
:103050002146104603F0D6FA03F06CFA03F034F878
:10306000204600F05EFD04F05FF802F0B5FD20465A
:1030700000F057FD01F0CAFE03F090F908A004F03B
:10308000E3F803F021FBFFF7D1FF00F0BDFD08A03E
:1030900004F0DAF8BDE8104009A004F0D5B800004B
:1030A0005573617274496E6974204F4B210D0A008B
:1030B0000D0A20427370496E6974206F6B0A00001C
:1030C0000A3D3D3D3D3D3D3D3D3D3D3D3D3D3D3D63
:1030D0003D3D3D3D3D3D3D3D3D3D3D3D3D3D3D3D20
:1030E0003D3D3D3D3D3D3D3D3D3D3D3D3D3D3D3D10
:1030F0003D3D3D3D3D3D3D3D3D3D3D3D0A0A0A00D6
:1031000070B5002400F000FB1C49012040F6B835E2
:1031100048701B494FF47A7648702A4619A11AA0C4
:10312000FFF746FE00281BD001F050FA0146E823C5
:10313000174A18A004F088F800F0F5FD304600F0BA
:10314000F0FC641CE4B2022CE7D301F03FFA014624
:10315000EC230F4A1AA004F077F84FF0FF3070BD4F
:1031600001F034FA0146E423094A1FA004F06CF888
:1031700026490878401C0870002070BD2C070020EC
:10318000440000204F4B000041540D0A0000000095
:10319000278800085B5831304B422025735D20257D
:1031A000733A2825642920626C7565207265736501
:1031B00074206661696C2C72657472792E0A000045
:1031C0005B5831304B422025735D2025733A28250A
:1031D000642920626C756520726573657420666170
:1031E000696C2E0A000000005B5831304B422025EC
:1031F000735D2025733A2825642920626C7565204B
:1032000074657374206F6B2E0A000000200000208C
:103210002DE9F041002440F6B8354FF49C764FF488
:10322000FA672A4617A118A0FFF7C2FDD8B101F02E
:10323000CDF901463346174A17A004F005F8384681
:1032400000F06FFC641CE4B2022CEAD301F0BEF97A
:10325000014640F23B130F4A19A003F0F5FF4FF06F
:10326000FF30BDE8F08101F0B1F901464FF49A73E7
:10327000084A1CA003F0E8FF23490878401C0870A6
:103280000020EEE74F4B000041542B4E414D453F8F
:103290000D0A0000648800085B5831304B4220253D
:1032A000735D2025733A2825642920BBF1C8A1C38A
:1032B000FBD7D6CAA7B0DC2C72657472792E0A00CF
:1032C0005B5831304B422025735D2025733A282509
:1032D000642920BBF1C8A1C3FBD7D6CAA7B0DC2E96
:1032E0000A0000005B5831304B422025735D2025D9
:1032F000733A2825642920BBF1C8A1C3FBD7D62087
:103300006F6B2E0A00000000200000202DE9F04124
:10331000002440F6B8354FF489764FF4FA672A4610
:1033200017A118A0FFF744FDD8B101F04FF90146ED
:103330003346174A17A003F087FF384600F0F1FB29
:10334000641CE4B2022CEAD301F040F9014640F2D9
:1033500015130F4A19A003F077FF4FF0FF30BDE8B7
:10336000F08101F033F901464FF48773084A1BA03E
:1033700003F06AFF21490878401C08700020EEE73E
:103380004F4B000041542B4543484F3D310D0A003F
:103390003D8800085B5831304B422025735D202565
:1033A000733A2825642920C0B6D1C0BBD8CFD4CA6F
:1033B000A7B0DC2C72657472792E0A005B5831302C
:1033C0004B422025735D2025733A2825642920BBB4
:1033D000D8CFD4CAA7B0DC2E0A0000005B58313029
:1033E0004B422025735D2025733A2825642920BB94
:1033F000D8CFD4206F6B2E0A0000000020000020E0
:103400002DE9F041002440F6B8354FF4A6764FF48C
:10341000FA672A4617A118A0FFF7CAFCD8B101F035
:10342000D5F801463346174A17A003F00DFF38467A
:1034300000F077FB641CE4B2022CEAD301F0C6F87A
:10344000014640F24F130F4A19A003F0FDFE4FF062
:10345000FF30BDE8F08101F0B9F801464FF4A473E4
:10346000084A1CA003F0F0FE23490878401C0870AD
:103470000020EEE74F4B000041542B504149523D94
:10348000310D0A00778800085B5831304B42202507
:10349000735D2025733A2825642920C0B6D1C0C6A3
:1034A000A5C5E4CAA7B0DC2C72657472792E0A0037
:1034B0005B5831304B422025735D2025733A282517
:1034C000642920C0B6D1C0C6A5C5E4CAA7B0DC2E09
:1034D0000A0000005B5831304B422025735D2025E7
:1034E000733A2825642920C0B6D1C0C6A5C5E4B367
:1034F000C9B9A62E0A000000200000202DE9F041E5
:10350000002440F6B83540F225164FF4FA672A46F3
:1035100017A118A0FFF74CFCD8B101F057F80146ED
:103520003346174A17A003F08FFE384600F0F9FA29
:10353000641CE4B2022CEAD301F048F801464FF4CF
:1035400094730F4A19A003F07FFE4FF0FF30BDE8DF
:10355000F08101F03BF8014640F22113084A1CA01B
:1035600003F072FE23490878401C08700020EEE743
:103570004F4B000041542B564552533F0D0A00005B
:10358000518800085B5831304B422025735D20255F
:10359000733A2825642920BBF1C8A1B0E6B1BECAA0
:1035A000A7B0DC2C72657472792E0A005B5831303A
:1035B0004B422025735D2025733A2825642920BBC2
:1035C000F1C8A1B0E6B1BECAA7B0DC2E0A00000067
:1035D0005B5831304B422025735D2025733A2825F6
:1035E000642920BBF1C8A1B0E6B1BE206F6B2E0AE2
:1035F00000000000200000202DE9F04100252C46AD
:1036000001F04EF82C4AA5216F1E82F875104EF677
:103610006021461849E001F049F8052D39D2DFE86C
:1036200005F0030E13181E00FFF76AFD28B12000F5
:1036300000F10104E4B23CD134E001250DE0FFF7D4
:1036400065FE78B9022508E0FFF758FF50B9032559
:1036500003E0FFF7DDFD28B90425002422E0FFF791
:10366000CFFE28B12046641CE4B20A2821D819E014
:103670001249002048701249487000F0A7FF014627
:1036800040F243230F4A10A003F0DEFD0020BDE806
:10369000F08100F09BFF014640F24F23094A13A03E
:1036A00003F0D2FD642000F03CFA00F0F9FFB042D4
:1036B000B1D93846EBE70000540700202C07002062
:1036C00044000020CE8800085B5831304B42202552
:1036D000735D2025733A2825642920C0B6D1C0B374
:1036E000F5CABCBBAFB3C9B9A62E0A005B583130CE
:1036F0004B422025735D2025733A2825642920B488
:10370000EDCEF32E0A00000070B54FF480744FF038
:1037100090452146284604F0EAF800F004FB4FF4F7
:10372000FA6000F0FEF92146284604F0E2F800F0C5
:10373000FAFABDE870404FF47A7000F0F2B9000078
:103740007CB50A390478421C8DB2402D0BD900F0AB
:103750003DFFCDE9005401469523104A10A003F027
:1037600073FD01207CBD1948C16A01290ED0016B8F
:10377000A1420BD100F02AFFCDE9005401469C2361
:10378000064A134803F060FD00207CBD046329460F
:103790001046BDE87C4003F013BB000060870008C2
:1037A0005B5831304B422025735D2025733A282524
:1037B0006429206C656E205B25645D2C205B25648C
:1037C0005D2C6572726F72210A00000054070020A0
:1037D000C489000870B5A0B00E4605468021684631
:1037E000FEF7EBFC6C468DF80850102231460DF1C7
:1037F0000900FEF7C9FC02231A4611212046FFF7F3
:10380000E9F820B0002070BD30B5A1B00D460446E7
:1038100080216846FEF7D1FC8DF808402968CDF874
:1038200009106846012302220521FFF7D3F821B0D1
:10383000002030BDFEB5214D002495F86800012818
:103840001BD102AA694601A803F030F8002814D160
:103850006B461B4A022101F087FE20B9012469460C
:103860002046FFF7D1FF03F03BF8164F00262CB19E
:1038700000F016FF386085F86860FEBD02AA694650
:1038800001A803F013F80028F7D16B460C4A0C216D
:1038900001F06AFE70B10CA003F0D6FC694602206C
:1038A000FFF7B2FF00F0FCFE386085F8686003F0B7
:1038B00017F8FEBD69460120F2E70000540700201A
:1038C0001400002000000020B7C7C3DCD4BFBFA88D
:1038D0000A00000070B50D46044602F07BF920EAAC
:1038E00005012046BDE8704003F0A9BC10B5802159
:1038F0000A2002F09DFB0A2002F06CF9002800D09B
:10390000012010BD2DE9FC476B4C00F0C9FE0746B5
:103910004FF008080025694EC0E000F004FADFF817
:10392000A091B4E000F0FFF900F0BAFE074630784D
:10393000092837D2DFE800F0050D183D4D5B6A7F9E
:1039400091009DF80400AA28EBD12070012070801E
:103950005AE09DF80400552824D17088552121543F
:10396000401C708002204FE07088022802D003289B
:1039700004D01AE09DF80410B18016E0B1889DF8DB
:10398000042041EA0221B180757005290BD200F0B4
:103990001DFE0146B088009040F29D33494A4AA07E
:1039A00003F052FC72E0032131709DF804102154A1
:1039B0003EE09DF80410012968D17078401C7070B9
:1039C00070882154B188491EB180401C7080042049
:1039D0001AE070789DF804100844707070882154C3
:1039E000B188491EB180401C708005200CE07078C1
:1039F0009DF804100844707070882154B188491EE5
:103A0000B180401C70800620307040E070789DF8D6
:103A100004100844707070882154B188491E09044C
:103A2000090CB18002D00721317001E086F80080D6
:103A3000401C70802BE070789DF804100844707072
:103A400070882154401C7080B088401E80B2B080C5
:103A500001281CD186F8008019E070889DF80410B8
:103A60002154401C81B271809DF80400727890420C
:103A700003D1204601F0FEFC08E000F0A7FD01465E
:103A800040F2F2330F4A1AA003F0DEFB357001A9B1
:103A9000484600F075F800283FF444AF00F000FEFF
:103AA00007F10A01884204D800F0FAFDB842BFF4D9
:103AB00034AFBDE8FC8700002B0100201A00002075
:103AC000DC090020DD8700085B5831304B4220259F
:103AD000735D2025733A28256429206C656E677410
:103AE000683D25642C6572726F722E0A000000001A
:103AF0005B5831304B422025735D2025733A2825D1
:103B0000642920BDD3CAD578313070B5C4CAFDBE92
:103B1000DDD0A3D1E9B4EDCEF32E0A00642000F08D
:103B20000DB870B5054600244FF47A7603E03046B0
:103B300000F004F8641CAC42F9D370BD70B54FF0CE
:103B4000E02500216C69094AAB6912785043AA69E3
:103B50009A42FCD002D2A3EB020302E0A4EB0206DD
:103B60003344194413468142F1D370BD98000020BC
:103B70000028FDD00021C1800181418108467047A5
:103B8000428903899A4213D0028903681344521C64
:103B900002811A780A7081880289914201D8002135
:103BA0000181C18811B1C188491EC18000207047C0
:103BB0004FF0FF30704700234360836001608280D4
:103BC00018467047428903899A42428901D2838804
:103BD0001A440389D21A8388521C934210D942890D
:103BE00003681344521C42811970C188491CC1806A
:103BF00081884289914201D800214181002070478B
:103C00004FF0FF30704700002DE9F0410024144DC3
:103C1000012640F20E2700F086F800F06FF880B120
:103C200000F081F8641CE4B2AE7000F0CFFC0146F5
:103C30003B460C4A0CA003F007FB322CEBD3BDE84B
:103C4000F08100F070F80020A87000F0BFFCBDE823
:103C5000F041014640F20523024A0EA003F0F4BAF7
:103C600044000020358900085B5831304B42202544
:103C7000735D2025733A2825642920464D31373558
:103C800058585F496E6974206572726F722E0D0A02
:103C9000000000005B5831304B422025735D202529
:103CA000733A2825642920464D31373558585F49E5
:103CB0006E6974204F4B2E0D0A00000010B50E4C9B
:103CC0004021204603F013FE0A20FFF72AFF00F0F0
:103CD0002AF84021204603F00CFE0A20FFF721FFBE
:103CE00000F021F8012001F075FF202801D001200B
:103CF00010BD002010BD00000014004810B500F0F9
:103D000012F802F013FAFFF7D9FF10B14FF0FF30AD
:103D100010BD00F008F8002001F035FE032002F08D
:103D200093F9002010BD03F0A7BD10B5002303E0F8
:103D300010F8014BCC545B1C9342F9D3002010BD0A
:103D40000A4601460148FFF7F0BF000000F00108F5
:103D50002DE9F05F154689468346FFF7E4FF03F03F
:103D600029FDABF10060C0F30906C6F580644FEA97
:103D70009028A54200D82C46FFF7D5FF4FF00060F1
:103D800000EB882082464FF480622449FFF7CDFF84
:103D900000270EE02148F119405CFF2808D000F010
:103DA00015FC01467D231E4A1EA003F04DFA02E0D9
:103DB0007F1CA742EED3A74214D2504603F0BCFCAE
:103DC000342003F0ABFC0020144A04E019F8001082
:103DD0008319401CD154A042F8D350464FF480724E
:103DE0000E4906E0A0074FEA940200D0521C494653
:103DF000584600F059F8A5420BD0281BA144A34413
:103E0000002685B24FF4806408F10108A542B3D8BA
:103E1000B1E703F089FC0020BDE8F09F2B030020F0
:103E2000098900085B5831304B422025735D2025FD
:103E3000733A2825642920D0E8D2AAB2C1B3FD2E56
:103E40000A0000002DE9FC410024124D0E460746F1
:103E500000940194324639462846FFF779FF08223C
:103E600069462846FFF761FF324639466846FEF745
:103E7000C8F918B1641C052CECD301E0052C06D35D
:103E800005A003F0E1F94FF0FF30BDE8FC81002010
:103E9000FBE7000000F00108D0B4666C617368B401
:103EA000EDCEF321200D0A002DE9F8439046894616
:103EB000064603F07FFC00254FF47A771AE00024D1
:103EC000342003F02BFC59F82510304603F082FC17
:103ED000B8B10120FFF725FE2046641CB842F8D98E
:103EE00000F074FB01464123074A08A0009603F046
:103EF000ABF96D1C4545E2D303F016FC0020BDE88C
:103F0000F883361DF5E70000FA8800085B58313069
:103F10004B422025735D2025733A2825642920D043
:103F2000B4666C617368B3ACCAB12C205B30782581
:103F3000785D2C20B4EDCEF3212121200A00000071
:103F400010B5022004F05CFB012004F0D9FA174CF4
:103F5000012802D104F0DEFA60806088134CA0F5DD
:103F60008071153CB1F5006F08DA00F5807140F200
:103F7000FF72914202D3A521617002E06178A52908
:103F80000ED10A4908314988081A202808DD074857
:103F90000B211638017006A003F056F9002060705E
:103FA000BDE81040022004F049BA0000C60000201D
:103FB0005B4B65793A2025645D0A00002DE9F05FCE
:103FC000202004F01DFB012004F09AFA414D012845
:103FD00002D104F0A5FA6880DFF8F8A068880AF139
:103FE000080AAAF12E07A0F580714FF4006B002695
:103FF0007C1D40F2FF784FF0A509594506DA00F51F
:104000008071414502D384F8019002E06178A529CE
:104010000AD1BAF80210081A202805DD3E70314690
:104020002DA003F011F96670202004F007FA40205B
:1040300004F0E6FA012004F063FA012802D104F04A
:104040006FFAA880A888A0F58071594506DA00F5B6
:104050008071414502D384F8029002E0A178A5293D
:104060000AD1BAF80410081A202805DD0A2139708F
:1040700019A003F0E9F8A670402004F0DFF98020D1
:1040800004F0BEFA012004F03BFA012802D104F04A
:1040900047FAE880E888A0F58071594506DA00F50E
:1040A0008071414502D384F8039002E0E178A529AC
:1040B0000AD1BAF80610081A202805DD092139703E
:1040C00005A003F0C1F8E670BDE8F05F802004F0C1
:1040D000B5B90000D60000205B4B65793A20256415
:1040E0005D0A00002DE9F05F4FF4806004F088FA6B
:1040F000012004F005FA304D012802D104F016FA2F
:10410000A880DFF8B490A88809F10809A0F58071AB
:104110004FF4006BA9F13E0640F2FF774FF0A5087F
:104120004FF0000A06F10904594506DA00F58071DE
:10413000B94202D384F8028002E0A178A5290BD10C
:10414000B9F80410081A202806DD082131701BA0D8
:1041500003F07AF884F802A04FF4806004F06EF95E
:10416000584604F04DFA012004F0CAF9012802D1A2
:1041700004F0DCF9E880E8885D46A0F58071A9428A
:1041800006DA00F58071B94202D384F8038002E0B8
:10419000E178A5290BD1B9F80610081A202806DD08
:1041A0000721317005A003F04FF884F803A02846DA
:1041B000BDE8F05F04F042B9E60000205B4B657992
:1041C0003A2025645D0A00002DE9F05F4FF40050AD
:1041D00004F016FA012004F093F9454D012802D1AC
:1041E00004F0AAF96880DFF80881688808F10808F7
:1041F000A0F580714FF4006BA527A8F14E0640F2A0
:10420000FF7A4FF0000906F10D04594505DA00F573
:104210008071514501D3677002E06178A5290BD107
:10422000B8F80210081A202806DD0221317031A0EA
:1042300003F00AF884F801904FF4005004F0FEF8FF
:104240004FF4804004F0DCF9012004F059F9012812
:1042500002D104F071F9A880A88840F2D461A0F1DD
:1042600030028A4204DC60328A4201D3A77002E045
:10427000A178A5290BD1B8F80410081A202806DD6A
:10428000012131701BA002F0DFFF84F802904FF48F
:10429000804004F0D3F84FF4805004F0B1F90120CD
:1042A00004F02EF9012802D104F046F9288028886C
:1042B000A0F58071594505DA00F58071514501D3AB
:1042C000277002E02178A5290BD1B8F80010081A50
:1042D000062806DD0321317006A002F0B5FF84F840
:1042E0000090BDE8F05F4FF4805004F0A7B80000E4
:1042F000F60000205B4B65793A2025645D0A0000DA
:104300002DE9F05F4FF4001004F07AF9012004F079
:10431000F7F8464D012802D104F014F96880DFF85F
:104320000C91688809F10809A0F580714FF4006BC1
:10433000A9F15E0640F2FF774FF0A5084FF0000AA2
:1043400006F11104594506DA00F58071B94202D32D
:1043500084F8018002E06178A5290BD1B9F8021038
:10436000081A202806DD0621317031A002F06CFF0A
:1043700084F801A04FF4001004F060F84FF48000BE
:1043800004F03EF9012004F0BBF8012802D104F04A
:10439000D9F8A880A888A0F58071594506DA00F5FB
:1043A0008071B94202D384F8028002E0A178A52985
:1043B0000BD1B9F80410081A202806DD0521317048
:1043C0001BA002F041FF84F802A04FF4800004F02B
:1043D00035F84FF4000004F013F9012004F090F8D0
:1043E000012802D104F0AEF8E880E888A0F58071D9
:1043F000594506DA00F58071B94202D384F803808A
:1044000002E0E178A5290BD1B9F80610081A202896
:1044100006DD0421317006A002F016FF84F803A027
:10442000BDE8F05F4FF4000004F008B8060100207A
:104430005B4B65793A2025645D0A00001FB5014693
:104440002D484078002813D1C87901F108040128CB
:104450000FD0022820D003280AD0042834D000F03E
:10446000B5F801464FF4D073244A25A002F0ECFEC3
:104470001FBD00F0ABF801464FF4B3731F4A2AA0EA
:10448000009402F0E1FE204601F040FD10B101224F
:10449000012128E00022FBE700F098F8014640F2F5
:1044A0007113164A2AA0009402F0CEFE052221467E
:1044B00001A8FEF7CFFA01A801F054FD10B10122C6
:1044C000022110E00022FBE74888032811D3B4F84A
:1044D00001202078E11C01F0D3FB40B126A002F0BE
:1044E000B3FE01220421032001F054FC1FBD002271
:1044F000F8E72BA0F3E700004400002085870008C0
:104500005B5831304B422025735D2025733A2825B6
:104510006429205B476574426C7565496E666F203F
:10452000B4EDCEF35D0A00005B5831304B422025DC
:10453000735D2025733A2825642920CAD5B5BDC0EE
:10454000B6D1C0C3FBD7D65B25735D2E0A00000031
:104550005B5831304B422025735D2025733A282566
:10456000642920C9E8D6C3CDF8B9D8B5D8D6B75B89
:1045700025735D2E0A000000476574426C7565491D
:104580006E666F20B8F878313070B5C4C0B6D1C04F
:10459000CFECD3A6B0FC2CCAA7B0DC0A0000000008
:1045A000476574426C7565496E666F20B8F878315E
:1045B0003070B5C4C0B6D1C0CFECD3A6B0FCB4ED5A
:1045C000CEF32C20B4EDCEF30A0000001FB50D4849
:1045D00003F044FD0B48443890F8461090F84A40E8
:1045E00090F8493090F848208DE81E0090F845304A
:1045F00090F8442004A10B4802F036FE04B00948AC
:1046000010BD00009807002025327825303278252B
:1046100030327820253032783A253032783A2530D9
:1046200032780000000B002010B5FFF77CFB094C2E
:10463000FF202070FFF784FCFFF7C0FCFFF752FD5E
:10464000FFF7C2FDFFF75CFE2078BDE8104000F0E8
:1046500057BB0000B000002010B500F021F8094C55
:10466000A16F01F5FA71884204D200F019F8A16F28
:10467000884206D200F014F8A067BDE81040FFF7AA
:10468000D3BF10BD54070020034610B500200246DA
:1046900003E09C5C521C2044C0B28A42F9D310BD96
:1046A000014880687047000038000020064B4FF436
:1046B00000411A78501C187004481AB100221A7070
:1046C00003F017B903F013B9A00000200008004858
:1046D000104810B590F875000F4CA52812D0FFF7C0
:1046E000DFFF616801F5FA71884204D2FFF7D8FF55
:1046F000616888420CD2FFF7D3FF6060BDE81040CC
:10470000FFF7D4BFFFF7CCFF616801F6B831EBE7E4
:1047100010BD000054070020A00000200A21B0FBBB
:10472000F1F201FB1202B0FBF1F002EB0010C0B29B
:10473000704700002DE9FE4F4FF0AB094FF0010824
:104740004FF0040A4FF0060B6E4D00266E4CCFE082
:10475000607808287ED2DFE800F0041038526592B5
:10476000A2BE9DF80800AB28F1D184F8018085F83D
:1047700000904846A4F8048019E09DF80800CD2870
:104780000CD0AB2815D06670FFF720FF01464FF420
:1047900047735E4A5EA002F057FDA9E002206070F8
:1047A000CD206870A088401CA080A078CD30A0707B
:1047B0009EE085F80090A4F8048084F80290FFF74A
:1047C00005FF014640F21733E3E7A0889DF8081083
:1047D0002954401CA080E68041B103206070A1787C
:1047E0009DF808000144A170E07081E0524F84F808
:1047F00001A087F86980FFF753FFF866EFE7A0880C
:104800009DF808102954401CA080A0780844A0708E
:10481000E088401C80B2E080062869D1E68084F8F8
:1048200001A065E0A0889DF808102954401C80B2C2
:10483000A080A2781144A170E188491C89B2E1806E
:10484000022955D1284430F8020CE0802081FF284D
:104850000ED900E04BE06670FFF7B8FE0146E08835
:10486000009040F24533294A34A002F0EDFC3FE0CD
:1048700010B1052060703BE084F801B038E0A088FA
:104880009DF808102954401CA080A0780844A0700E
:10489000E088401E0004000CE08029D1ECE7A088ED
:1048A0009DF808102954401CA080A078814203D1B3
:1048B00007206070E6801BE0FFF788FE01469DF848
:1048C0000820A078CDE9000240F263330F4A244863
:1048D00002F0BAFC0BE0E088401C80B2E0800228C5
:1048E00006D1E07818B92189064801F0D1FE66703A
:1048F00002A91C48FFF744F900283FF429AFBDE89E
:10490000FE8F00002B02002020000020EC88000811
:104910005B5831304B422025735D2025733A2825A2
:1049200064292063616E206E6F742066696E642056
:1049300063642E0A00000000540700205B583130E9
:104940004B422025735D2025733A28256429206C6D
:10495000656E3D25642C6572726F722E0A00000030
:10496000A48A0008D0090020002909D1054A00289E
:104970004FF00201104601D002F0BBBF02F0B7BFFA
:1049800070470000000400482DE9F041144E002556
:104990004FF48057022003F033FE012003F0B0FDF6
:1049A000012803D103F0B6FD26F81500022003F01C
:1049B00045FD3C46641EFDD16D1C142DEAD309490A
:1049C000012036F810304A88401C1A444A801428C6
:1049D000F7D390B21322B0FBF2F04880BDE8F0812B
:1049E000200B0020CE0000202DE9F0412E4D0024A8
:1049F0004FF4805805F1280605F15007202003F0F8
:104A0000FFFD012003F07CFD012803D103F088FDA8
:104A100025F81400202003F011FD402003F0F0FDE4
:104A2000012003F06DFD012803D103F079FD26F884
:104A30001400402003F002FD802003F0E1FD01207E
:104A400003F05EFD012803D103F06AFD27F814008E
:104A5000802003F0F3FC4046401EFDD1641C142C62
:104A6000CCD3124901204A8835F810301A444A80C4
:104A70008A8836F810301A448A8037F81030CA888D
:104A8000401C1A44CA801428EDD34A881320B2FB74
:104A9000F0F24A808A88B2FBF0F28A80CA88B2FBC0
:104AA000F0F0C880BDE8F081480B0020DE00002057
:104AB0002DE9F047244D00244FF480684FF400693D
:104AC0004FF4805A05F128064746404603F098FD0A
:104AD000012003F015FD012803D103F027FD25F87F
:104AE0001400384603F0AAFC4F46484603F088FD00
:104AF000012003F005FD012803D103F017FD26F87E
:104B00001400384603F09AFC5046401EFDD1641C48
:104B1000142CD9D30D4901208A8835F810301A4455
:104B20008A8036F81030CA88401C1A44CA8014287B
:104B3000F2D38A881320B2FBF0F28A80CA88B2FBD3
:104B4000F0F0C880BDE8F087C00B0020EE00002028
:104B50002DE9F05F324D00244FF4005A4FF4804BA2
:104B60004FF4805905F1280605F150085746504684
:104B700003F046FD012003F0C3FC012803D103F03C
:104B8000DBFC25F81400384603F058FC5F46584615
:104B900003F036FD012003F0B3FC012803D103F03C
:104BA000CBFC26F81400384603F048FC4F46484634
:104BB00003F026FD012003F0A3FC012803D103F03C
:104BC000BBFC28F81400384603F038FC7F1EFDD1EA
:104BD000641C142CCAD31349012043464A8835F873
:104BE000104022444A808A8836F8104022448A8045
:104BF00033F810400A88401C22440A801428EDD360
:104C00004A881320B2FBF0F24A808A88B2FBF0F2A5
:104C10008A800A88B2FBF0F00880BDE8F09F0000AF
:104C2000100C0020FE0000202DE9F05F324D002422
:104C30004FF400194FF4800A4FF4000B05F12806D9
:104C400005F15007C846484603F0DAFC012003F09E
:104C500057FC012803D103F075FC25F814004046E9
:104C600003F0ECFBD046504603F0CAFC012003F0F1
:104C700047FC012803D103F065FC26F814004046E8
:104C800003F0DCFBD846584603F0BAFC012003F0E1
:104C900037FC012803D103F055FC27F814004046E7
:104CA00003F0CCFB4FF48050401EFDD1641C142C4B
:104CB000C8D3124901204A8835F810301A444A8076
:104CC0008A8836F810301A448A8037F81030CA883B
:104CD000401C1A44CA801428EDD34A881320B2FB22
:104CE000F0F24A808A88B2FBF0F28A80CA88B2FB6E
:104CF000F0F0C880BDE8F09F880C00200E01002075
:104D000038B50446FF280CD00B2C0AD800F01CF84C
:104D1000FFF75CFC01469423024A03A0009402F0D2
:104D200093FA38BD5E8900085B5831304B4220252C
:104D3000735D2025733A28256429205B6B65793AD9
:104D40002025645D0D0A000010B5A0B00446802146
:104D50006846FDF732FA012368468DF808401A4686
:104D60001946FDF737FE20B0002010BD70B540F2A7
:104D7000135003F03DF90A4D4FF40044012223463D
:104D80001146284602F0EFFE234603220021284662
:104D900002F00DFF21462846BDE8704002F0A7BD95
:104DA0000008004813B50C466846FDF7A5FB017ED8
:104DB0002170017D64396170017C491CA170017B07
:104DC000E170017A08312171017961710078A07177
:104DD00004E018382071E078401CE0702079182831
:104DE000F7D204E03C3860712079401C2071607972
:104DF0003C28F7D204E03C38A0716079401C607117
:104E0000A0793C28F7D200201CBD00002DE9FC470A
:104E100027213548FDF7D1F93448002408210460E2
:104E200004710830FEF78CFF2F487C212830FDF7F5
:104E3000C4F92D4EDFF8B8A02836012586F8685051
:104E4000504601F0BBF8294FDFF8A8800837A7F1DA
:104E50001409396841450BD127A002F0F5F9FFF795
:104E6000B5FB01464723344A34A002F0EDF916E0C1
:104E70003AA002F0E9F9FFF7A9FB01464C232E4ABC
:104E800046A002F0E1F9504601F098F81748C9F839
:104E9000184008210830C7F80080FEF7D3FFFFF75D
:104EA00095FB01465323244A45A0009502F0CCF916
:104EB000FFF78CFB014655231F4A4EA0009502F0D8
:104EC000C3F9FFF783FB014657A25AA0CDE90002C0
:104ED0005723194A5AA002F0B7F903480570D9F8C8
:104EE0000800B067BDE8FC872C07002044000020C4
:104EF000FFF3255CAE5634120A0A0A3D3D3D3D3DA6
:104F00003D3D3D3D3D3D3D3D3D3D3D3D3D3D3D3DD1
:104F10003D3D3D3D3D3D3D3D3D3D3D3D3D3D3D3DC1
:104F20003D3D3D3D3D3D3D3D3D3D3D3D3D3D3D3DB1
:104F30003D3D3D3D3D3D0A00148900085B58313040
:104F40004B422025735D2025733A28256429200DC6
:104F5000C6F4B6AF4170700A000000000A0A0A2ABF
:104F60002A2A2A2A2A2A2A2A2A2A2A2A2A2A2A2AA1
:104F70002A2A2A2A2A2A2A2A2A2A2A2A2A2A2A2A91
:104F80002A2A2A2A2A2A2A2A2A2A2A2A2A2A2A2A81
:104F90002A2A2A2A2A2A2A2A2A2A0A005B5831304F
:104FA0004B422025735D2025733A28256429200D66
:104FB000B3F5B4CEC6F4B6AF4170700A000000007D
:104FC0005B5831304B422025735D2025733A2825EC
:104FD0006429200A20C9E8B1B8B0E6B1BEBAC53A22
:104FE0002066775F76657273696F6E203D20256459
:104FF0002E200A005B5831304B422025735D20255E
:10500000733A28256429200A20B2E2CAD4B0E6B156
:10501000BEBAC53A2076657273696F6E203D202551
:10502000642E200A0000000031303A35323A333223
:10503000000000004A616E203235203230313900E4
:105040005B5831304B422025735D2025733A28256B
:105050006429200A20CEC4BCFEB1E0D2EBCAB1BCA8
:10506000E42C20D4C2C8D5C4EA20257320CAB1B725
:10507000D6C3EB2573200A001CB50446C079304B1B
:10508000062855D2DFE800F05403100F3F4B2D499E
:1050900001200870FFF79AFA01464FF498732A4AE4
:1050A0002AA002F0D1F81CBD00220221104600F017
:1050B00071FE207A01280FD0022818D00328F2D1DF
:1050C000FFF784FA01464FF4A2731F4A29A002F0A9
:1050D000BBF8FEF795F91CBDFFF778FA014640F2E0
:1050E0003913194A2DA002F0AFF800F067FBFFF763
:1050F0006DFA01464FF49F73134A33A002F0A4F8EF
:10510000FEF77AFA1CBD082204F108011846FEF7E2
:105110001FFE00220421104600F03CFE1CBD0822A8
:1051200069461846FEF701FE684600F057FB1CBDB5
:10513000FFF74CFA01464FF4AB73034A2CA0B0E7DB
:1051400000F8010804000020728700085B58313025
:105150004B422025735D2025733A2825642920BD04
:10516000D3CAD5B5BDBBF9B1BED0C5CFA2D3A6B405
:10517000F02E0A005B5831304B422025735D20250C
:10518000733A2825642920C7EBC7F3B4F2BFAAC03D
:10519000B6D1C0B9E3B2A52E0A0000005B58313089
:1051A0004B422025735D2025733A2825642920CAA7
:1051B000D5B5BDD6F7B0E5B5C4B8B4CEBBCFB5CD87
:1051C000B3C7EBC7F32E0A005B5831304B422025A2
:1051D000735D2025733A2825642920C7EBC7F3B8EF
:1051E000B4CEBBC0B6D1C0C4A3BFE92E0A00000034
:1051F0005B5831304B422025735D2025733A2825BA
:10520000642920B4EDCEF32E0A000000F0B589B079
:10521000044600200090019002900390E07901285C
:105220000ED0022812D003285DD0FFF7CFF9014637
:1052300040F2DA234D4A4EA002F006F809B0F0BD64
:10524000207A0028FAD001F04BFBF7E760880828A5
:10525000F4D3A0680490A089ADF81400062204A934
:105260004AA000F079FCA57BE47B2946224649A0B0
:1052700001F0EAFF08AA06A907A801F017FB4E4FA4
:10528000012648B101F02CFB69460120FEF7A2FA85
:1052900087F8686049A01EE006AB04AA29460020F2
:1052A00000F062F938B101F01BFB69460120FEF7FE
:1052B00091FA45A00FE004EB8500C0B2694600F00A
:1052C00097F958B101F00CFB69460120FEF782FA0C
:1052D00087F8686040A001F0B7FFAFE7694600209B
:1052E000FEF778FAAFE7A0680490A089ADF8140043
:1052F000A67BE07B00EB8600C5B201F0F1FA08AABC
:1053000006A907A801F0D2FA30B906AB04AA3146C3
:10531000002000F029F940B133A001F095FF01F021
:10532000DFFA012001F06CFF88E704F11006082D78
:105330000BD03146284600F079F9A0B12EA001F03B
:1053400083FF012001F05CFF7DE70F213046FFF76E
:105350009BF9E17F8842C5D13146082000F066F90B
:1053600008B129A0EBE70020ECE70000CB8700089C
:105370005B5831304B422025735D2025733A282538
:10538000642920B4EDCEF32E0A0000006B6579414C
:1053900000000000D1B0BFA82C20736563746F7249
:1053A000203D2025642C20626C6F636B203D2025FE
:1053B00064200D0A0000000054070020D1B0BFA8EF
:1053C000CAA7B0DC2E0D0A00C3DCC2EBC8CFD6A43E
:1053D000CAA7B0DC0D0A0000B6C1CAFDBEDDBFE938
:1053E000CAA7B0DC2E0D0A00575249544520666109
:1053F000696C65642E0D0A00D0B4BFA8BFE978CAF5
:10540000A7B0DC0D0A000000D0B4BFA8BFE938CABD
:10541000A7B0DC0D0A00000010B5154C207888B943
:10542000FFF73EF9616841F288321144884204D2A4
:10543000FFF736F96168884204D2FFF731F96060FE
:1054400000F02EFFFFF72CF9A16847F2305211440B
:10545000884204D2FFF724F9A168884206D2FFF7F8
:105460001FF9A060BDE8104000F034BF10BD00007F
:105470000400002070B50D460446FEF754FCA279E6
:10548000052A1ED2DFE802F0031D090F1500294688
:105490002046BDE87040FFF7EFBD29462046BDE835
:1054A0007040FFF7B3BE29462046BDE87040FEF7C6
:1054B000C5BFFEF738FC29462046BDE8704000F025
:1054C00001B870BD70B50546C07900240E460128AC
:1054D00006D0022825D12846BDE8704000F096BCD1
:1054E0000A4629460FA000F037FB3146284601F056
:1054F000C7FB70B1FFF76AF8014640F21E230F4A5E
:105500000FA001F0A1FE01242046BDE8704001F08B
:1055100095BB052000F0E6FA1249A52081F82B0082
:10552000F2E770BD454E554D5F55504752414445D9
:105530005F5245515545535400000000BA8700089A
:105540005B5831304B422025735D2025733A282566
:10555000642920B2BBBFC9D2D4C9FDBCB621212168
:105560000A0000005407002000B587B010B10128E0
:1055700002D004E0602000E061208DF80400880083
:105580008DF8050010788DF8060050788DF807002A
:1055900090788DF80800D0788DF8090010798DF892
:1055A0000A0050798DF80B0018788DF80C005878A7
:1055B0008DF80D0098788DF80E00D8788DF80F00D2
:1055C000012000F066FAFEF791F905A8009004ABFF
:1055D0000C2201A90E2000F018F938B9082000F0BB
:1055E000F9FA000702D5002007B000BD0120FBE753
:1055F0003EB504460D46012000F04BFA30228DF8EE
:1056000004208DF80540FEF771F902A800902B46A2
:10561000022201A90C2000F0F8F810B902988028A5
:1056200001D001203EBD00203EBD000030B5044643
:105630008BB00D46012000F02CFAA0218DF814103B
:105640008DF8154009AC01AB022205A90C2000948D
:1056500000F0DBF80998042801D0012000E00020C8
:105660009DF8041001F00F010A2901D0012200E089
:105670000022104307D0FEF7A9FF014640F2EB13CA
:10568000144A15A021E0052000F003FA01AB102216
:1056900029460C20009400F0B8F80998042801D09D
:1056A000012000E000209DF8041001F00F010A29FC
:1056B00001D0012100E00021084309D0FEF786FF58
:1056C00001464FF4FA73034A0FA001F0BDFD01201B
:1056D0000BB030BD448900085B5831304B42202567
:1056E000735D2025733A28256429204D696661720F
:1056F000655F426C6F636B777269746520B4EDCE41
:10570000F3313A0A000000005B5831304B4220254B
:10571000735D2025733A28256429204D69666172DE
:10572000655F426C6F636B777269746520B4EDCE10
:10573000F3323A0A0000000010B5FEF7F4FABDE8B3
:105740001040FEF777B8000070B5FEF7A9FF174CC0
:10575000174D21686431884204D2FEF7A1FF216809
:1057600088420DD21348807850B9FEF799FF206027
:1057700095F82B00A52801D0FFF7DEFFFEF7D3FA3E
:10578000FEF78EFF0C4C41F28832216811448842AA
:1057900004D2FEF785FF2168884205D2FEF780FF1C
:1057A0002060012085F8680070BD00001000002016
:1057B000540700204400002000000020BFF34F8F5A
:1057C00004480168044A01F4E06111430160BFF339
:1057D0004F8FFEE70CED00E00400FA0530B5A1B0F4
:1057E000044680216846FCF7E8FC6D46FEF79BFA0C
:1057F0002068029060680390052300220821284653
:10580000FDF7E8F821B0002030BD2DE9F0479946BA
:105810001446884607460026DDF820A0FEF766F805
:10582000FEF781FA20210B2001F009FD7F210420E1
:1058300001F005FD0E2F07D14146204601F0F2FC94
:1058400080210D2000F0F4FB80212A2000F0F0FBE5
:105850003946012001F0F3FCFEF765FA042000F060
:10586000B9F90546C00703D020250C2F5CD076E09F
:105870000E2F11D0042F12D00C2FEDD1680739D57F
:10588000C4B3202C414629D9202001F0CBFC203C78
:10589000E4B208F1200825E0E806DDD560E06807FD
:1058A00017D5B4B1202C414604D2204601F0BAFCF1
:1058B000002406E0202001F0B5FC203CE4B208F111
:1058C000200880210D2000F0B3FB0421084601F0E0
:1058D000B6FC6806C0D5002CBED141E0204601F0E0
:1058E000A1FC002480210D2000F0A2FB0421084629
:1058F00001F0A5FC280712D5680610D57CB90A204E
:1059000000F068F920280AD909EB0601202000F0F0
:1059100053F92036F6B20821042001F090FCA806C5
:105920009AD5002C98D100250A2000F053F907469B
:105930000C2000F04FF900F007040FB904B1012763
:1059400009EB0601384600F037F9F019C0B21CB176
:10595000C0000838011900E0C100CAF800101DB9E4
:10596000062000F037F9054680210C2000F060FB8E
:105970002021012001F063FC80210D20FDF7AAFF0A
:105980002846BDE8F08710B50446FEF7CCF924B1EF
:10599000012C45D0022C5DD05AE010210C2000F0E3
:1059A00047FB4021152000F043FB0021122001F0AD
:1059B00046FC0021132001F042FC8021392000F038
:1059C00037FB01213C20FDF785FF07213D20FDF736
:1059D00081FF03213E20FDF77DFFFF21332001F0F1
:1059E0002EFC0721322001F02AFCF121272001F0B2
:1059F00026FC3F21282001F022FC0121292001F072
:105A00001EFC4021262001F01AFC0D21192001F076
:105A100016FC8421182001F012FC4021362015E0EC
:105A200010210C2001F00BFC8321122001F007FC57
:105A30008321132001F003FCF421272001F0FFFB58
:105A4000F421232001F0FBFB002120E001F0F7FB13
:105A5000002010BD10210C2001F0F1FB922112203A
:105A600001F0EDFB9621132001F0E9FBF421272042
:105A700001F0E5FB2021282001F0E1FB4F2123204C
:105A800001F0DDFB2021292001F0D9FB07211520A1
:105A9000DCE770B540F29F6100244843611E01229B
:105AA0004FF6FF7301EBC0011D1102EB4400B1FB87
:105AB000F0F0984202D3641CAC42F6D385B2C4F332
:105AC00007212A2000F0B4FAE1B22B2001F0B7FB45
:105AD000290A2C2001F0B3FBE9B22D2001F0AFFB25
:105AE000002070BD70B5054600241A4E09E00A205A
:105AF000FEF717F82046641CC82802DD4FF0FF307F
:105B000070BD2021304602F029F80028EFD108218D
:105B1000304601F0EEFEFEF701F80821304601F0B4
:105B2000E6FEFDF7FBFF00240FE0FEF7FCF8102176
:105B3000304601F0DEFEFDF7F1FF1021304601F0A6
:105B4000D6FEFDF7EBFF641CE4B2AC42EDD30020BF
:105B500070BD00000004004870B515460E460446AE
:105B6000FEF734FD01462B46224608A001F06CFBEF
:105B7000002404E0315D0DA001F066FB641CAC4222
:105B8000F8D3BDE870400BA001F05EBB5B5831302C
:105B90004B422025735D2025732C6C656E3D25647A
:105BA000202C70646174613A000000002530325886
:105BB000000000000A00000070B50D4606460024F3
:105BC00005E0092000F006F82855641CE4B2B44250
:105BD000F7D370BD00F020B810B502F0DDFAFEF783
:105BE000F5FC0146BDE810406A23024A02A001F01C
:105BF0002BBB0000568900085B5831304B422025F2
:105C0000735D2025733A2825642920B3F5CABCBBEF
:105C1000AF205254430A000070B504464FF40045CB
:105C20004FF090462946304601F061FE802040EA60
:105C30004400C0B200F0E4FA00F0DEFA044629465F
:105C4000304601F056FE204670BD2DE9F0410E466B
:105C500007464FF400444FF090452146284601F096
:105C600046FE7E2000EA470000F0CAFA304600F007
:105C7000C7FA21462846BDE8F04101F03ABE0000CF
:105C80002DE9F047C4B015468A46064600244FF475
:105C9000FA774FF40049DFF8BC8012E00A20FDF7E4
:105CA00040FF641CBC420CD3FEF790FC0146162357
:105CB000294A2AA001F0C8FA4FF0FF3044B0BDE8ED
:105CC000F0874946404601F049FF0028E6D14FF4ED
:105CD000007739464446404601F040FF30B9394626
:105CE000204601F006FE0220FDF71BFF4FF48671EF
:105CF0006846FCF762FAAB208DF80000CD208DF8E5
:105D00000100012E07D1224850F8221FCDF80310C0
:105D100000798DF807008DF80260ADF809502A4629
:105D200051460DF10B00FCF72FFA05F10B0081B283
:105D30006846FEF7A9FC0DEB05010E35C8720D2073
:105D400008730A204873AAB26946002001F0F2F9EC
:105D50000020B3E700040048F28700085B583130A8
:105D60004B422025735D2025733A28256429204362
:105D70004B42323420776169742069646C65207409
:105D8000696D656F75742C6572726F722E0A0000F2
:105D90002C070020F0B5A1B00D460646174680211D
:105DA0006846FCF70AFA6C468DF808702A463146B8
:105DB00008A001F049FA2B46324601212046FCF7A3
:105DC00009FE0B22214609A0FFF7C6FE21B00020E4
:105DD000F0BD000074797065203D2025642C20639F
:105DE0006D64203D202564200A00000053656E6428
:105DF0004D73675F41434B20B8F858313050B5C4FC
:105E0000C0B6D1C0D3A6B4F00000000070B51E4EDD
:105E100000F10804002596F82B00A52801D00125E3
:105E20000FE02046FDF78CFC022810D048B1012578
:105E3000FEF7CCFB01464FF40173144A14A001F0A5
:105E400003FA2178284600F04BF8002070BD217835
:105E5000002000F045F84FF47A742046FDF761FE0B
:105E60002F20FFF73FFEFEF7B1FB01464FF4FC7316
:105E7000064A0FA001F0E8F9002086F82B00204622
:105E8000FDF74FFEFFF79AFC54070020A787000894
:105E90005B5831304B422025735D2025733A28250D
:105EA000642920C9FDBCB6B4EDCEF32121210A003E
:105EB0005B5831304B422025735D2025733A2825ED
:105EC00064292044454255475F434D445F52454253
:105ED0004F4F54D6D8C6F4CFB5CDB3A3A10A000016
:105EE00030B5A1B00C46054680216846FCF765F93F
:105EF0008DF80850022368468DF80940042219469F
:105F0000FCF768FD21B0002030BD000070B588B0FE
:105F10000546002420216846FCF74FF92A460CA1CB
:105F2000684601F0A1F94FF4FA656E102A460CA1FB
:105F30006846FCF73DFF002807D03046FDF7F1FD2D
:105F4000641C022CF2D34FF0FF3008B070BD00008B
:105F500041542B4E414D453D25730D0A0000000074
:105F60004F4B000070B588B00546002420216846DC
:105F7000FCF723F92A460CA1684601F075F94FF4A5
:105F8000FA656E102A460CA16846FCF711FF00283E
:105F900007D03046FDF7C5FD641C022CF2D34FF04C
:105FA000FF3008B070BD000041542B475749443DB5
:105FB00025730D0A000000004F4B00001CB5694618
:105FC000FEF7F0FE9DF80100FEF7A8FB164B03F864
:105FD000440F9DF80200FEF7A1FB58709DF80300E6
:105FE000FEF79CFB98709DF80000FEF797FBD870B9
:105FF0009DF80400FEF792FB18719DF80500FEF76E
:106000008DFB58719DF80600FEF788FB98710748D4
:1060100001681981406858810020D86018610248E1
:10602000443002F049F81CBD54070020A8000020AD
:1060300070B50C460546FFF7CDFD40EA0401284641
:1060400001F0FDF8002070BD70B50446FDF76BFE51
:106050001420FFF7BFFD00F00300A04201D1002093
:1060600070BD34B1012C06D0022C0ED0032C0ED002
:1060700006E0032100E001211420FDF72BFC05467A
:10608000C820FDF74EFD284670BD0221F4E703212C
:106090001420FFF7CDFFF2E770B540F2135001F086
:1060A000A7FF084D4FF4005401222346114628460D
:1060B00001F059FD23462846BDE870400322002127
:1060C00001F075BD0008004810B5002418210C48E7
:1060D000FCF773F80A48092104EB440200EBC20202
:1060E0005170641CF8D0012181713421C171FFF716
:1060F000D3FF01223421BDE81040002000F082BA15
:10610000E80A002058B109280CD00A280DD0012334
:10611000401E834003EA01001146FEF725BC1146EC
:106120000020FAE711460120F7E770472DE9F0411A
:1061300040F2115001F05CFF40F2165001F058FFA0
:1061400040F2125001F054FF4FF4004401224FF08E
:10615000904523461146284601F005FD23460322BB
:106160000021284601F023FD214E01224023114643
:10617000304601F0F8FC402303220021304601F0B4
:1061800016FD1C4F012208231146384601F0EBFC96
:10619000082303220021384601F009FD01222023B3
:1061A0001146384601F0DFFC202303220021384647
:1061B00001F0FDFC102301220021384601F0D3FC40
:1061C000102303220021384601F0F1FC4021304623
:1061D00001F08FFB2146284601F08BFB2021384639
:1061E00001F087FB3846BDE8F041082101F07FBB94
:1061F0000014004800040048A52000F001B8000089
:106200002DE9F041144F0546002428064FF02001E7
:10621000384602D501F06DFB01E001F068FB082172
:10622000384601F066FB0A20FDF788FC6806060E7A
:106230001021384601F092FC40EA06050821384654
:1062400001F055FB0A20FDF779FC641CE4B2082C30
:10625000DBD32846BDE8F081000400482DE9F04179
:1062600005460C460846FBF7C5FF064600230FE02F
:10627000E05CFCF7D9FB0746E0184078FCF7D4FB5C
:1062800003EBD37105EB610140EA071008709B1C1A
:10629000B342EDDB06EBD6704010BDE8F0810000A4
:1062A00030B5A1B080216846FBF787FF6C4602AD90
:1062B000FDF739FD272206492846FBF765FF012334
:1062C000002227212046FCF785FB21B0002030BDAD
:1062D0002C07002000B5A1B080216846FBF76DFFB8
:1062E0000749684603230968029101218DF80C10C3
:1062F00000220521FCF76EFB21B0002000BD00004C
:1063000044000020704700001E48016841F0010170
:10631000016001688907FCD541681B4A1140416052
:1063200041681A4A11404160416821F440014160CE
:10633000016B174A114001630168164A1140016060
:10634000C16A154A1140C162016B40F203129143C8
:106350000163016B21F480310163016B21F0004185
:106360000163416B21F001014163D0F8C01021F4B9
:106370008031C0F8C01000218160C0F8CC1001F05D
:1063800057BF0000001002400C00FF08FFFFC2775B
:10639000BFFFFFBFFFFFF2FEF0FFFF3F10B540F66B
:1063A0001A1001F099FD01281ED040F61B1001F0D3
:1063B00093FD01281FD040F61C1001F08DFD01282F
:1063C00020D040F61D1001F087FD012821D040F6B5
:1063D0001E1001F081FD012822D040F61F1001F0AF
:1063E0007BFD012823D02AE0FEF7F0F801466E235A
:1063F000154A16A021E0FEF7E9F801467223124A79
:106400001DA01AE0FEF7E2F8014676230E4A23A00B
:1064100013E0FEF7DBF801467A230B4A28A00CE0D4
:10642000FEF7D4F801467E23074A2FA005E0FEF7C9
:10643000CDF801468223044A35A000F005FFBDE8EF
:10644000104001F069BC0000238900085B5831301E
:106450004B422025735D2025733A2825642920CFDF
:10646000B5CDB3CDE2B2BFB8B4CEBBB9DCBDCCB80C
:10647000B4CEBB0A000000005B5831304B422025EF
:10648000735D2025733A2825642920CFB5CDB3C983
:10649000CFB5E7B8B4CEBB0A000000005B5831307E
:1064A0004B422025735D2025733A2825642920CF8F
:1064B000B5CDB3C8EDBCFEB8B4CEBB0A0000000039
:1064C0005B5831304B422025735D2025733A2825D7
:1064D000642920CFB5CDB3B6C0C1A2BFB4C3C5B97E
:1064E000B7B8B4CEBB0A00005B5831304B42202510
:1064F000735D2025733A2825642920CFB5CDB3B428
:10650000B0BFDABFB4C3C5B9B7B8B4CEBB0A0000D8
:106510005B5831304B422025735D2025733A282586
:10652000642920CFB5CDB3B5CDB9A6BAC4B8B4CE21
:10653000BB0A000010B5042001F0BEFE0B480C4958
:106540000C4B0068B0FBF1F2B0FBF1F14FF47A7044
:1065500041434FF0E0201A70026942F002020261EA
:106560004161016941F00101016110BD1801002084
:1065700040420F009800002070B5174D154C0121C6
:10658000284601F051FF00281BD00121284601F0C8
:1065900047FF617920790022FFF7B4FD2079401C84
:1065A000207120790B280CD1E08A401C80B2E08257
:1065B000A18A884206D2E18A2069405C607100208D
:1065C000207170BDA52020702846BDE8704001F004
:1065D000C5BE0000E80A0020002C014010B50121D2
:1065E0008C07204601F020FF002807D0012120461B
:1065F00001F016FF02488168491C816010BD00004F
:10660000380000202DE9FF410446204816460F4679
:1066100030F8140001F0ECFC1C4D1A3555F824003C
:1066200001F05CFE6B20ADF800000020ADF80C001E
:10663000ADF80200ADF8040002978DF80E0055F891
:106640002400694601F098FE012E10D155F824006F
:10665000012101F0E1FE55F82400012101F088FE3E
:10666000A5F11C000122005D114601F0F9FA55F870
:10667000240001F02DFE55F8240001F074FE002CDA
:1066800002D1286801F06AFEBDE8FF813A000020CF
:1066900070B5C0B00D4606464FF480716846FBF7F2
:1066A0008CFD6C46FDF73FFBED1C2A46B11C04F146
:1066B0000800FBF769FD0323A9B21A462046FCF740
:1066C00089F940B0002070BD10B540F2115001F0C2
:1066D0008FFC40F2125001F08BFC4FF4A36001F0EC
:1066E00087FC01F009F901F0B9FEFEF74DF9FEF75C
:1066F0007BF9FEF7DDF9FEF72BFAFEF795FAFDF7C9
:1067000065FF0146BDE8104040F2A333014A02A0F4
:1067100000F09ABD6A8900085B5831304B42202551
:10672000735D2025733A28256429205473694B65CD
:1067300079496E6974204F4B0A0000002DE9F0433F
:106740008DB00646002001900290039004900590C1
:10675000086008710C4620218DF818108DF81C0077
:106760008DF820008DF8240080211220FDF7B2F86A
:1067700080211320FDF7AEF880210E2000F05FFD90
:1067800000211D2000F05BFD0DF128080DF104092A
:1067900004AD8DF828609DF818008DF829009DF84B
:1067A0001C100D2000F04BFD9DF82420214608F11F
:1067B0000200FBF7E9FC9DF82400801CC7B2012011
:1067C000FFF767F902AB3A460AA90C20CDF8009012
:1067D000FFF71BF8202867D000072AD50E20FFF707
:1067E000F9F900F01F0709AB08AA06A9384600F01E
:1067F0001EF907A9384600F0F9F89DF8242002A9EF
:1068000004A8FBF7C1FC9DF824009DF82020284433
:1068100010F8011D11400170002205E0A05CA95C88
:106820000843A054521CD2B29DF824008242B0D238
:10683000F4E70198082802D9C0F3C70600E0012652
:106840009DF8240018B1311806292DD107E0052E36
:106850002AD1324602A92046FBF796FC16E02844CE
:10686000324602A9401EFBF78FFC00200CE09DF889
:10687000241001440A19294412F8013D11F8011CA1
:106880000B43401C1370C0B2B042F0D32078617843
:10689000E2784840A178514048402179884203D1AC
:1068A00000200DB0BDE8F0830120FAE770B5154671
:1068B0000E46044600F038F880B9617871B9217845
:1068C00089090CD131469320FFF738FF30B92A46A9
:1068D0003146932000F059F8002800D0012070BD07
:1068E0001FB550208DF8040000208DF805000146EA
:1068F0000D2000F0A4FC80211220FFF799FB8021DD
:106900001320FFF795FB08210846FCF7E3FF012061
:10691000FFF7BFF803A8009002AB022201A90C20E8
:10692000FEF773FF04B010BD1FB5044600200290AF
:1069300080211220FCF7CEFF80211320FCF7CAFF34
:1069400008211320FFF774FB07210D2000F077FCCE
:1069500026208DF80C000120FFF79BF802A800907C
:1069600001AB012203A90C20FEF74FFF10B90298DA
:10697000102802D0012004B010BD9DF80400207042
:106980009DF8050060700020F5E770B50C460646DE
:1069900086B0154600210D2000F051FC8021122008
:1069A000FFF746FB80211320FFF742FB8DF80460C0
:1069B00070208DF80500002001A9225C0B18401CF6
:1069C000C0B29A700528F8D30120FFF762F805A835
:1069D000009003AB072201A90C20FEF716FF002848
:1069E00002D19DF80C10297006B070BDE8B1421EAE
:1069F000082A02D200EB001017E0A0F109030201FF
:106A0000082B03D2803A104408380EE0A0F111039D
:106A1000082B02D21044103807E0A0F11903072B0D
:106A200004D2A2F5C0721044183808707047F0B54F
:106A3000042510B958240C701D70441E0126082C22
:106A400002D221340C701E70A0F10904082C03D26C
:106A500031340C7002241C70A0F111040327082C9F
:106A600002D241340C701F70A0F11904072C02D21D
:106A7000383008701D70087800F00700092807D228
:106A8000DFE800F0060507090B0D0F111300167063
:106A9000F0BD1770F0BD072008E00F2006E01F20B2
:106AA00004E03F2002E07F2000E0FF201070F0BDF6
:106AB0002DE9F05F894604463F4900EB440001EBB5
:106AC000800A3E48934630F8140001F091FA3B48A2
:106AD000001D30F8140001F08BFA384F2837A7F169
:106AE000200606F1100857F8242056F8241058F80C
:106AF000240000F0D1FE06F1280556F824101836BF
:106B000055F8242056F8240000F0C6FE57F824302B
:106B100058F824000122022101F025F857F824003A
:106B20004FF6FF7703463A46002101F040F855F84A
:106B3000243056F824000122022101F014F855F8FF
:106B4000243056F824003A46002101F030F8203D68
:106B500055F8240001F09AFD55F82400594601F03B
:106B600061FD55F82400042101F0E3FD55F82400EF
:106B7000082101F0E6FDB9F1010F16D155F8240006
:106B8000052101F0ABFDA5F114000122005D0221F9
:106B900001F066F80A484FF4807200EB0421504679
:106BA000FDF709F85046FCF7E3FF55F8240001F023
:106BB00085FD0020BDE8F09FD00900206000002086
:106BC000D007002070B50C4E0C4C0A4D31462046C3
:106BD00001F097FD00280CD0204601F04FFDC1B216
:106BE0002846FCF7EFFF31462046BDE8704001F033
:106BF00080BD70BDD00900200500050700380140A8
:106C000070B50C4E0C4D0A4C3146284601F079FD0A
:106C100000280CD0284601F031FDC1B22046FCF717
:106C2000D1FF31462846BDE8704001F062BD70BD1D
:106C3000DC090020050005070044004030B5A1B084
:106C4000054680216846FBF7B8FA6C4601238DF8AB
:106C50000850042219462046FBF7BCFE0B222146B1
:106C600002A0FEF779FF21B0002030BD5570677299
:106C70006164655265717565737441636B000000F2
:106C80007FB5204D816800242960C1686960018A50
:106C90002981807CA872FDF799FC01462868AE7AAC
:106CA0002B896A688DE84D0040F2BD13164A1748DB
:106CB00000F0CAFA16480121C16200210163416354
:106CC000286898B1686888B100F074FD114D05EB33
:106CD000842000F031FD342000F020FD641C3A2CAB
:106CE000F5D300F021FD002004B070BDFDF76EFC6F
:106CF000014640F2C513044A07A000F0A5FA4FF080
:106D0000FF30F1E72001002091870008088A000881
:106D100054070020000801085B5831304B42202501
:106D2000735D2025733A282564292066696C657394
:106D3000697A65206F72207061636B616765206F8F
:106D4000722066775F766572736F6E2C2065727243
:106D50006F72212121000000F8B500258DF8005048
:106D60002C46FCF7E0FF0D4E0D4F09E0012269466D
:106D7000E019FCF7DAFF9DF80000641C284485B296
:106D80003068A042F2D83289AA4205D0294605A02F
:106D900000F05AFA0120F8BD0020F8BD20010020C3
:106DA00000080108D0A3D1E9B3F6B4ED2121215B9D
:106DB0002523785D2C205B2523785D0D0A000000DB
:106DC0002DE9F0416D4F0D4601466D4A786B8CB050
:106DD000104400242A46FCF7BBFF01284AD0786BF8
:106DE000684E2844642148433168B0FBF1F8FDF750
:106DF000EDFB7A6B33682A44CDE900320146CDF8C9
:106E000008803C23604A61A000F01EFAF86A7168AD
:106E100088427DD100297BD07A6B31682A44914227
:106E2000F7D1FDF7D3FB01464023574A63A000F09A
:106E30000BFA72686EA0F96A00F006FA786B326895
:106E4000411973A000F000FAFDF7C0FB0146786B12
:106E5000009043234C4A75A000F0F6F9FFF77CFF41
:106E600060B1FDF7B3FB01464723474A7FA000F01E
:106E7000EBF97AE088A000F0E7F976E08D4F8E4DCF
:106E80004FF00008CDF82880CDF81480CDF8188098
:106E9000CDF81C803089ADF828003068CDE9085065
:106EA00000F088FC384600F047FC342000F036FC47
:106EB00000F03AFC0A2208A93846FCF749FF0A22EA
:106EC00005A93846FCF731FF1420FCF72AFE0A22F8
:106ED00008A93846FCF729FFBDF828003189884207
:106EE00023D10999326891421FD10899A9421CD136
:106EF000BDF81C10884218D106990998884214D10F
:106F000005990898884210D1FDF760FB014600E022
:106F10002DE061231C4A69A000F096F93020FEF7AD
:106F2000E1FD02200CB0BDE8F081FDF74FFB01460A
:106F3000DDE90832BDF828008DE80D006823124A0B
:106F400068A000F081F9FDF741FB01463268308905
:106F5000CDE9000269230C4A724800F075F9032C50
:106F600003D0641C032C8DD306E00120DAE7401C1B
:106F7000F862786B284478630020D3E75407002038
:106F80000008010820010020528700085B583130BA
:106F90004B422025735D2025733A282564292074EF
:106FA0006F74616C2025642C6765742025642C2027
:106FB0005B256425255D2E0A000000005B583130FA
:106FC0004B422025735D2025733A2825642920D75C
:106FD000EEBAF3D2BBB8F6B0FCD2D1BEADD0B4CDD0
:106FE000EA2C20BFAACABCD0A3D1E92E0A00000017
:106FF00043757272656E745061636B616765203DA5
:10700000205B25645D2C205B25645D0A0000000088
:107010005265636569766553697A65203D205B2515
:10702000645D2C205B25645D0A0000005B583130F4
:107030004B422025735D2025733A2825642920477B
:107040006C6F62616C496E666F2E55706772616419
:107050006546772E416464724F6666736574203DA1
:10706000205B2523785D2E0A000000005B5831303C
:107070004B422025735D2025733A2825642920750D
:1070800070677261646520636865636B73756D20FA
:107090006572726F722E0A00313131313131313106
:1070A0003131313131313131312C206572726F72B1
:1070B0002100000000FC0108DEBC55AA5B583130FD
:1070C0004B422025735D2025733A282564292075BD
:1070D00070677261646520737563636573732E0AEC
:1070E000000000005B5831304B422025735D2025A5
:1070F000733A28256429207570677261646520657C
:1071000072726F722C205B2523785D2C205B252307
:10711000785D2C205B2523785D2C206572726F7260
:107120002E0A0000588A000801214FF4E132084677
:10713000FFF7BEBC2DE9F0471746884605460024F8
:107140000E4E40F2077910E0FCF7EDFD18F8041040
:1071500056F8250001F096FA56F82500494601F048
:10716000B2FA0028F8D0641CA4B2BC42ECD31420BC
:10717000FCF7D7FC0020BDE8F0870000700000207D
:107180002DE9F041124F05464FF4005600243146D8
:10719000384600F0ACFB0820FCF7D0FCE80731468D
:1071A000384602D000F0A5FB01E000F0A0FB08206B
:1071B000FCF7C4FC641C6D08E4B2082CEED3314625
:1071C000384600F096FBBDE8F0410820FCF7B6BC5D
:1071D0000008004810B54FF41064204600F08CFE03
:1071E000204600F097FE0128FAD104214FF47F6079
:1071F00000F01AFB00F040FBBDE8104000F044BB7B
:1072000010B5A0B0044680216846FAF7D6FF68465C
:107210008DF80840032302220121FBF7DBFB20B09D
:10722000002010BD70B50D460646002404E0295D1F
:10723000092000F004F8641CB442F8D370BD10B506
:10724000FEF703FD002010BD0FB4054B10B503A9D8
:10725000044A029800F02CF810BC5DF814FB000002
:10726000097800081C0100200FB4084B10B504A9D0
:1072700002AA039800F01CF8044602A9002000F0BE
:1072800048FA204610BC5DF814FB00001377000894
:1072900002E008C8121F08C1002AFAD170477047DF
:1072A000002001E001C1121F002AFBD1704700003D
:1072B0002DE9FF4F8DB00F460546002606E0252834
:1072C0000BD0DDE90F1290476D1C761C2878002842
:1072D000F5D111B03046BDE8F08F0024A246A1469A
:1072E0000122EC4900E0044315F8013F203B02FA7B
:1072F00003F00842F7D128782A2810D06FF02F0227
:107300002878A0F13001092914D80AEB8A0102EB90
:10731000410144F0020400EB010A6D1CF0E701CFCB
:107320005FEA000A03D544F40054CAF1000A44F0AD
:1073300002046D1C28782E2817D115F8010F44F08F
:1073400004042A280ED06FF02F022878A0F1300113
:1073500009290AD809EB890102EB410100EB010977
:107360006D1CF2E757F8049B6D1C28786C280FD031
:1073700006DC4C2817D068280DD06A2814D104E008
:10738000742810D07A280FD10DE044F400140AE0DC
:1073900044F4801401E044F440146978814202D13D
:1073A00004F580146D1C6D1C2A786E2A1FD00CDC2D
:1073B000632A31D004DC002A8BD0582A11D1A3E0F3
:1073C000642A68D0692A0CD165E0732A2ED004DCC7
:1073D0006F2A73D0702A04D19BE0752A6FD0782A67
:1073E0006ED01046DDE90F129047761C50E1C4F3D1
:1073F0000250022806D0032809D0042801CF09D062
:10740000066045E101CFF117C0E9006140E101CF1D
:1074100006803DE106703BE117F8040B8DF8000093
:1074200000208DF80100EB46012003E057F804BB73
:107430004FF0FF3061074FF0000102D40DE008F17A
:107440000101884649450FDA8045F8DB1BF8081032
:107450000029F4D108E008F1010188468142FADBF5
:107460001BF808100029F6D1DDE90F23AAEB08006C
:107470008146214600F036F9304400EB080604E06E
:10748000DDE90F121BF8010B9047B8F10108F7D2A4
:1074900021464846F7E00A21C4F302534FF0000B9F
:1074A0000891022B04D001CFC117032B09D00AE0A9
:1074B000FF1D27F00707F7E8020108E032E01FE0B0
:1074C00020E000B2C117042B01D140B2C117031E46
:1074D00071F1000307DA4FF0000CD0EB0C006CEBFD
:1074E00001012D2302E0230504D52B238DF8243040
:1074F000012303E0E30701D02023F7E7984658E093
:107500000A2110E010210EE010204FF0000B08902F
:107510000CE010214FF0000B44F004044FF0080978
:10752000089103E008214FF0000B0891C4F30253C7
:10753000022B04D001CF0021032B06D006E0FF1D53
:1075400027F00707F7E8020103E080B2042B00D11F
:10755000C0B24FF0000823072BD5702A07D0DDF802
:1075600020C08CF0100C5CEA0B0C05D00EE0402320
:107570008DF82430012308E050EA010306D03023BF
:107580008DF824308DF8252002239846DDF820C0A0
:107590008CF0080C5CEA0B0C0BD150EA010301D112
:1075A000630706D530238DF824304FF00108A9F188
:1075B0000109582A04D038A20B9208AA0A920BE0BB
:1075C0003AA2F9E75B46089AFAF764FF0B9B9B5CCB
:1075D0000A9A521E0A92137050EA0102F2D10A98D6
:1075E000ADEB000000F1200B600702D524F48034DD
:1075F00001E04FF00109D94502DDA9EB0B0000E0E5
:10760000002000EB0B0141440890AAEB010AE003C3
:1076100006D4DDE90F232146504600F063F8064406
:107620004FF0000908E009A911F80900DDE90F127F
:10763000904709F10109761CC145F4DBE0030CD544
:10764000DDE90F232146504600F04CF8064404E0E3
:10765000DDE90F1230209047761C0899481E0890EB
:107660000029F5DC08E00A980A990078491C0A917B
:10767000DDE90F129047761CBBF10001ABF1010B65
:10768000F1DC21465046DDE90F2300F019F80644ED
:107690006D1C1BE609280100303132333435363792
:1076A000383961626364656600000000303132334E
:1076B00034353637383941424344454600000000EE
:1076C0002DE9F041044600251E461746880404D4DF
:1076D00005E039462020B0476D1C641EF9D52846C8
:1076E000BDE8F0812DE9F041044600251E46904694
:1076F000C80301D5302700E02027880404D505E021
:1077000041463846B0476D1C641EF9D52846BDE891
:10771000F0810A68531C0B60107070470149C86003
:1077200070470000002002400248016941F08001DA
:10773000016170470020024070B505464FF4702685
:10774000304600F017F8002810D1094C206940F0AD
:10775000020020616561206940F0400020613046F0
:1077600000F008F8216921F00201216170BD0000DC
:107770000020024000B5034600F008F85B1E012817
:1077800002D1002BF8D1042000BD000008490020E0
:10779000CA68D20701D001207047CA68D20601D555
:1077A00003207047C9684907FBD5022070470000D5
:1077B0000020024004480169090603D503494160DD
:1077C00003494160704700000020024023016745E3
:1077D000AB89EFCDF0B506464FF470270D4638461D
:1077E000FFF7C8FF00280CD1064C206940F00100CB
:1077F000206135603846FFF7BDFF216921F00101A6
:107800002161F0BD0020024010B50446FCF78BFA60
:107810000449A52081F83900E0B2FFF7B1FC204609
:1078200010BD00005407002030B5124D104B45F23A
:1078300055541A462C60EC68521E04F0010402D024
:10784000002CF8D100E04CB96960E9685B1E01F0DA
:10785000020102D00029F8D102E009B1002030BDB8
:10786000C0F30B00A8604AF6AA202860012030BDB2
:10787000FFFF0F000030004002494AF6AA200860CE
:10788000704700000030004002494CF6CC400860D0
:107890007047000000300040F0B5046A456A0023DC
:1078A0004FF0010C4FF00F0E0CFA03F6164206D003
:1078B0009E000EFA06F7BC4301FA06F73C435B1C38
:1078C0009BB2082BF0D308230CFA03F6164207D01C
:1078D0009E00203E0EFA06F7BD4301FA06F73D432F
:1078E0005B1C9BB2102BEFD304624562F0BD81623A
:1078F00070478161704700002DE9F0474FF09048D4
:10790000012300220221404600F02DF9012300222C
:107910001946404600F04BF9022300221946404622
:1079200000F021F9002202231146404600F03FF901
:10793000012203214046FFF7AFFF02220321404608
:10794000FFF7AAFF102300220221404600F00BF9A6
:10795000102300220121404600F029F920230022B3
:107960000221404600F0FFF8002220231146404645
:1079700000F01DF9402300220221404600F0F3F8F8
:10798000002240231146404600F011F980230022D6
:107990000221404600F0E7F80022802311464046CD
:1079A00000F005F9102203214046FFF775FF202261
:1079B00003214046FFF770FF402203214046FFF7B6
:1079C0006BFF802203214046FFF766FFDFF88891B6
:1079D000012300220221484600F0C5F801230022BD
:1079E0001946484600F0E3F80223002219464846AB
:1079F00000F0B9F8002202231146484600F0D7F8FB
:107A0000042300220221484600F0ADF8002204239E
:107A10001146484600F0CBF8012203214846FFF703
:107A20003BFF022203214846FFF736FF04220321D1
:107A30004846FFF731FF4FF48054234600220221CD
:107A4000404600F090F8234600220121404600F015
:107A5000AEF8A5102B4600220221404600F083F824
:107A600000222B461146404600F0A1F8661033462E
:107A700000220221404600F076F8002233461146EB
:107A8000404600F094F8E7103B46002202214046B1
:107A900000F069F800223B461146404600F087F8A6
:107AA0003A4603214046FFF7F7FE2A4603214046A7
:107AB000FFF7F2FE324603214046FFF7EDFE224675
:107AC00003214046FFF7E8FE3346002202214846E4
:107AD00000F049F8334600220121484600F067F8DB
