:020000040800F2
:1020000018110020652100086D2100086F210008CB
:1020100071210008732100087521000800000000EC
:102020000000000000000000000000007721000810
:1020300079210008000000007B21000835610008BC
:102040007F2100087F2100087F2100087F210008F0
:102050007F2100087F2100087F2100087F210008E0
:102060007F2100087F2100087F2100087F210008D0
:102070007F210008A96300087F2100080D64000883
:102080007F2100087F210008000000007F21000858
:102090007F2100087F2100087F2100087F210008A0
:1020A0007F2100087F2100087F210008F5690008D2
:1020B000316A0008000000007F21000800000000D5
:1020C0007F210008000000007F2100087F21000818
:1020D0007F21000800000000000000000000000058
:1020E00000000000000000007F2100080000000048
:1020F00000000000000000000000000000000000E0
:102100007F21000800000000000000007F2100087F
:1021100000000000000000000000000000000000BF
:1021200000000000000000000000000000000000AF
:10213000000000000000000000000000000000009F
:102140000000000000000000000000007F210008E7
:10215000DFF80CD000F05EFA004800474D7A000826
:10216000181100200648804706480047FEE7FEE7B2
:10217000FEE7FEE7FEE7FEE7FEE7FEE7FEE7FEE737
:10218000396100085121000840EA01039B0703D090
:1021900009E008C9121F08C0042AFAD203E011F8A6
:1021A000013B00F8013B521EF9D27047D2B201E068
:1021B00000F8012B491EFBD270470022F6E710B54C
:1021C00013460A4604461946FFF7F0FF204610BDA5
:1021D00030B505462A460B4612F8010B13F8014BA1
:1021E00008B1A042F8D01CB1002802D06D1CF1E764
:1021F000284630BD421C10F8011B0029FBD1801A73
:10220000704730B504460020034600E05B1C934253
:1022100003D2E05CCD5C401BF8D030BD034611F822
:10222000012B00F8012B002AF9D118467047000055
:102230000FB400B58DB010A909900B9000914FF02C
:10224000FF300A9000200C90054806900548079042
:102250006A4609A80F9900F0AFF90DB05DF814FBBC
:10226000D5250008F32500082DE9FF5F1D464FF036
:10227000FF3BD5E9014691465F464FF00008A9694A
:102280007F1C01988847296A824688470028F6D132
:10229000BAF1FF3F0CD024F4C064002E19DD6006B3
:1022A00014D5BAF12B0F09D0BAF12D0F0ED103E0DE
:1022B000584604B0BDE8F09F44F48064A9697F1CCF
:1022C00001988847761E8246002E02DDBAF1300F53
:1022D00003D0B9F1000F26D032E0A969761E44F48C
:1022E00000747F1C019888478246002E05DDBAF1F4
:1022F000780F06D0BAF1580F03D0B9F1000F10D003
:102300001EE0B9F1000F02D0B9F1100F18D1A96980
:10231000761E24F400747F1C0198884782461020A2
:1023200002E0082000E00A20814609E008FB0908D5
:10233000A969761E44F400747F1C01988847824680
:10234000002E05DD4946504600F022F90028EDDA5E
:10235000E96901988847A00502D46FF00100A8E759
:10236000E00725D1600613D5600502D5C8F100004D
:1023700000E0404629680A1D2A600968220501D547
:10238000087015E0220701D5088011E008600FE011
:102390002868011D29600068210502D580F80080A9
:1023A00006E0210702D5A0F8008001E0C0F8008017
:1023B00038467EE72DE9FF5FD2E901A74FF000081C
:1023C000916999461446DDF838B046460198884729
:1023D000054659EA0B0005D009E0A169761C019871
:1023E00088470546216A284688470028F5D1681C99
:1023F00003D05FEACA7005D015E04FF0FF3004B09B
:10240000BDE8F09F2068011D2160D0F800800AE03F
:102410005FEACA7001D108F8015BA169761C7F1ED2
:10242000019888470546002F1ADD681C18D0B9F1BD
:10243000000F0DD0E81705EBD060421120F01F000F
:1024400059F822102A1A012090400142E0D107E0F9
:10245000BBF1000FDCD1216A284688470028D7D07D
:10246000E16901988847BBF1000F07D1002E05DD17
:102470005FEACA7002D1002188F80010A068B84253
:1024800003DDBBF1000F03D017B16FF00100B6E719
:102490003046B4E72DE9F05F0546002092469B46A2
:1024A00088460646814640241BE02846414647466A
:1024B000224600F0D0F853465A46C01A914110D334
:1024C00011461846224600F0B7F82D1A67EB0108AE
:1024D0004F4622460120002100F0AEF817EB00091C
:1024E0004E41201EA4F10104DFDC484631462A4655
:1024F0004346BDE8F09F0000014900F003B800002A
:10250000EC0C002010B500683C22B0FBF2F302FB9B
:102510001303B0FBF2F00B60B0FBF2F302FB13030A
:10252000B0FBF2F018224B60B0FBF2F302FB130396
:10253000B0FBF2F0021D8B600723B2FBF3F403FB48
:102540001422800040F2B55300F66C308A61B0FB73
:10255000F3F2B0FBF3F403FB1400443280084A6149
:10256000C8613B2802D3920700D0401C0022074CD0
:1025700013460A61E25C824203D8801A5B1C0B613D
:10258000F8E7401CC860084610BD0000A587000899
:102590003A2800D2303820F02002412A01D3A2F19B
:1025A0003700884201D34FF0FF3070470268114472
:1025B0001378016018467047D1600449516104499D
:1025C000116200211161114600F05AB8AD250008D2
:1025D00077260008426842B1016811F8013B23B137
:1025E000521EC0E90012184670470121C160881EC2
:1025F000704742685AB1C368016843B983688B4227
:1026000005D0491E521CC0E90012002070474FF04F
:10261000FF307047064C074D06E0E06840F00103CC
:1026200094E8070098471034AC42F6D3FFF794FDC6
:102630001889000838890008202A04DB203A00FAAB
:1026400002F1002070479140C2F1200320FA03F309
:10265000194390407047202A04DB203A21FA02F007
:102660000021704721FA02F3D040C2F120029140CC
:10267000084319467047C0B24FF4F05100F096B9C4
:102680002DE9F34F8BB04FF0000801F10C000C4620
:102690004FF0010B46460DF1080A019062690121D5
:1026A0000198904705002DD0252D2CD0216A884710
:1026B000C0B16269012101989047216A88470028CA
:1026C000F7D1411E62690198904700E0761CA1692C
:1026D0000B988847216A88470028F7D1E1690B9851
:1026E0008847DBE7A1690B9888470746A84201D1D4
:1026F000761CD3E7E1690B9888477F1C02D1B8F1BB
:10270000000F6FD046E1002762693D4639460198C7
:1027100090472A2804D16269012101989047012538
:10272000DFF884926269012101989047A0F130019D
:102730000A290AD24F45E5DC07EB870100EB410788
:10274000303FDFD445F01005ECE7E90601D46FF027
:1027500000476C280AD04C2814D0682815D06A2865
:102760000DD074281CD07A281AD01DE0626901218E
:10277000019890476C2802D045F0040514E045F01C
:1027800002050DE045F020050AE06269012101988B
:102790009047682802D045F0080505E045F400653B
:1027A0006269012101989047C4E9015765283DD02D
:1027B00019DC58287AD00CDC452837D004DC2528D1
:1027C00026D0412831D131E046282FD047282CD1BE
:1027D0002CE05B2877D0612828D063287CD064283F
:1027E00023D15AE0D0E06F2848D008DC66281DD0FD
:1027F00067281BD0692821D06E2816D127E07028C1
:1028000045D0732868D0752847D078280DD14DE081
:10281000A1690B988847054625283FF469AFE1690F
:102820000B9888476D1C3FF46AAFB3E023466A46B5
:102830006FF001000B99AFF300809EE045F040007F
:102840006060A80723464FF0000236D43EE0E80758
:102850007FF447AF2068011D21600068290501D57C
:1028600006701BE7290701D5068017E7A90703D5DE
:10287000F117C0E9006111E706600FE745F040007D
:102880006060A80723464FF0080216D41EE040F609
:102890000E0125EA0100606016E045F0400060602E
:1028A000A80723464FF00A0207D40FE045F0400086
:1028B0006060A80708D5234610226FF001000B992D
:1028C000AFF3008059E007E0234610226FF00100CB
:1028D0000B99FFF7C9FC50E04FF000094F464B46FB
:1028E000632802D05B2806D040E0E80601D401202E
:1028F000A06001273AE062690121019890475E28B3
:1029000005D14FF001096269494601989047216954
:1029100039B900210A46534643F82120491C0829A9
:10292000FADBB0B3216969B9C11700EBD162531169
:102930000AEB830122F01F02821A01200B689040EB
:1029400003430B6062690121019890475D28E8D13B
:10295000B9F1000F09D00020514651F82020D24390
:1029600041F82020401C0828F7DB02AB22460097E4
:102970006FF001000B99FFF71DFD00280CDA401CD9
:1029800008D1BBF1000F05D04FF0FF300DB0BDE80E
:10299000F08FFFE74046F9E7E90701D108F10108A8
:1029A00006444FF0000B79E6CCCCCC0C7F2801D943
:1029B000002208E0064A02EB5002C007127800D15C
:1029C000120902F00F0201209040084070470000F9
:1029D000B187000870B50446AA20207055206070A9
:1029E00010480D4610F8291F61710178491C0170CB
:1029F000681D608001202071281DA27181B2E371E1
:102A0000201D01F05BFD014660190B3501720D219F
:102A100041720A218172AAB22146BDE870400120AC
:102A200004F0A0BA440700200021A0F13002092AD6
:102A300001D8D1B20BE0A0F14102052A01D8373804
:102A400004E0A0F16102052A01D85738C1B2084656
:102A50007047000070B586B016460C460546142235
:102A600010A16846FFF790FB002318460CB1002E1A
:102A700002DC002006B070BD69460CE0E25C01EBB0
:102A8000121212782A54E25C401C02F00F028A5C97
:102A90002A54401C5B1CB342F0DB00212954284619
:102AA000E8E70000303132333435363738394142C7
:102AB00043444546000000002DE9FF4F8DB000243F
:102AC0001F4692468B464FF0FF392646DDF8688058
:102AD00001F000FD41463846FFF76FFBA6E03220CB
:102AE00001F029F801F0F6FC05460FE001F0F2FCD8
:102AF00005469DF8300018B1A04501DD3855641C2D
:102B00000CA94E4801F046F80028EFD001F0E2FC95
:102B100005F10A01884203D801F0DCFCA842EFD29B
:102B200059463846FFF754FB00287DD044A10D9844
:102B3000FFF74EFB454C10B3182101A8FFF73DFBF2
:102B400001AA43A13846FFF773FB01A8FFF752FB28
:102B5000142805D3142201A9A01CFFF715FB03E0DC
:102B600001A9A01CFFF75AFB01F04AFC01463748B7
:102B70007C23801C0090394A39A004F07DFA41A1E1
:102B80000D98FFF725FB20B3142107A8FFF715FBCD
:102B900007AA3FA13846FFF74BFB07A8FFF72AFB20
:102BA0002A4D16350C2807D3079844F8160F0898B5
:102BB00060600998A06003E007A92846FFF72EFB94
:102BC00001F01EFC01468B23244A34A0009504F03A
:102BD00053FA3BA10D98FFF7FBFAB0B1142101A8FD
:102BE000FFF7EBFA01AA39A13846FFF721FB01A94B
:102BF000394803F04BFA01F003FC014601A80090AC
:102C00009523164A35A004F037FA3CA10D98FFF73A
:102C1000DFFA28B1304A3CA1121F3846FFF708FB03
:102C20004FF0000905E0FFE73236B6B25645FFF433
:102C300056AF11B04846BDE8F08F0000BC09002037
:102C400041542B564552533F000000001C07002002
:102C50002B564552533A2025730000002F8600085A
:102C60005B5831304B422025735D2025733A28256F
:102C7000642920626C7565207665723A25732E0A88
:102C80000000000041542B4E414D453F0000000024
:102C90002B4E414D453A2025730000005B583130E2
:102CA0004B422025735D2025733A28256429206234
:102CB0006C7565206E616D653A25732E0A00000003
:102CC00041542B475749443F000000002B475749C8
:102CD000443A202573000000300000205B5831305A
:102CE0004B422025735D2025733A282564292067EF
:102CF000776D61633A25732E0A00000041542B441E
:102D00004556543F000000002B444556543A2025B8
:102D1000640000002DE9F04140F2115005F080F808
:102D200040F2125005F07CF84FF4807401224FF00D
:102D3000904523461146284604F02DFE23460322E3
:102D40000021284604F04BFE184E0122234611466E
:102D5000304604F020FE234603220021304604F0D2
:102D60003EFEE7013B4601220021304604F013FEFF
:102D70003B4603220021304604F031FE6700012269
:102D80003B461146304604F006FE3B460322002136
:102D9000304604F024FE2146284604F0C2FC2146B9
:102DA0003046BDE8F04104F0BCBC0000000400481F
:102DB0002DE9F043DFF878900F4605464FF4007890
:102DC000A1B0164601244146484604F0A8FC00F094
:102DD000B4FF022000F0AFFE01F012FB0146AD236C
:102DE000144A15A0009504F047F92846FFF702FAA7
:102DF00082B22946002004F0B5F857B14EB18020C8
:102E0000009001AB324639462846FFF755FE40B1E7
:102E100008E04146484604F084FC002021B0BDE8AB
:102E2000F08300244146484604F07BFC2046F5E749
:102E3000000400483C8600085B5831304B42202596
:102E4000735D2025733A2825642920B7A2CBCDC312
:102E5000FCC1EE5B25735D2E0A0000002DE9F041F8
:102E60000546002440F6B8364FF47A770FE0324634
:102E700009A10AA0FFF79CFF00280BD0012D04DD5B
:102E800000F05BFF384600F056FE641CE4B2AC4232
:102E9000EDDB0020BDE8F0814F4B000041540D0AEE
:102EA0000000000070B5394D0026394C68780028C4
:102EB00034D194F86900002830D101F00BFB216F68
:102EC000401A4EF66021884228D301F003FB2067A8
:102ED0000120FFF7C3FFC8B101F092FA01464FF499
:102EE00024732C4A2CA004F0C7F801F0F3FAA0F5E3
:102EF00043405038206701206870A52084F8750091
:102F000094F87400401C84F8740007E084F875603D
:102F10006E7084F8746029A004F0AEF82B484078F5
:102F2000C0B994F874000F2814D36878012811D11F
:102F300000F062FB70B901F063FA014640F2A6238B
:102F4000144A23A004F098F801F0C4FAA0F5564002
:102F5000D838206794F86900012816D101F0BAFA30
:102F6000E16E401A234988420FD901F0B3FAE066B6
:102F700084F8696001F044FABDE8704001464FF4FE
:102F80002C73044A1CA004F077B870BD44000020E4
:102F9000440700200C8700085B5831304B42202545
:102FA000735D2025733A2825642920BCECB2E2C069
:102FB000B6D1C0B4EDCEF32E0A000000C0B6D1C029
:102FC000BCECB2E2B3C9B9A62E0A00001C0700206F
:102FD0005B5831304B422025735D2025733A2825FC
:102FE000642920B8B4CEBBC0B6D1C0204F4B2E0A46
:102FF00000000000C0D401005B5831304B42202556
:10300000735D2025733A2825642920B4F2BFAABC39
:10301000ECB2E2C0B6D1C0B1EAD6BE2E0A000000C2
:1030200001214FF4E132002003F05ABC10B5FFF744
:1030300071FEBDE81040FFF7F3BF000010B501F0CE
:10304000AFFD03F0DFFF00F078FE01224FF47A7449
:103050002146104603F0EEF903F084F902F04CFF2C
:10306000204600F068FD03F077FF02F0CDFC20461B
:1030700000F061FD01F0E4FD03F0A8F808A003F002
:10308000FBFF03F039FAFFF7D1FF00F0C7FD08A0FE
:1030900003F0F2FFBDE8104009A003F0EDBF00000F
:1030A0005573617274496E6974204F4B210D0A008B
:1030B0000D0A20427370496E6974206F6B0A00001C
:1030C0000A3D3D3D3D3D3D3D3D3D3D3D3D3D3D3D63
:1030D0003D3D3D3D3D3D3D3D3D3D3D3D3D3D3D3D20
:1030E0003D3D3D3D3D3D3D3D3D3D3D3D3D3D3D3D10
:1030F0003D3D3D3D3D3D3D3D3D3D3D3D0A0A0A00D6
:1031000070B5002400F00AFB1C49012040F6B835D8
:1031100048701B494FF47A7648702A4619A11AA0C4
:10312000FFF746FE00281BD001F06AF90146E823AC
:10313000174A18A003F0A0FF00F0FFFD304600F092
:10314000FAFC641CE4B2022CE7D301F059F9014601
:10315000EC230F4A1AA003F08FFF4FF0FF3070BD31
:1031600001F04EF90146E423094A1FA003F084FF51
:1031700026490878401C0870002070BD1C070020FC
:10318000440000204F4B000041540D0A0000000095
:10319000578600085B5831304B422025735D20254F
:1031A000733A2825642920626C7565207265736501
:1031B00074206661696C2C72657472792E0A000045
:1031C0005B5831304B422025735D2025733A28250A
:1031D000642920626C756520726573657420666170
:1031E000696C2E0A000000005B5831304B422025EC
:1031F000735D2025733A2825642920626C7565204B
:1032000074657374206F6B2E0A000000200000208C
:103210002DE9F041002440F6B8354FF49C764FF488
:10322000FA672A4617A118A0FFF7C2FDD8B101F02E
:10323000E7F801463346174A17A003F01DFF38464A
:1032400000F079FC641CE4B2022CEAD301F0D8F857
:10325000014640F23B130F4A19A003F00DFF4FF057
:10326000FF30BDE8F08101F0CBF801464FF49A73CE
:10327000084A1CA003F000FF23490878401C08708E
:103280000020EEE74F4B000041542B4E414D453F8F
:103290000D0A0000948600085B5831304B4220250F
:1032A000735D2025733A2825642920BBF1C8A1C38A
:1032B000FBD7D6CAA7B0DC2C72657472792E0A00CF
:1032C0005B5831304B422025735D2025733A282509
:1032D000642920BBF1C8A1C3FBD7D6CAA7B0DC2E96
:1032E0000A0000005B5831304B422025735D2025D9
:1032F000733A2825642920BBF1C8A1C3FBD7D62087
:103300006F6B2E0A00000000200000202DE9F04124
:10331000002440F6B8354FF489764FF4FA672A4610
:1033200017A118A0FFF744FDD8B101F069F80146D4
:103330003346174A17A003F09FFE384600F0FBFB08
:10334000641CE4B2022CEAD301F05AF8014640F2C0
:1033500015130F4A19A003F08FFE4FF0FF30BDE8A0
:10336000F08101F04DF801464FF48773084A1BA025
:1033700003F082FE21490878401C08700020EEE727
:103380004F4B000041542B4543484F3D310D0A003F
:103390006D8600085B5831304B422025735D202537
:1033A000733A2825642920C0B6D1C0BBD8CFD4CA6F
:1033B000A7B0DC2C72657472792E0A005B5831302C
:1033C0004B422025735D2025733A2825642920BBB4
:1033D000D8CFD4CAA7B0DC2E0A0000005B58313029
:1033E0004B422025735D2025733A2825642920BB94
:1033F000D8CFD4206F6B2E0A0000000020000020E0
:103400002DE9F041002440F6B8354FF4A6764FF48C
:10341000FA672A4617A118A0FFF7CAFCD8B100F036
:10342000EFFF01463346174A17A003F025FE384642
:1034300000F081FB641CE4B2022CEAD300F0E0FF50
:10344000014640F24F130F4A19A003F015FE4FF04A
:10345000FF30BDE8F08100F0D3FF01464FF4A473C4
:10346000084A1CA003F008FE23490878401C087095
:103470000020EEE74F4B000041542B504149523D94
:10348000310D0A00A78600085B5831304B422025D9
:10349000735D2025733A2825642920C0B6D1C0C6A3
:1034A000A5C5E4CAA7B0DC2C72657472792E0A0037
:1034B0005B5831304B422025735D2025733A282517
:1034C000642920C0B6D1C0C6A5C5E4CAA7B0DC2E09
:1034D0000A0000005B5831304B422025735D2025E7
:1034E000733A2825642920C0B6D1C0C6A5C5E4B367
:1034F000C9B9A62E0A000000200000202DE9F041E5
:10350000002440F6B83540F225164FF4FA672A46F3
:1035100017A118A0FFF74CFCD8B100F071FF0146CD
:103520003346174A17A003F0A7FD384600F003FB07
:10353000641CE4B2022CEAD300F062FF01464FF4AF
:1035400094730F4A19A003F097FD4FF0FF30BDE8C8
:10355000F08100F055FF014640F22113084A1CA0FB
:1035600003F08AFD23490878401C08700020EEE72C
:103570004F4B000041542B564552533F0D0A00005B
:10358000818600085B5831304B422025735D202531
:10359000733A2825642920BBF1C8A1B0E6B1BECAA0
:1035A000A7B0DC2C72657472792E0A005B5831303A
:1035B0004B422025735D2025733A2825642920BBC2
:1035C000F1C8A1B0E6B1BECAA7B0DC2E0A00000067
:1035D0005B5831304B422025735D2025733A2825F6
:1035E000642920BBF1C8A1B0E6B1BE206F6B2E0AE2
:1035F00000000000200000202DE9F04100252C46AD
:1036000000F068FF2E4AA5216F1E82F875104EF655
:10361000602146184DE000F063FF214629A003F029
:103620002BFD052D39D2DFE805F0030E13181E001F
:10363000FFF766FD28B1200000F10104E4B23CD19F
:1036400034E001250DE0FFF761FE78B9022508E0BE
:10365000FFF754FF50B9032503E0FFF7D9FD28B960
:103660000425002422E0FFF7CBFE28B12046641C8D
:10367000E4B20A2821D819E01549002048701549FC
:10368000487000F0BDFE014640F24323124A13A0E9
:1036900003F0F2FC0020BDE8F08100F0B1FE01462D
:1036A00040F24F230C4A16A003F0E6FC642000F021
:1036B00042FA00F00FFFB042ADD93846EBE7000008
:1036C000440700207265747279203D2025640A0049
:1036D0001C07002044000020FE8600085B583130A3
:1036E0004B422025735D2025733A2825642920C08C
:1036F000B6D1C0B3F5CABCBBAFB3C9B9A62E0A00D8
:103700005B5831304B422025735D2025733A2825C4
:10371000642920B4EDCEF32E0A00000070B54FF4FA
:1037200080744FF090452146284603F0F8FF00F0E2
:1037300004FB4FF4FA6000F0FEF92146284603F03E
:10374000F0FF00F0FAFABDE870404FF47A7000F034
:10375000F2B900007CB50A390478421C8DB2402DC4
:103760000BD900F04DFECDE9005401469523104AD7
:1037700010A003F081FC01207CBD1948C16A012919
:103780000ED0016BA1420BD100F03AFECDE90054FE
:1037900001469C23064A134803F06EFC00207CBDC2
:1037A000046329461046BDE87C4003F021BA0000BE
:1037B000908500085B5831304B422025735D2025F1
:1037C000733A28256429206C656E205B25645D2C86
:1037D000205B25645D2C6572726F72210A00000007
:1037E00044070020F487000870B5A0B00E460546D7
:1037F00080216846FEF7E1FC6C468DF808501022E7
:1038000031460DF10900FEF7BFFC02231A461121D3
:103810002046FFF7DFF820B0002070BD30B5A1B022
:103820000D46044680216846FEF7C7FC8DF8084027
:103830002968CDF809106846012302220521FFF707
:10384000C9F821B0002030BDFEB5214D002495F807
:10385000680001281BD102AA694601A802F03EFFB8
:10386000002814D16B461B4A022101F095FD20B9B6
:10387000012469462046FFF7D1FF02F049FF164FA9
:1038800000262CB100F026FE386085F86860FEBD89
:1038900002AA694601A802F021FF0028F7D16B4671
:1038A0000C4A0C2101F078FD70B10CA003F0E4FB90
:1038B00069460220FFF7B2FF00F00CFE386085F881
:1038C000686002F025FFFEBD69460120F2E70000B6
:1038D000440700201400002000000020B7C7C3DC0C
:1038E000D4BFBFA80A00000070B50D46044602F020
:1038F00089F820EA05012046BDE8704003F0B7BB17
:1039000010B580210A2002F0ABFA0A2002F07AF802
:10391000002800D0012010BD2DE9FC476B4C00F0C1
:10392000D9FD07464FF008080025694EC0E000F0B9
:1039300004FADFF8A091B4E000F0FFF900F0CAFD4E
:1039400007463078092837D2DFE800F0050D183D2A
:103950004D5B6A7F91009DF80400AA28EBD120708E
:10396000012070805AE09DF80400552824D1708809
:1039700055212154401C708002204FE0708802289D
:1039800002D0032804D01AE09DF80410B18016E09C
:10399000B1889DF8042041EA0221B18075700529A3
:1039A0000BD200F02DFD0146B088009040F29D330F
:1039B000494A4AA003F060FB72E0032131709DF890
:1039C000041021543EE09DF80410012968D170785C
:1039D000401C707070882154B188491EB180401C11
:1039E000708004201AE070789DF80410084470700C
:1039F00070882154B188491EB180401C7080052018
:103A00000CE070789DF804100844707070882154A0
:103A1000B188491EB180401C70800620307040E0A3
:103A200070789DF804100844707070882154B18833
:103A3000491E0904090CB18002D00721317001E050
:103A400086F80080401C70802BE070789DF8041090
:103A50000844707070882154401C7080B088401EEB
:103A600080B2B08001281CD186F8008019E07088EF
:103A70009DF804102154401C81B271809DF804000F
:103A80007278904203D1204601F00CFC08E000F06F
:103A9000B7FC014640F2F2330F4A1AA003F0ECFAE9
:103AA000357001A9484600F075F800283FF444AF8E
:103AB00000F010FD07F10A01884204D800F00AFD69
:103AC000B842BFF434AFBDE8FC8700001B01002002
:103AD0001A000020C80900200D8600085B5831300C
:103AE0004B422025735D2025733A28256429206CDC
:103AF000656E6774683D25642C6572726F722E0A5C
:103B0000000000005B5831304B422025735D2025BA
:103B1000733A2825642920BDD3CAD578313070B5D1
:103B2000C4CAFDBEDDD0A3D1E9B4EDCEF32E0A00A8
:103B3000642000F00DB870B5054600244FF47A7685
:103B400003E0304600F004F8641CAC42F9D370BDC9
:103B500070B54FF0E02500216C69094AAB69127815
:103B60005043AA699A42FCD002D2A3EB020302E0BE
:103B7000A4EB02063344194413468142F1D370BDCD
:103B8000980000200028FDD00021C18001814181E2
:103B900008467047428903899A4213D00289036814
:103BA0001344521C02811A780A708188028991425A
:103BB00001D800210181C18811B1C188491EC1808D
:103BC000002070474FF0FF30704700234360836050
:103BD0000160828018467047428903899A4242896F
:103BE00001D283881A440389D21A8388521C9342D3
:103BF00010D9428903681344521C42811970C1884C
:103C0000491CC18081884289914201D800214181AB
:103C1000002070474FF0FF30704700002DE9F04161
:103C20000024144D012640F20E2700F086F800F023
:103C30006FF880B100F081F8641CE4B2AE7000F05F
:103C4000DFFB01463B460C4A0CA003F015FA322C70
:103C5000EBD3BDE8F08100F070F80020A87000F010
:103C6000CFFBBDE8F041014640F20523024A0EA019
:103C700003F002BA44000020658700085B58313029
:103C80004B422025735D2025733A28256429204660
:103C90004D31373558585F496E6974206572726FBF
:103CA000722E0D0A000000005B5831304B42202577
:103CB000735D2025733A2825642920464D31373518
:103CC00058585F496E6974204F4B2E0D0A00000052
:103CD00010B50E4C4021204603F021FD0A20FFF7CD
:103CE0002AFF00F02AF84021204603F01AFD0A209E
:103CF000FFF721FF00F021F8012001F083FE2028CA
:103D000001D0012010BD002010BD000000140048AB
:103D100010B500F012F802F021F9FFF7D9FF10B149
:103D20004FF0FF3010BD00F008F8002001F043FD17
:103D3000032002F0A1F8002010BD03F0B5BC10B5BF
:103D4000002303E010F8014BCC545B1C9342F9D3E1
:103D5000002010BD0A4601460148FFF7F0BF0000F1
:103D600000F001082DE9F05F154689468346FFF70C
:103D7000E4FF03F037FCABF10060C0F30906C6F5C1
:103D800080644FEA9028A54200D82C46FFF7D5FF63
:103D90004FF0006000EB882082464FF48062244997
:103DA000FFF7CDFF00270EE02148F119405CFF2806
:103DB00008D000F025FB01467D231E4A1EA003F01B
:103DC0005BF902E07F1CA742EED3A74214D2504613
:103DD00003F0CAFB342003F0B9FB0020144A04E0CE
:103DE00019F800108319401CD154A042F8D3504652
:103DF0004FF480720E4906E0A0074FEA940200D00B
:103E0000521C4946584600F059F8A5420BD0281BD1
:103E1000A144A344002685B24FF4806408F1010850
:103E2000A542B3D8B1E703F097FB0020BDE8F09FAF
:103E30001B030020398700085B5831304B42202596
:103E4000735D2025733A2825642920D0E8D2AAB2D0
:103E5000C1B3FD2E0A0000002DE9FC410024124DE3
:103E60000E46074600940194324639462846FFF72D
:103E700079FF082269462846FFF761FF3246394636
:103E80006846FEF7BEF918B1641C052CECD301E0BE
:103E9000052C06D305A003F0EFF84FF0FF30BDE886
:103EA000FC810020FBE7000000F00108D0B4666C44
:103EB000617368B4EDCEF321200D0A002DE9F843BB
:103EC00090468946064603F08DFB00254FF47A772D
:103ED0001AE00024342003F039FB59F8251030464D
:103EE00003F090FBB8B10120FFF725FE2046641CCB
:103EF000B842F8D900F084FA01464123074A08A0E5
:103F0000009603F0B9F86D1C4545E2D303F024FB9D
:103F10000020BDE8F883361DF5E700002A87000879
:103F20005B5831304B422025735D2025733A28259C
:103F3000642920D0B4666C617368B3ACCAB12C201C
:103F40005B307825785D2C20B4EDCEF32121212043
:103F50000A00000010B5022004F06AFA012004F003
:103F6000E7F90C4C012802D104F0ECF96080094813
:103F7000618808304088401A202806DD05480B215A
:103F80000838017004A003F077F8BDE81040022063
:103F900004F06CB9B80000205B4B65793A202564C9
:103FA0005D0A000070B5202004F042FA012004F000
:103FB000BFF9244D012802D104F0CAF96880214ECE
:103FC00069880836A6F120047088401A202804DD8C
:103FD000002121701CA003F04FF8202004F046F9C6
:103FE000402004F025FA012004F0A2F9012802D1B2
:103FF00004F0AEF9A880B088A988401A202804DD12
:104000000A21217013A003F037F8402004F02EF9A4
:10401000802004F00DFA012004F08AF9012802D171
:1040200004F096F9E880F088E988401A202804DD39
:104030000921217004A003F01FF8BDE87040802022
:1040400004F014B9C80000205B4B65793A20256460
:104050005D0A00005BB7B5BBD84B65793A20256493
:104060005D0A00002DE9F0414FF48067384604F006
:10407000DFF9012004F05CF9194C012802D104F0A9
:104080006DF9A080164EA1880836A6F13005B088DB
:10409000401A202804DD0821297012A002F0ECFF4C
:1040A000384604F0E3F84FF40067384604F0C0F9EE
:1040B000012004F03DF9012802D104F04FF9E0801D
:1040C000F088E188401A202804DD0721297005A026
:1040D00002F0D2FF3846BDE8F04104F0C7B8000056
:1040E000D80000205B4B65793A2025645D0A00000A
:1040F0002DE9F0414FF40057384604F099F90120BA
:1041000004F016F9264C012802D104F02DF9608044
:10411000234E61880836A6F140057088401A202891
:1041200004DD022129701FA002F0A6FF384604F02A
:104130009DF84FF48047384604F07AF9012004F0E6
:10414000F7F8012802D104F00FF9A080B088A18807
:10415000401A202804DD0121297012A002F08CFFF2
:10416000384604F083F84FF48057384604F060F97D
:10417000012004F0DDF8012802D104F0F5F82080D8
:1041800030882188401A202804DD0321297005A0E9
:1041900002F072FF3846BDE8F04104F067B8000055
:1041A000E80000205B4B65793A2025645D0A000039
:1041B0002DE9F0414FF40017384604F039F9012099
:1041C00004F0B6F8264C012802D104F0D3F8608040
:1041D000234E61880836A6F150057088401A2028C1
:1041E00004DD062129701FA002F046FF384604F0C6
:1041F0003DF84FF48007384604F01AF9012004F026
:1042000097F8012802D104F0B5F8A080B088A18801
:10421000401A202804DD0521297012A002F02CFF8D
:10422000384604F023F84FF40007384604F000F94C
:10423000012004F07DF8012802D104F09BF8E08011
:10424000F088E188401A202804DD0421297005A0A7
:1042500002F012FF3846BDE8F04104F007B8000054
:10426000F80000205B4B65793A2025645D0A000068
:104270001FB501462D484078002813D1C87901F1B7
:10428000080401280FD0022820D003280AD00428CF
:1042900034D000F0B5F801464FF4D073244A25A07D
:1042A00002F0EAFE1FBD00F0ABF801464FF4B37315
:1042B0001F4A2AA0009402F0DFFE204601F03EFDD6
:1042C00010B10122012128E00022FBE700F098F85C
:1042D000014640F27113164A2AA0009402F0CCFE67
:1042E0000522214601A8FEF7B5FB01A801F052FD09
:1042F00010B10122022110E00022FBE748880328C8
:1043000011D3B4F801202078E11C01F0D1FB40B1B9
:1043100026A002F0B1FE01220421032001F052FC8C
:104320001FBD0022F8E72BA0F3E7000044000020A7
:10433000B58500085B5831304B422025735D202540
:10434000733A28256429205B476574426C7565497A
:104350006E666F20B4EDCEF35D0A00005B5831301D
:104360004B422025735D2025733A2825642920CAF5
:10437000D5B5BDC0B6D1C0C3FBD7D65B25735D2E06
:104380000A0000005B5831304B422025735D202528
:10439000733A2825642920C9E8D6C3CDF8B9D8B521
:1043A000D8D6B75B25735D2E0A00000047657442BE
:1043B0006C7565496E666F20B8F878313070B5C499
:1043C000C0B6D1C0CFECD3A6B0FC2CCAA7B0DC0AD3
:1043D00000000000476574426C7565496E666F2089
:1043E000B8F878313070B5C4C0B6D1C0CFECD3A620
:1043F000B0FCB4EDCEF32C20B4EDCEF30A000000F7
:104400001FB50D4803F042FD0B48443890F84610A4
:1044100090F84A4090F8493090F848208DE81E0006
:1044200090F8453090F8442004A10B4802F034FE87
:1044300004B0094810BD0000880700202532782507
:104440003032782530327820253032783A253032B3
:10445000783A253032780000EC0A002010B5FFF7DA
:104460006CFC094CFF202070FFF774FDFFF79AFDEC
:10447000FFF7F8FDFFF73CFEFFF79AFE2078BDE856
:10448000104000F057BB0000B000002010B500F055
:1044900021F8094C616801F5AF71884204D200F03F
:1044A00019F86168884206D200F014F86060BDE82F
:1044B0001040FFF7D3BF10BDB0000020034610B579
:1044C0000020024603E09C5C521C2044C0B28A4299
:1044D000F9D310BD01488068704700003800002003
:1044E000064B4FF400411A78501C187004481AB15A
:1044F00000221A7003F015B903F011B9A0000020D2
:1045000000080048104810B590F875000F4CA52819
:1045100012D0FFF7DFFF616801F5FA71884204D21B
:10452000FFF7D8FF616888420CD2FFF7D3FF6060C5
:10453000BDE81040FFF7D4BFFFF7CCFF616801F67C
:10454000B831EBE710BD000044070020A0000020B8
:104550000A21B0FBF1F201FB1202B0FBF1F002EB19
:104560000010C0B2704700002DE9FE4F4FF0AB09BC
:104570004FF001084FF0040A4FF0060B6E4D002675
:104580006E4CCFE0607808287ED2DFE800F004109F
:1045900038526592A2BE9DF80800AB28F1D184F88C
:1045A000018085F800904846A4F8048019E09DF841
:1045B0000800CD280CD0AB2815D06670FFF720FF7F
:1045C00001464FF447735E4A5EA002F055FDA9E034
:1045D00002206070CD206870A088401CA080A07868
:1045E000CD30A0709EE085F80090A4F8048084F897
:1045F0000290FFF705FF014640F21733E3E7A0887A
:104600009DF808102954401CA080E68041B1032089
:104610006070A1789DF808000144A170E07081E00D
:10462000524F84F801A087F86980FFF753FFF866BE
:10463000EFE7A0889DF808102954401CA080A078BE
:104640000844A070E088401C80B2E080062869D150
:10465000E68084F801A065E0A0889DF80810295440
:10466000401C80B2A080A2781144A170E188491C4E
:1046700089B2E180022955D1284430F8020CE0804B
:104680002081FF280ED900E04BE06670FFF7B8FEEE
:104690000146E088009040F24533294A34A002F0F8
:1046A000EBFC3FE010B1052060703BE084F801B006
:1046B00038E0A0889DF808102954401CA080A078FC
:1046C0000844A070E088401E0004000CE08029D15E
:1046D000ECE7A0889DF808102954401CA080A07821
:1046E000814203D107206070E6801BE0FFF788FE5F
:1046F00001469DF80820A078CDE9000240F263331E
:104700000F4A244802F0B8FC0BE0E088401C80B25D
:10471000E080022806D1E07818B92189064801F026
:10472000CFFE667002A91C48FFF734FA00283FF458
:1047300029AFBDE8FE8F00001B02002020000020F2
:104740001C8700085B5831304B422025735D2025C3
:10475000733A282564292063616E206E6F74206689
:10476000696E642063642E0A000000004407002084
:104770005B5831304B422025735D2025733A282544
:104780006429206C656E3D25642C6572726F722EF3
:104790000A000000D4880008BC090020002909D1C3
:1047A000054A00284FF00201104601D002F0B9BFBF
:1047B00002F0B5BF70470000000400482DE9F04149
:1047C000144E00254FF48057022003F031FE0120E3
:1047D00003F0AEFD012803D103F0B4FD26F8150067
:1047E000022003F043FD3C46641EFDD16D1C142DD8
:1047F000EAD30949012036F810304A88401C1A448F
:104800004A801428F7D390B21322B0FBF2F048800C
:10481000BDE8F0810C0B0020C00000202DE9F04124
:104820002E4D00244FF4805805F1280605F150075D
:10483000202003F0FDFD012003F07AFD012803D1C3
:1048400003F086FD25F81400202003F00FFD402022
:1048500003F0EEFD012003F06BFD012803D103F00E
:1048600077FD26F81400402003F000FD802003F0BF
:10487000DFFD012003F05CFD012803D103F068FD9A
:1048800027F81400802003F0F1FC4046401EFDD1C3
:10489000641C142CCCD3124901204A8835F81030FE
:1048A0001A444A808A8836F810301A448A8037F8C9
:1048B0001030CA88401C1A44CA801428EDD34A8894
:1048C0001320B2FBF0F24A808A88B2FBF0F28A80B1
:1048D000CA88B2FBF0F0C880BDE8F081340B00203C
:1048E000D00000202DE9F047244D00244FF48068CB
:1048F0004FF400694FF4805A05F1280647464046B8
:1049000003F096FD012003F013FD012803D103F00D
:1049100025FD25F81400384603F0A8FC4F4648460C
:1049200003F086FD012003F003FD012803D103F00D
:1049300015FD26F81400384603F098FC5046401E3A
:10494000FDD1641C142CD9D30D4901208A8835F877
:1049500010301A448A8036F81030CA88401C1A4435
:10496000CA801428F2D38A881320B2FBF0F28A801E
:10497000CA88B2FBF0F0C880BDE8F087AC0B00201D
:10498000E00000202DE9F05F324D00244FF4005A82
:104990004FF4804B4FF4805905F1280605F150087B
:1049A0005746504603F044FD012003F0C1FC0128A6
:1049B00003D103F0D9FC25F81400384603F056FC67
:1049C0005F46584603F034FD012003F0B1FC012896
:1049D00003D103F0C9FC26F81400384603F046FC66
:1049E0004F46484603F024FD012003F0A1FC0128B6
:1049F00003D103F0B9FC28F81400384603F036FC64
:104A00007F1EFDD1641C142CCAD3134901204346D8
:104A10004A8835F8104022444A808A8836F8104087
:104A200022448A8033F810400A88401C22440A80BD
:104A30001428EDD34A881320B2FBF0F24A808A880A
:104A4000B2FBF0F28A800A88B2FBF0F00880BDE881
:104A5000F09F0000FC0B0020F00000202DE9F05F2B
:104A6000324D00244FF400194FF4800A4FF4000B2C
:104A700005F1280605F15007C846484603F0D8FC62
:104A8000012003F055FC012803D103F073FC25F845
:104A90001400404603F0EAFBD046504603F0C8FC41
:104AA000012003F045FC012803D103F063FC26F844
:104AB0001400404603F0DAFBD846584603F0B8FC31
:104AC000012003F035FC012803D103F053FC27F843
:104AD0001400404603F0CAFB4FF48050401EFDD145
:104AE000641C142CC8D3124901204A8835F81030B0
:104AF0001A444A808A8836F810301A448A8037F877
:104B00001030CA88401C1A44CA801428EDD34A8841
:104B10001320B2FBF0F24A808A88B2FBF0F28A805E
:104B2000CA88B2FBF0F0C880BDE8F09F740C00208A
:104B30000001002038B50446FF280CD00B2C0AD801
:104B400000F01CF8FFF75CFC01468E23024A03A02C
:104B5000009402F091FA38BD8E8700085B5831301E
:104B60004B422025735D2025733A28256429205B5C
:104B70006B65793A2025645D0D0A000010B5A0B080
:104B8000044680216846FDF718FB012368468DF82E
:104B900008401A461946FDF71DFF20B0002010BD41
:104BA00070B540F2135003F03BF90A4D4FF4004446
:104BB000012223461146284602F0EDFE2346032239
:104BC0000021284602F00BFF21462846BDE8704030
:104BD00002F0A5BD0008004813B50C466846FDF775
:104BE0008BFC017E2170017D64396170017C491C60
:104BF000A170017BE170017A083121710179617145
:104C00000078A07104E018382071E078401CE07052
:104C100020791828F7D204E03C3860712079401CD4
:104C2000207160793C28F7D204E03C38A0716079AB
:104C3000401C6071A0793C28F7D200201CBD000008
:104C40002DE9FC4127213248FDF7B7FA314800240D
:104C50000821046004710830FFF77CF82C487821A3
:104C60002830FDF7AAFA2A4801252830DFF8A88065
:104C700080F86850404601F0B9F8264E274F0836B4
:104C80003068B8420BD126A002F0F6F9FFF7B8FB66
:104C900001464723324A33A002F0EEF915E03AA06C
:104CA00002F0EAF9FFF7ACFB01464C232C4A46A080
:104CB00002F0E2F9404601F099F8164808210C3854
:104CC000846114303760FFF7C7F8FFF799FB01469E
:104CD0005323234A46A0009502F0CEF9FFF790FB3C
:104CE000014655231E4A4FA0009502F0C5F9FFF773
:104CF00087FB014658A25BA0CDE900025723184A62
:104D00005BA002F0B9F902480570BDE8FC81000023
:104D10001C07002044000020FFF3255CAE5634122F
:104D20000A0A0A3D3D3D3D3D3D3D3D3D3D3D3D3D4C
:104D30003D3D3D3D3D3D3D3D3D3D3D3D3D3D3D3DA3
:104D40003D3D3D3D3D3D3D3D3D3D3D3D3D3D3D3D93
:104D50003D3D3D3D3D3D3D3D3D3D3D3D3D3D0A00F3
:104D6000448700085B5831304B422025735D202575
:104D7000733A28256429200D5538537562C6F4B658
:104D8000AF4170700A0000000A0A0A2A2A2A2A2A59
:104D90002A2A2A2A2A2A2A2A2A2A2A2A2A2A2A2A73
:104DA0002A2A2A2A2A2A2A2A2A2A2A2A2A2A2A2A63
:104DB0002A2A2A2A2A2A2A2A2A2A2A2A2A2A2A2A53
:104DC0002A2A2A2A2A2A0A005B5831304B422025F7
:104DD000735D2025733A28256429200D55385375B5
:104DE00062B3F5B4CEC6F4B6AF4170700A000000ED
:104DF0005B5831304B422025735D2025733A2825BE
:104E00006429200A20C9E8B1B8B0E6B1BEBAC53AF3
:104E10002066775F76657273696F6E203D2025642A
:104E20002E200A005B5831304B422025735D20252F
:104E3000733A28256429200A20B2E2CAD4B0E6B128
:104E4000BEBAC53A2076657273696F6E203D202523
:104E5000642E200A0000000031363A35363A3238E6
:104E6000000000004A616E203233203230313900B8
:104E70005B5831304B422025735D2025733A28253D
:104E80006429200A20CEC4BCFEB1E0D2EBCAB1BC7A
:104E9000E42C20D4C2C8D5C4EA20257320CAB1B7F7
:104EA000D6C3EB2573200A001CB50446C079304BED
:104EB000062855D2DFE800F05403100F3F4B2D4970
:104EC00001200870FFF79CFA01464FF498732A4AB4
:104ED0002AA002F0D1F81CBD00220221104600F0E9
:104EE00071FE207A01280FD0022818D00328F2D1B1
:104EF000FFF786FA01464FF4A2731F4A29A002F079
:104F0000BBF8FEF77DFA1CBDFFF77AFA014640F2C6
:104F10003913194A2DA002F0AFF800F067FBFFF734
:104F20006FFA01464FF49F73134A33A002F0A4F8BE
:104F3000FEF762FB1CBD082204F108011846FEF7CB
:104F400011FF00220421104600F03CFE1CBD082287
:104F500069461846FEF7F3FE684600F057FB1CBD95
:104F6000FFF74EFA01464FF4AB73034A2CA0B0E7AB
:104F700000F8010804000020A28500085B583130C9
:104F80004B422025735D2025733A2825642920BDD6
:104F9000D3CAD5B5BDBBF9B1BED0C5CFA2D3A6B4D7
:104FA000F02E0A005B5831304B422025735D2025DE
:104FB000733A2825642920C7EBC7F3B4F2BFAAC00F
:104FC000B6D1C0B9E3B2A52E0A0000005B5831305B
:104FD0004B422025735D2025733A2825642920CA79
:104FE000D5B5BDD6F7B0E5B5C4B8B4CEBBCFB5CD59
:104FF000B3C7EBC7F32E0A005B5831304B42202574
:10500000735D2025733A2825642920C7EBC7F3B8C0
:10501000B4CEBBC0B6D1C0C4A3BFE92E0A00000005
:105020005B5831304B422025735D2025733A28258B
:10503000642920B4EDCEF32E0A000000F0B589B04B
:10504000044600200090019002900390E07901282E
:105050000ED0022812D003285DD0FFF7D1F9014607
:1050600040F2DA234D4A4EA002F006F809B0F0BD36
:10507000207A0028FAD001F04BFBF7E76088082877
:10508000F4D3A0680490A089ADF81400062204A906
:105090004AA000F079FCA57BE47B2946224649A082
:1050A00001F0EAFF08AA06A907A801F017FB4E4F76
:1050B000012648B101F02CFB69460120FEF794FB64
:1050C00087F8686049A01EE006AB04AA29460020C4
:1050D00000F062F938B101F01BFB69460120FEF7D0
:1050E00083FB45A00FE004EB8500C0B2694600F0E9
:1050F00097F958B101F00CFB69460120FEF774FBEB
:1051000087F8686040A001F0B7FFAFE7694600206C
:10511000FEF76AFBAFE7A0680490A089ADF8140021
:10512000A67BE07B00EB8600C5B201F0F1FA08AA8D
:1051300006A907A801F0D2FA30B906AB04AA314695
:10514000002000F029F940B133A001F095FF01F0F3
:10515000DFFA012001F06CFF88E704F11006082D4A
:105160000BD03146284600F079F9A0B12EA001F00D
:1051700083FF012001F05CFF7DE70F213046FFF740
:105180009DF9E17F8842C5D13146082000F066F9DB
:1051900008B129A0EBE70020ECE70000FB85000840
:1051A0005B5831304B422025735D2025733A28250A
:1051B000642920B4EDCEF32E0A0000006B6579411E
:1051C00000000000D1B0BFA82C20736563746F721B
:1051D000203D2025642C20626C6F636B203D2025D0
:1051E00064200D0A0000000044070020D1B0BFA8D1
:1051F000CAA7B0DC2E0D0A00C3DCC2EBC8CFD6A410
:10520000CAA7B0DC0D0A0000B6C1CAFDBEDDBFE909
:10521000CAA7B0DC2E0D0A005752495445206661DA
:10522000696C65642E0D0A00D0B4BFA8BFE978CAC6
:10523000A7B0DC0D0A000000D0B4BFA8BFE938CA8F
:10524000A7B0DC0D0A00000010B5154C207888B915
:10525000FFF740F9616841F288321144884204D274
:10526000FFF738F96168884204D2FFF733F96060CC
:1052700000F02EFFFFF72EF9A16847F230521144DB
:10528000884204D2FFF726F9A168884206D2FFF7C8
:1052900021F9A060BDE8104000F034BF10BD00004F
:1052A0000400002070B50D460446FEF746FDA279C5
:1052B000052A1ED2DFE802F0031D090F150029465A
:1052C0002046BDE87040FFF7EFBD29462046BDE807
:1052D0007040FFF7B3BE29462046BDE87040FEF798
:1052E000C7BFFEF72AFD29462046BDE8704000F002
:1052F00001B870BD70B50546C07900240E4601287E
:1053000006D0022825D12846BDE8704000F096BCA2
:105310000A4629460FA000F037FB3146284601F027
:10532000C7FB70B1FFF76CF8014640F21E230F4A2D
:105330000FA001F0A1FE01242046BDE8704001F05D
:1053400095BB052000F0E6FA1249A52081F82B0054
:10535000F2E770BD454E554D5F55504752414445AB
:105360005F5245515545535400000000EA8500083E
:105370005B5831304B422025735D2025733A282538
:10538000642920B2BBBFC9D2D4C9FDBCB62121213A
:105390000A0000004407002000B587B010B10128C2
:1053A00002D004E0602000E061208DF80400880055
:1053B0008DF8050010788DF8060050788DF80700FC
:1053C00090788DF80800D0788DF8090010798DF864
:1053D0000A0050798DF80B0018788DF80C00587879
:1053E0008DF80D0098788DF80E00D8788DF80F00A4
:1053F000012000F066FAFEF783FA05A8009004ABDE
:105400000C2201A90E2000F018F938B9082000F08C
:10541000F9FA000702D5002007B000BD0120FBE724
:105420003EB504460D46012000F04BFA30228DF8BF
:1054300004208DF80540FEF763FA02A800902B4681
:10544000022201A90C2000F0F8F810B90298802877
:1054500001D001203EBD00203EBD000030B5044615
:105460008BB00D46012000F02CFAA0218DF814100D
:105470008DF8154009AC01AB022205A90C2000945F
:1054800000F0DBF80998042801D0012000E000209A
:105490009DF8041001F00F010A2901D0012200E05B
:1054A0000022104307D0FEF7ABFF014640F2EB139A
:1054B000144A15A021E0052000F003FA01AB1022E8
:1054C00029460C20009400F0B8F80998042801D06F
:1054D000012000E000209DF8041001F00F010A29CE
:1054E00001D0012100E00021084309D0FEF788FF28
:1054F00001464FF4FA73034A0FA001F0BDFD0120ED
:105500000BB030BD748700085B5831304B4220250A
:10551000735D2025733A28256429204D69666172E0
:10552000655F426C6F636B777269746520B4EDCE12
:10553000F3313A0A000000005B5831304B4220251D
:10554000735D2025733A28256429204D69666172B0
:10555000655F426C6F636B777269746520B4EDCEE2
:10556000F3323A0A0000000010B5FEF7E6FBBDE892
:105570001040FEF769B9000070B5FEF7ABFF174C9D
:10558000174D21686431884204D2FEF7A3FF2168D9
:1055900088420DD21348807850B9FEF79BFF2060F7
:1055A00095F82B00A52801D0FFF7DEFFFEF7C5FB1D
:1055B000FEF790FF0C4C41F288322168114488427A
:1055C00004D2FEF787FF2168884205D2FEF782FFEA
:1055D0002060012085F8680070BD000010000020E8
:1055E000440700204400002000000020BFF34F8F3C
:1055F00004480168044A01F4E06111430160BFF30B
:105600004F8FFEE70CED00E00400FA0530B5A1B0C5
:10561000044680216846FCF7D0FD6D46FEF78DFB01
:105620002068029060680390052300220821284624
:10563000FDF7D0F921B0002030BD2DE9F0479946A3
:105640001446884607460026DDF820A0FEF758F9E4
:10565000FEF773FB20210B2001F009FD7F210420C0
:1056600001F005FD0E2F07D14146204601F0F2FC66
:1056700080210D2000F0F4FB80212A2000F0F0FBB7
:105680003946012001F0F3FCFEF757FB042000F03F
:10569000B9F90546C00703D020250C2F5CD076E071
:1056A0000E2F11D0042F12D00C2FEDD1680739D551
:1056B000C4B3202C414629D9202001F0CBFC203C4A
:1056C000E4B208F1200825E0E806DDD560E06807CF
:1056D00017D5B4B1202C414604D2204601F0BAFCC3
:1056E000002406E0202001F0B5FC203CE4B208F1E3
:1056F000200880210D2000F0B3FB0421084601F0B2
:10570000B6FC6806C0D5002CBED141E0204601F0B1
:10571000A1FC002480210D2000F0A2FB04210846FA
:1057200001F0A5FC280712D5680610D57CB90A201F
:1057300000F068F920280AD909EB0601202000F0C2
:1057400053F92036F6B20821042001F090FCA80697
:105750009AD5002C98D100250A2000F053F907466D
:105760000C2000F04FF900F007040FB904B1012735
:1057700009EB0601384600F037F9F019C0B21CB148
:10578000C0000838011900E0C100CAF800101DB9B6
:10579000062000F037F9054680210C2000F060FB60
:1057A0002021012001F063FC80210D20FEF79CF8F0
:1057B0002846BDE8F08710B50446FEF7BEFA24B1CE
:1057C000012C45D0022C5DD05AE010210C2000F0B5
:1057D00047FB4021152000F043FB0021122001F07F
:1057E00046FC0021132001F042FC8021392000F00A
:1057F00037FB01213C20FEF777F807213D20FEF71B
:1058000073F803213E20FEF76FF8FF21332001F0EB
:105810002EFC0721322001F02AFCF121272001F083
:1058200026FC3F21282001F022FC0121292001F043
:105830001EFC4021262001F01AFC0D21192001F048
:1058400016FC8421182001F012FC4021362015E0BE
:1058500010210C2001F00BFC8321122001F007FC29
:105860008321132001F003FCF421272001F0FFFB2A
:10587000F421232001F0FBFB002120E001F0F7FBE5
:10588000002010BD10210C2001F0F1FB922112200C
:1058900001F0EDFB9621132001F0E9FBF421272014
:1058A00001F0E5FB2021282001F0E1FB4F2123201E
:1058B00001F0DDFB2021292001F0D9FB0721152073
:1058C000DCE770B540F29F6100244843611E01226D
:1058D0004FF6FF7301EBC0011D1102EB4400B1FB59
:1058E000F0F0984202D3641CAC42F6D385B2C4F304
:1058F00007212A2000F0B4FAE1B22B2001F0B7FB17
:10590000290A2C2001F0B3FBE9B22D2001F0AFFBF6
:10591000002070BD70B5054600241A4E09E00A202B
:10592000FEF709F92046641CC82802DD4FF0FF305D
:1059300070BD2021304602F029F80028EFD108215F
:10594000304601F0EEFEFEF7F3F80821304601F094
:10595000E6FEFEF7EDF800240FE0FEF7EEF9102169
:10596000304601F0DEFEFEF7E3F81021304601F08C
:10597000D6FEFEF7DDF8641CE4B2AC42EDD30020A5
:1059800070BD00000004004870B515460E46044680
:10599000FEF736FD01462B46224608A001F06CFBBF
:1059A000002404E0315D0DA001F066FB641CAC42F4
:1059B000F8D3BDE870400BA001F05EBB5B583130FE
:1059C0004B422025735D2025732C6C656E3D25644C
:1059D000202C70646174613A000000002530325858
:1059E000000000000A00000070B50D4606460024C5
:1059F00005E0092000F006F82855641CE4B2B44222
:105A0000F7D370BD00F020B810B502F0DDFAFEF754
:105A1000F7FC0146BDE810406A23024A02A001F0EB
:105A20002BBB0000868700085B5831304B42202595
:105A3000735D2025733A2825642920B3F5CABCBBC1
:105A4000AF205254430A000070B504464FF400459D
:105A50004FF090462946304601F061FE802040EA32
:105A60004400C0B200F0E4FA00F0DEFA0446294631
:105A7000304601F056FE204670BD2DE9F0410E463D
:105A800007464FF400444FF090452146284601F068
:105A900046FE7E2000EA470000F0CAFA304600F0D9
:105AA000C7FA21462846BDE8F04101F03ABE0000A1
:105AB0002DE9F047C4B015468A46064600244FF447
:105AC000FA774FF40049DFF8BC8012E00A20FEF7B5
:105AD00032F8641CBC420CD3FEF792FC014616233C
:105AE000294A2AA001F0C8FA4FF0FF3044B0BDE8BF
:105AF000F0874946404601F049FF0028E6D14FF4BF
:105B0000007739464446404601F040FF30B93946F7
:105B1000204601F006FE0220FEF70DF84FF48671D4
:105B20006846FCF74AFBAB208DF80000CD208DF8CD
:105B30000100012E07D1224850F8221FCDF8031092
:105B400000798DF807008DF80260ADF809502A46FB
:105B500051460DF10B00FCF717FB05F10B0081B26C
:105B60006846FEF7ABFC0DEB05010E35C8720D2043
:105B700008730A204873AAB26946002001F0F2F9BE
:105B80000020B3E700040048228600085B5831304B
:105B90004B422025735D2025733A28256429204334
:105BA0004B42323420776169742069646C652074DB
:105BB000696D656F75742C6572726F722E0A0000C4
:105BC0001C070020F0B5A1B00D46064617468021FF
:105BD0006846FCF7F2FA6C468DF808702A463146A2
:105BE00008A001F049FA2B46324601212046FCF775
:105BF000F1FE0B22214609A0FFF7C6FE21B00020CE
:105C0000F0BD000074797065203D2025642C206370
:105C10006D64203D202564200A00000053656E64F9
:105C20004D73675F41434B20B8F858313050B5C4CD
:105C3000C0B6D1C0D3A6B4F00000000070B51E4EAF
:105C400000F10804002596F82B00A52801D00125B5
:105C50000FE02046FDF77EFD022810D048B1012557
:105C6000FEF7CEFB01464FF40173144A14A001F075
:105C700003FA2178284600F04BF8002070BD217807
:105C8000002000F045F84FF47A742046FDF753FFEA
:105C90002F20FFF73FFEFEF7B3FB01464FF4FC73E6
:105CA000064A0FA001F0E8F9002086F82B002046F4
:105CB000FDF741FFFFF79AFC44070020D785000855
:105CC0005B5831304B422025735D2025733A2825DF
:105CD000642920C9FDBCB6B4EDCEF32121210A0010
:105CE0005B5831304B422025735D2025733A2825BF
:105CF00064292044454255475F434D445F52454225
:105D00004F4F54D6D8C6F4CFB5CDB3A3A10A0000E7
:105D100030B5A1B00C46054680216846FCF74DFA27
:105D20008DF80850022368468DF809400422194670
:105D3000FCF750FE21B0002030BD000070B588B0E7
:105D40000546002420216846FCF737FA2A460CA1B4
:105D5000684601F0A1F94FF4FA656E102A460CA1CD
:105D60006846FDF725F8002807D03046FDF7E3FE2A
:105D7000641C022CF2D34FF0FF3008B070BD00005D
:105D800041542B4E414D453D25730D0A0000000046
:105D90004F4B000070B588B00546002420216846AE
:105DA000FCF70BFA2A460CA1684601F075F94FF48E
:105DB000FA656E102A460CA16846FCF7F9FF002828
:105DC00007D03046FDF7B7FE641C022CF2D34FF02B
:105DD000FF3008B070BD000041542B475749443D87
:105DE00025730D0A000000004F4B00001CB56946EA
:105DF000FEF7F2FE9DF80100FEF7AAFB164B03F832
:105E0000440F9DF80200FEF7A3FB58709DF80300B5
:105E1000FEF79EFB98709DF80000FEF799FBD87086
:105E20009DF80400FEF794FB18719DF80500FEF73D
:105E30008FFB58719DF80600FEF78AFB98710748A2
:105E400001681981406858810020D86018610248B3
:105E5000443002F049F81CBD44070020A80000208F
:105E600070B50C460546FFF7CDFD40EA0401284613
:105E700001F0FDF8002070BD70B50446FDF75DFF30
:105E80001420FFF7BFFD00F00300A04201D1002065
:105E900070BD34B1012C06D0022C0ED0032C0ED0D4
:105EA00006E0032100E001211420FDF71DFD054659
:105EB000C820FDF740FE284670BD0221F4E703210B
:105EC0001420FFF7CDFFF2E770B540F2135001F058
:105ED000A7FF084D4FF400540122234611462846DF
:105EE00001F059FD23462846BDE8704003220021F9
:105EF00001F075BD0008004810B5002418210C48B9
:105F0000FCF75BF90A48092104EB440200EBC202EA
:105F10005170641CF8D0012181713421C171FFF7E7
:105F2000D3FF01223421BDE81040002000F082BAE6
:105F3000D40A002058B109280CD00A280DD001231A
:105F4000401E834003EA01001146FEF727BC1146BC
:105F50000020FAE711460120F7E770472DE9F041EC
:105F600040F2115001F05CFF40F2165001F058FF72
:105F700040F2125001F054FF4FF4004401224FF060
:105F8000904523461146284601F005FD234603228D
:105F90000021284601F023FD214E01224023114615
:105FA000304601F0F8FC402303220021304601F086
:105FB00016FD1C4F012208231146384601F0EBFC68
:105FC000082303220021384601F009FD0122202385
:105FD0001146384601F0DFFC202303220021384619
:105FE00001F0FDFC102301220021384601F0D3FC12
:105FF000102303220021384601F0F1FC40213046F5
:1060000001F08FFB2146284601F08BFB202138460A
:1060100001F087FB3846BDE8F041082101F07FBB65
:106020000014004800040048A52000F001B800005A
:106030002DE9F041144F0546002428064FF02001B9
:10604000384602D501F06DFB01E001F068FB082144
:10605000384601F066FB0A20FDF77AFD6806060E59
:106060001021384601F092FC40EA06050821384626
:1060700001F055FB0A20FDF76BFD641CE4B2082C0F
:10608000DBD32846BDE8F081000400482DE9F0414B
:1060900005460C460846FCF7ADF8064600230FE01F
:1060A000E05CFCF7C1FC0746E0184078FCF7BCFC5C
:1060B00003EBD37105EB610140EA071008709B1CEC
:1060C000B342EDDB06EBD6704010BDE8F081000076
:1060D00030B5A1B080216846FCF76FF86C4602AD80
:1060E000FDF72BFE272206492846FCF74DF8012331
:1060F000002227212046FCF76DFC21B0002030BD96
:106100001C07002000B5A1B080216846FCF755F8B7
:106110000749684603230968029101218DF80C1094
:1061200000220521FCF756FC21B0002000BD000034
:1061300044000020704700001E48016841F0010142
:10614000016001688907FCD541681B4A1140416024
:1061500041681A4A11404160416821F440014160A0
:10616000016B174A114001630168164A1140016032
:10617000C16A154A1140C162016B40F2031291439A
:106180000163016B21F480310163016B21F0004157
:106190000163416B21F001014163D0F8C01021F48B
:1061A0008031C0F8C01000218160C0F8CC1001F02F
:1061B00057BF0000001002400C00FF08FFFFC2772D
:1061C000BFFFFFBFFFFFF2FEF0FFFF3F10B540F63D
:1061D0001A1001F099FD01281ED040F61B1001F0A5
:1061E00093FD01281FD040F61C1001F08DFD012801
:1061F00020D040F61D1001F087FD012821D040F687
:106200001E1001F081FD012822D040F61F1001F080
:106210007BFD012823D02AE0FEF7F2F801466D232A
:10622000154A16A021E0FEF7EBF801467123124A49
:106230001DA01AE0FEF7E4F8014675230E4A23A0DC
:1062400013E0FEF7DDF8014679230B4A28A00CE0A5
:10625000FEF7D6F801467D23074A2FA005E0FEF79A
:10626000CFF801468123044A35A000F005FFBDE8C0
:10627000104001F069BC0000538700085B583130C2
:106280004B422025735D2025733A2825642920CFB1
:10629000B5CDB3CDE2B2BFB8B4CEBBB9DCBDCCB8DE
:1062A000B4CEBB0A000000005B5831304B422025C1
:1062B000735D2025733A2825642920CFB5CDB3C955
:1062C000CFB5E7B8B4CEBB0A000000005B58313050
:1062D0004B422025735D2025733A2825642920CF61
:1062E000B5CDB3C8EDBCFEB8B4CEBB0A000000000B
:1062F0005B5831304B422025735D2025733A2825A9
:10630000642920CFB5CDB3B6C0C1A2BFB4C3C5B94F
:10631000B7B8B4CEBB0A00005B5831304B422025E1
:10632000735D2025733A2825642920CFB5CDB3B4F9
:10633000B0BFDABFB4C3C5B9B7B8B4CEBB0A0000AA
:106340005B5831304B422025735D2025733A282558
:10635000642920CFB5CDB3B5CDB9A6BAC4B8B4CEF3
:10636000BB0A000010B5042001F0BEFE0B480C492A
:106370000C4B0068B0FBF1F2B0FBF1F14FF47A7016
:1063800041434FF0E0201A70026942F002020261BC
:106390004161016941F00101016110BD0801002066
:1063A00040420F009800002070B5174D154C012198
:1063B000284601F051FF00281BD00121284601F09A
:1063C00047FF617920790022FFF7B4FD2079401C56
:1063D000207120790B280CD1E08A401C80B2E08229
:1063E000A18A884206D2E18A2069405C607100205F
:1063F000207170BDA52020702846BDE8704001F0D6
:10640000C5BE0000D40A0020002C014010B50121B7
:106410008C07204601F020FF002807D001212046EC
:1064200001F016FF02488168491C816010BD000020
:10643000380000202DE9FF410446204816460F464B
:1064400030F8140001F0ECFC1C4D1A3555F824000E
:1064500001F05CFE6B20ADF800000020ADF80C00F0
:10646000ADF80200ADF8040002978DF80E0055F863
:106470002400694601F098FE012E10D155F8240041
:10648000012101F0E1FE55F82400012101F088FE10
:10649000A5F11C000122005D114601F0F9FA55F842
:1064A000240001F02DFE55F8240001F074FE002CAC
:1064B00002D1286801F06AFEBDE8FF813A000020A1
:1064C00070B5C0B00D4606464FF480716846FBF7C4
:1064D00074FE6C46FDF731FCED1C2A46B11C04F13C
:1064E0000800FBF751FE0323A9B21A462046FCF729
:1064F00071FA40B0002070BD10B540F2115001F0AB
:106500008FFC40F2125001F08BFC4FF4A36001F0BD
:1065100087FC01F009F901F0B9FEFEF74FF9FEF72B
:106520007DF9FEF7DFF9FEF72DFAFEF797FAFDF792
:1065300067FF0146BDE8104040F21233014A02A055
:1065400000F09ABD9A8700085B5831304B422025F5
:10655000735D2025733A28256429205473694B659F
:1065600079496E6974204F4B0A0000002DE9F04311
:106570008DB0064600200190029003900490059093
:10658000086008710C4620218DF818108DF81C0049
:106590008DF820008DF8240080211220FDF7A4F949
:1065A00080211320FDF7A0F980210E2000F05FFD6F
:1065B00000211D2000F05BFD0DF128080DF10409FC
:1065C00004AD8DF828609DF818008DF829009DF81D
:1065D0001C100D2000F04BFD9DF82420214608F1F1
:1065E0000200FBF7D1FD9DF82400801CC7B20120FA
:1065F000FFF767F902AB3A460AA90C20CDF80090E4
:10660000FFF71BF8202867D000072AD50E20FFF7D8
:10661000F9F900F01F0709AB08AA06A9384600F0EF
:106620001EF907A9384600F0F9F89DF8242002A9C0
:1066300004A8FBF7A9FD9DF824009DF8202028441C
:1066400010F8011D11400170002205E0A05CA95C5A
:106650000843A054521CD2B29DF824008242B0D20A
:10666000F4E70198082802D9C0F3C70600E0012624
:106670009DF8240018B1311806292DD107E0052E08
:106680002AD1324602A92046FBF77EFD16E02844B7
:10669000324602A9401EFBF777FD00200CE09DF872
:1066A000241001440A19294412F8013D11F8011C73
:1066B0000B43401C1370C0B2B042F0D32078617815
:1066C000E2784840A178514048402179884203D17E
:1066D00000200DB0BDE8F0830120FAE770B5154643
:1066E0000E46044600F038F880B9617871B9217817
:1066F00089090CD131469320FFF738FF30B92A467B
:106700003146932000F059F8002800D0012070BDD8
:106710001FB550208DF8040000208DF805000146BB
:106720000D2000F0A4FC80211220FFF799FB8021AE
:106730001320FFF795FB08210846FDF7D5F8012047
:10674000FFF7BFF803A8009002AB022201A90C20BA
:10675000FEF773FF04B010BD1FB504460020029081
:1067600080211220FDF7C0F880211320FDF7BCF82E
:1067700008211320FFF774FB07210D2000F077FCA0
:1067800026208DF80C000120FFF79BF802A800904E
:1067900001AB012203A90C20FEF74FFF10B90298AC
:1067A000102802D0012004B010BD9DF80400207014
:1067B0009DF8050060700020F5E770B50C460646B0
:1067C00086B0154600210D2000F051FC80211220DA
:1067D000FFF746FB80211320FFF742FB8DF8046092
:1067E00070208DF80500002001A9225C0B18401CC8
:1067F000C0B29A700528F8D30120FFF762F805A807
:10680000009003AB072201A90C20FEF716FF002819
:1068100002D19DF80C10297006B070BDE8B1421E7F
:10682000082A02D200EB001017E0A0F109030201D0
:10683000082B03D2803A104408380EE0A0F111036F
:10684000082B02D21044103807E0A0F11903072BDF
:1068500004D2A2F5C0721044183808707047F0B521
:10686000042510B958240C701D70441E0126082CF4
:1068700002D221340C701E70A0F10904082C03D23E
:1068800031340C7002241C70A0F111040327082C71
:1068900002D241340C701F70A0F11904072C02D2EF
:1068A000383008701D70087800F00700092807D2FA
:1068B000DFE800F0060507090B0D0F111300167035
:1068C000F0BD1770F0BD072008E00F2006E01F2084
:1068D00004E03F2002E07F2000E0FF201070F0BDC8
:1068E0002DE9F05F894604463F4900EB440001EB87
:1068F000800A3E48934630F8140001F091FA3B4874
:10690000001D30F8140001F08BFA384F2837A7F13A
:10691000200606F1100857F8242056F8241058F8DD
:10692000240000F0D1FE06F1280556F82410183690
:1069300055F8242056F8240000F0C6FE57F82430FD
:1069400058F824000122022101F025F857F824000C
:106950004FF6FF7703463A46002101F040F855F81C
:10696000243056F824000122022101F014F855F8D1
:10697000243056F824003A46002101F030F8203D3A
:1069800055F8240001F09AFD55F82400594601F00D
:1069900061FD55F82400042101F0E3FD55F82400C1
:1069A000082101F0E6FDB9F1010F16D155F82400D8
:1069B000052101F0ABFDA5F114000122005D0221CB
:1069C00001F066F80A484FF4807200EB042150464B
:1069D000FDF7FBF85046FDF7D5F855F8240001F017
:1069E00085FD0020BDE8F09FBC090020600000206C
:1069F000BC07002070B50C4E0C4C0A4D31462046A9
:106A000001F097FD00280CD0204601F04FFDC1B2E7
:106A10002846FDF7E1F831462046BDE8704001F018
:106A200080BD70BDBC09002005000507003801408D
:106A300070B50C4E0C4D0A4C3146284601F079FDDC
:106A400000280CD0284601F031FDC1B22046FDF7E8
:106A5000C3F831462846BDE8704001F062BD70BD04
:106A6000C8090020050005070044004030B5A1B06A
:106A7000054680216846FBF7A0FB6C4601238DF894
:106A80000850042219462046FBF7A4FF0B2221469A
:106A900002A0FEF779FF21B0002030BD557067726B
:106AA0006164655265717565737441636B000000C4
:106AB0007FB5204D816800242960C1686960018A22
:106AC0002981807CA872FDF79BFC01462868AE7A7C
:106AD0002B896A688DE84D0040F2BD13164A1748AD
:106AE00000F0CAFA16480121C16200210163416326
:106AF000286898B1686888B100F074FD114D05EB05
:106B0000842000F031FD342000F020FD641C3A2C7C
:106B1000F5D300F021FD002004B070BDFDF770FC3E
:106B2000014640F2C513044A07A000F0A5FA4FF051
:106B3000FF30F1E710010020C18500083888000807
:106B400044070020000801085B5831304B422025E3
:106B5000735D2025733A282564292066696C657366
:106B6000697A65206F72207061636B616765206F61
:106B7000722066775F766572736F6E2C2065727215
:106B80006F72212121000000F8B500258DF800501A
:106B90002C46FDF7D2F80D4E0D4F09E00122694653
:106BA000E019FDF7CCF89DF80000641C284485B27C
:106BB0003068A042F2D83289AA4205D0294605A001
:106BC00000F05AFA0120F8BD0020F8BD10010020A5
:106BD00000080108D0A3D1E9B3F6B4ED2121215B6F
:106BE0002523785D2C205B2523785D0D0A000000AD
:106BF0002DE9F0416D4F0D4601466D4A786B8CB022
:106C0000104400242A46FDF7ADF801284AD0786BDD
:106C1000684E2844642148433168B0FBF1F8FDF721
:106C2000EFFB7A6B33682A44CDE900320146CDF898
:106C300008803C23604A61A000F01EFAF86A71687F
:106C400088427DD100297BD07A6B31682A449142F9
:106C5000F7D1FDF7D5FB01464023574A63A000F06A
:106C60000BFA72686EA0F96A00F006FA786B326867
:106C7000411973A000F000FAFDF7C2FB0146786BE2
:106C8000009043234C4A75A000F0F6F9FFF77CFF13
:106C900060B1FDF7B5FB01464723474A7FA000F0EE
:106CA000EBF97AE088A000F0E7F976E08D4F8E4DA1
:106CB0004FF00008CDF82880CDF81480CDF818806A
:106CC000CDF81C803089ADF828003068CDE9085037
:106CD00000F088FC384600F047FC342000F036FC19
:106CE00000F03AFC0A2208A93846FDF73BF80A22D0
:106CF00005A93846FDF723F81420FCF71CFF0A22EB
:106D000008A93846FDF71BF8BDF8280031898842EC
:106D100023D10999326891421FD10899A9421CD107
:106D2000BDF81C10884218D106990998884214D1E0
:106D300005990898884210D1FDF762FB014600E0F2
:106D40002DE061231C4A69A000F096F93020FEF77F
:106D5000E1FD02200CB0BDE8F081FDF751FB0146DA
:106D6000DDE90832BDF828008DE80D006823124ADD
:106D700068A000F081F9FDF743FB014632683089D5
:106D8000CDE9000269230C4A724800F075F9032C22
:106D900003D0641C032C8DD306E00120DAE7401CED
:106DA000F862786B284478630020D3E7440700201A
:106DB0000008010810010020828500085B5831306E
:106DC0004B422025735D2025733A282564292074C1
:106DD0006F74616C2025642C6765742025642C20F9
:106DE0005B256425255D2E0A000000005B583130CC
:106DF0004B422025735D2025733A2825642920D72E
:106E0000EEBAF3D2BBB8F6B0FCD2D1BEADD0B4CDA1
:106E1000EA2C20BFAACABCD0A3D1E92E0A000000E8
:106E200043757272656E745061636B616765203D76
:106E3000205B25645D2C205B25645D0A000000005A
:106E40005265636569766553697A65203D205B25E7
:106E5000645D2C205B25645D0A0000005B583130C6
:106E60004B422025735D2025733A2825642920474D
:106E70006C6F62616C496E666F2E557067726164EB
:106E80006546772E416464724F6666736574203D73
:106E9000205B2523785D2E0A000000005B5831300E
:106EA0004B422025735D2025733A282564292075DF
:106EB00070677261646520636865636B73756D20CC
:106EC0006572726F722E0A003131313131313131D8
:106ED0003131313131313131312C206572726F7283
:106EE0002100000000FC0108DEBC55AA5B583130CF
:106EF0004B422025735D2025733A2825642920758F
:106F000070677261646520737563636573732E0ABD
:106F1000000000005B5831304B422025735D202576
:106F2000733A28256429207570677261646520654D
:106F300072726F722C205B2523785D2C205B2523D9
:106F4000785D2C205B2523785D2C206572726F7232
:106F50002E0A00008888000801214FF4E13208461B
:106F6000FFF7BEBC2DE9F0471746884605460024CA
:106F70000E4E40F2077910E0FCF7DFFE18F804101F
:106F800056F8250001F096FA56F82500494601F01A
:106F9000B2FA0028F8D0641CA4B2BC42ECD314208E
:106FA000FCF7C9FD0020BDE8F0870000700000205C
:106FB0002DE9F041124F05464FF4005600243146AA
:106FC000384600F0ACFB0820FCF7C2FDE80731466C
:106FD000384602D000F0A5FB01E000F0A0FB08203D
:106FE000FCF7B6FD641C6D08E4B2082CEED3314604
:106FF000384600F096FBBDE8F0410820FCF7A8BD3C
:107000000008004810B54FF41064204600F08CFED4
:10701000204600F097FE0128FAD104214FF47F604A
:1070200000F01AFB00F040FBBDE8104000F044BB4C
:1070300010B5A0B0044680216846FBF7BEF868464C
:107040008DF80840032302220121FBF7C3FC20B086
:10705000002010BD70B50D460646002404E0295DF1
:10706000092000F004F8641CB442F8D370BD10B5D8
:10707000FEF703FD002010BD0FB4054B10B503A9AA
:10708000044A029800F02CF810BC5DF814FB0000D4
:10709000397600080C0100200FB4084B10B504A984
:1070A00002AA039800F01CF8044602A9002000F090
:1070B00048FA204610BC5DF814FB00004375000838
:1070C00002E008C8121F08C1002AFAD170477047B1
:1070D000002001E001C1121F002AFBD1704700000F
:1070E0002DE9FF4F8DB00F460546002606E0252806
:1070F0000BD0DDE90F1290476D1C761C2878002814
:10710000F5D111B03046BDE8F08F0024A246A1466B
:107110000122EC4900E0044315F8013F203B02FA4C
:1071200003F00842F7D128782A2810D06FF02F02F8
:107130002878A0F13001092914D80AEB8A0102EB62
:10714000410144F0020400EB010A6D1CF0E701CF9D
:107150005FEA000A03D544F40054CAF1000A44F07F
:1071600002046D1C28782E2817D115F8010F44F061
:1071700004042A280ED06FF02F022878A0F13001E5
:1071800009290AD809EB890102EB410100EB010949
:107190006D1CF2E757F8049B6D1C28786C280FD003
:1071A00006DC4C2817D068280DD06A2814D104E0DA
:1071B000742810D07A280FD10DE044F400140AE0AE
:1071C00044F4801401E044F440146978814202D10F
:1071D00004F580146D1C6D1C2A786E2A1FD00CDCFF
:1071E000632A31D004DC002A8BD0582A11D1A3E0C5
:1071F000642A68D0692A0CD165E0732A2ED004DC99
:107200006F2A73D0702A04D19BE0752A6FD0782A38
:107210006ED01046DDE90F129047761C50E1C4F3A2
:107220000250022806D0032809D0042801CF09D033
:10723000066045E101CFF117C0E9006140E101CFEF
:1072400006803DE106703BE117F8040B8DF8000065
:1072500000208DF80100EB46012003E057F804BB45
:107260004FF0FF3061074FF0000102D40DE008F14C
:107270000101884649450FDA8045F8DB1BF8081004
:107280000029F4D108E008F1010188468142FADBC7
:107290001BF808100029F6D1DDE90F23AAEB08003E
:1072A0008146214600F036F9304400EB080604E040
:1072B000DDE90F121BF8010B9047B8F10108F7D276
:1072C00021464846F7E00A21C4F302534FF0000B71
:1072D0000891022B04D001CFC117032B09D00AE07B
:1072E000FF1D27F00707F7E8020108E032E01FE082
:1072F00020E000B2C117042B01D140B2C117031E18
:1073000071F1000307DA4FF0000CD0EB0C006CEBCE
:1073100001012D2302E0230504D52B238DF8243011
:10732000012303E0E30701D02023F7E7984658E064
:107330000A2110E010210EE010204FF0000B089001
:107340000CE010214FF0000B44F004044FF008094A
:10735000089103E008214FF0000B0891C4F3025399
:10736000022B04D001CF0021032B06D006E0FF1D25
:1073700027F00707F7E8020103E080B2042B00D1F1
:10738000C0B24FF0000823072BD5702A07D0DDF8D4
:1073900020C08CF0100C5CEA0B0C05D00EE04023F2
:1073A0008DF82430012308E050EA010306D0302391
:1073B0008DF824308DF8252002239846DDF820C072
:1073C0008CF0080C5CEA0B0C0BD150EA010301D1E4
:1073D000630706D530238DF824304FF00108A9F15A
:1073E0000109582A04D038A20B9208AA0A920BE08D
:1073F0003AA2F9E75B46089AFBF74CF80B9B9B5CBB
:107400000A9A521E0A92137050EA0102F2D10A98A7
:10741000ADEB000000F1200B600702D524F48034AE
:1074200001E04FF00109D94502DDA9EB0B0000E0B6
:10743000002000EB0B0141440890AAEB010AE00395
:1074400006D4DDE90F232146504600F063F80644D8
:107450004FF0000908E009A911F80900DDE90F1251
:10746000904709F10109761CC145F4DBE0030CD516
:10747000DDE90F232146504600F04CF8064404E0B5
:10748000DDE90F1230209047761C0899481E0890BD
:107490000029F5DC08E00A980A990078491C0A914D
:1074A000DDE90F129047761CBBF10001ABF1010B37
:1074B000F1DC21465046DDE90F2300F019F80644BF
:1074C0006D1C1BE609280100303132333435363764
:1074D0003839616263646566000000003031323320
:1074E00034353637383941424344454600000000C0
:1074F0002DE9F041044600251E461746880404D4B1
:1075000005E039462020B0476D1C641EF9D5284699
:10751000BDE8F0812DE9F041044600251E46904665
:10752000C80301D5302700E02027880404D505E0F2
:1075300041463846B0476D1C641EF9D52846BDE863
:10754000F0810A68531C0B60107070470149C860D5
:1075500070470000002002400248016941F08001AC
:10756000016170470020024070B505464FF4702657
:10757000304600F017F8002810D1094C206940F07F
:10758000020020616561206940F0400020613046C2
:1075900000F008F8216921F00201216170BD0000AE
:1075A0000020024000B5034600F008F85B1E0128E9
:1075B00002D1002BF8D1042000BD000008490020B2
:1075C000CA68D20701D001207047CA68D20601D527
:1075D00003207047C9684907FBD5022070470000A7
:1075E0000020024004480169090603D503494160AF
:1075F00003494160704700000020024023016745B5
:10760000AB89EFCDF0B506464FF470270D463846EE
:10761000FFF7C8FF00280CD1064C206940F001009C
:10762000206135603846FFF7BDFF216921F0010177
:107630002161F0BD0020024010B50446FCF77DFB3F
:107640000449A52081F83900E0B2FFF7B1FC2046DB
:1076500010BD00004407002030B5124D104B45F21C
:1076600055541A462C60EC68521E04F0010402D0F6
:10767000002CF8D100E04CB96960E9685B1E01F0AC
:10768000020102D00029F8D102E009B1002030BD8A
:10769000C0F30B00A8604AF6AA202860012030BD84
:1076A000FFFF0F000030004002494AF6AA200860A0
:1076B000704700000030004002494CF6CC400860A2
:1076C0007047000000300040F0B5046A456A0023AE
:1076D0004FF0010C4FF00F0E0CFA03F6164206D0D5
:1076E0009E000EFA06F7BC4301FA06F73C435B1C0A
:1076F0009BB2082BF0D308230CFA03F6164207D0EE
:107700009E00203E0EFA06F7BD4301FA06F73D4300
:107710005B1C9BB2102BEFD304624562F0BD81620B
:1077200070478161704700002DE9F0474FF09048A5
:10773000012300220221404600F02DF901230022FE
:107740001946404600F04BF90223002219464046F4
:1077500000F021F9002202231146404600F03FF9D3
:10776000012203214046FFF7AFFF022203214046DA
:10777000FFF7AAFF102300220221404600F00BF978
:10778000102300220121404600F029F92023002285
:107790000221404600F0FFF8002220231146404617
:1077A00000F01DF9402300220221404600F0F3F8CA
:1077B000002240231146404600F011F980230022A8
:1077C0000221404600F0E7F800228023114640469F
:1077D00000F005F9102203214046FFF775FF202233
:1077E00003214046FFF770FF402203214046FFF788
:1077F0006BFF802203214046FFF766FFDFF8889188
:10780000012300220221484600F0C5F8012300228E
:107810001946484600F0E3F802230022194648467C
:1078200000F0B9F8002202231146484600F0D7F8CC
:10783000042300220221484600F0ADF80022042370
:107840001146484600F0CBF8012203214846FFF7D5
:107850003BFF022203214846FFF736FF04220321A3
:107860004846FFF731FF4FF480542346002202219F
:10787000404600F090F8234600220121404600F0E7
:10788000AEF8A5102B4600220221404600F083F8F6
:1078900000222B461146404600F0A1F86610334600
:1078A00000220221404600F076F8002233461146BD
:1078B000404600F094F8E7103B4600220221404683
:1078C00000F069F800223B461146404600F087F878
:1078D0003A4603214046FFF7F7FE2A460321404679
:1078E000FFF7F2FE324603214046FFF7EDFE224647
:1078F00003214046FFF7E8FE3346002202214846B6
:1079000000F049F8334600220121484600F067F8AC
:10791000234600220221484600F03DF8002223467B
:107920001146484600F05BF865002B460022022114
:10793000484600F030F800222B461146484600F039
:107940004EF8A7003B4600220221484600F023F8EB
:1079500000223B461146484600F041F832460321DA
:107960004846FFF7B1FE224603214846FFF7ACFE2A
:107970002A4603214846FFF7A7FE3A464846BDE897
:10798000F0470321FFF7A0BE00040048006908404B
:1079900000D0012070472DE9F0470568C668002433
:1079A0004FF0010A4FF003090AFA04F71F420ED004
:1079B000670009FA07FC25EA0C0526EA0C0601FA1D
:1079C00007F802FA07FC48EA05054CEA0606641CBB
:1079D000A4B2102CE8D30560C660BDE8F087F0B50E
:1079E0000129416830D0994341608468012603270A
:1079F000A2F57F41FF3913D0002106FA01F51D429F
:107A000008D04D0007FA05FC24EA0C0402FA05FC34
:107A10004CEA0404491C89B21029EED38460F0BDFD
:107A2000C26B002106FA01F51D4206D04FEA410C57
:107A300007FA0CFC4CEA04042A43491C89B21029B9
:107A4000F0D38460C263F0BD1943CDE7FCF742FD7B
:107A50004FF40051880300F065F84FF4407000F0D7
:107A600057F8FBF7EBFAFBF7C7FDFCF766F9FCF7F5
:107A70007BFDFCF72FFDFCF745FDFCF707FDFBF751
:107A80004BFFFDF779FDFDF7DFFBFBF70BFAECE7AA
:107A900030B51E4D002423462D6805F4E065B5F58C
:107AA000A06F12D006DCB5F5407F14D0B5F5806F1D
:107AB00012D10DE0B5F5C06F04D0B5F5E06F0BD174
:107AC000042309E00124032306E00224234603E003
:107AD0000324012300E00424C4F10404A140C3F101
