:020000040800F2
:10200000D8100020652100086D2100086F2100080C
:1020100071210008732100087521000800000000EC
:102020000000000000000000000000007721000810
:1020300079210008000000007B210008B54D000850
:102040007F2100087F2100087F2100087F210008F0
:102050007F2100087F2100087F2100087F210008E0
:102060007F2100087F2100087F2100087F210008D0
:102070007F210008295000087F2100088D500008AA
:102080007F2100087F210008000000007F21000858
:102090007F2100087F2100087F2100087F210008A0
:1020A0007F2100087F2100087F21000839560008A1
:1020B00075560008000000007F21000800000000A5
:1020C0007F210008000000007F2100087F21000818
:1020D0007F21000800000000000000000000000058
:1020E00000000000000000007F2100080000000048
:1020F00000000000000000000000000000000000E0
:102100007F21000800000000000000007F2100087F
:1021100000000000000000000000000000000000BF
:1021200000000000000000000000000000000000AF
:10213000000000000000000000000000000000009F
:102140000000000000000000000000007F210008E7
:10215000DFF80CD000F01AF900480047B961000818
:10216000D81000200648804706480047FEE7FEE7F3
:10217000FEE7FEE7FEE7FEE7FEE7FEE7FEE7FEE737
:10218000B94D00085121000838B5D0E90221491E97
:1021900001EB410102EBC1014268C1EB011102EB0D
:1021A00081010268C1EB011102EB8102D0E9043127
:1021B00001EB410103EB81013023A1F5527191FB49
:1021C000F3F4174D6C4302EBC41291FBF3F403FBE1
:1021D000141100921A2902DB124B1A4400920C22AD
:1021E00091FBF2F3104C6343009C04EBC313009388
:1021F00091FBF2F302FB13110C4A08E0491E40F276
:10220000A324535C6343009C04EBC3130093002995
:10221000F4DC0146684600F073F8009838BD000011
:102220003F0C0F008051010067C20300F06E0008F0
:1022300040EA01039B0703D009E008C9121F08C048
:10224000042AFAD203E011F8013B00F8013B521EC8
:10225000F9D27047D2B201E000F8012B491EFBD23F
:1022600070470022F6E710B513460A4604461946A1
:10227000FFF7F0FF204610BD30B5044600200346AE
:1022800000E05B1C934203D2E05CCD5C401BF8D0C5
:1022900030BD2DE9F05F0546002092469B468846FA
:1022A0000646814640241BE02846414647462246D2
:1022B00000F08DF853465A46C01A914110D311468A
:1022C0001846224600F074F82D1A67EB01084F46B5
:1022D00022460120002100F06BF817EB00094E4167
:1022E000201EA4F10104DFDC484631462A4643465D
:1022F000BDE8F09F014900F003B80000A80C0020E1
:1023000010B500683C22B0FBF2F302FB1303B0FBF4
:10231000F2F00B60B0FBF2F302FB1303B0FBF2F040
:1023200018224B60B0FBF2F302FB1303B0FBF2F098
:10233000021D8B600723B2FBF3F403FB1422800021
:1023400040F2B55300F66C308A61B0FBF3F2B0FB9B
:10235000F3F403FB1400443280084A61C8613B284F
:1023600002D3920700D0401C0022074C13460A619A
:10237000E25C824203D8801A5B1C0B61F8E7401CC8
:10238000C860084610BD0000FC6E0008064C074DF2
:1023900006E0E06840F0010394E807009847103435
:1023A000AC42F6D3FFF7D8FE506F0008706F0008FC
:1023B000202A04DB203A00FA02F100207047914005
:1023C000C2F1200320FA03F3194390407047202AFA
:1023D00004DB203A21FA02F00021704721FA02F3CF
:1023E000D040C2F1200291400843194670470000D6
:1023F00070B50446AA2020705520607010480D4624
:1024000010F8211F61710178491C0170681D6080FE
:1024100001202071281DA27181B2E371201D01F0FD
:1024200013FA01466019093501720D2141720A2122
:102430008172AAB22146BDE87040012003F048B97C
:102440001407002000F00F01000900EB800001EBF1
:102450004000C0B2704700002DE9FC470027054648
:10246000914688463C46AA46960801972CE05FEACA
:10247000897020D0721C4146504600F0C5FF0422EE
:1024800001A9504600F08BFED8F80000019988425F
:1024900016D02046641CE4B232280ED901F08EF921
:1024A000014639230A4A0BA0009503F09BF94FF02F
:1024B000FF30BDE8FC873246DDE700F06EFED6E770
:1024C0002D1D08F104083F1D4F45D0D30020F0E733
:1024D000986E00085B5831304B422025735D2025F3
:1024E000733A2825642920666C617368D0B4CAFDEC
:1024F000BEDDB3F6B4ED5B2523785D21200A000034
:1025000010B501F009FC03F033F900F046FE01229A
:102510004FF47A742146104602F0CCFD02F062FDC1
:1025200002F050FB204600F036FD03F0C1F802F047
:10253000F5F9204600F02FFD01F03AFC02F086FC90
:1025400007A003F04FF902F0FBFD00F097FD08A093
:1025500003F048F9BDE8104009A003F043B90000BA
:102560005573617274496E6974204F4B210D0A00D6
:102570000D0A20427370496E6974206F6B0A000067
:102580000A3D3D3D3D3D3D3D3D3D3D3D3D3D3D3DAE
:102590003D3D3D3D3D3D3D3D3D3D3D3D3D3D3D3D6B
:1025A0003D3D3D3D3D3D3D3D3D3D3D3D3D3D3D3D5B
:1025B0003D3D3D3D3D3D3D3D3D3D3D3D0A0A0A0021
:1025C00070B5A0B00E46054680216846FFF749FE6B
:1025D0006C468DF80850102231460DF10900FFF7C6
:1025E00027FE02231A4611212046FFF701FF20B0E3
:1025F000002070BD30B5A1B00D460446802168466C
:10260000FFF72FFE8DF808402968CDF809106846BD
:10261000012302220521FFF7EBFE21B0002030BD8F
:10262000FEB5224D002495F86000012839D102AA98
:10263000694601A802F076FE002832D101F046F981
:102640001B4E00276B46306085F86070194A0221E6
:10265000384601F06BFE20B9012469462046FFF799
:10266000C9FF02F079FE002C1BD102AA694601A81D
:1026700002F058FE002814D101F028F9306085F8E6
:1026800060706B460B4A0C21002001F04FFE48B1F0
:1026900009A003F0A7F869460220FFF7ABFF02F09C
:1026A0005BFEFEBD69460120F7E70000140700202D
:1026B0000400002008000020B7C7C3DCD4BFBFA8B7
:1026C0000A00000070B50D46044602F025F920EA24
:1026D00005012046BDE8704003F07FB810B58021A9
:1026E0000A2002F023FA0A2002F016F9002800D08E
:1026F000012010BD2DE9FC476B4C01F0E7F80746BF
:102700004FF008080025694EC0E000F046FDDFF8F4
:10271000A091B4E000F041FD01F0D8F80746307810
:10272000092837D2DFE800F0050D183D4D5B6A7FC0
:1027300091009DF80400AA28EBD120700120708040
:102740005AE09DF80400552824D170885521215461
:10275000401C708002204FE07088022802D00328BD
:1027600004D01AE09DF80410B18016E0B1889DF8FD
:10277000042041EA0221B180757005290BD201F0D5
:102780001DF80146B088009040F2DD23494A4AA076
:1027900003F028F872E0032131709DF804102154F1
:1027A0003EE09DF80410012968D17078401C7070DB
:1027B00070882154B188491EB180401C708004206B
:1027C0001AE070789DF804100844707070882154E5
:1027D000B188491EB180401C708005200CE07078E3
:1027E0009DF804100844707070882154B188491E07
:1027F000B180401C70800620307040E070789DF8F9
:1028000004100844707070882154B188491E09046E
:10281000090CB18002D00721317001E086F80080F8
:10282000401C70802BE070789DF804100844707094
:1028300070882154401C7080B088401E80B2B080E7
:1028400001281CD186F8008019E070889DF80410DA
:102850002154401C81B271809DF80400727890422E
:1028600003D1204601F04AFD08E000F0A7FF014631
:1028700040F232330F4A1AA002F0B4FF357001A9BA
:10288000484600F0B7FB00283FF444AF01F01EF8C3
:1028900007F10A01884204D801F018F8B842BFF4E1
:1028A00034AFBDE8FC870000EB01002014000020DD
:1028B000840900203D6E00085B5831304B422025D2
:1028C000735D2025733A28256429206C656E677432
:1028D000683D25642C6572726F722E0A000000003C
:1028E0005B5831304B422025735D2025733A2825F3
:1028F000642920434220636865636B73756D2065AE
:1029000072722E0A000000002DE9F04389B00F46D4
:1029100004460126002500F051FF0146207CA37CDF
:10292000627C8DE80D002823864A87A002F05AFFBA
:102930007A1C214691A001F0A7FF207C4FF00108EE
:1029400016285FD008DC05283BD00A286ED0132853
:102950006DD015280BD140E0172869D08B4F28285F
:1029600067D04FF0A5092B287ED099280AD000F017
:1029700025FF0146207C00909423724A84A002F037
:1029800031FFD5E0607C68B100F018FF01463723C5
:102990006C4A8CA002F026FF84F8128087F8315030
:1029A0000226C9E000F00AFF01463023654A8EA0E6
:1029B00002F018FFA57487F8319000F087FF786364
:1029C000EEE700F0FBFE014640235E4A8FA002F0D6
:1029D00009FF022001F01EFFADE000F0EFFE01460E
:1029E0004623584A93A002F0FDFE207D617CE27CE4
:1029F00000EB0160A17C090401EB0221084402F014
:102A00005BF898E000F0DAFE014651234D4A93A0AE
:102A100002F0E8FE00F024FF9A4A851841F1000612
:102A200000F0CCFE01465523464A03E03DE059E064
:102A300076E079E094A0009502F0D4FE280E40EAFA
:102A400006206074280C40EA0640A074280A40EA78
:102A50000660E074257503A803F034FE9DF80C00B1
:102A6000FFF7F0FC607500E01AE09DF80D00FFF73D
:102A7000E9FCA0759DF80E00FFF7E4FCE0759DF8F9
:102A80001000FFF7DFFC20769DF81100FFF7DAFC5D
:102A900060769DF81200FFF7D5FCA0760A264BE081
:102AA00087F8309009B0BDE8F08300F087FE01465A
:102AB000607C00906C23234A7DA002F093FE607C32
:102AC00070B10220A074E57400F078FE0146E27C4B
:102AD000A07CCDE9000275231A4A82A002F082FE92
:102AE000032629E0657401222146002001F06AFFD7
:102AF00000F064FE01467D23124A83A002F072FEBC
:102B00004FF47A7000F047FABFF34F8F8A49086894
:102B10008A4A00F4E06010430860BFF34F8FFEE77D
:102B200000F050FB607407E097F82200A52802D05F
:102B300084F8118000E0657432462146002001F0DF
:102B400041FFAFE7C76D00085B5831304B4220258D
:102B5000735D2025733A2825642920636F6D636FA8
:102B60006D20636D64203D205B2523785D2C205B08
:102B700025645D2C205B25645D0A00004465627558
:102B800067BDD3CAD5CAFDBEDD0000001407002012
:102B90005B5831304B422025735D2025733A282540
:102BA000642920B4EDCEF3636F6D636F6D20636DA8
:102BB00064203D205B2523785D2C206572726F7246
:102BC0000A0000005B5831304B422025735D202500
:102BD000733A2825642920B9D8B1D5C9CFCEBBBB5B
:102BE000FABCECB2E2210A005B5831304B4220259E
:102BF000735D2025733A2825642920B4F2BFAAC941
:102C0000CFCEBBBBFABCECB2E2210A005B5831303C
:102C10004B422025735D2025733A282564292044E2
:102C2000454255475F434D445F5452554D505445BE
:102C3000200A00005B5831304B422025735D20256F
:102C4000733A282564292044454255475F434D4443
:102C50005F5345545F525443200A00005B583130A3
:102C60004B422025735D2025733A28256429204492
:102C7000454255475F434D445F5245445F5254437C
:102C8000200A00000073EEBB5B5831304B42202518
:102C9000735D2025733A2825642920474554205226
:102CA0005443CAB1BCE4B4C15B25645D0A000000B2
:102CB0005B5831304B422025735D2025733A28251F
:102CC00064292044454255475F434D445F4745547E
:102CD0005356455220646174615B305D3D2564202C
:102CE0000A0000005B5831304B422025735D2025DF
:102CF000733A2825642920B0E6B1BEBAC55B2564C5
:102D00002E25645D0A0000005B5831304B422025BF
:102D1000735D2025733A2825642920444542554790
:102D20005F434D445F5245424F4F54D6D8C6F4CF0F
:102D3000B5CDB3A3A10A00000CED00E00400FA0534
:102D40002DE9FE43714C00F0C1FD07464FF001082C
:102D500000266F4DCEE000F0B9FD074628780C281C
:102D60002AD2DFE800F0060FC0C01A2A395B687566
:102D70008DA09DF80800AA281ED120704046A5F815
:102D800002807BE09DF808105529F5D104202870B9
:102D900068882154401C68800DE068889DF8081000
:102DA0002154401C6880A888401C80B2A880052857
:102DB00002D305200EE0AE8095E068889DF80810EB
:102DC0002154401C6880A888401C80B2A880052837
:102DD000F2D306202870EEE768889DF80810215489
:102DE000401C80B26880A988491C89B2A980022948
:102DF00079D3204430F8020CA880FF280AD900F0CB
:102E0000DDFC0146A8880090E423424A42A002F07B
:102E1000E9FC67E0072028706E7064E068889DF820
:102E200008102154401C688068789DF808100844F8
:102E30006870082022E068889DF808102154401C22
:102E4000688068789DF8081008446870092015E0CB
:102E500068889DF808102154401C688068789DF8A7
:102E6000081008446870A888042801D3001F00E0F7
:102E700000200004000CA88013D00A20287032E043
:102E800068889DF808102154401C688068789DF877
:102E9000081008446870A888401E0004000CA88030
:102EA00021D10B20EAE768789DF8081088420BD101
:102EB0006A88214621A001F0E7FC24480671698850
:102EC0002046FFF721FD0DE000F078FC01469DF85B
:102ED00008206878CDE900024FF48A730D4A1CA0DF
:102EE00002F080FC2E7002A9284800F083F8002828
:102EF0003FF431AF00F0EAFC07F10A01884203D841
:102F000000F0E4FCB842EED2BDE8FE83E000002011
:102F10000E000020D46D00085B5831304B42202554
:102F2000735D2025733A28256429206C656E3D2544
:102F3000642C6572726F722E0A000000446562751F
:102F4000675265637650726F630000002C000020AA
:102F50005B5831304B422025735D2025733A28257C
:102F600064292073756D3D253032782C706B742088
:102F700073756D3D253032782C6572726F722C64DA
:102F8000726F7020706B742E0A00000078090020A8
:102F9000642000F00DB870B5054600244FF47A7631
:102FA00003E0304600F004F8641CAC42F9D370BD75
:102FB00070B54FF0E02500216C69094AAB691278C1
:102FC0005043AA699A42FCD002D2A3EB020302E06A
:102FD000A4EB02063344194413468142F1D370BD79
:102FE000700000200028FDD00021C18001814181B6
:102FF00008467047428903899A4213D002890368C0
:103000001344521C02811A780A7081880289914205
:1030100001D800210181C18811B1C188491EC18038
:10302000002070474FF0FF307047002343608360FB
:103030000160828018467047428903899A4242891A
:1030400001D283881A440389D21A8388521C93427E
:1030500010D9428903681344521C42811970C188F7
:10306000491CC18081884289914201D80021418157
:10307000002070474FF0FF30704700002DE9F0410D
:103080000024144D012640F20E2700F086F800F0CF
:103090006FF880B100F081F8641CE4B2AE7000F00B
:1030A0008DFB01463B460C4A0CA002F09BFB322CE8
:1030B000EBD3BDE8F08100F070F80020A87000F0BC
:1030C0007DFBBDE8F041014640F20523024A0EA017
:1030D00002F088BB1E000020B06E00085B58313043
:1030E0004B422025735D2025733A2825642920460C
:1030F0004D31373558585F496E6974206572726F6B
:10310000722E0D0A000000005B5831304B42202522
:10311000735D2025733A2825642920464D313735C3
:1031200058585F496E6974204F4B2E0D0A000000FD
:1031300010B50E4C4021204602F0A7FE0A20FFF7F2
:103140002AFF00F02AF84021204602F0A0FE0A20C3
:10315000FFF721FF00F021F8012001F0DDFB20281E
:1031600001D0012010BD002010BD00000014004857
:1031700010B500F012F801F057FDFFF7D9FF10B1BC
:103180004FF0FF3010BD00F008F8002001F092FA77
:10319000032001F0D7FC002010BD02F03BBE10B5AB
:1031A000002303E010F8014BCC545B1C9342F9D38D
:1031B000002010BD0A4601460148FFF7F0BF00009D
:1031C00000F00108F8B516480024164D009002F0F2
:1031D000BFFD284602F07EFD342002F06DFD02F0B6
:1031E00071FD6E14042269462846FFF735F948B18F
:1031F00000F0E4FA014656230B4A0CA002F0F2FA62
:103200000120F8BD241D2D1DB442EBD300F0D6FAE9
:1032100001465D23044A10A002F0E4FA0020F8BD44
:103220006655443300FC0108A66E00085B58313037
:103230004B422025735D2025733A282564292046BA
:103240006C61736854657374206661696C65642190
:103250002121200A000000005B5831304B4220251C
:10326000735D2025733A2825642920466C617368B4
:1032700054657374204F4B212121200A0000000067
:103280002DE9F05F154689468346FFF786FF02F079
:103290005FFDABF10060C0F30906C6F580644FEA3C
:1032A0009028A54200D82C46FFF777FF4FF000602A
:1032B00000EB882082464FF480622849FFF76FFFB9
:1032C00000270EE02548F119405CFF2808D000F0E7
:1032D00075FA01467D23224A22A002F083FA02E019
:1032E0007F1CA742EED3A74214D2504602F0F2FC54
:1032F000342002F0E1FC0020184A04E019F8001024
:103300008319401CD154A042F8D350464FF4807228
:10331000124906E0A0074FEA940200D0521C494629
:10332000584600F071F8A5420CD100F047FA01466A
:1033300093230B4A13A002F055FA02F0C3FC0020BD
:10334000BDE8F09F281BA144A344002685B24FF49A
:10335000806408F10108A542A6D8A4E7EB0200208A
:10336000616E00085B5831304B422025735D20258B
:10337000733A2825642920D0E8D2AAB2C1B3FD2E21
:103380000A0000005B5831304B422025735D202538
:10339000733A2825642920D0B4CDEAB3C9B9A62E42
:1033A0000A0000002DE9FC410024124D0E4607469C
:1033B00000940194324639462846FFF761FF0822FF
:1033C00069462846FFF7EBFE324639466846FEF767
:1033D00053FF18B1641C052CECD301E0052C06D377
:1033E00005A002F0FFF94FF0FF30BDE8FC8100209E
:1033F000FBE7000000F00108D0B4666C617368B4AC
:10340000EDCEF321200D0A002DE9F84390468946C0
:10341000064602F09DFC00254FF47A771AE000245E
:10342000342002F049FC59F82510304602F0A0FC87
:10343000B8B10120FFF7AFFD2046641CB842F8D9AF
:1034400000F0BCF901464123074A08A0009602F0AB
:10345000C9F96D1C4545E2D302F034FC0020BDE8FB
:10346000F883361DF5E70000526E00085B583130D6
:103470004B422025735D2025733A2825642920D0EE
:10348000B4666C617368B3ACCAB12C205B3078252C
:10349000785D2C20B4EDCEF3212121200A0000001C
:1034A00010B5022003F0E0FB012003F05DFB0C4CA3
:1034B000012802D103F062FB60800948618808306E
:1034C0004088401A202806DD05480B21801E017027
:1034D00004A002F087F9BDE81040022003F0E2BA30
:1034E000860000205B4B65793A2025645D0A000068
:1034F00070B5202003F0B8FB012003F035FB244D0C
:10350000012802D103F040FB6880214E698808360B
:10351000A6F11A047088401A202804DD00212170C9
:103520001CA002F05FF9202003F0BCFA402003F059
:103530009BFB012003F018FB012802D103F024FBC0
:10354000A880B088A988401A202804DD0A212170AB
:1035500013A002F047F9402003F0A4FA802003F002
:1035600083FB012003F000FB012802D103F00CFBD8
:10357000E880F088E988401A202804DD09212170BC
:1035800004A002F02FF9BDE87040802003F08ABA51
:10359000960000205B4B65793A2025645D0A0000A7
:1035A0005BB7B5BBD84B65793A2025645D0A00004E
:1035B0002DE9F0414FF48067384603F055FB0120B8
:1035C00003F0D2FA194C012802D103F0E3FAA080EB
:1035D000164EA1880836A6F12A05B088401A202880
:1035E00004DD0821297012A002F0FCF8384603F02F
:1035F00059FA4FF40067384603F036FB012003F018
:10360000B3FA012802D103F0C5FAE080F088E1881E
:10361000401A202804DD0721297005A002F0E2F8F5
:103620003846BDE8F04103F03DBA0000A600002096
:103630005B4B65793A2025645D0A00002DE9F04175
:103640004FF40057384603F00FFB012003F08CFACB
:10365000264C012802D103F0A3FA6080234E618832
:103660000836A6F13A057088401A202804DD0221A8
:1036700029701FA002F0B6F8384603F013FA4FF491
:103680008047384603F0F0FA012003F06DFA012874
:1036900002D103F085FAA080B088A188401A2028C2
:1036A00004DD0121297012A002F09CF8384603F0D5
:1036B000F9F94FF48057384603F0D6FA012003F0A9
:1036C00053FA012802D103F06BFA20803088218858
:1036D000401A202804DD0321297005A002F082F899
:1036E0003846BDE8F04103F0DDB90000B600002027
:1036F0005B4B65793A2025645D0A00002DE9F041B5
:103700004FF40017384603F0AFFA012003F02CFA0B
:10371000264C012802D103F049FA6080234E6188CB
:103720000836A6F14A057088401A202804DD0621D3
:1037300029701FA002F056F8384603F0B3F94FF491
:103740008007384603F090FA012003F00DFA0128B3
:1037500002D103F02BFAA080B088A188401A20285B
:1037600004DD0521297012A002F03CF8384603F070
:1037700099F94FF40007384603F076FA012003F078
:10378000F3F9012802D103F011FAE080F088E18812
:10379000401A202804DD0421297005A002F022F837
:1037A0003846BDE8F04103F07DB90000C6000020B6
:1037B0005B4B65793A2025645D0A00001FB50D4812
:1037C00002F080FF0B483C3890F83E1090F84240E1
:1037D00090F8413090F840208DE81E0090F83D3080
:1037E00090F83C2004A10B4802F00CF804B0094802
:1037F00010BD000050070020253278253032782592
:1038000030327820253032783A253032783A2530F7
:1038100032780000A80A002010B5FFF7BEFC094C62
:10382000FF202070FFF73CFEFFF762FEFFF7C0FEAF
:10383000FFF704FFFFF762FF2078BDE8104000F0BB
:1038400035BA000084000020034610B5002002466F
:1038500003E09C5C521C2044C0B28A42F9D310BDE4
:1038600000B591B014210BA8FEF7FBFC0BA802F0E9
:1038700029FF2C216846FEF7F4FC9DF82C00FEF78A
:10388000E1FD05909DF82D00FEF7DCFD04909DF80C
:103890002E00FEF7D7FD03909DF82F00FEF7D2FD16
:1038A00006909DF83000FEF7CDFD02909DF83100A6
:1038B000FEF7C8FD01909DF83200FEF7C3FD0090B1
:1038C0006846FEF761FC11B0002100BD0148C068E8
:1038D000704700001C000020064B4FF400411A788E
:1038E000501C187004481AB100221A7002F0CDBAA8
:1038F00002F0CDBA78000020000800480A21B0FB91
:10390000F1F201FB1202B0FBF1F002EB0010C0B2C9
:1039100070470000002909D1054A00284FF0020134
:10392000104601D002F0B3BA02F0AFBA70470000FF
:10393000000400482DE9F041144E00254FF4805753
:10394000022003F091F9012003F00EF9012803D1C0
:1039500003F014F926F81500022003F0A3F83C4602
:10396000641EFDD16D1C142DEAD30949012036F8DF
:1039700010304A88401C1A444A801428F7D390B269
:103980001322B0FBF2F04880BDE8F081C80A0020A5
:103990008E0000202DE9F0412E4D00244FF4805878
:1039A00005F1280605F15007202003F05DF90120FC
:1039B00003F0DAF8012803D103F0E6F825F8140043
:1039C000202003F06FF8402003F04EF9012003F0AF
:1039D000CBF8012803D103F0D7F826F814004020D3
:1039E00003F060F8802003F03FF9012003F0BCF8F9
:1039F000012803D103F0C8F827F81400802003F051
:103A000051F84046401EFDD1641C142CCCD3124901
:103A100001204A8835F810301A444A808A8836F8DE
:103A200010301A448A8037F81030CA88401C1A4473
:103A3000CA801428EDD34A881320B2FBF0F24A80E2
:103A40008A88B2FBF0F28A80CA88B2FBF0F0C880A4
:103A5000BDE8F081F00A00209E0000202DE9F0472B
:103A6000244D00244FF480684FF400694FF4805ACD
:103A700005F128064746404603F0F6F8012003F01A
:103A800073F8012803D103F085F825F814003846AF
:103A900003F008F84F46484603F0E6F8012003F02B
:103AA00063F8012803D103F075F826F814003846AE
:103AB00002F0F8FF5046401EFDD1641C142CD9D3EF
:103AC0000D4901208A8835F810301A448A8036F86A
:103AD0001030CA88401C1A44CA801428F2D38A883D
:103AE0001320B2FBF0F28A80CA88B2FBF0F0C880E3
:103AF000BDE8F087680B0020AE0000202DE9F05FE4
:103B0000324D00244FF4005A4FF4804B4FF480594B
:103B100005F1280605F150085746504603F0A4F871
:103B2000012003F021F8012803D103F039F825F82A
:103B30001400384602F0B6FF5F46584603F094F88A
:103B4000012003F011F8012803D103F029F826F829
:103B50001400384602F0A6FF4F46484603F084F8AA
:103B6000012003F001F8012803D103F019F828F827
:103B70001400384602F096FF7F1EFDD1641C142C01
:103B8000CAD31349012043464A8835F810402244DD
:103B90004A808A8836F8104022448A8033F81040E0
:103BA0000A88401C22440A801428EDD34A88132036
:103BB000B2FBF0F24A808A88B2FBF0F28A800A886F
:103BC000B2FBF0F00880BDE8F09F0000B80B0020C9
:103BD000BE0000202DE9F05F324D00244FF40019A3
:103BE0004FF4800A4FF4000B05F1280605F1500749
:103BF000C846484603F038F8012002F0B5FF012816
:103C000003D102F0D3FF25F81400404602F04AFF2A
:103C1000D046504603F028F8012002F0A5FF012805
:103C200003D102F0C3FF26F81400404602F03AFF29
:103C3000D846584603F018F8012002F095FF0128F5
:103C400003D102F0B3FF27F81400404602F02AFF28
:103C50004FF48050401EFDD1641C142CC8D312496F
:103C600001204A8835F810301A444A808A8836F88C
:103C700010301A448A8037F81030CA88401C1A4421
:103C8000CA801428EDD34A881320B2FBF0F24A8090
:103C90008A88B2FBF0F28A80CA88B2FBF0F0C88052
:103CA000BDE8F09F300C0020CE00002038B504465F
:103CB000FF280CD00B2C0AD800F01CF8FFF77EFD73
:103CC00001468E23024A03A0009401F08BFD38BD0B
:103CD000D96E00085B5831304B422025735D20259A
:103CE000733A28256429205B6B65793A2025645D49
:103CF0000D0A000010B5A0B0044680216846FEF70A
:103D0000B0FA012368468DF808401A461946FEF7B6
:103D10006FFB20B0002010BD70B540F2135002F0D0
:103D20009BFC084D4FF400440122234611462846CF
:103D300002F0E7F923462846BDE87040032200213F
:103D400002F003BA0008004813B50C466846FEF7B7
:103D5000D1FA017E2170017D64396170017C491CBA
:103D6000A170017BE170017A0831217101796171E3
:103D70000078A07104E018382071E078401CE070F1
:103D800020791828F7D204E03C3860712079401C73
:103D9000207160793C28F7D204E03C38A07160794A
:103DA000401C6071A0793C28F7D200201CBD0000A7
:103DB0002DE9FC4127212D48FEF753FA2C48002419
:103DC000082104600E30FFF7F5F9284864212830F7
:103DD000FEF747FA254901202831264F81F8600077
:103DE000384600F069FE224D234E0E352868B04259
:103DF0000BD122A001F0F6FCFFF7E0FC01464723BF
:103E00002E4A2FA001F0EEFC15E036A001F0EAFCEE
:103E1000FFF7D4FC01464C23284A42A001F0E2FC03
:103E2000384600F049FE12480821801E44611030D7
:103E30002E60FFF7B7FAFFF7C1FC0225CDE9005469
:103E4000014653231D4A414801F0CCFCFFF7B6FC64
:103E500001463FA241A0CDE900025423174A42A0E7
:103E600001F0C0FC01480570BDE8FC81EC060020B3
:103E70001E000020FFF3255CAE5634120A0A0A3DEC
:103E80003D3D3D3D3D3D3D3D3D3D3D3D3D3D3D3D62
:103E90003D3D3D3D3D3D3D3D3D3D3D3D3D3D3D3D52
:103EA0003D3D3D3D3D3D3D3D3D3D3D3D3D3D3D3D42
:103EB0003D3D3D3D3D3D3D3D3D3D0A006C6E0008B4
:103EC0005B5831304B422025735D2025733A2825FD
:103ED0006429200D5538537562C6F4B6AF41707031
:103EE0000A0000000A0A0A2A2A2A2A2A2A2A2A2A30
:103EF0002A2A2A2A2A2A2A2A2A2A2A2A2A2A2A2A22
:103F00002A2A2A2A2A2A2A2A2A2A2A2A2A2A2A2A11
:103F10002A2A2A2A2A2A2A2A2A2A2A2A2A2A2A2A01
:103F20002A2A0A005B5831304B422025735D202538
:103F3000733A28256429200D5538537562B3F5B4BA
:103F4000CEC6F4B6AF4170700A000000086F0008DA
:103F500031313A32313A3135000000004A616E2089
:103F600020372032303139005B5831304B42202528
:103F7000735D2025733A28256429200A20CEC4BC0D
:103F8000FEB1E0D2EBCAB1BCE42C20D4C2C8D5C487
:103F9000EA20257320CAB1B7D6C3EB2573200A00E7
:103FA0001CB50446C0792C4B06284DD2DFE800F042
:103FB0004C030E213743294901200870FFF7FEFB0F
:103FC00001464FF49673264A26A010E000220221F3
:103FD000104600F051FD207A01280BD0022808D1AC
:103FE000FFF7ECFB01464FF49D731D4A28A001F03A
:103FF000F9FB1CBDFFF7E2FB014640F23513184AFE
:104000002FA001F0EFFBBFF34F8F38480168384A0B
:1040100001F4E06111430160BFF34F8FFEE7082216
:1040200004F108011846FFF72BF90022042110467D
:1040300000F022FD1CBD082269461846FFF7AFF8C4
:10404000684600F062FA1CBDFFF7B8FB01464FF46A
:10405000A773034A27A0CAE700F801080000002060
:10406000026E00085B5831304B422025735D2025DD
:10407000733A2825642920726563762073797374F6
:10408000656D20696E666F2061636B2E2E0A0000DD
:104090005B5831304B422025735D2025733A28252B
:1040A000642920426C7565426C7565746F6F746825
:1040B0005F526573657420726571202E0A000000DE
:1040C0005B5831304B422025735D2025733A2825FB
:1040D000642920CAD5B5BDD6F7B0E5B5C4B8B4CE0D
:1040E000BBCFB5CDB3C7EBC7F32E0A000CED00E094
:1040F0000400FA055B5831304B422025735D2025C2
:10410000733A2825642920B4EDCEF32E0A0000006E
:1041100070B58AB004460020009001900290039090
:10412000E07901280ED0022812D003284FD0FFF7E3
:1041300045FB01464FF40073464A47A001F052FB8D
:104140000AB070BD207A0028FAD001F005F9F7E72F
:1041500060880828F4D3A0680490A089ADF8140002
:10416000062204A943A000F08FFBA57BE47B29462F
:10417000224642A001F036FB08AA06A907A801F0D2
:10418000D1F838B101F0E8F869460120FEF718FAD5
:1041900043A00DE006AB04AA2946002000F0C6F8B3
:1041A00048B101F0D9F869460120FEF709FA42A0AA
:1041B00001F018FBC4E704EB8500C0B2694600F0CB
:1041C000F9F80028DED16946FEF7FAF9BDE7A068E4
:1041D0000490A089ADF81400A67BE07B00EB86007C
:1041E000C5B201F0B9F808AA06A907A801F09AF823
:1041F00030B906AB04AA3146002000F097F840B170
:1042000032A001F0EFFA01F0A7F8012001F0C6FAA0
:1042100096E704F11006082D0BD03146284600F031
:10422000E7F8A0B12DA001F0DDFA012001F0B6FA07
:104230008BE70F213046FFF707FBE17F884284D1EF
:104240003146082000F0D4F808B128A0EBE70020A0
:10425000ECE70000156E00085B5831304B4220251A
:10426000735D2025733A2825642920B4EDCEF32E02
:104270000A0000006B65794100000000D1B0BFA8C2
:104280002C20736563746F72203D2025642C20629E
:104290006C6F636B203D202564200D0A0000000038
:1042A0004361726420417574686F72206661696C45
:1042B00065642E0D0A000000C3DCC2EBC8CFD6A493
:1042C000C3BBD3D0CDA8B9FD0D0A00005752495445
:1042D00045206661696C65642E0D0A00D0B4BFA8E4
:1042E000BFE978CAA7B0DC0D0A000000D0B4BFA8AF
:1042F000BFE938CAA7B0DC0D0A00000070B50D4652
:104300000446FEF74AFFA2794AB1012A0DD0022ADB
:104310000BD129462046BDE87040FFF7F9BE29467B
:104320002046BDE87040FFF73BBE70BD00B587B0CA
:1043300010B1012802D004E0602000E061208DF877
:10434000040088008DF8050010788DF8060050787C
:104350008DF8070090788DF80800D0788DF8090066
:1043600010798DF80A0050798DF80B0018788DF8C7
:104370000C0058788DF80D0098788DF80E00D878DC
:104380008DF80F00012000F01BFAFEF7A7F905A831
:10439000009004AB0C2201A90E2000F0CDF838B932
:1043A000082000F0B9FA000702D5002007B000BDD0
:1043B0000120FBE73EB504460D46012000F000FA5F
:1043C00030228DF804208DF80540FEF787F902A809
:1043D00000902B46022201A90C2000F0ADF810B984
:1043E0000298802801D001203EBD00203EBD000083
:1043F00030B504468BB00D46012000F0E1F9A02154
:104400008DF814108DF8154009AC01AB022205A9F6
:104410000C20009400F090F80998042801D00120A5
:1044200000E000209DF8041001F00F010A2901D0DE
:10443000012200E00022104307D0FFF7BFF9014638
:1044400040F2EB13144A15A021E0052000F0B8F962
:1044500001AB102229460C20009400F06DF8099859
:10446000042801D0012000E000209DF8041001F094
:104470000F010A2901D0012100E00021084309D0E1
:10448000FFF79CF901464FF4FA73034A0FA001F0BD
:10449000A9F901200BB030BDBF6E00085B58313068
:1044A0004B422025735D2025733A28256429204D31
:1044B00069666172655F426C6F636B777269746580
:1044C00020B4EDCEF3313A0A000000005B583130E1
:1044D0004B422025735D2025733A28256429204D01
:1044E00069666172655F426C6F636B777269746550
:1044F00020B4EDCEF3323A0A0000000010B5FEF70A
:104500004CFEBDE81040FEF78BB830B5A1B00446B4
:1045100080216846FDF7A5FE6D46FEF73EFE206849
:104520000290606803900523002208212846FDF7C9
:104530005FFF21B0002030BD2DE9F04799461446B9
:10454000884607460026DDF820A0FEF7C7F8FEF7EC
:1045500024FE20210B2001F040F97F21042001F0EE
:104560003CF90E2F07D14146204601F029F9802160
:104570000D2000F0DBFA80212A2000F0D7FA39461E
:10458000012001F02AF9FEF708FE042000F0C4F92A
:104590000546C00703D020250C2F5CD076E00E2FF7
:1045A00011D0042F12D00C2FEDD1680739D5C4B328
:1045B000202C414629D9202001F002F9203CE4B208
:1045C00008F1200825E0E806DDD560E0680717D58A
:1045D000B4B1202C414604D2204601F0F1F8002469
:1045E00006E0202001F0ECF8203CE4B208F12008BD
:1045F00080210D2000F09AFA0421084601F0EDF820
:104600006806C0D5002CBED141E0204601F0D8F8A4
:10461000002480210D2000F089FA0421084601F0D1
:10462000DCF8280712D5680610D57CB90A2000F0FE
:1046300073F920280AD909EB0601202000F05EF961
:104640002036F6B20821042001F0C7F8A8069AD552
:10465000002C98D100250A2000F05EF907460C20B6
:1046600000F05AF900F007040FB904B1012709EB73
:104670000601384600F042F9F019C0B21CB1C00082
:104680000838011900E0C100CAF800101DB9062061
:1046900000F042F9054680210C2000F047FA202165
:1046A000012001F09AF880210D20FEF70BF8284632
:1046B000BDE8F08710B50446FEF76FFD24B1012C6C
:1046C00045D0022C5DD05AE010210C2000F02EFACB
:1046D0004021152000F02AFA0021122001F07DF877
:1046E0000021132001F079F88021392000F01EFA12
:1046F00001213C20FDF7E6FF07213D20FDF7E2FF09
:1047000003213E20FDF7DEFFFF21332001F065F895
:104710000721322001F061F8F121272001F05DF836
:104720003F21282001F059F80121292001F055F8F6
:104730004021262001F051F80D21192001F04DF8FB
:104740008421182001F049F84021362015E010217D
:104750000C2001F042F88321122001F03EF8832161
:10476000132001F03AF8F421272001F036F8F42163
:10477000232001F032F8002120E001F02EF8002083
:1047800010BD10210C2001F028F89221122001F018
:1047900024F89621132001F020F8F421272001F0BD
:1047A0001CF82021282001F018F84F21232001F0C7
:1047B00014F82021292001F010F807211520DCE74A
:1047C00070B540F29F6100244843611E01224FF6FC
:1047D000FF7301EBC0011D1102EB4400B1FBF0F0CF
:1047E000984202D3641CAC42F6D385B2C4F30721CD
:1047F0002A2000F09BF9E1B22B2000F0EEFF290AFD
:104800002C2000F0EAFFE9B22D2000F0E6FF0020A6
:1048100070BD000070B5054600241A4E09E00A205C
:10482000FEF7B9FB2046641CC82802DD4FF0FF30BC
:1048300070BD2021304601F05FFC0028EFD1082137
:10484000304601F024FBFEF7A3FB0821304601F0BF
:104850001CFBFEF79DFB00240FE0FEF79EFC1021E1
:10486000304601F014FBFEF793FB1021304601F0B7
:104870000CFBFEF78DFB641CE4B2AC42EDD30020D0
:1048800070BD0000000400487CB515460E46044685
:10489000FEF794FF01465C23094A0AA0CDE90045D2
:1048A00000F0A0FF002404E0315D11A000F09AFFA9
:1048B000641CAC42F8D3BDE87C400FA000F092BF6E
:1048C0008D6E00085B5831304B422025735D2025EA
:1048D000733A282564292063616C6C206279202555
:1048E000732C6C656E3D25642C70646174613A00B4
:1048F00025303258000000000A00000070B50D4657
:104900000646002405E0092000F006F82855641C3E
:10491000E4B2B442F7D370BD00F020B810B501F096
:104920006FFFFEF74BFF0146BDE810406A23024AC5
:1049300002A000F057BF0000D16E00085B58313074
:104940004B422025735D2025733A2825642920B326
:10495000F5CABCBBAF205254430A000070B50446F0
:104960004FF400454FF090462946304601F08DFA4D
:10497000802040EA4400C0B200F0C0F900F0BAF96B
:1049800004462946304601F082FA204670BD2DE9E2
:10499000F0410E4607464FF400444FF09045214643
:1049A000284601F072FA7E2000EA470000F0A6F9DE
:1049B000304600F0A3F921462846BDE8F04101F059
:1049C00066BA00003EB50C46AA21217055216170DF
:1049D000E071101DA0810120A073D01C81B215468A
:1049E00004F10E00FEF730FF61194874FEF7E6FE91
:1049F0000146207CA37C627C8DE80D001023094ACF
:104A000009A000F0EFFE05F112021546214615A09F
:104A1000FFF73AFF03B0AAB22146BDE830400020BC
:104A200000F056BEBA6D00085B5831304B4220256D
:104A3000735D2025733A2825642920704672616DC4
:104A4000652D3E686561642E636D64203D205B25A5
:104A500023785D2C205B25645D2C205B25645D0A3A
:104A600000000000B7A2CBCDCAFDBEDDB8F8B2FA97
:104A7000B2E2C8EDBCFE0000F0B5A1B00E4607469C
:104A8000154680216846FDF7ECFB6C468DF8085012
:104A900033463A4601212046FDF7AAFC0B22214667
:104AA00002A0FFF7F1FE21B00020F0BD53656E6457
:104AB0004D73675F41434B001CB56946FFF744F9EE
:104AC0009DF80100FEF71AFF164B03F83C0F9DF806
:104AD0000200FEF713FF58709DF80300FEF70EFF6B
:104AE00098709DF80000FEF709FFD8709DF804004B
:104AF000FEF704FF18719DF80500FEF7FFFE5871E0
:104B00009DF80600FEF7FAFE9871074801681981C2
:104B1000406858810020D860186102483C3001F09C
:104B2000FFFD1CBD140700207C00002070B50C4662
:104B30000546FFF7F1FE40EA0401284600F04DFE6D
:104B4000002070BD70B50446FEF727FB1420FFF768
:104B5000E3FE00F00300A04201D1002070BD34B19B
:104B6000012C06D0022C0ED0032C0ED006E003211F
:104B700000E001211420FDF7A5FD0546C820FEF741
:104B80000AFA284670BD0221F4E703211420FFF73A
:104B9000CDFFF2E770B540F2135001F05DFD084D16
:104BA0004FF40054012223461146284601F0A9FA89
:104BB00023462846BDE870400322002101F0C5BA13
:104BC0000008004810B5002418210C48FDF749FBE7
:104BD0000A48092104EB440200EBC2025170641C34
:104BE000F8D0012181713421C171FFF7D3FF012277
:104BF0003421BDE81040002000F05CBA900A00208B
:104C000058B109280CD00A280DD00123401E83403A
:104C100003EA01001146FEF77DBE11460020FAE7C7
:104C200011460120F7E770472DE9F04140F211509D
:104C300001F012FD40F2165001F00EFD40F212504C
:104C400001F00AFD4FF4004401224FF09045234645
:104C50001146284601F055FA234603220021284632
:104C600001F073FA214E012240231146304601F033
:104C700048FA402303220021304601F066FA1C4F17
:104C8000012208231146384601F03BFA082303228B
:104C90000021384601F059FA0122202311463846F6
:104CA00001F02FFA202303220021384601F04DFAAB
:104CB000102301220021384601F023FA1023032299
:104CC0000021384601F041FA4021304601F0DFF87A
:104CD0002146284601F0DBF82021384601F0D7F8BC
:104CE0003846BDE8F041082101F0CFB80014004873
:104CF00000040048A52000F001B800002DE9F041B3
:104D0000144F0546002428064FF02001384602D5EE
:104D100001F0BDF801E001F0B8F80821384601F0D3
:104D2000B6F80A20FEF744F96806060E1021384648
:104D300001F0E2F940EA06050821384601F0A5F83D
:104D40000A20FEF735F9641CE4B2082CDBD32846B0
:104D5000BDE8F0810004004830B5A1B0802168466C
:104D6000FDF77FFA6C4602ADFEF717FA27220649D7
:104D70002846FDF75DFA0123002227212046FDF792
:104D800037FB21B0002030BDEC06002000B5A1B0FB
:104D900080216846FDF765FA0549684603230968DE
:104DA000029100220421FDF723FB21B0002000BD69
:104DB0001E000020704700001E48016841F00101FC
:104DC000016001688907FCD541681B4A11404160B8
:104DD00041681A4A11404160416821F44001416034
:104DE000016B174A114001630168164A11400160C6
:104DF000C16A154A1140C162016B40F2031291432E
:104E00000163016B21F480310163016B21F00041EA
:104E10000163416B21F001014163D0F8C01021F41E
:104E20008031C0F8C01000218160C0F8CC1001F0C2
:104E300033BD0000001002400C00FF08FFFFC277E6
:104E4000BFFFFFBFFFFFF2FEF0FFFF3F10B540F6D0
:104E50001A1001F075FB01281ED040F61B1001F05E
:104E60006FFB01281FD040F61C1001F069FB0128E0
:104E700020D040F61D1001F063FB012821D040F640
:104E80001E1001F05DFB012822D040F61F1001F03A
:104E900057FB012823D02AE0FEF790FC01466A2345
:104EA000154A16A021E0FEF789FC01466E23124A3E
:104EB0001DA01AE0FEF782FC014672230E4A23A0D1
:104EC00013E0FEF77BFC014676230B4A28A00CE09A
:104ED000FEF774FC01467A23074A2FA005E0FEF78F
:104EE0006DFC01467E23044A35A000F07BFCBDE842
:104EF000104001F045BA00007B6E00085B5831306D
:104F00004B422025735D2025733A2825642920CF44
:104F1000B5CDB3CDE2B2BFB8B4CEBBB9DCBDCCB871
:104F2000B4CEBB0A000000005B5831304B42202554
:104F3000735D2025733A2825642920CFB5CDB3C9E8
:104F4000CFB5E7B8B4CEBB0A000000005B583130E3
:104F50004B422025735D2025733A2825642920CFF4
:104F6000B5CDB3C8EDBCFEB8B4CEBB0A000000009E
:104F70005B5831304B422025735D2025733A28253C
:104F8000642920CFB5CDB3B6C0C1A2BFB4C3C5B9E3
:104F9000B7B8B4CEBB0A00005B5831304B42202575
:104FA000735D2025733A2825642920CFB5CDB3B48D
:104FB000B0BFDABFB4C3C5B9B7B8B4CEBB0A00003E
:104FC0005B5831304B422025735D2025733A2825EC
:104FD000642920CFB5CDB3B5CDB9A6BAC4B8B4CE87
:104FE000BB0A000010B5042001F09AFC0B480C49E4
:104FF0000C4B0068B0FBF1F2B0FBF1F14FF47A70AA
:1050000041434FF0E0201A70026942F0020202614F
:105010004161016941F00101016110BDD80000202A
:1050200040420F007000002070B5174D154C012153
:10503000284601F02DFD00281BD00121284601F053
:1050400023FD617920790022FFF7DAFD2079401CE9
:10505000207120790B280CD1E08A401C80B2E082BC
:10506000A18A884206D2E18A2069405C60710020F2
:10507000207170BDA52020702846BDE8704001F069
:10508000A1BC0000900A0020002C014010B50121B5
:105090008C07204601F0FCFC002807D001212046A7
:1050A00001F0F2FC0248C168491CC16010BD00005B
:1050B0001C0000202DE9FF410446204816460F46FB
:1050C00030F8140001F0C8FA1C4D123555F82400D0
:1050D00001F038FC6B20ADF800000020ADF80C00AA
:1050E000ADF80200ADF8040002978DF80E0055F8F7
:1050F0002400694601F074FC012E10D155F82400FB
:10510000012101F0BDFC55F82400012101F064FCEF
:10511000A5F118000122005D114601F0D5F855F8FF
:10512000240001F009FC55F8240001F050FC002C8B
:1051300002D1286801F046FCBDE8FF812200002072
:1051400010B540F2115001F087FA40F2125001F010
:1051500083FA4FF4A36001F07FFA00F09BFE01F0A8
:10516000B1FCFEF7E7FBFEF715FCFEF777FCFEF758
:10517000C5FCFEF72FFDFEF721FB0146BDE8104000
:1051800040F21233014A02A000F02CBBE56E000889
:105190005B5831304B422025735D2025733A28251A
:1051A0006429205473694B6579496E6974204F4BAB
:1051B0000A0000002DE9F0438DB006460020019062
:1051C0000290039004900590086008710C4620211D
:1051D0008DF818108DF81C008DF820008DF8240033
:1051E00080211220FDF76EFA80211320FDF76AFA64
:1051F00080210E2000F0F1FA00211D2000F0EDFAD0
:105200000DF128080DF1040904AD8DF828609DF812
:1052100018008DF829009DF81C100D2000F0DDFA13
:105220009DF82420214608F10200FDF701F89DF8C1
:105230002400801CC7B20120FFF7C2FA02AB3A4635
:105240000AA90C20CDF80090FFF776F9202867D046
:1052500000072AD50E20FFF75FFB00F01F0709AB00
:1052600008AA06A9384600F01EF907A9384600F03A
:10527000F9F89DF8242002A904A8FCF7D9FF9DF8AD
:1052800024009DF82020284410F8011D11400170D1
:10529000002205E0A05CA95C0843A054521CD2B2D5
:1052A0009DF824008242B0D2F4E70198082802D980
:1052B000C0F3C70600E001269DF8240018B131189C
:1052C00006292DD107E0052E2AD1324602A9204613
:1052D000FCF7AEFF16E02844324602A9401EFCF758
:1052E000A7FF00200CE09DF8241001440A1929446E
:1052F00012F8013D11F8011C0B43401C1370C0B2A1
:10530000B042F0D320786178E2784840A1785140EB
:1053100048402179884203D100200DB0BDE8F083D8
:105320000120FAE770B515460E46044600F038F83D
:1053300080B9617871B9217889090CD131469320FF
:10534000FFF738FF30B92A463146932000F059F86C
:10535000002800D0012070BD1FB550208DF804003A
:1053600000208DF8050001460D2000F036FA80215E
:105370001220FFF7DBFB80211320FFF7D7FB08216A
:105380000846FDF79FF90120FFF71AFA03A80090DD
:1053900002AB022201A90C20FFF7CEF804B010BD29
:1053A0001FB504460020029080211220FDF78AF9E3
:1053B00080211320FDF786F908211320FFF7B6FBA3
:1053C00007210D2000F009FA26208DF80C0001209D
:1053D000FFF7F6F902A8009001AB012203A90C2007
:1053E000FFF7AAF810B90298102802D0012004B0E3
:1053F00010BD9DF8040020709DF80500607000202D
:10540000F5E770B50C46064686B0154600210D201E
:1054100000F0E3F980211220FFF788FB80211320A0
:10542000FFF784FB8DF8046070208DF805000020E4
:1054300001A9225C0B18401CC0B29A700528F8D351
:105440000120FFF7BDF905A8009003AB072201A9D1
:105450000C20FFF771F8002802D19DF80C1029707C
:1054600006B070BDE8B1421E082A02D200EB00105F
:1054700017E0A0F109030201082B03D2803A10447F
:1054800008380EE0A0F11103082B02D210441038A6
:1054900007E0A0F11903072B04D2A2F5C072104453
:1054A000183808707047F0B5042510B958240C70EE
:1054B0001D70441E0126082C02D221340C701E706F
:1054C000A0F10904082C03D231340C7002241C70A2
:1054D000A0F111040327082C02D241340C701F7074
:1054E000A0F11904072C02D2383008701D7008781A
:1054F00000F00700092807D2DFE800F006050709D9
:105500000B0D0F1113001670F0BD1770F0BD0720C2
:1055100008E00F2006E01F2004E03F2002E07F208B
:1055200000E0FF201070F0BD2DE9F05F89460446D1
:105530003E4900EB440001EB800A3D48934630F8B9
:10554000140001F089F83A48001D30F8140001F009
:1055500083F8374F01212037A7F1100857F824208E
:1055600058F8240000F066FC07F10805A5F11006C4
:1055700055F8242056F82400012100F05BFC57F870
:10558000243058F824000122022100F0BAFD57F817
:1055900024004FF6FF7703463A46002100F0D5FD80
:1055A00055F8243056F824000122022100F0A9FD0C
:1055B00055F8243056F824003A46002100F0C5FD85
:1055C000203D55F8240001F095FB55F8240059467C
:1055D00001F05CFB55F82400042101F0DEFB55F8D6
:1055E0002400082101F0E1FBB9F1010F16D155F8B3
:1055F0002400052101F0A6FBA5F10C000122005DAD
:10560000022100F061FE0B484FF4807200EB042190
:105610005046FDF70AFD5046FDF7E4FC55F824001E
:1056200001F080FB0020BDE8F09F00007809002019
:10563000400000207807002070B50C4E0C4C0A4D3D
:105640003146204601F091FB00280CD0204601F0A5
:1056500049FBC1B22846FDF7EFFC31462046BDE8C4
:10566000704001F07ABB70BD780900200500050785
:105670000038014070B50C4E0C4D0A4C314628469E
:1056800001F073FB00280CD0284601F02BFBC1B2BF
:105690002046FDF7D1FC31462846BDE8704001F0B8
:1056A0005CBB70BD84090020050005070044004074
:1056B00010B54FF4964201210020FFF735FF01217C
:1056C000BDE810404FF4E1320846FFF72DBF00005F
:1056D0002DE9F04717468846054600240E4E40F255
:1056E000077910E0FDF759FD18F8041056F8250069
:1056F00001F0FCFA56F82500494601F018FB002895
:10570000F8D0641CA4B2BC42ECD31420FDF743FCD7
:105710000020BDE8F0870000480000202DE9F0419E
:10572000124F05464FF4005600243146384600F02B
:10573000ACFB0820FDF73CFCE8073146384602D0B8
:1057400000F0A5FB01E000F0A0FB0820FDF730FC15
:10575000641C6D08E4B2082CEED33146384600F0E4
:1057600096FBBDE8F0410820FDF722BC0008004888
:1057700010B54FF41064204600F0F2FE204600F011
:10578000FDFE0128FAD104214FF47F6000F01AFBDE
:1057900000F040FBBDE8104000F044BB10B5A0B0E5
:1057A000044680216846FCF75CFD68468DF8084099
:1057B000032302220121FCF71BFE20B0002010BDB4
:1057C00070B50D460646002404E0295D092000F06E
:1057D00004F8641CB442F8D370BD10B5FFF7D7F8D5
:1057E000002010BD0FB4054B10B503A9044A029860
:1057F00000F02CF810BC5DF814FB0000A55D00085B
:10580000DC0000200FB4084B10B504A902AA0398CD
:1058100000F01CF8044602A9002000F048FA2046D7
:1058200010BC5DF814FB0000AF5C000802E008C883
:10583000121F08C1002AFAD170477047002001E00A
:1058400001C1121F002AFBD1704700002DE9FF4F54
:105850008DB00F460546002606E025280BD0DDE971
:105860000F1290476D1C761C28780028F5D111B0D6
:105870003046BDE8F08F0024A246A1460122EC4943
:1058800000E0044315F8013F203B02FA03F0084210
:10589000F7D128782A2810D06FF02F022878A0F1AD
:1058A0003001092914D80AEB8A0102EB410144F0C6
:1058B000020400EB010A6D1CF0E701CF5FEA000A69
:1058C00003D544F40054CAF1000A44F002046D1CEC
:1058D00028782E2817D115F8010F44F004042A283F
:1058E0000ED06FF02F022878A0F1300109290AD8D4
:1058F00009EB890102EB410100EB01096D1CF2E7A4
:1059000057F8049B6D1C28786C280FD006DC4C28B7
:1059100017D068280DD06A2814D104E0742810D05C
:105920007A280FD10DE044F400140AE044F4801406
:1059300001E044F440146978814202D104F58014F6
:105940006D1C6D1C2A786E2A1FD00CDC632A31D0A6
:1059500004DC002A8BD0582A11D1A3E0642A68D035
:10596000692A0CD165E0732A2ED004DC6F2A73D02B
:10597000702A04D19BE0752A6FD0782A6ED0104629
:10598000DDE90F129047761C50E1C4F30250022863
:1059900006D0032809D0042801CF09D0066045E1CC
:1059A00001CFF117C0E9006140E101CF06803DE180
:1059B00006703BE117F8040B8DF8000000208DF80D
:1059C0000100EB46012003E057F804BB4FF0FF3025
:1059D00061074FF0000102D40DE008F10101884693
:1059E00049450FDA8045F8DB1BF808100029F4D18F
:1059F00008E008F1010188468142FADB1BF8081033
:105A00000029F6D1DDE90F23AAEB080081462146E3
:105A100000F036F9304400EB080604E0DDE90F122F
:105A20001BF8010B9047B8F10108F7D22146484610
:105A3000F7E00A21C4F302534FF0000B0891022B48
:105A400004D001CFC117032B09D00AE0FF1D27F0B6
:105A50000707F7E8020108E032E01FE020E000B2AB
:105A6000C117042B01D140B2C117031E71F100030D
:105A700007DA4FF0000CD0EB0C006CEB01012D238A
:105A800002E0230504D52B238DF82430012303E005
:105A9000E30701D02023F7E7984658E00A2110E0F9
:105AA00010210EE010204FF0000B08900CE01021A8
:105AB0004FF0000B44F004044FF00809089103E094
:105AC00008214FF0000B0891C4F30253022B04D0BD
:105AD00001CF0021032B06D006E0FF1D27F00707AA
:105AE000F7E8020103E080B2042B00D1C0B24FF00E
:105AF000000823072BD5702A07D0DDF820C08CF0D2
:105B0000100C5CEA0B0C05D00EE040238DF824301D
:105B1000012308E050EA010306D030238DF8243039
:105B20008DF8252002239846DDF820C08CF0080C63
:105B30005CEA0B0C0BD150EA010301D1630706D5D7
:105B400030238DF824304FF00108A9F10109582ABB
:105B500004D038A20B9208AA0A920BE03AA2F9E705
:105B60005B46089AFCF795FB0B9B9B5C0A9A521EBE
:105B70000A92137050EA0102F2D10A98ADEB0000CC
:105B800000F1200B600702D524F4803401E04FF0CF
:105B90000109D94502DDA9EB0B0000E0002000EB74
:105BA0000B0141440890AAEB010AE00306D4DDE9A9
:105BB0000F232146504600F063F806444FF00009D9
:105BC00008E009A911F80900DDE90F12904709F171
:105BD0000109761CC145F4DBE0030CD5DDE90F2398
:105BE0002146504600F04CF8064404E0DDE90F126F
:105BF00030209047761C0899481E08900029F5DC53
:105C000008E00A980A990078491C0A91DDE90F1208
:105C10009047761CBBF10001ABF1010BF1DC214692
:105C20005046DDE90F2300F019F806446D1C1BE611
:105C30000928010030313233343536373839616262
:105C40006364656600000000303132333435363726
:105C50003839414243444546000000002DE9F041F7
:105C6000044600251E461746880404D405E039463C
:105C70002020B0476D1C641EF9D52846BDE8F08190
:105C80002DE9F041044600251E469046C80301D583
:105C9000302700E02027880404D505E04146384637
:105CA000B0476D1C641EF9D52846BDE8F0810A682E
:105CB000531C0B60107070470149C86070470000AA
:105CC000002002400248016941F0800101617047F3
:105CD0000020024070B505464FF47026304600F0B3
:105CE00017F8002810D1094C206940F0020020610B
:105CF0006561206940F040002061304600F008F8FE
:105D0000216921F00201216170BD000000200240E4
:105D100000B5034600F008F85B1E012802D1002BF5
:105D2000F8D1042000BD000008490020CA68D2074D
:105D300001D001207047CA68D20601D50320704700
:105D4000C9684907FBD502207047000000200240C7
:105D500004480169090603D50349416003494160CC
:105D6000704700000020024023016745AB89EFCD5A
:105D7000F0B506464FF470270D463846FFF7C8FFCA
:105D800000280CD1064C206940F0010020613560EC
:105D90003846FFF7BDFF216921F001012161F0BD07
:105DA0000020024010B50446FDF7F7F90449A5208C
:105DB00081F83100E0B2FFF7B1FC204610BD0000D1
:105DC0001407002030B5124D104B45F255541A46B9
:105DD0002C60EC68521E04F0010402D0002CF8D1B3
:105DE00000E04CB96960E9685B1E01F0020102D075
:105DF0000029F8D102E009B1002030BDC0F30B004A
:105E0000A8604AF6AA202860012030BDFFFF0F00DD
:105E10000030004002494AF6AA200860704700009E
:105E20000030004002494CF6CC400860704700004A
:105E300000300040F0B5046A456A00234FF0010CC1
:105E40004FF00F0E0CFA03F6164206D09E000EFA23
:105E500006F7BC4301FA06F73C435B1C9BB2082BD8
:105E6000F0D308230CFA03F6164207D09E00203E1A
:105E70000EFA06F7BD4301FA06F73D435B1C9BB2E1
:105E8000102BEFD304624562F0BD816270478161DF
:105E9000704700002DE9F0474FF0904801230022A1
:105EA0000221404600F02DF9012300221946404608
:105EB00000F04BF9022300221946404600F021F978
:105EC000002202231146404600F03FF9012203213F
:105ED0004046FFF7AFFF022203214046FFF7AAFF2B
:105EE000102300220221404600F00BF9102300226B
:105EF0000121404600F029F92023002202214046DA
:105F000000F0FFF8002220231146404600F01DF962
:105F1000402300220221404600F0F3F800224023F3
:105F20001146404600F011F980230022022140462C
:105F300000F0E7F8002280231146404600F005F902
:105F4000102203214046FFF775FF2022032140461F
:105F5000FFF770FF402203214046FFF76BFF8022CE
:105F600003214046FFF766FFDFF8889101230022F6
:105F70000221484600F0C5F8012300221946484690
:105F800000F0E3F8022300221946484600F0B9F871
:105F9000002202231146484600F0D7F804230022CD
:105FA0000221484600F0ADF800220423114648467D
:105FB00000F0CBF8012203214846FFF73BFF022205
:105FC00003214846FFF736FF042203214846FFF726
:105FD00031FF4FF48054234600220221404600F056
:105FE00090F8234600220121404600F0AEF8A510AB
:105FF0002B4600220221404600F083F800222B4667
:106000001146404600F0A1F86610334600220221F6
:10601000404600F076F8002233461146404600F034
:1060200094F8E7103B4600220221404600F069F850
:1060300000223B461146404600F087F83A460321CD
:106040004046FFF7F7FE2A4603214046FFF7F2FEDF
:10605000324603214046FFF7EDFE2246032140462B
:10606000FFF7E8FE334600220221484600F049F8D7
:10607000334600220121484600F067F823460022FB
:106080000221484600F03DF80022234611464846CA
:1060900000F05BF865002B4600220221484600F024
:1060A00030F800222B461146484600F04EF8A70073
:1060B0003B4600220221484600F023F800223B46DE
:1060C0001146484600F041F8324603214846FFF7A2
:1060D000B1FE224603214846FFF7ACFE2A460321C3
:1060E0004846FFF7A7FE3A464846BDE8F047032179
:1060F000FFF7A0BE000400480069084000D001205E
:1061000070472DE9F0470568C66800244FF0010A82
:106110004FF003090AFA04F71F420ED0670009FA8C
:1061200007FC25EA0C0526EA0C0601FA07F802FA34
:1061300007FC48EA05054CEA0606641CA4B2102CCC
:10614000E8D30560C660BDE8F087F0B50129416875
:1061500030D099434160846801260327A2F57F412E
:10616000FF3913D0002106FA01F51D4208D04D0079
:1061700007FA05FC24EA0C0402FA05FC4CEA0404C4
:10618000491C89B21029EED38460F0BDC26B002196
:1061900006FA01F51D4206D04FEA410C07FA0CFC45
:1061A0004CEA04042A43491C89B21029F0D38460C4
:1061B000C263F0BD1943CDE7FDF788FB8246054673
:1061C000D146FDF783FB3D4C2F464FF400513E4630
:1061D0008803656000F0C2F84FF4407000F0B4F836
:1061E000FCF78EF9A04641F2883BFCF7D6FFFDF79D
:1061F0006DFB0446FDF76AFB01460AF5FA70814221
:1062000003D2FDF763FB504504D2FDF75FFB8246E6
:10621000FDF762FBFDF75AFB014609F5AF708142BD
:1062200003D2FDF753FB484504D2FDF74FFB8146EF
:10623000FDF7F2FAFCF75EFA05F57A70A04201D993
:10624000A5420CD91E48807848B91E48254690F8CA
:106250002300A52801D0FEF751F9FCF79EFFFDF7BA
:1062600035FBD8F8042002EB0B01884205D2FDF77C
:106270002DFBD8F80410884207D2FDF727FBC8F899
:1062800004001048012180F86010FCF759FD98F8CF
:10629000000040B907EB0B00A04201D9A74202D988
:1062A0002746FEF759FD47F230503044A04201D94D
:1062B000A6429AD92646FEF769FD96E7000000201F
:1062C0001E0000201407002030B51E4D0024234678
:1062D0002D6805F4E065B5F5A06F12D006DCB5F5C4
:1062E000407F14D0B5F5806F12D10DE0B5F5C06FC9
:1062F00004D0B5F5E06F0BD1042309E0012403239A
:1063000006E00224234603E00324012300E00424E2
:10631000C4F10404A140C3F104040F23E34013407B
:106320000B4300F1E022190182F8001400F01F0273
:10633000012191404009800000F1E020C0F80011E7
:1063400030BD00000CED00E002490843024908603E
:10635000704700000000FA050CED00E0024A114011
:10636000014302480160704780FFFF1F08ED00E015
:106370000248016841F4807101607047007000407C
:106380000248416A41F0807141627047001002404A
:106390002DE9F04760A288B074CA8DE874005FA24E
:1063A000614ED2E90042CDE904425CA28046D2E9C6
:1063B0000042CDE9064200207268014603465B4D6B
:1063C000C2F381021AB1012A01D0022A01D02A4661
:1063D00023E072687468C2F38342C4F3C067F46A4E
:1063E000E40F0FB1113200E0921C04B11F32746847
:1063F000F76AC4F30044C7F3807764B1F46A04F029
:106400000F04641C27B14A4FB7FBF4F4624304E065
:10641000B5FBF4F4FAE7474C62437468C4F3031421
:106420001DF8047022FA07F477680DF1100CC7F319
:1064300002271CF8077024FA07F977680DF1180C89
:10644000C7F3C2274FF4004A1CF8077024FA07F775
:10645000B8F1070F06D2DFE808F004080A0C0E3C7A
:106460004400104608B0BDE8F0872046FAE74846E9
:10647000F8E73846F6E7306BC00506D4306BC0034A
:1064800001D42D4923E02D4921E07068C0F3813209
:10649000306BC00F32B1012A09D0022A0ED0032A74
:1064A00015D110E008B1032003E079080FE018B11E
:1064B0000520B7FBF0F10AE0B90808E008B10720B1
:1064C000F7E70620F5E708B10920F2E7F9080846E2
:1064D000C8E7306B400602D448F21200C2E75046CB
:1064E000C0E7306B80070ED0306B00F0030001284E
:1064F0000BD0306B00F00300022808D0306BC04393
:10650000800706D006E03B4604E0134602E053460F
:1065100000E02B461846A5E7000000000000000040
:1065200001020304060708090010024000127A0065
:10653000006CDC0200093D00809FD500003FAB01EC
:10654000064A02EB9011096800F01F0201209040FA
:10655000014201D001207047002070470010024026
:10656000054901EB90110A6800F01F0301209840D3
:1065700002430A60704700000010024070B500231B
:106580004FF40066334D1C46B0421BD005DC30B3DF
:1065900010280ED018285AD14DE0B0F5106F3FD01A
:1065A000B0F5506F26D000F57F60B0F5804F4ED12A
:1065B0002BE01120FFF7C4FF5B1C08B9B342F8D1F0
:1065C000112040E040F601066FF07C453046FFF7B1
:1065D000B7FF5B1C08B9AB42F8D1304633E04FF44B
:1065E000A0650120FFF7ACFF5B1C08B9AB42F8D1F6
:1065F000012028E040F601563046FFF7A1FF5B1C62
:106600000028EAD1AB42F7D1E7E743F21106304662
:10661000FFF796FF5B1C0028DFD1AB42F7D1DCE728
:1066200040F601163046FFF78BFF5B1C0028D4D1E3
:10663000AB42F7D1D1E71920FFF782FF5B1C08B905
:10664000AB42F8D11920FFF77BFF00B101242046AF
:1066500070BD0000FFFF0F00054901EB90110A68B3
:1066600000F01F030120984002430A6070470000B9
:1066700000100240054901EB90110A6800F01F0369
:106680000120984082430A607047000000100240D9
:10669000054901EB90110A6800F01F0301209840A2
:1066A00002430A60704700000010024004490A6A71
:1066B00022F440720A620A6A02430A6270470000CA
:1066C0000010024030B515490B68091D0968134ACE
:1066D00010321268114C083424680D0C0570C1F397
:1066E0000425457001F03F058570C1F34231C1704A
:1066F000C3F305410171C3F30621417103F07F012A
:106700008171C2F306410181C2F30E01418102F49D
:106710008001C16004F04001016130BD00280040EB
:10672000F0B504460078E178E6684D0360F31F4554
:1067300060784FF4F85101EA00200543A0784FF447
:106740007C1100F03F00054320791B4F01EA004017
:10675000064360794FF4FE4101EA0020A17901F07F
:106760007F0108430643CA2038605320386000F098
:1067700025F8E8B120894FF4FE0101EA0040618963
:10678000C1F30E0108430C49143908600A48243843
:106790000660001D0560001D016821F040010160D8
:1067A000016822691143016000F022F800F04CF802
:1067B000FF213960F0BD0000242800400B4B4FF44E
:1067C000804100201A6852060DD41A6842F08002F7
:1067D0001A601A68491E02F0400202D0002AF8D05E
:1067E00001E0002A00D00120704700000C28004082
:1067F0000248016821F08001016070470C280040C8
:1068000010B540F21C70FFF727FFFFF7B1FD4FF402
:1068100010642046FFF7A4FE2046FFF7AFFE4FF4BA
:106820000070FFF743FF074840F28F11416063217A
:10683000016040F60F00FFF70FFFBDE8104000F0C9
:1068400003B800007C00002018B512494FF4004046
:1068500000900968002089061AD40E4CCA211C3405
:106860002160532121600B4B1B1D196821F0200171
:106870001960196801F020020099491E009102D0A8
:10688000002AF6D000E002B10120FF21216018BDEE
:10689000012018BD082800401E480021026842F46B
:1068A00080320260C3140268491C12F4003F01D117
:1068B0009942F8D1016889032BD54168416041684C
:1068C00041F400514160416841F480614160416898
:1068D000114A11404160C16A21F04041C162C16A60
:1068E00041F00101C16241680C4A114341600168F5
:1068F00041F08071016001688901FCD5416821F097
:1069000003014160416841F00201416041680907AB
:10691000FCD5704700100240FFFFC2770000290835
:106920004FF0E0210428086903D020F0040008613A
:10693000704740F00400FAE7016841F0800101600F
:10694000704700001D4A10B5811A4FF4E053904281
:1069500020D00DDCB0F1804F1FD0194940181FD056
:10696000B0F5406F1FD0984226D14FF4816409E002
:10697000B1F5A05F1AD0B1F5C05F1AD099421BD112
:1069800040F212342046FFF783FE2046BDE8104057
:10699000FFF770BE40F20B34F4E74FF48064F1E788
:1069A00040F20144EEE740F20444EBE74FF4447454
:1069B000E8E740F21134E5E710BD0000002C01408B
:1069C00000FCFFBF016821F0010101607047016810
:1069D00041F001010160704702698A43026170471A
:1069E000F0B50A888262204A204B4FF080479042DF
:1069F00003D0B84201D098420BD1046824F070044F
:106A0000046004684D882C43046004688D882C431E
:106A100004608C68C462164C164D174E90420CD020
:106A2000B8420AD0984208D0144B984205D0A042F0
:106A300003D0A84201D0B04207D1036823F44073C9
:106A4000036003688F893B430360904205D0A042F6
:106A500003D0A84201D0B04201D1897B01634169D2
:106A600041F001014161F0BD002C014000040040F3
:106A70000040014000440140004801400020004027
:106A8000C2680A43C260704702698A430261704764
:106A9000C26800690A40084202D00AB1012070476A
:106AA0000020704702498A6A82438A627047000068
:106AB0000040024002498A6A02438A62704700002D
:106AC0000040024010B54FF0807260231101052094
:106AD00000F082F800F0B4F8012000F0A7F80120DF
:106AE00000F06AF8032000F06FF8102000F09EF824
:106AF000022000F061F8F02000F066F84FF400701A
:106B000000F094F8042000F057F84FF4606000F0B3
:106B10005BF84FF4004000F089F8082000F04CF8D2
:106B20004FF4704000F050F84FF4801000F07EF801
:106B3000202000F041F84FF4700000F045F8BDE867
:106B4000104000F001B800000248016841F0010166
:106B5000016070470040024002498A6802438A602F
:106B600070470000004002400349C968014201D05B
:106B70000120704700207047004002400148406BF0
:106B800080B27047004002400148806B80B270477D
:106B9000004002400148C06B80B270470040024094
:106BA0000148006C80B27047004002400148806C90
:106BB00080B270470040024002490A6B02430A63F8
:106BC000704700000040024002490A6982430A619E
:106BD000704700000040024070B5124C2568AD07B8
:106BE0001ED4114E256808280BD241EA003010430C
:106BF0003540184328432060D4F8000320F080700B
:106C00000CE020F0080041EA003010433540184302
:106C100028432060D4F8000340F08070C4F80003DB
:106C200070BD0000004002401F8FFF0003490A684A
:106C3000920702D40A6A02430A6270470040024087
:106C400004480168890703D4016821F00401016048
:106C500070470000004002400248016841F0020114
:106C6000016070470040024010B5FFF723FF4FF46A
:106C70005060401EFDD10320FFF76EFFFFF7ECFFD1
:106C80000320FFF771FF0028FAD010BD70B50D4644
:106C9000044613490020611804D0B1F5744F04D1A3
:106CA000062000E00220FFF773FB21680A044FF67C
:106CB000F07108D5400000EB5500B0FBF5F0014045
:106CC00000F0070206E000EB5500B0FBF5F00140D4
:106CD00000F00F02E06811430843E06070BD00005F
:106CE00000BCFFBF406AC0F308007047C1F3080151
:106CF000816270470A4910B5401805D0B0F5744F4D
:106D00000CD140F20E3401E040F211442046FFF76E
:106D1000BFFC2046BDE81040FFF7ACBC10BD000032
:106D200000BCFFBF016841F001010160704700EB4A
:106D30009110006801F01F0201219140084000D02D
:106D40000120704710B5C1F38912835801F01F0468
:106D50000121A1400B43835010BD026AC1F30443DB
:106D6000012199400A430262704730B5C1F389128C
:106D7000825800EB915001F01F05012404FA05F33D
:106D800000681A40C1F3044104FA01F3184202D02A
:106D90000AB1012030BD002030BD026822F004029B
:106DA000026002680A4302607047026822F008022B
:106DB000026002680A430260704753656E6444656E
:106DC000627567506B74004465627567506B7450F0
:106DD000726F630044656275675265637650726FC7
:106DE0006300557067726164655F5772697465000E
:106DF000434F4D5F557067726164655F5772697488
:106E000065004D61696E426F6172644261736963CE
:106E1000496E666F004D61696E426F6172644361D5
:106E20007264496E666F0055706772616465526581
:106E3000717565737448616E646C657200436F6D43
:106E4000526563764D61696E426F6172644461742C
:106E50006100466C6173685772697465576F72643C
:106E600000466C6173685772697465004C6F6164A9
:106E700053797374656D496E666F005379737465E9
:106E80006D52657365745265636F72640050726908
:106E90006E74664461746100425350466C6173685D
:106EA000577269746500466C617368546573740049
:106EB000464D31373558585F436F6E666967004DF0
:106EC00069666172655F426C6F636B777269746546
:106ED00000527463496E6974004B657943616C6C50
:106EE0004261636B005473694B6579496E69740044
:106EF0001F1C1F1E1F1E1F1F1E1F1E1F1F1D1F1EAC
:106F00001F1E1F1F1E1F1E1F5B5831304B422025A6
:106F1000735D2025733A28256429200A20C9E8B129
:106F2000B8B0E6B1BEBAC53A2066775F76657273CF
:106F3000696F6E203D2025642C2073756256657242
:106F400073696F6E31203D2025642E200A000000F9
:106F5000706F000800000020E00000002C580008BE
:106F600050700008E0000020F80F00003C580008B6
:106F7000000000000000000036663764326B00003D
:106F80000000000000000000000000000D0F0000E5
:106F900000000B06000700000000000000000000D9
:106FA00000000000002C0140000000401B1C0000FD
:106FB000120511050E06110700380140004400407B
:106FC0000004004800000048000400480000004899
:106FD00040000000040000008000000008000000E5
:106FE00000000000000000000000000000000000A1
:106FF00000000000FF000000000000000000000092
:107000000000000000000000000000000000000080
:107010000000000000000000000000000000000070
:107020000000000000000000000000000000000060
:107030000000000000000000000000000000000050
:10704000000000000000000000F36F0600000000D8
:04000005080021517D
:00000001FF
