:020000040800F2
:10200000C8100020652100086D2100086F2100081C
:1020100071210008732100087521000800000000EC
:102020000000000000000000000000007721000810
:1020300079210008000000007B210008AD51000854
:102040007F2100087F2100087F2100087F210008F0
:102050007F2100087F2100087F2100087F210008E0
:102060007F2100087F2100087F2100087F210008D0
:102070007F210008295400087F2100088D540008A2
:102080007F2100087F210008000000007F21000858
:102090007F2100087F2100087F2100087F210008A0
:1020A0007F2100087F2100087F210008415A000895
:1020B0007D5A0008000000007F2100080000000099
:1020C0007F210008000000007F2100087F21000818
:1020D0007F21000800000000000000000000000058
:1020E00000000000000000007F2100080000000048
:1020F00000000000000000000000000000000000E0
:102100007F21000800000000000000007F2100087F
:1021100000000000000000000000000000000000BF
:1021200000000000000000000000000000000000AF
:10213000000000000000000000000000000000009F
:102140000000000000000000000000007F210008E7
:10215000DFF80CD000F01AF90048004701660008CB
:10216000C81000200648804706480047FEE7FEE703
:10217000FEE7FEE7FEE7FEE7FEE7FEE7FEE7FEE737
:10218000B15100085121000838B5D0E90221491E9B
:1021900001EB410102EBC1014268C1EB011102EB0D
:1021A00081010268C1EB011102EB8102D0E9043127
:1021B00001EB410103EB81013023A1F5527191FB49
:1021C000F3F4174D6C4302EBC41291FBF3F403FBE1
:1021D000141100921A2902DB124B1A4400920C22AD
:1021E00091FBF2F3104C6343009C04EBC313009388
:1021F00091FBF2F302FB13110C4A08E0491E40F276
:10220000A324535C6343009C04EBC3130093002995
:10221000F4DC0146684600F073F8009838BD000011
:102220003F0C0F008051010067C203008773000854
:1022300040EA01039B0703D009E008C9121F08C048
:10224000042AFAD203E011F8013B00F8013B521EC8
:10225000F9D27047D2B201E000F8012B491EFBD23F
:1022600070470022F6E710B513460A4604461946A1
:10227000FFF7F0FF204610BD30B5044600200346AE
:1022800000E05B1C934203D2E05CCD5C401BF8D0C5
:1022900030BD2DE9F05F0546002092469B468846FA
:1022A0000646814640241BE02846414647462246D2
:1022B00000F08DF853465A46C01A914110D311468A
:1022C0001846224600F074F82D1A67EB01084F46B5
:1022D00022460120002100F06BF817EB00094E4167
:1022E000201EA4F10104DFDC484631462A4643465D
:1022F000BDE8F09F014900F003B80000980C0020F1
:1023000010B500683C22B0FBF2F302FB1303B0FBF4
:10231000F2F00B60B0FBF2F302FB1303B0FBF2F040
:1023200018224B60B0FBF2F302FB1303B0FBF2F098
:10233000021D8B600723B2FBF3F403FB1422800021
:1023400040F2B55300F66C308A61B0FBF3F2B0FB9B
:10235000F3F403FB1400443280084A61C8613B284F
:1023600002D3920700D0401C0022074C13460A619A
:10237000E25C824203D8801A5B1C0B61F8E7401CC8
:10238000C860084610BD000093730008064C074D56
:1023900006E0E06840F0010394E807009847103435
:1023A000AC42F6D3FFF7D8FEE873000808740008C3
:1023B000202A04DB203A00FA02F100207047914005
:1023C000C2F1200320FA03F3194390407047202AFA
:1023D00004DB203A21FA02F00021704721FA02F3CF
:1023E000D040C2F1200291400843194670470000D6
:1023F00070B50446AA2020705520607010480D4624
:1024000010F8211F61710178491C0170681D6080FE
:1024100001202071281DA27181B2E371201D01F0FD
:10242000A5FB01466019093501720D2141720A218F
:102430008172AAB22146BDE87040012003F04CBB76
:102440002807002000F00F01000900EB800001EBDD
:102450004000C0B2704700002DE9FC470027054648
:10246000914688463C46AA46960801972FE05FEAC7
:10247000897023D0721C4146504601F07DF8042239
:1024800001A9504600F039FFD8F8000001998842B0
:1024900019D02046641CE4B2322811D901F0A8FBFF
:1024A0004FF47A71B0FBF1F139230B4A0BA0009580
:1024B00003F0AAFB4FF0FF30BDE8FC873246DAE7B5
:1024C00000F019FFD3E72D1D08F104083F1D4F450B
:1024D000CDD30020F0E70000FA7200085B583130DD
:1024E0004B422025645D2025733A28256429206607
:1024F0006C617368D0B4CAFDBEDDB3F6B4ED5B2584
:1025000023785D21200A000010B501F073FD03F06F
:1025100033FB00F0F0FE01224FF47A74214610469E
:1025200002F0C8FF02F05EFF02F03AFD204600F024
:10253000DCFD03F0C1FA02F0D9FB204600F0D5FD26
:1025400001F0A4FD02F07EFE07A003F05DFB02F0A7
:10255000F7FF00F03DFE08A003F056FBBDE8104079
:1025600009A003F051BB00005573617274496E6994
:1025700074204F4B210D0A000D0A20427370496EE2
:102580006974206F6B0A00000A3D3D3D3D3D3D3DB5
:102590003D3D3D3D3D3D3D3D3D3D3D3D3D3D3D3D6B
:1025A0003D3D3D3D3D3D3D3D3D3D3D3D3D3D3D3D5B
:1025B0003D3D3D3D3D3D3D3D3D3D3D3D3D3D3D3D4B
:1025C0003D3D3D3D0A0A0A0070B5A0B00E460546E5
:1025D00080216846FFF745FE6C468DF808501022B2
:1025E00031460DF10900FFF723FE02231A4611219F
:1025F0002046FFF7FDFE1B22214603A002F028FB28
:1026000020B0002070BD000050434242756D5570EF
:102610004C6F61640000000070B5A0B00E46054626
:1026200080216846FFF71DFE8DF8085030686C4623
:10263000CDF809000123022205212046FFF7D8FE2C
:102640000F22214602A002F003FB20B0002070BD43
:1026500050434242756D55704C6F6164000000003C
:102660002DE9FF473B4E00243078012862D103AAB0
:1026700001A902A803F05AF800285BD1042201A99D
:1026800035A002F0E5FA022202A936A002F0E0FA33
:1026900001F0AEFADFF8D890A04601ABC9F800000F
:1026A00086F80080334A0221404602F035F80127BF
:1026B0004FF47A75B8B9012401F09AFAB0FBF5F13C
:1026C0005A232D4A2DA0009703F09EFA01F090FAAC
:1026D000B0FBF5F15B23284A31A003F095FA01A97C
:1026E0000120FFF799FF03F03BF8002C22D103AA49
:1026F00001A902A803F01AF800281BD101F078FA0A
:10270000C9F8000086F8008001AB1A4A0C210020AD
:1027100002F002F880B101F06BFAB0FBF5F175231D
:10272000154A29A003F070FA01A90220FFF774FFEF
:1027300003F016F8BDE8FF8701F05AFAB0FBF5F197
:102740006E230D4A0DA0009703F05EFA01A9012047
:10275000ECE7000000000020504943435F55494426
:102760003A000000504943435F41545141313A001F
:1027700004000020080000200E7200085B58313071
:102780004B422025645D2025733A28256429207258
:102790006573756C74203D202564200A00000000DC
:1027A0005B5831304B422025645D2025733A282543
:1027B00064292074686973206973205365637265A6
:1027C00074436172642E0A005B5831304B422025FD
:1027D000645D2025733A2825642920B7C7C3DCD45B
:1027E000BFBFA80A0000000070B50D46044602F005
:1027F0007BFA20EA05012046BDE8704003F0FFB9EE
:1028000010B580210A2002F07FFB0A2002F06CFA4A
:10281000002800D0012010BD2DE9FC476D4C01F0CF
:10282000E7F907464FF008084FF47A7900256A4E19
:10283000C2E000F060FDDFF8A4A1B6E000F05BFDAF
:1028400001F0D6F907463078092838D2DFE800F0E1
:10285000050D183E4E5C6B8092009DF80400AA287E
:10286000EBD12070012070805BE09DF804005528BA
:1028700025D1708855212154401C7080022050E0E1
:102880007088022802D0032804D01BE09DF80410B1
:10289000B18017E0B1889DF8042041EA0221B1809F
:1028A000757005290CD201F0A3F9B0FBF9F1B088DD
:1028B000009040F2E1234A4A4AA003F0A5F973E0F0
:1028C000032131709DF8041021543EE09DF804105E
:1028D000012969D17078401C707070882154B188CA
:1028E000491EB180401C708004201AE070789DF869
:1028F00004100844707070882154B188491EB1805A
:10290000401C708005200CE070789DF8041008448D
:10291000707070882154B188491EB180401C70804D
:102920000620307041E070789DF804100844707003
:1029300070882154B188491E0904090CB18002D065
:102940000721317001E086F80080401C70802CE087
:1029500070789DF804100844707070882154401CF1
:102960007080B088401E80B2B08001281DD186F8EA
:1029700000801AE070889DF804102154401C81B238
:1029800071809DF804007278904203D1204601F0D6
:10299000ABFE09E001F02CF9B0FBF9F140F236335F
:1029A0000F4A1AA003F030F9357001A9504600F023
:1029B000CBFB00283FF442AF01F01AF907F10A01FE
:1029C000884204D801F014F9B842BFF432AFBDE830
:1029D000FC870000FF010020140000209409002063
:1029E0009F7200085B5831304B422025645D2025E2
:1029F000733A28256429206C656E6774683D2564E8
:102A00002C6572726F722E0A000000005B58313024
:102A10004B422025645D2025733A282564292043F4
:102A20004220636865636B73756D206572722E0A50
:102A3000000000002DE9F04788B0884604460127D1
:102A4000002601F0D5F84FF47A75B0FBF5F1207C43
:102A5000A37C627C8DE80D0028238D4A8DA003F0B5
:102A6000D3F808F10102214697A002F0F1F8207C8A
:102A70004FF00109162866D008DC052840D00A2846
:102A80007DD013287CD015280CD146E0172878D0AB
:102A9000DFF84482282875D04FF0A50A2B2872D081
:102AA00099280BD001F0A4F8B0FBF5F1207C009040
:102AB0009423774A89A003F0A7F8DEE0607C70B128
:102AC00001F096F8B0FBF5F13723714A90A003F0BE
:102AD0009BF884F8129088F831600227D1E001F069
:102AE00087F8B0FBF5F13023694A92A003F08CF827
:102AF000A674454688F831A001F07AF86863ECE7DF
:102B000001F076F8B0FBF5F14023614A92A003F0A2
:102B10007BF8022002F062F8B2E001F069F8B0FB45
:102B2000F5F146235A4A96A003F06EF8207D617CA9
:102B3000E27C00EB0160A17C090401EB0221084466
:102B400002F0A8F99CE001F053F82F46B0FBF7F132
:102B500051234F4A94A003F057F801F013F89C4A10
:102B6000851841F1000601F043F8B0FBF7F1552359
:102B7000474A98A0009503F047F8280E04E037E094
:102B800055E072E075E02EE040EA06206074280C03
:102B900040EA0640A074280A40EA0660E074257501
:102BA00003A803F0ABFF9DF80C00FFF74BFC60752A
:102BB0009DF80D00FFF746FCA0759DF80E00FFF78D
:102BC00041FCE0759DF81000FFF73CFC20769DF875
:102BD0001100FFF737FC60769DF81200FFF732FC1A
:102BE000A0760A274DE088F830A008B0BDE8F0874D
:102BF00000F0FEFFB0FBF5F1607C00906C23244AEE
:102C00007EA003F001F8607C78B10220A074E67425
:102C100000F0EEFFB0FBF5F1E27CA07CCDE9000214
:102C200075231B4A82A002F0EFFF032729E0667498
:102C300001222146002002F0AFF800F0D9FFB0FBDE
:102C4000F5F17D23124A83A002F0DEFF284600F052
:102C50004CFABFF34F8F8B4908688B4A00F4E06051
:102C600010430860BFF34F8FFEE700F059FB60741C
:102C700007E098F82200A52802D084F8119000E01F
:102C800066743A462146002002F086F8ADE700005F
:102C9000297200085B5831304B422025645D2025A5
:102CA000733A2825642920636F6D636F6D20636D0F
:102CB00064203D205B2523785D2C205B25645D2C02
:102CC000205B25645D0A00004465627567BDD3CA58
:102CD000D5CAFDBEDD000000280700205B5831305A
:102CE0004B422025645D2025733A2825642920B4B1
:102CF000EDCEF3636F6D636F6D20636D64203D20D7
:102D00005B2523785D2C206572726F720A000000CB
:102D10005B5831304B422025645D2025733A2825CD
:102D2000642920B9D8B1D5C9CFCEBBBBFABCECB2AF
:102D3000E2210A005B5831304B422025645D20259A
:102D4000733A2825642920B4F2BFAAC9CFCEBBBBF1
:102D5000FABCECB2E2210A005B5831304B4220252C
:102D6000645D2025733A282564292044454255474F
:102D70005F434D445F5452554D505445200A000066
:102D80005B5831304B422025645D2025733A28255D
:102D900064292044454255475F434D445F534554A1
:102DA0005F525443200A00005B5831304B422025CB
:102DB000645D2025733A28256429204445425547FF
:102DC0005F434D445F5245445F525443200A000024
:102DD0000073EEBB5B5831304B422025645D2025EB
:102DE000733A282564292047455420525443CAB1D8
:102DF000BCE4B4C15B25645D0A0000005B5831305F
:102E00004B422025645D2025733A282564292044FF
:102E1000454255475F434D445F47455453564552DD
:102E200020646174615B305D3D2564200A00000010
:102E30005B5831304B422025645D2025733A2825AC
:102E4000642920B0E6B1BEBAC55B25642E25645D59
:102E50000A0000005B5831304B422025645D20257C
:102E6000733A282564292044454255475F434D4421
:102E70005F5245424F4F54D6D8C6F4CFB5CDB3A319
:102E8000A10A00000CED00E00400FA052DE9FE4364
:102E9000734C00F0ADFE07464FF001094FF47A780D
:102EA0000026704DD0E000F0A3FE074628780C28DD
:102EB0002AD2DFE800F0060FC2C21A2A395C69760E
:102EC0008EA19DF80800AA281ED120704846A5F8BA
:102ED00002907CE09DF808105529F5D10420287057
:102EE00068882154401C68800DE068889DF80810AF
:102EF0002154401C6880A888401C80B2A880052806
:102F000002D305200EE0AE8097E068889DF8081097
:102F10002154401C6880A888401C80B2A8800528E5
:102F2000F2D306202870EEE768889DF80810215437
:102F3000401C80B26880A988491C89B2A9800229F6
:102F40007BD3204430F8020CA880FF280BD900F076
:102F50004FFEB0FBF8F1A8880090E423424A43A05A
:102F600002F052FE68E0072028706E7065E0688805
:102F70009DF808102154401C688068789DF808105E
:102F800008446870082022E068889DF808102154E1
:102F9000401C688068789DF8081008446870092013
:102FA00015E068889DF808102154401C68806878F6
:102FB0009DF8081008446870A888042801D3001FF1
:102FC00000E000200004000CA88013D00A20287024
:102FD00033E068889DF808102154401C68806878A8
:102FE0009DF8081008446870A888401E0004000C72
:102FF000A88022D10B20EAE768789DF80810884263
:103000000BD16A88214622A001F022FE24480671D5
:1030100069882046FFF70EFD0EE000F0E9FDB0FBE9
:10302000F8F19DF808206878CDE900024FF48A7322
:103030000D4A1CA002F0E8FD2E7002A9284800F0FD
:1030400083F800283FF42FAF00F0D2FD07F10A010A
:10305000884203D800F0CCFDB842EED2BDE8FE8332
:10306000F40000200E000020367200085B5831305A
:103070004B422025645D2025733A28256429206C65
:10308000656E3D25642C6572726F722E0A00000019
:1030900044656275675265637650726F6300000025
:1030A0002C0000205B5831304B422025645D2025E8
:1030B000733A282564292073756D3D253032782CAC
:1030C000706B742073756D3D253032782C6572728B
:1030D0006F722C64726F7020706B742E0A00000087
:1030E00088090020642000F00DB870B50546002462
:1030F0004FF47A7603E0304600F004F8641CAC42EA
:10310000F9D370BD70B54FF0E02500216C69094A14
:10311000AB6912785043AA699A42FCD002D2A3EB61
:10312000020302E0A4EB0206334419441346814231
:10313000F1D370BD700000200028FDD00021C180B7
:103140000181418108467047428903899A4213D020
:10315000028903681344521C02811A780A7081881C
:103160000289914201D800210181C18811B1C18831
:10317000491EC180002070474FF0FF307047002388
:1031800043608360016082801846704742890389EA
:103190009A42428901D283881A440389D21A8388C9
:1031A000521C934210D9428903681344521C428135
:1031B0001970C188491CC18081884289914201D817
:1031C00000214181002070474FF0FF307047000020
:1031D0002DE9F0410024164D4FF47A7601274FF483
:1031E000037800F088F800F071F888B100F083F8F7
:1031F000641CE4B2AF7000F0FBFCB0FBF6F1434698
:103200000C4A0DA002F000FD322CEAD3BDE8F0819B
:1032100000F071F80020A87000F0EAFCB0FBF6F1B5
:10322000BDE8F04140F20323024A0EA002F0ECBCDC
:103230001E000020127300085B5831304B422025DD
:10324000645D2025733A2825642920464D313735A1
:1032500058585F496E6974206572726F722E0D0A3C
:10326000000000005B5831304B422025645D202572
:10327000733A2825642920464D31373558585F491F
:103280006E6974204F4B2E0D0A00000010B50E4CD5
:103290004021204602F0F3FF0A20FFF726FF00F04E
:1032A0002AF84021204602F0ECFF0A20FFF71DFF1C
:1032B00000F021F8012001F017FD202801D00120A5
:1032C00010BD002010BD00000014004810B500F033
:1032D00012F801F097FEFFF7D9FF10B14FF0FF3061
:1032E00010BD00F008F8002001F0C8FB032001F039
:1032F00017FE002010BD02F087BF10B5002303E0C9
:1033000010F8014BCC545B1C9342F9D3002010BD44
:103310000A4601460148FFF7F0BF000000F001082F
:10332000F8B518480024184D009002F00BFF28460D
:1033300002F0CAFE342002F0B9FE02F0BDFE4FF4E6
:103340007A766F14042269462846FFF785F850B153
:1033500000F04EFCB0FBF6F156230C4A0CA002F034
:1033600053FC0120F8BD241D2D1DBC42EAD300F002
:103370003FFCB0FBF6F15D23044A10A002F044FCD0
:103380000020F8BD6655443300FC010808730008AE
:103390005B5831304B422025645D2025733A282547
:1033A000642920466C617368546573742066616992
:1033B0006C6564212121200A000000005B58313037
:1033C0004B422025645D2025733A28256429204638
:1033D0006C61736854657374204F4B212121200A5E
:1033E000000000002DE9F05F154689468346FFF78F
:1033F00082FF02F0A7FEABF10060C0F30906C6F53C
:1034000080644FEA9028A54200D82C46FFF773FF4E
:103410004FF0006000EB882082464FF480622B4919
:10342000FFF76BFF002711E02848F119405CFF28E7
:103430000BD000F0DDFB4FF47A71B0FBF1F17D238E
:10344000234A24A002F0E0FB02E07F1CA742EBD35A
:10345000A74214D2504602F037FE342002F026FE76
:1034600000201A4A04E019F800108319401CD154B6
:10347000A042F8D350464FF48072144906E0A007EA
:103480004FEA940200D0521C4946584600F074F8A6
:10349000A5420FD100F0ACFB4FF47A71B0FBF1F113
:1034A00093230B4A13A002F0AFFB02F005FE0020AD
:1034B000BDE8F09F281BA144A344002685B24FF429
:1034C000806408F10108A542A0D89EE7FF02002011
:1034D000C37200085B5831304B422025645D2025C3
:1034E000733A2825642920D0E8D2AAB2C1B3FD2EB0
:1034F0000A0000005B5831304B422025645D2025D6
:10350000733A2825642920D0B4CDEAB3C9B9A62ED0
:103510000A0000002DE9FC410024124D0E4607462A
:1035200000940194324639462846FFF75BFF082293
:1035300069462846FFF7E1FE324639466846FEF7FF
:103540009BFE18B1641C052CECD301E0052C06D3BE
:1035500005A002F059FB4FF0FF30BDE8FC810020D0
:10356000FBE7000000F00108D0B4666C617368B43A
:10357000EDCEF321200D0A002DE9F843904689464F
:10358000064602F0DFFD00254FF47A771BE00024A9
:10359000342002F08BFD59F82510304602F0E2FD90
:1035A000C0B10120FFF7A1FD2046641CB842F8D944
:1035B00000F01EFBB0FBF7F14123074A07A000967D
:1035C00002F022FB6D1C4545E1D302F075FD0020A1
:1035D000BDE8F883361DF5E7B47200085B5831305A
:1035E0004B422025645D2025733A2825642920D08C
:1035F000B4666C617368B3ACCAB12C205B307825BB
:10360000785D2C20B4EDCEF3212121200A000000AA
:1036100038B5022003F044FD012003F0C1FC154C35
:10362000012802D103F0C6FC60801248618808308E
:103630004088411A0F481538202914DD0D4C01210E
:103640004170163C0B20207000F0D2FA4FF47A71D2
:10365000B0FBF1F12078009040F26923064A07A000
:1036600002F0D2FA01E000214170BDE838400220AA
:1036700003F034BC9A000020617300085B583130BD
:103680004B422025645D2025733A28256429205B60
:103690004B65793A2025645D0A0000002DE9F84F5A
:1036A000202003F0FDFC012003F07AFC3C4F0128B0
:1036B00002D103F085FC7880DFF8E4A079880AF174
:1036C000080AAAF12E06BAF802000025401A741D55
:1036D0004FF001084FF47A7920280FDD84F801803B
:1036E000357000F085FAB0FBF9F13078009040F2C7
:1036F000BA232C4A2CA002F087FA00E06570202043
:1037000003F0ECFB402003F0CBFC012003F048FC6D
:10371000012802D103F054FCB880BAF80400B9883B
:10372000401A202810DD84F802800A20307000F052
:103730005FFAB0FBF9F13078009040F2CF23194ADC
:1037400021A002F061FA00E0A570402003F0C6FB62
:10375000802003F0A5FC012003F022FC012802D107
:1037600003F02EFCF880BAF80600F988401A2028E9
:1037700010DD84F803800920307000F039FAB0FBC6
:10378000F9F13078009040F2E323064A06A002F0F7
:103790003BFA00E0E570BDE8F84F802003F09EBBE7
:1037A000AA0000206A7300085B5831304B42202584
:1037B000645D2025733A28256429205B4B65793A9E
:1037C0002025645D0A0000005B5831304B42202503
:1037D000645D2025733A28256429205BB7B5BBD8E2
:1037E0004B65793A2025645D0A0000002DE9F84F09
:1037F0004FF4806B584603F053FC012003F0D0FBDC
:103800002B4D012802D103F0E1FBA880284FA988A5
:103810000837A7F13E06B8884FF00108401A4FF468
:103820007A794FF0000A06F10904202810DD84F8A7
:1038300002800820307000F0DBF9B0FBF9F130783D
:10384000009040F226331B4A1BA002F0DDF901E094
:1038500084F802A0584603F041FB4FF4006B584631
:1038600003F01EFC012003F09BFB012802D103F0B2
:10387000ADFBE880F988E888081A202810DD84F874
:1038800003800720307000F0B3F9B0FBF9F1307815
:10389000009040F23A33074A07A002F0B5F901E080
:1038A00084F803A05846BDE8F84F03F017BB0000AA
:1038B000BA000020737300085B5831304B4220255A
:1038C000645D2025733A28256429205B4B65793A8D
:1038D0002025645D0A0000002DE9F84F4FF40058E0
:1038E000404603F0DDFB012003F05AFB3A4D01286E
:1038F00002D103F071FB6880374F69880837A7F160
:103900004E0478884FF47A76401A20280DDD022084
:10391000207000F06DF9B0FBF6F12078009040F2D5
:1039200089132E4A2EA002F06FF9404603F0D6FA12
:103930004FF4804A504603F0B3FB012003F030FB04
:10394000012802D103F048FBA880B888A988DFF8D5
:103950008890401A4FF00008A9F1390920280EDD9F
:103960000120207000F044F9B0FBF6F120780090BF
:103970004FF4CF73194A1AA002F046F901E089F812
:103980000280504603F0AAFA4FF4805A504603F0E2
:1039900087FB012003F004FB012802D103F01CFB8C
:1039A000288038882988401A20280EDD03202070BE
:1039B00000F01EF9B0FBF6F1207800904FF4DA73B6
:1039C000064A07A002F020F901E089F8008050467D
:1039D000BDE8F84F03F082BACA0000204F73000818
:1039E0005B5831304B422025645D2025733A2825F1
:1039F0006429205B4B65793A2025645D0A0000004C
:103A00002DE9F84F4FF4001B584603F049FB012005
:103A100003F0C6FA3F4E012802D103F0E3FA7080AA
:103A2000DFF8F0A071880AF1080A0127BAF802004D
:103A3000AAF15E05401A4FF47A784FF0000905F1BB
:103A4000110420280FDD0620287000F0D1F8B0FB0B
:103A5000F8F12878009040F206232F4A2FA002F0B8
:103A6000D3F8677001E084F80190584603F036FA05
:103A70004FF4800B584603F013FB012003F090FA3B
:103A8000012802D103F0AEFAB080BAF80400B18880
:103A9000401A20280FDD0520287000F0A9F8B0FB9F
:103AA000F8F12878009040F21B231B4A1BA002F07B
:103AB000ABF8A77001E084F80290584603F00EFAC4
:103AC0004FF4000B584603F0EBFA012003F068FABC
:103AD000012802D103F086FAF080BAF80600F188D6
:103AE000401A20280FDDE7700420287000F080F8CD
:103AF000B0FBF8F12878009040F23123064A07A085
:103B000002F082F801E084F803905846BDE8F84FCF
:103B100003F0E4B9DA000020587300085B58313034
:103B20004B422025645D2025733A28256429205BBB
:103B30004B65793A2025645D0A00000010B5FFF757
:103B4000DAFB094CFF202070FFF762FDFFF7A6FDAE
:103B5000FFF74CFEFFF7C0FEFFF752FF2078BDE8ED
:103B6000104002F023BD000084000020034610B581
:103B70000020024603E09C5C521C2044C0B28A42F2
:103B8000F9D310BD00B591B014210BA8FEF769FB65
:103B90000BA802F0B3FF2C216846FEF762FB9DF8EC
:103BA0002C00FEF74FFC05909DF82D00FEF74AFC17
:103BB00004909DF82E00FEF745FC03909DF82F0021
:103BC000FEF740FC06909DF83000FEF73BFC0290AB
:103BD0009DF83100FEF736FC01909DF83200FEF7AB
:103BE00031FC00906846FEF7CFFA11B0002100BD0D
:103BF0000148C068704700001C000020064B4FF4CD
:103C000000411A78501C187004481AB100221A702A
:103C100002F035BB02F035BB7800002000080048F8
:103C20000A21B0FBF1F201FB1202B0FBF1F002EB52
:103C30000010C0B270470000002909D1054A0028D1
:103C40004FF00201104601D002F01BBB02F017BB7F
:103C500070470000000400482DE9F041144E002593
:103C60004FF48057022003F01BFA012003F098F96B
:103C7000012803D103F09EF926F81500022003F075
:103C80002DF93C46641EFDD16D1C142DEAD3094963
:103C9000012036F810304A88401C1A444A80142803
:103CA000F7D390B21322B0FBF2F04880BDE8F08168
:103CB000B80A0020A20000202DE9F0412E4D00247A
:103CC0004FF4805805F1280605F15007202003F035
:103CD000E7F9012003F064F9012803D103F070F93A
:103CE00025F81400202003F0F9F8402003F0D8F95B
:103CF000012003F055F9012803D103F061F926F8FA
:103D00001400402003F0EAF8802003F0C9F90120F4
:103D100003F046F9012803D103F052F927F8140003
:103D2000802003F0DBF84046401EFDD1641C142CBB
:103D3000CCD3124901204A8835F810301A444A8001
:103D40008A8836F810301A448A8037F81030CA88CA
:103D5000401C1A44CA801428EDD34A881320B2FBB1
:103D6000F0F24A808A88B2FBF0F28A80CA88B2FBFD
:103D7000F0F0C880BDE8F081E00A0020B200002029
:103D80002DE9F047244D00244FF480684FF400697A
:103D90004FF4805A05F128064746404603F080F963
:103DA000012003F0FDF8012803D103F00FF925F8F5
:103DB0001400384603F092F84F46484603F070F975
:103DC000012003F0EDF8012803D103F0FFF826F8F5
:103DD0001400384603F082F85046401EFDD1641CA2
:103DE000142CD9D30D4901208A8835F810301A4493
:103DF0008A8036F81030CA88401C1A44CA801428B9
:103E0000F2D38A881320B2FBF0F28A80CA88B2FB10
:103E1000F0F0C880BDE8F087580B0020C2000020F9
:103E20002DE9F05F324D00244FF4005A4FF4804BDF
:103E30004FF4805905F1280605F1500857465046C1
:103E400003F02EF9012003F0ABF8012803D103F0B1
:103E5000C3F825F81400384603F040F85F4658468A
:103E600003F01EF9012003F09BF8012803D103F0B1
:103E7000B3F826F81400384603F030F84F464846A9
:103E800003F00EF9012003F08BF8012803D103F0B1
:103E9000A3F828F81400384603F020F87F1EFDD15F
:103EA000641C142CCAD31349012043464A8835F8B0
:103EB000104022444A808A8836F8104022448A8082
:103EC00033F810400A88401C22440A801428EDD39D
:103ED0004A881320B2FBF0F24A808A88B2FBF0F2E3
:103EE0008A800A88B2FBF0F00880BDE8F09F0000ED
:103EF000A80B0020D20000202DE9F05F324D0024F5
:103F00004FF400194FF4800A4FF4000B05F1280616
:103F100005F15007C846484603F0C2F8012003F0F7
:103F20003FF8012803D103F05DF825F8140040465E
:103F300002F0D4FFD046504603F0B2F8012003F05F
:103F40002FF8012803D103F04DF826F8140040465D
:103F500002F0C4FFD846584603F0A2F8012003F04F
:103F60001FF8012803D103F03DF827F8140040465C
:103F700002F0B4FF4FF48050401EFDD1641C142C9D
:103F8000C8D3124901204A8835F810301A444A80B3
:103F90008A8836F810301A448A8037F81030CA8878
:103FA000401C1A44CA801428EDD34A881320B2FB5F
:103FB000F0F24A808A88B2FBF0F28A80CA88B2FBAB
:103FC000F0F0C880BDE8F09F200C0020E200002047
:103FD00010B5A0B0044680216846FEF742F90123DF
:103FE00068468DF808401A461946FEF701FA20B0D7
:103FF000002010BD70B540F2135002F049FD084D8D
:104000004FF40044012223461146284602F073FA79
:1040100023462846BDE870400322002102F08FBAF3
:104020000008004813B50C466846FEF763F9017EA8
:104030002170017D64396170017C491CA170017B94
:10404000E170017A08312171017961710078A07104
:1040500004E018382071E078401CE07020791828BE
:10406000F7D204E03C3860712079401C20716079FF
:104070003C28F7D204E03C38A0716079401C6071A4
:10408000A0793C28F7D200201CBD00002DE9FC4798
:1040900027212E48FEF7E5F82D4800260821066066
:1040A0000E30FFF735F9294860212830FEF7D9F89E
:1040B000DFF8A090484600F0EDFE254FDFF898802D
:1040C0000E37A7F1100439684FF47A7541450BD1CA
:1040D00022A001F099FDE0684623B0FBF5F12F4ADC
:1040E0002FA001F091FD15E036A001F08DFDE068F4
:1040F0004B23B0FBF5F1294A42A001F085FD48466B
:1041000000F0C8FE1248666108210E30C7F8008032
:10411000FFF700FAE0680227B0FBF5F1CDE9007681
:1041200052231E4A414801F06FFDE06840A2B0FBF7
:10413000F5F142A0CDE900025323184A42A001F054
:1041400063FD02480770BDE8FC87000000070020FF
:104150001E000020FFF3255CAE5634120A0A0A3D09
:104160003D3D3D3D3D3D3D3D3D3D3D3D3D3D3D3D7F
:104170003D3D3D3D3D3D3D3D3D3D3D3D3D3D3D3D6F
:104180003D3D3D3D3D3D3D3D3D3D3D3D3D3D3D3D5F
:104190003D3D3D3D3D3D3D3D3D3D0A00CE7200086B
:1041A0005B5831304B422025645D2025733A282529
:1041B0006429200D5538537562C6F4B6AF4170704E
:1041C0000A0000000A0A0A2A2A2A2A2A2A2A2A2A4D
:1041D0002A2A2A2A2A2A2A2A2A2A2A2A2A2A2A2A3F
:1041E0002A2A2A2A2A2A2A2A2A2A2A2A2A2A2A2A2F
:1041F0002A2A2A2A2A2A2A2A2A2A2A2A2A2A2A2A1F
:104200002A2A0A005B5831304B422025645D202564
:10421000733A28256429200D5538537562B3F5B4D7
:10422000CEC6F4B6AF4170700A000000A07300085B
:1042300031303A30313A3237000000004A616E20A6
:1042400020342032303139005B5831304B42202548
:10425000645D2025733A28256429200A20CEC4BC39
:10426000FEB1E0D2EBCAB1BCE42C20D4C2C8D5C4A4
:10427000EA20257320CAB1B7D6C3EB2573200A0004
:104280007CB50446C0792F4B4FF47A75062850D27E
:10429000DFE800F04F030F233A462B490120087056
:1042A000FFF7A6FCB0FBF5F14FF49673274A28A060
:1042B00011E000220221104600F0CCFD207A0128F6
:1042C0000CD0022809D1FFF793FCB0FBF5F14FF4B5
:1042D0009D731E4A29A001F097FC7CBDFFF788FC66
:1042E000B0FBF5F140F23513184A30A001F08CFC18
:1042F000BFF34F8F38480168384A01F4E061114339
:104300000160BFF34F8FFEE7082204F10801184651
:10431000FFF768F800220421104600F09BFD7CBDE9
:10432000082269461846FEF7E8FF684600F0C4FA1E
:104330007CBDFFF75DFCB0FBF5F14FF4A773034ABA
:1043400027A0C8E700F801080100002064720008F7
:104350005B5831304B422025645D2025733A282577
:10436000642920726563762073797374656D2069A2
:104370006E666F2061636B2E2E0A00005B58313031
:104380004B422025645D2025733A2825642920426C
:104390006C7565426C7565746F6F74685F52657398
:1043A000657420726571202E0A0000005B58313060
:1043B0004B422025645D2025733A2825642920CAB4
:1043C000D5B5BDD6F7B0E5B5C4B8B4CEBBCFB5CD85
:1043D000B3C7EBC7F32E0A000CED00E00400FA05AA
:1043E0005B5831304B422025645D2025733A2825E7
:1043F000642920B4EDCEF32E0A000000F0B589B098
:10440000044600200090019002900390E07901287A
:104410000ED04FF47A75022811D003287ED0FFF712
:10442000E7FBB0FBF5F14FF40173704A70A044E074
:10443000207A002801D001F093F909B0F0BD60881E
:104440000828FAD3A0680490A089ADF814000622C9
:1044500004A96EA000F0FCFBA67BE47BFFF7C8FB81
:10446000B0FBF5F140F27113604A6AA001F0CCFB99
:1044700008AA07A906A801F059F960B101F070F97E
:1044800069460120FEF7A0F8FFF7B2FBB0FBF5F19B
:1044900040F277130FE09DF81800042810D001F0C7
:1044A0005FF969460120FEF78FF8FFF7A1FBB0FB2B
:1044B000F5F140F283134D4A5DA001F0A5FBBCE786
:1044C00007AB04AA3146002000F026F960B101F0E4
:1044D00047F969460120FEF777F8FFF789FBB0FB43
:1044E000F5F140F28D13E6E704EB8600C0B26946B1
:1044F00000F056F968B101F033F969460120FEF782
:1045000063F8FFF775FBB0FBF5F14FF4CD73D2E71D
:1045100004E069460020FEF757F88CE7A068049095
:10452000A089ADF81400A77BE07B00EB8700C6B242
:10453000FFF75EFBB0FBF5F140F2C3132B4A47A037
:1045400001F062FB01F00CF908AA06A907A801F026
:10455000EDF830B1FFF74CFBB0FBF5F14FF4E4732D
:104560000CE006AB04AA3946002000F0D5F878B17B
:10457000FFF73EFBB0FBF5F14FF4E9731B4A3FA098
:1045800001F042FB01F0ECF8012001F00BFB54E7D5
:1045900004F11007082E12D03946304600F04AF9CF
:1045A00010B3FFF725FBB0FBF5F14FF4FB730F4A97
:1045B0003BA001F029FB012001F0F4FA3BE70F21B9
:1045C0003846FFF7D3FAE17F8842A6D13946082062
:1045D00000F030F940B1FFF70BFBB0FBF5F14FF401
:1045E000F573024A37A0E4E70020E5E77772000898
:1045F0005B5831304B422025645D2025733A2825D5
:10460000642920B4EDCEF32E0A0000006B657941D9
:10461000000000005B5831304B422025645D2025AE
:10462000733A2825642920D1B0BFA80D0A000000E4
:104630005B5831304B422025645D2025733A282594
:104640006429204361726420417574686F7220662A
:1046500061696C65642E0D0A000000005B58313002
:104660004B422025645D2025733A2825642920D0FB
:10467000B4BFA8D1B0BFA80D0A0000005B5831300C
:104680004B422025645D2025733A28256429205754
:1046900052495445206661696C65642E0D0A00001C
:1046A0005B5831304B422025645D2025733A282524
:1046B000642920D0B4BFA8BFE978CAA7B0DC0D0A2E
:1046C000000000005B5831304B422025645D2025FE
:1046D000733A2825642920D0B4BFA8BFE938CAA7F7
:1046E000B0DC0D0A0000000070B50D460446FEF770
:1046F00002FEA2794AB1012A0DD0022A0BD1294625
:104700002046BDE87040FFF779BE29462046BDE847
:104710007040FFF7B5BD70BD00B587B010B101287E
:1047200002D004E0602000E061208DF804008800E1
:104730008DF8050010788DF8060050788DF8070088
:1047400090788DF80800D0788DF8090010798DF8F0
:104750000A0050798DF80B0018788DF80C00587805
:104760008DF80D0098788DF80E00D8788DF80F0030
:10477000012000F009FAFEF743F805A8009004AB09
:104780000C2201A90E2000F0BBF838B9082000F077
:10479000ABFA000702D5002007B000BD0120FBE7FF
:1047A0007FB504460D46012000F0EEF930228DF869
:1047B00008208DF80940FEF723F803A800902B4647
:1047C000022202A90C2000F09BF80446FFF710FA21
:1047D0004FF47A71B0FBF1F10398CDE9000440F297
:1047E000CD13064A06A001F00FFA14B903988028E9
:1047F00002D0012004B070BD0020FBE72173000847
:104800005B5831304B422025645D2025733A2825C2
:10481000642920726563655F6269746C656E3A2015
:104820002564202C726573756C74203D20256420EE
:104830000A00000030B504468BB00D46012000F0A0
:10484000A3F9A0218DF814108DF8154009AC01AB27
:10485000022205A90C20009400F052F800B10120BA
:104860009DF8041001F00F010A2901D0012200E097
:104870000022104316D1052000F086F901AB10226A
:1048800029460C20009400F03BF800B101209DF86F
:10489000041001F00F010A2901D0012100E00021DC
:1048A000084300D001200BB030BD10B5FEF723FD4A
:1048B000BDE81040FDF7D4BE30B5A1B0044680215C
:1048C0006846FDF7CEFC6D46FEF715FD20680290A8
:1048D000606803900523002208212846FDF788FD23
:1048E0001222294602A000F0B3F921B0002030BD09
:1048F00050434242756D55704C6F6164000000007A
:104900002DE9F04799461446884607460026DDF80B
:1049100020A0FDF775FFFEF7EEFC20210B2001F033
:104920006EF97F21042001F06AF90E2F07D141466C
:10493000204601F057F980210D2000F0E5FA802192
:104940002A2000F0E1FA3946012001F058F9FEF77B
:10495000D2FC042000F0C8F90546C00703D020258A
:104960000C2F5CD076E00E2F11D0042F12D00C2F1C
:10497000EDD1680739D5C4B3202C414629D9202070
:1049800001F030F9203CE4B208F1200825E0E80607
:10499000DDD560E0680717D5B4B1202C414604D2BC
:1049A000204601F01FF9002406E0202001F01AF94A
:1049B000203CE4B208F1200880210D2000F0A4FA88
:1049C0000421084601F01BF96806C0D5002CBED1B1
:1049D00041E0204601F006F9002480210D2000F07E
:1049E00093FA0421084601F00AF9280712D568064F
:1049F00010D57CB90A2000F077F920280AD909EBF4
:104A00000601202000F062F92036F6B208210420C9
:104A100001F0F5F8A8069AD5002C98D100250A20B7
:104A200000F062F907460C2000F05EF900F0070480
:104A30000FB904B1012709EB0601384600F046F929
:104A4000F019C0B21CB1C0000838011900E0C10063
:104A5000CAF800101DB9062000F046F9054680216D
:104A60000C2000F051FA2021012001F0C8F880212B
:104A70000D20FDF7B9FE2846BDE8F08710B50446C5
:104A8000FEF739FC24B1012C45D0022C5DD05AE050
:104A900010210C2000F038FA4021152000F034FAE3
:104AA0000021122001F0ABF80021132001F0A7F83B
:104AB0008021392000F028FA01213C20FDF794FEE6
:104AC00007213D20FDF790FE03213E20FDF78CFEDF
:104AD000FF21332001F093F80721322001F08FF8F5
:104AE000F121272001F08BF83F21282001F087F8E1
:104AF0000121292001F083F84021262001F07FF8D0
:104B00000D21192001F07BF88421182001F077F89D
:104B10004021362015E010210C2001F070F883218F
:104B2000122001F06CF88321132001F068F8F421C1
:104B3000272001F064F8F421232001F060F800211F
:104B400020E001F05CF8002010BD10210C2001F0E5
:104B500056F89221122001F052F89621132001F00C
:104B60004EF8F421272001F04AF82021282001F0F6
:104B700046F84F21232001F042F82021292001F09E
:104B80003EF807211520DCE770B540F29F61002454
:104B90004843611E01224FF6FF7301EBC0011D1156
:104BA00002EB4400B1FBF0F0984202D3641CAC422B
:104BB000F6D385B2C4F307212A2000F0A5F9E1B2AB
:104BC0002B2001F01CF8290A2C2001F018F8E9B27A
:104BD0002D2001F014F8002070BD000070B50546CE
:104BE00000241A4E09E00A20FEF77FFA2046641CD2
:104BF000C82802DD4FF0FF3070BD2021304601F0A3
:104C000075FC0028EFD10821304601F03AFBFEF791
:104C100069FA0821304601F032FBFEF763FA0024FE
:104C20000FE0FEF768FB1021304601F02AFBFEF78B
:104C300059FA1021304601F022FBFEF753FA641CAA
:104C4000E4B2AC42EDD3002070BD00000004004887
:104C50007CB515460E460446FEF7CAFF4FF47A713E
:104C6000B0FBF1F15C230A4A0AA0CDE9004500F04F
:104C7000CBFF002404E0315D11A000F0C5FF641CEF
:104C8000AC42F8D3BDE87C400FA000F0BDBF0000EF
:104C9000EF7200085B5831304B422025645D2025BF
:104CA000733A282564292063616C6C206279202581
:104CB000732C6C656E3D25642C70646174613A00E0
:104CC00025303258000000000A00000070B50D4683
:104CD0000646002405E0092000F006F82855641C6B
:104CE000E4B2B442F7D370BD00F022B810B501F0C1
:104CF000A3FFFEF77DFF4FF47A71B0FBF1F1BDE841
:104D000010406A23014A02A000F07EBF32730008FF
:104D10005B5831304B422025645D2025733A2825AD
:104D2000642920B3F5CABCBBAF205254430A00002B
:104D300070B504464FF400454FF090462946304682
:104D400001F09DFA802040EA4400C0B200F0C4F9AE
:104D500000F0BEF904462946304601F092FA20469A
:104D600070BD2DE9F0410E4607464FF400444FF068
:104D700090452146284601F082FA7E2000EA47004D
:104D800000F0AAF9304600F0A7F921462846BDE810
:104D9000F04101F076BA00003EB50C46AA21217020
:104DA00055216170E071101DA0810120A073D01CFD
:104DB00081B2154604F10E00FEF7D8FE6119487461
:104DC000FEF716FF4FF47A71B0FBF1F1207CA37C63
:104DD000627C8DE80D001023094A0AA000F014FF40
:104DE00005F112021546214615A0FFF731FF03B069
:104DF000AAB22146BDE83040002000F06DBE0000A0
:104E00001C7200085B5831304B422025645D202520
:104E1000733A2825642920704672616D652D3E68BD
:104E20006561642E636D64203D205B2523785D2CD5
:104E3000205B25645D2C205B25645D0A000000007A
:104E4000B7A2CBCDCAFDBEDDB8F8B2FAB2E2C8ED6A
:104E5000BCFE0000F0B5A1B00E4607461546802105
:104E60006846FDF7FEF96C468DF8085033463A4621
:104E700001212046FDF7BCFA0B22214602A0FFF7D4
:104E8000E7FE21B00020F0BD53656E644D73675F8F
:104E900041434B001CB56946FFF7C4F89DF801007B
:104EA000FEF7BEFE164B03F83C0F9DF80200FEF71E
:104EB000B7FE58709DF80300FEF7B2FE98709DF89B
:104EC0000000FEF7ADFED8709DF80400FEF7A8FEC6
:104ED00018719DF80500FEF7A3FE58719DF80600B5
:104EE000FEF79EFE98710748016819814068588155
:104EF0000020D860186102483C3001F02DFE1CBD36
:104F0000280700207C00002070B50C460546FFF7FE
:104F1000EBFE40EA0401284600F071FE002070BD5F
:104F200070B50446FEF7E7F91420FFF7DDFE00F048
:104F30000300A04201D1002070BD34B1012C06D085
:104F4000022C0ED0032C0ED006E0032100E001213C
:104F50001420FDF749FC0546C820FEF7C6F8284690
:104F600070BD0221F4E703211420FFF7CDFFF2E723
:104F700070B540F2135001F08BFD084D4FF4005412
:104F8000012223461146284601F0B5FA2346284659
:104F9000BDE870400322002101F0D1BA00080048AA
:104FA00010B5002418210C48FDF75BF90A480921C7
:104FB00004EB440200EBC2025170641CF8D00121E2
:104FC00081713421C171FFF7D3FF01223421BDE883
:104FD0001040002000F06EBAA00A002058B1092845
:104FE0000CD00A280DD00123401E834003EA0100A3
:104FF0001146FEF721BE11460020FAE711460120B6
:10500000F7E770472DE9F04140F2115001F040FD03
:1050100040F2165001F03CFD40F2125001F038FD14
:105020004FF4004401224FF0904523461146284694
:1050300001F061FA234603220021284601F07FFA9D
:10504000214E012240231146304601F054FA4023FC
:1050500003220021304601F072FA1C4F012208237E
:105060001146384601F047FA08230322002138464A
:1050700001F065FA012220231146384601F03BFA7F
:10508000202303220021384601F059FA102301227F
:105090000021384601F02FFA102303220021384660
:1050A00001F04DFA4021304601F0EBF82146284648
:1050B00001F0E7F82021384601F0E3F83846BDE872
:1050C000F041082101F0DBB800140048000400485A
:1050D000A52000F001B800002DE9F041144F05466D
:1050E000002428064FF02001384602D501F0C9F807
:1050F00001E001F0C4F80821384601F0C2F80120AF
:10510000FEF700F86806060E1021384601F0EEF9A9
:1051100040EA06050821384601F0B1F80120FDF704
:10512000F1FF641CE4B2082CDBD32846BDE8F08113
:105130000004004830B5A1B080216846FDF791F821
:105140006C4602ADFEF7D7F8272209492846FDF73D
:105150006FF80123002227212046FDF749F931226B
:10516000214604A0FFF774FD21B0002030BD0000EF
:105170000007002053796E6353797374656D496E2F
:10518000666F000000B5A1B080216846FDF769F8A0
:105190000549684603230968029100220421FDF7AE
:1051A00027F921B0002000BD1E000020704700003C
:1051B0001E48016841F00101016001688907FCD5C2
:1051C00041681B4A1140416041681A4A11404160E0
:1051D000416821F440014160016B174A11400163AD
:1051E0000168164A11400160C16A154A1140C16246
:1051F000016B40F2031291430163016B21F4803192
:105200000163016B21F000410163416B21F0010159
:105210004163D0F8C01021F48031C0F8C0100021E3
:105220008160C0F8CC1001F053BD000000100240B6
:105230000C00FF08FFFFC277BFFFFFBFFFFFF2FEBA
:10524000F0FFFF3F70B540F61A1001F095FB294CB6
:105250004FF47A7501281ED040F61B1001F08CFB2C
:1052600001281FD040F61C1001F086FB012820D039
:1052700040F61D1001F080FB012821D040F61E10E1
:1052800001F07AFB012822D040F61F1001F074FBD8
:10529000012823D02AE0E0686923B0FBF5F1164A23
:1052A00016A021E0E0686D23B0FBF5F1124A1EA0C4
:1052B0001AE0E0687123B0FBF5F10F4A23A013E078
:1052C000E0687523B0FBF5F10B4A29A00CE0E0681B
:1052D0007923B0FBF5F1084A2FA005E0E0687D23B3
:1052E000B0FBF5F1044A36A000F08EFCBDE870403A
:1052F00001F062BA1C000020DD7200085B583130FA
:105300004B422025645D2025733A2825642920CF4F
:10531000B5CDB3CDE2B2BFB8B4CEBBB9DCBDCCB86D
:10532000B4CEBB0A000000005B5831304B42202550
:10533000645D2025733A2825642920CFB5CDB3C9F3
:10534000CFB5E7B8B4CEBB0A000000005B583130DF
:105350004B422025645D2025733A2825642920CFFF
:10536000B5CDB3C8EDBCFEB8B4CEBB0A000000009A
:105370005B5831304B422025645D2025733A282547
:10538000642920CFB5CDB3B6C0C1A2BFB4C3C5B9DF
:10539000B7B8B4CEBB0A00005B5831304B42202571
:1053A000645D2025733A2825642920CFB5CDB3B498
:1053B000B0BFDABFB4C3C5B9B7B8B4CEBB0A00003A
:1053C0005B5831304B422025645D2025733A2825F7
:1053D000642920CFB5CDB3B5CDB9A6BAC4B8B4CE83
:1053E000BB0A000010B5042001F0B6FC0B480C49C4
:1053F0000C4B0068B0FBF1F2B0FBF1F14FF47A70A6
:1054000041434FF0E0201A70026942F0020202614B
:105410004161016941F00101016110BDEC00002012
:1054200040420F007000002070B5174D154C01214F
:10543000284601F049FD00281BD00121284601F033
:105440003FFD617920790022FFF7C8FD2079401CDB
:10545000207120790B280CD1E08A401C80B2E082B8
:10546000A18A884206D2E18A2069405C60710020EE
:10547000207170BDA52020702846BDE8704001F065
:10548000BDBC0000A00A0020002C014010B5012185
:105490008C07204601F018FD002807D00121204686
:1054A00001F00EFD0248C168491CC16010BD00003A
:1054B0001C0000202DE9FF410446204816460F46F7
:1054C00030F8140001F0E4FA1C4D123555F82400B0
:1054D00001F054FC6B20ADF800000020ADF80C008A
:1054E000ADF80200ADF8040002978DF80E0055F8F3
:1054F0002400694601F090FC012E10D155F82400DB
:10550000012101F0D9FC55F82400012101F080FCB3
:10551000A5F118000122005D114601F0F1F855F8DF
:10552000240001F025FC55F8240001F06CFC002C4F
:1055300002D1286801F062FCBDE8FF812200002052
:1055400010B540F2115001F0A3FA40F2125001F0F0
:105550009FFA4FF4A36001F09BFA00F095FE01F072
:10556000CDFCFEF779FBFEF7A7FBFEF709FCFEF783
:1055700057FCFEF7C1FCFEF73BFB4FF47A71B0FB22
:10558000F1F1BDE8104040F25533024A02A000F0AC
:105590003BBB00007C7300085B5831304B42202538
:1055A000645D2025733A28256429205473694B656E
:1055B00079496E6974204F4B0A0000002DE9F043D1
:1055C0008DB0064600200190029003900490059053
:1055D000086008710C4620218DF818108DF81C0009
:1055E0008DF820008DF8240080211220FDF7FCF8B2
:1055F00080211320FDF7F8F880210E2000F0FFFA3B
:1056000000211D2000F0FBFA0DF128080DF104091E
:1056100004AD8DF828609DF818008DF829009DF8DC
:105620001C100D2000F0EBFA9DF82420214608F113
:105630000200FCF7FDFD9DF82400801CC7B201208C
:10564000FFF7A2FA02AB3A460AA90C20CDF8009067
:10565000FFF756F9202867D000072AD50E20FFF75C
:1056600043FB00F01F0709AB08AA06A9384600F063
:105670001EF907A9384600F0F9F89DF8242002A980
:1056800004A8FCF7D5FD9DF824009DF820202844AF
:1056900010F8011D11400170002205E0A05CA95C1A
:1056A0000843A054521CD2B29DF824008242B0D2CA
:1056B000F4E70198082802D9C0F3C70600E00126E4
:1056C0009DF8240018B1311806292DD107E0052EC8
:1056D0002AD1324602A92046FCF7AAFD16E028444A
:1056E000324602A9401EFCF7A3FD00200CE09DF805
:1056F000241001440A19294412F8013D11F8011C33
:105700000B43401C1370C0B2B042F0D320786178D4
:10571000E2784840A178514048402179884203D13D
:1057200000200DB0BDE8F0830120FAE770B5154602
:105730000E46044600F038F880B9617871B92178D6
:1057400089090CD131469320FFF738FF30B92A463A
:105750003146932000F059F8002800D0012070BD98
:105760001FB550208DF8040000208DF8050001467B
:105770000D2000F044FA80211220FFF7C5FB8021A4
:105780001320FFF7C1FB08210846FDF72DF8012083
:10579000FFF7FAF903A8009002AB022201A90C203E
:1057A000FFF7AEF804B010BD1FB50446002002900C
:1057B00080211220FDF718F880211320FDF714F83E
:1057C00008211320FFF7A0FB07210D2000F017FA96
:1057D00026208DF80C000120FFF7D6F902A80090D2
:1057E00001AB012203A90C20FFF78AF810B9029837
:1057F000102802D0012004B010BD9DF804002070D4
:105800009DF8050060700020F5E770B50C4606466F
:1058100086B0154600210D2000F0F1F980211220FC
:10582000FFF772FB80211320FFF76EFB8DF80460F9
:1058300070208DF80500002001A9225C0B18401C87
:10584000C0B29A700528F8D30120FFF79DF905A88A
:10585000009003AB072201A90C20FFF751F80028A4
:1058600002D19DF80C10297006B070BDE8B1421E3F
:10587000082A02D200EB001017E0A0F10903020190
:10588000082B03D2803A104408380EE0A0F111032F
:10589000082B02D21044103807E0A0F11903072B9F
:1058A00004D2A2F5C0721044183808707047F0B5E1
:1058B000042510B958240C701D70441E0126082CB4
:1058C00002D221340C701E70A0F10904082C03D2FE
:1058D00031340C7002241C70A0F111040327082C31
:1058E00002D241340C701F70A0F11904072C02D2AF
:1058F000383008701D70087800F00700092807D2BA
:10590000DFE800F0060507090B0D0F1113001670F4
:10591000F0BD1770F0BD072008E00F2006E01F2043
:1059200004E03F2002E07F2000E0FF201070F0BD87
:105930002DE9F05F894604463E4900EB440001EB47
:10594000800A3D48934630F8140001F0A1F83A4827
:10595000001D30F8140001F09BF8374F012120376B
:10596000A7F1100857F8242058F8240000F05CFC38
:1059700007F10805A5F1100655F8242056F8240073
:10598000012100F051FC57F8243058F8240001227E
:10599000022100F0B0FD57F824004FF6FF770346D0
:1059A0003A46002100F0CBFD55F8243056F824008B
:1059B0000122022100F09FFD55F8243056F8240002
:1059C0003A46002100F0BBFD203D55F8240001F0CF
:1059D000ADFB55F82400594601F074FB55F824003E
:1059E000042101F0F6FB55F82400082101F0F9FB31
:1059F000B9F1010F16D155F82400052101F0BEFBC5
:105A0000A5F10C000122005D022100F079FE0B4897
:105A10004FF4807200EB04215046FDF7B0FB504676
:105A2000FDF78AFB55F8240001F098FB0020BDE843
:105A3000F09F000088090020400000208807002017
:105A400070B50C4E0C4C0A4D3146204601F0A9FBB6
:105A500000280CD0204601F061FBC1B22846FDF7BA
:105A600095FB31462046BDE8704001F092BB70BD09
:105A700088090020050005070038014070B50C4E6C
:105A80000C4D0A4C3146284601F08BFB00280CD007
:105A9000284601F043FBC1B22046FDF777FB3146B3
:105AA0002846BDE8704001F074BB70BD9409002029
:105AB000050005070044004010B54FF4964201214F
:105AC0000020FFF735FF0121BDE810404FF4E1321F
:105AD0000846FFF72DBF00002DE9F047174688461E
:105AE000054600240E4E40F2077910E0FDF703FC56
:105AF00018F8041056F8250001F014FB56F825009C
:105B0000494601F030FB0028F8D0641CA4B2BC4226
:105B1000ECD31420FDF7E9FA0020BDE8F08700007F
:105B2000480000202DE9F041124F05464FF4005681
:105B300000243146384600F0A2FB0820FDF7E2FAC7
:105B4000E8073146384602D000F09BFB01E000F048
:105B500096FB0820FDF7D6FA641C6D08E4B2082C09
:105B6000EED33146384600F08CFBBDE8F04108200A
:105B7000FDF7C8BA0008004810B54FF4106420467D
:105B800000F00AFF204600F015FF0128FAD1042199
:105B90004FF47F6000F010FB00F036FBBDE81040D2
:105BA00000F03ABB30B5A1B0054680216846FCF74D
:105BB00058FB6C468DF80850032302220121204631
:105BC000FCF716FC0B22214602A0FFF741F821B09A
:105BD000002030BD50434242756D55704C6F61647A
:105BE0000000000070B50D460646002404E0295D63
:105BF000092000F004F8641CB442F8D370BD10B55D
:105C0000FFF7AFF8002010BD0FB4054B10B503A986
:105C1000044A029800F018F810BC5DF814FB00006C
:105C200099610008F000002002E008C8121F08C1B6
:105C3000002AFAD170477047002001E001C1121F0D
:105C4000002AFBD1704700002DE9FF4F8DB00F46B1
:105C50000546002606E025280BD0DDE90F12904707
:105C60006D1C761C28780028F5D111B03046BDE8AF
:105C7000F08F0024A246A1460122EC4900E0044333
:105C800015F8013F203B02FA03F00842F7D12878CB
:105C90002A2810D06FF02F022878A0F130010929AE
:105CA00014D80AEB8A0102EB410144F0020400EB34
:105CB000010A6D1CF0E701CF5FEA000A03D544F446
:105CC0000054CAF1000A44F002046D1C28782E2802
:105CD00017D115F8010F44F004042A280ED06FF0F4
:105CE0002F022878A0F1300109290AD809EB89018F
:105CF00002EB410100EB01096D1CF2E757F8049B30
:105D00006D1C28786C280FD006DC4C2817D068282A
:105D10000DD06A2814D104E0742810D07A280FD14D
:105D20000DE044F400140AE044F4801401E044F46B
:105D300040146978814202D104F580146D1C6D1CF9
:105D40002A786E2A1FD00CDC632A31D004DC002AAA
:105D50008BD0582A11D1A3E0642A68D0692A0CD1CB
:105D600065E0732A2ED004DC6F2A73D0702A04D128
:105D70009BE0752A6FD0782A6ED01046DDE90F12AD
:105D80009047761C50E1C4F30250022806D0032845
:105D900009D0042801CF09D0066045E101CFF117F1
:105DA000C0E9006140E101CF06803DE106703BE1C2
:105DB00017F8040B8DF8000000208DF80100EB4669
:105DC000012003E057F804BB4FF0FF3061074FF0AC
:105DD000000102D40DE008F10101884649450FDABF
:105DE0008045F8DB1BF808100029F4D108E008F121
:105DF000010188468142FADB1BF808100029F6D120
:105E0000DDE90F23AAEB08008146214600F036F9B0
:105E1000304400EB080604E0DDE90F121BF8010B2B
:105E20009047B8F10108F7D221464846F7E00A2129
:105E3000C4F302534FF0000B0891022B04D001CFA2
:105E4000C117032B09D00AE0FF1D27F00707F7E869
:105E5000020108E032E01FE020E000B2C117042B8D
:105E600001D140B2C117031E71F1000307DA4FF0F0
:105E7000000CD0EB0C006CEB01012D2302E023059C
:105E800004D52B238DF82430012303E0E30701D050
:105E90002023F7E7984658E00A2110E010210EE091
:105EA00010204FF0000B08900CE010214FF0000B79
:105EB00044F004044FF00809089103E008214FF072
:105EC000000B0891C4F30253022B04D001CF002130
:105ED000032B06D006E0FF1D27F00707F7E80201B5
:105EE00003E080B2042B00D1C0B24FF000082307BA
:105EF0002BD5702A07D0DDF820C08CF0100C5CEA9E
:105F00000B0C05D00EE040238DF82430012308E06F
:105F100050EA010306D030238DF824308DF8252077
:105F200002239846DDF820C08CF0080C5CEA0B0CCC
:105F30000BD150EA010301D1630706D530238DF858
:105F400024304FF00108A9F10109582A04D038A2E1
:105F50000B9208AA0A920BE03AA2F9E75B46089A6C
:105F6000FCF797F90B9B9B5C0A9A521E0A921370DE
:105F700050EA0102F2D10A98ADEB000000F1200BCB
:105F8000600702D524F4803401E04FF00109D945BF
:105F900002DDA9EB0B0000E0002000EB0B01414407
:105FA0000890AAEB010AE00306D4DDE90F2321469D
:105FB000504600F063F806444FF0000908E009A9D4
:105FC00011F80900DDE90F12904709F10109761C6B
:105FD000C145F4DBE0030CD5DDE90F232146504633
:105FE00000F04CF8064404E0DDE90F123020904741
:105FF000761C0899481E08900029F5DC08E00A98EC
:106000000A990078491C0A91DDE90F129047761C25
:10601000BBF10001ABF1010BF1DC21465046DDE99B
:106020000F2300F019F806446D1C1BE60928010037
:1060300030313233343536373839616263646566FE
:1060400000000000303132333435363738394142C0
:1060500043444546000000002DE9F0410446002578
:106060001E461746880404D405E039462020B04770
:106070006D1C641EF9D52846BDE8F0812DE9F0417C
:10608000044600251E469046C80301D5302700E08F
:106090002027880404D505E041463846B0476D1CEA
:1060A000641EF9D52846BDE8F08100000149C860AA
:1060B00070470000002002400248016941F0800161
:1060C000016170470020024070B505464FF470260C
:1060D000304600F017F8002810D1094C206940F034
:1060E000020020616561206940F040002061304677
:1060F00000F008F8216921F00201216170BD000063
:106100000020024000B5034600F008F85B1E01289D
:1061100002D1002BF8D1042000BD00000849002066
:10612000CA68D20701D001207047CA68D20601D5DB
:1061300003207047C9684907FBD50220704700005B
:106140000020024004480169090603D50349416063
:106150000349416070470000002002402301674569
:10616000AB89EFCDF0B506464FF470270D463846A3
:10617000FFF7C8FF00280CD1064C206940F0010051
:10618000206135603846FFF7BDFF216921F001012C
:106190002161F0BD0020024010B50446FDF7ABF8C8
:1061A0000449A52081F83100E0B2FFF7BBFC20468E
:1061B00010BD00002807002030B5124D104B45F2ED
:1061C00055541A462C60EC68521E04F0010402D0AB
:1061D000002CF8D100E04CB96960E9685B1E01F061
:1061E000020102D00029F8D102E009B1002030BD3F
:1061F000C0F30B00A8604AF6AA202860012030BD39
:10620000FFFF0F000030004002494AF6AA20086054
:10621000704700000030004002494CF6CC40086056
:106220007047000000300040F0B5046A456A002362
:106230004FF0010C4FF00F0E0CFA03F6164206D089
:106240009E000EFA06F7BC4301FA06F73C435B1CBE
:106250009BB2082BF0D308230CFA03F6164207D0A2
:106260009E00203E0EFA06F7BD4301FA06F73D43B5
:106270005B1C9BB2102BEFD304624562F0BD8162C0
:1062800070478161704700002DE9F0474FF090485A
:10629000012300220221404600F02DF901230022B3
:1062A0001946404600F04BF90223002219464046A9
:1062B00000F021F9002202231146404600F03FF988
:1062C000012203214046FFF7AFFF0222032140468F
:1062D000FFF7AAFF102300220221404600F00BF92D
:1062E000102300220121404600F029F9202300223A
:1062F0000221404600F0FFF80022202311464046CC
:1063000000F01DF9402300220221404600F0F3F87E
:10631000002240231146404600F011F9802300225C
:106320000221404600F0E7F8002280231146404653
:1063300000F005F9102203214046FFF775FF2022E7
:1063400003214046FFF770FF402203214046FFF73C
:106350006BFF802203214046FFF766FFDFF888913C
:10636000012300220221484600F0C5F80123002243
:106370001946484600F0E3F8022300221946484631
:1063800000F0B9F8002202231146484600F0D7F881
:10639000042300220221484600F0ADF80022042325
:1063A0001146484600F0CBF8012203214846FFF78A
:1063B0003BFF022203214846FFF736FF0422032158
:1063C0004846FFF731FF4FF4805423460022022154
:1063D000404600F090F8234600220121404600F09C
:1063E000AEF8A5102B4600220221404600F083F8AB
:1063F00000222B461146404600F0A1F866103346B5
:1064000000220221404600F076F800223346114671
:10641000404600F094F8E7103B4600220221404637
:1064200000F069F800223B461146404600F087F82C
:106430003A4603214046FFF7F7FE2A46032140462D
:10644000FFF7F2FE324603214046FFF7EDFE2246FB
:1064500003214046FFF7E8FE33460022022148466A
:1064600000F049F8334600220121484600F067F861
:10647000234600220221484600F03DF80022234630
:106480001146484600F05BF865002B4600220221C9
:10649000484600F030F800222B461146484600F0EE
:1064A0004EF8A7003B4600220221484600F023F8A0
:1064B00000223B461146484600F041F8324603218F
:1064C0004846FFF7B1FE224603214846FFF7ACFEDF
:1064D0002A4603214846FFF7A7FE3A464846BDE84C
:1064E000F0470321FFF7A0BE000400480069084000
:1064F00000D0012070472DE9F0470568C6680024E8
:106500004FF0010A4FF003090AFA04F71F420ED0B8
:10651000670009FA07FC25EA0C0526EA0C0601FAD1
:1065200007F802FA07FC48EA05054CEA0606641C6F
:10653000A4B2102CE8D30560C660BDE8F087F0B5C2
:106540000129416830D099434160846801260327BE
:10655000A2F57F41FF3913D0002106FA01F51D4253
:1065600008D04D0007FA05FC24EA0C0402FA05FCE9
:106570004CEA0404491C89B21029EED38460F0BDB2
:10658000C26B002106FA01F51D4206D04FEA410C0C
:1065900007FA0CFC4CEA04042A43491C89B210296E
:1065A000F0D38460C263F0BD1943CDE738B504462B
:1065B000FF280FD00B2C0DD8FDF70AFDFDF718FBB7
:1065C0004FF47A71B0FBF1F19923034A03A00094D0
:1065D000FFF71AFB38BD00003A7300085B583130F2
:1065E0004B422025645D2025733A28256429205BD1
:1065F0006B657968686868683A2025645D0D0A00F3
:10660000FDF7F6FA81460546C846FDF7F1FA394C22
:106610002F464FF400513E468803656000F0BAF8FB
:106620004FF4407000F0ACF8FBF76EFFA24647F263
:10663000305BFCF760FEFDF7DBFA0446FDF7D8FAA5
:10664000014609F5FA70814203D2FDF7D1FA4845B7
:1066500004D2FDF7CDFA8146FDF7D0FAFDF7C8FA6E
:10666000014608F5AF70814203D2FDF7C1FA4045FB
:1066700004D2FDF7BDFA8046FDF760FAFCF7CCF8CE
:1066800005F57A70A04201D9A5420CD91A48807844
:1066900048B91A48254690F82300A52801D0FEF7EE
:1066A00004F9FCF728FEDAF8040000F57A61A1424B
:1066B00001D9A04204D90121CAF804408AF8001087
:1066C000FCF7E4FB9AF8010048B941F288303844FD
:1066D000A04201D9A74202D92746FEF72BFD06EBBF
:1066E0000B00A04201D9A642A3D92646FEF74AFDD7
:1066F0009FE70000000000201E0000202807002067
:1067000030B51E4D002423462D6805F4E065B5F52F
:10671000A06F12D006DCB5F5407F14D0B5F5806FC0
:1067200012D10DE0B5F5C06F04D0B5F5E06F0BD117
:10673000042309E00124032306E00224234603E0A6
:106740000324012300E00424C4F10404A140C3F1A4
:1067500004040F23E34013400B4300F1E02219012E
:1067600082F8001400F01F020121914040098000CE
:1067700000F1E020C0F8001130BD00000CED00E099
:106780000249084302490860704700000000FA050A
:106790000CED00E0024A11400143024801607047DD
:1067A00080FFFF1F08ED00E00248016841F480719E
:1067B00001607047007000400248416A41F08071FA
:1067C00041627047001002402DE9F04760A288B096
:1067D00074CA8DE874005FA2614ED2E90042CDE92F
:1067E00004425CA28046D2E90042CDE90642002084
:1067F0007268014603465B4DC2F381021AB1012A59
:1068000001D0022A01D02A4623E072687468C2F3DC
:106810008342C4F3C067F46AE40F0FB1113200E0A1
:10682000921C04B11F327468F76AC4F30044C7F3C2
:10683000807764B1F46A04F00F04641C27B14A4FF6
:10684000B7FBF4F4624304E0B5FBF4F4FAE7474C19
:1068500062437468C4F303141DF8047022FA07F449
:1068600077680DF1100CC7F302271CF8077024FAA3
:1068700007F977680DF1180CC7F3C2274FF4004AE7
:106880001CF8077024FA07F7B8F1070F06D2DFE803
:1068900008F004080A0C0E3C4400104608B0BDE89D
:1068A000F0872046FAE74846F8E73846F6E7306BC7
:1068B000C00506D4306BC00301D42D4923E02D4917
:1068C00021E07068C0F38132306BC00F32B1012A11
:1068D00009D0022A0ED0032A15D110E008B10320F6
:1068E00003E079080FE018B10520B7FBF0F10AE0EA
:1068F000B90808E008B10720F7E70620F5E708B176
:106900000920F2E7F9080846C8E7306B400602D4D0
:1069100048F21200C2E75046C0E7306B80070ED045
:10692000306B00F0030001280BD0306B00F0030047
:10693000022808D0306BC043800706D006E03B46F3
:1069400004E0134602E0534600E02B461846A5E754
:10695000000000000000000001020304060708090F
:106960000010024000127A00006CDC0200093D00B9
:10697000809FD500003FAB01064A02EB90110968E9
:1069800000F01F0201209040014201D00120704719
:106990000020704700100240054901EB90110A6881
:1069A00000F01F030120984002430A607047000076
:1069B0000010024070B500234FF40066334D1C46B2
:1069C000B0421BD005DC30B310280ED018285AD1A5
:1069D0004DE0B0F5106F3FD0B0F5506F26D000F508
:1069E0007F60B0F5804F4ED12BE01120FFF7C4FF40
:1069F0005B1C08B9B342F8D1112040E040F6010613
:106A00006FF07C453046FFF7B7FF5B1C08B9AB421F
:106A1000F8D1304633E04FF4A0650120FFF7ACFF1A
:106A20005B1C08B9AB42F8D1012028E040F60156C2
:106A30003046FFF7A1FF5B1C0028EAD1AB42F7D13B
:106A4000E7E743F211063046FFF796FF5B1C00288C
:106A5000DFD1AB42F7D1DCE740F601163046FFF755
:106A60008BFF5B1C0028D4D1AB42F7D1D1E71920B2
:106A7000FFF782FF5B1C08B9AB42F8D11920FFF782
:106A80007BFF00B10124204670BD0000FFFF0F0016
:106A9000054901EB90110A6800F01F03012098409E
:106AA00002430A607047000000100240054901EBF4
:106AB00090110A6800F01F030120984082430A6089
:106AC0007047000000100240054901EB90110A6870
:106AD00000F01F030120984002430A607047000045
:106AE0000010024004490A6A22F440720A620A6AEB
:106AF00002430A62704700000010024030B5154999
:106B00000B68091D0968134A10321268114C0834C9
:106B100024680D0C0570C1F30425457001F03F0594
:106B20008570C1F34231C170C3F305410171C3F3F4
:106B30000621417103F07F018171C2F30641018199
:106B4000C2F30E01418102F48001C16004F04001F2
:106B5000016130BD00280040F0B504460078E178BE
:106B6000E6684D0360F31F4560784FF4F85101EA81
:106B700000200543A0784FF47C1100F03F0005434E
:106B800020791B4F01EA0040064360794FF4FE4133
:106B900001EA0020A17901F07F0108430643CA20E1
:106BA00038605320386000F025F8E8B120894FF4B0
:106BB000FE0101EA00406189C1F30E0108430C495E
:106BC000143908600A4824380660001D0560001D5D
:106BD000016821F0400101600168226911430160F0
:106BE00000F022F800F04CF8FF213960F0BD000001
:106BF000242800400B4B4FF4804100201A685206B5
:106C00000DD41A6842F080021A601A68491E02F018
:106C1000400202D0002AF8D001E0002A00D0012072
:106C2000704700000C2800400248016821F08001F4
:106C3000016070470C28004010B540F21C70FFF74F
:106C400027FFFFF7B1FD4FF410642046FFF7A4FEC5
:106C50002046FFF7AFFE4FF40070FFF743FF0748F1
:106C600040F28F1141606321016040F60F00FFF791
:106C70000FFFBDE8104000F003B800007C000020CA
:106C800018B512494FF400400090096800208906A9
:106C90001AD40E4CCA211C342160532121600B4BA5
:106CA0001B1D196821F020011960196801F02002EC
:106CB0000099491E009102D0002AF6D000E002B1EE
:106CC0000120FF21216018BD012018BD08280040C7
:106CD0001E480021026842F480320260C314026838
:106CE000491C12F4003F01D19942F8D1016889038F
:106CF0002BD541684160416841F4005141604168D1
:106D000041F4806141604168114A11404160C16AAB
:106D100021F04041C162C16A41F00101C162416894
:106D20000C4A11434160016841F0807101600168C3
:106D30008901FCD5416821F003014160416841F0BF
:106D40000201416041680907FCD57047001002400C
:106D5000FFFFC277000029084FF0E02104280869EE
:106D600003D020F004000861704740F00400FAE707
:106D7000016841F080010160704700001D4A10B5B4
:106D8000811A4FF4E053904220D00DDCB0F1804FD7
:106D90001FD0194940181FD0B0F5406F1FD098423E
:106DA00026D14FF4816409E0B1F5A05F1AD0B1F5A6
:106DB000C05F1AD099421BD140F212342046FFF72F
:106DC00083FE2046BDE81040FFF770BE40F20B3452
:106DD000F4E74FF48064F1E740F20144EEE740F25B
:106DE0000444EBE74FF44474E8E740F21134E5E77C
:106DF00010BD0000002C014000FCFFBF016821F025
:106E0000010101607047016841F0010101607047B4
:106E100002698A4302617047F0B50A888262204A9B
:106E2000204B4FF08047904203D0B84201D09842A7
:106E30000BD1046824F07004046004684D882C436E
:106E4000046004688D882C4304608C68C462164C0E
:106E5000164D174E90420CD0B8420AD0984208D036
:106E6000144B984205D0A04203D0A84201D0B042B2
:106E700007D1036823F44073036003688F893B43A1
:106E80000360904205D0A04203D0A84201D0B04296
:106E900001D1897B0163416941F001014161F0BD8C
:106EA000002C01400004004000400140004401402B
:106EB0000048014000200040C2680A43C260704799
:106EC00002698A4302617047C26800690A40084249
:106ED00002D00AB1012070470020704702498A6A37
:106EE00082438A62704700000040024002498A6A79
:106EF00002438A62704700000040024010B54FF024
:106F0000807260231101052000F082F800F0B4F8CF
:106F1000012000F0A7F8012000F06AF8032000F03B
:106F20006FF8102000F09EF8022000F061F8F020C9
:106F300000F066F84FF4007000F094F8042000F0C0
:106F400057F84FF4606000F05BF84FF4004000F039
:106F500089F8082000F04CF84FF4704000F050F829
:106F60004FF4801000F07EF8202000F041F84FF43C
:106F7000700000F045F8BDE8104000F001B80000D6
:106F80000248016841F00101016070470040024081
:106F900002498A6802438A6070470000004002404C
:106FA0000349C968014201D00120704700207047A1
:106FB000004002400148406B80B2704700400240F0
:106FC0000148806B80B27047004002400148C06BAE
:106FD00080B27047004002400148006C80B27047A8
:106FE000004002400148806C80B27047004002407F
:106FF00002490A6B02430A637047000000400240E6
:1070000002490A6982430A61704700000040024059
:1070100070B5124C2568AD071ED4114E256808289E
:107020000BD241EA0030104335401843284320601A
:10703000D4F8000320F080700CE020F0080041EA52
:10704000003010433540184328432060D4F8000333
:1070500040F08070C4F8000370BD000000400240A2
:107060001F8FFF0003490A68920702D40A6A02438D
:107070000A6270470040024004480168890703D44F
:10708000016821F0040101607047000000400240E7
:107090000248016841F0020101607047004002406F
:1070A00010B5FFF723FF4FF45060401EFDD10320C1
:1070B000FFF76EFFFFF7ECFF0320FFF771FF0028DB
:1070C000FAD010BD70B50D46044613490020611872
:1070D00004D0B1F5744F04D1062000E00220FFF780
:1070E00073FB21680A044FF6F07108D5400000EBED
:1070F0005500B0FBF5F0014000F0070206E000EBA0
:107100005500B0FBF5F0014000F00F02E0681143BC
:107110000843E06070BD000000BCFFBF406AC0F3E0
:1071200008007047C1F30801816270470A4910B531
:10713000401805D0B0F5744F0CD140F20E3401E088
:1071400040F211442046FFF7BFFC2046BDE8104046
:10715000FFF7ACBC10BD000000BCFFBF016841F0F0
:1071600001010160704700EB9110006801F01F02FF
:1071700001219140084000D00120704710B5C1F3B3
:107180008912835801F01F040121A1400B43835051
:1071900010BD026AC1F30443012199400A4302620F
:1071A000704730B5C1F38912825800EB915001F05D
:1071B0001F05012404FA05F300681A40C1F30441D5
:1071C00004FA01F3184202D00AB1012030BD0020B8
:1071D00030BD026822F00402026002680A430260C5
:1071E0007047026822F00802026002680A430260E7
:1071F00070474273774472765F464D313735585841
:107200005F536574506F776572446F776E004368A3
:1072100065636B5F4D315F436172640053656E64FB
:107220004465627567506B74004465627567506BA6
:107230007450726F6300446562756752656376507F
:10724000726F6300557067726164655F577269742D
:107250006500434F4D5F557067726164655F57729B
:10726000697465004D61696E426F61726442617359
:107270006963496E666F004D61696E426F61726449
:1072800043617264496E666F005570677261646530
:107290005265717565737448616E646C6572004304
:1072A0006F6D526563764D61696E426F61726444C1
:1072B00061746100466C6173685772697465576FD9
:1072C000726400466C6173685772697465004C6F34
:1072D000616453797374656D496E666F0053797399
:1072E00074656D52657365745265636F72640050A6
:1072F00072696E74664461746100425350466C61F9
:107300007368577269746500466C6173685465737D
:107310007400464D31373558585F436F6E66696764
:10732000004D69666172655F426C6F636B72656187
:107330006400527463496E6974006B65795F6F6EA7
:10734000636C69636B5F63616C6C6261636B004764
:10735000334765744B65790047354765744B6579EC
:107360000047304765744B65790047314765744B7A
:1073700065790047324765744B6579005473694BF2
:107380006579496E6974001F1C1F1E1F1E1F1F1E7A
:107390001F1E1F1F1D1F1E1F1E1F1F1E1F1E1F0023
:1073A0005B5831304B422025645D2025733A2825F7
:1073B0006429200A20C9E8B1B8B0E6B1BEBAC53A1E
:1073C0002066775F76657273696F6E203D20256455
:1073D0002C2073756256657273696F6E31203D2083
:1073E00025642E200A000000087400080000002018
:1073F000F4000000285C0008FC740008F400002081
:10740000D40F0000385C00080100000000000000FC
:1074100036663764326B0000000000000000000098
:10742000000000000D0F000000000B060007000028
:10743000000000000000000000000000002C0140DF
:10744000000000401B1C0000120511050E0611076C
:10745000003801400044004000040048000000489B
:107460000004004800000048400000000400000044
:107470008000000008000000000000000000000084
:10748000000000000000000000000000FF000000FD
:1074900000000000000000000000000000000000EC
:1074A00000000000000000000000000000000000DC
:1074B00000000000000000000000000000000000CC
:1074C00000000000000000000000000000000000BC
:1074D00000000000000000000000000000000000AC
:1074E000000000000000000000000000000000009C
:0C74F0000000000000F36F060000000028
:04000005080021517D
:00000001FF
