:020000040800F2
:1020000000110020652100086D2100086F210008E3
:1020100071210008732100087521000800000000EC
:102020000000000000000000000000007721000810
:1020300079210008000000007B210008D557000826
:102040007F2100087F2100087F2100087F210008F0
:102050007F2100087F2100087F2100087F210008E0
:102060007F2100087F2100087F2100087F210008D0
:102070007F210008495A00087F210008AD5A000856
:102080007F2100087F210008000000007F21000858
:102090007F2100087F2100087F2100087F210008A0
:1020A0007F2100087F2100087F210008956000083B
:1020B000D1600008000000007F210008000000003F
:1020C0007F210008000000007F2100087F21000818
:1020D0007F21000800000000000000000000000058
:1020E00000000000000000007F2100080000000048
:1020F00000000000000000000000000000000000E0
:102100007F21000800000000000000007F2100087F
:1021100000000000000000000000000000000000BF
:1021200000000000000000000000000000000000AF
:10213000000000000000000000000000000000009F
:102140000000000000000000000000007F210008E7
:10215000DFF80CD000F05EFA00480047016C000880
:10216000001100200648804706480047FEE7FEE7CA
:10217000FEE7FEE7FEE7FEE7FEE7FEE7FEE7FEE737
:10218000D95700085121000840EA01039B0703D0FA
:1021900009E008C9121F08C0042AFAD203E011F8A6
:1021A000013B00F8013B521EF9D27047D2B201E068
:1021B00000F8012B491EFBD270470022F6E710B54C
:1021C00013460A4604461946FFF7F0FF204610BDA5
:1021D00030B505462A460B4612F8010B13F8014BA1
:1021E00008B1A042F8D01CB1002802D06D1CF1E764
:1021F000284630BD421C10F8011B0029FBD1801A73
:10220000704730B504460020034600E05B1C934253
:1022100003D2E05CCD5C401BF8D030BD034611F822
:10222000012B00F8012B002AF9D118467047000055
:102230000FB400B58DB010A909900B9000914FF02C
:10224000FF300A9000200C90054806900548079042
:102250006A4609A80F9900F0AFF90DB05DF814FBBC
:10226000D5250008F32500082DE9FF5F1D464FF036
:10227000FF3BD5E9014691465F464FF00008A9694A
:102280007F1C01988847296A824688470028F6D132
:10229000BAF1FF3F0CD024F4C064002E19DD6006B3
:1022A00014D5BAF12B0F09D0BAF12D0F0ED103E0DE
:1022B000584604B0BDE8F09F44F48064A9697F1CCF
:1022C00001988847761E8246002E02DDBAF1300F53
:1022D00003D0B9F1000F26D032E0A969761E44F48C
:1022E00000747F1C019888478246002E05DDBAF1F4
:1022F000780F06D0BAF1580F03D0B9F1000F10D003
:102300001EE0B9F1000F02D0B9F1100F18D1A96980
:10231000761E24F400747F1C0198884782461020A2
:1023200002E0082000E00A20814609E008FB0908D5
:10233000A969761E44F400747F1C01988847824680
:10234000002E05DD4946504600F022F90028EDDA5E
:10235000E96901988847A00502D46FF00100A8E759
:10236000E00725D1600613D5600502D5C8F100004D
:1023700000E0404629680A1D2A600968220501D547
:10238000087015E0220701D5088011E008600FE011
:102390002868011D29600068210502D580F80080A9
:1023A00006E0210702D5A0F8008001E0C0F8008017
:1023B00038467EE72DE9FF5FD2E901A74FF000081C
:1023C000916999461446DDF838B046460198884729
:1023D000054659EA0B0005D009E0A169761C019871
:1023E00088470546216A284688470028F5D1681C99
:1023F00003D05FEACA7005D015E04FF0FF3004B09B
:10240000BDE8F09F2068011D2160D0F800800AE03F
:102410005FEACA7001D108F8015BA169761C7F1ED2
:10242000019888470546002F1ADD681C18D0B9F1BD
:10243000000F0DD0E81705EBD060421120F01F000F
:1024400059F822102A1A012090400142E0D107E0F9
:10245000BBF1000FDCD1216A284688470028D7D07D
:10246000E16901988847BBF1000F07D1002E05DD17
:102470005FEACA7002D1002188F80010A068B84253
:1024800003DDBBF1000F03D017B16FF00100B6E719
:102490003046B4E72DE9F05F0546002092469B46A2
:1024A00088460646814640241BE02846414647466A
:1024B000224600F0D0F853465A46C01A914110D334
:1024C00011461846224600F0B7F82D1A67EB0108AE
:1024D0004F4622460120002100F0AEF817EB00091C
:1024E0004E41201EA4F10104DFDC484631462A4655
:1024F0004346BDE8F09F0000014900F003B800002A
:10250000D40C002010B500683C22B0FBF2F302FBB3
:102510001303B0FBF2F00B60B0FBF2F302FB13030A
:10252000B0FBF2F018224B60B0FBF2F302FB130396
:10253000B0FBF2F0021D8B600723B2FBF3F403FB48
:102540001422800040F2B55300F66C308A61B0FB73
:10255000F3F2B0FBF3F403FB1400443280084A6149
:10256000C8613B2802D3920700D0401C0022074CD0
:1025700013460A61E25C824203D8801A5B1C0B613D
:10258000F8E7401CC860084610BD00000D7B00083D
:102590003A2800D2303820F02002412A01D3A2F19B
:1025A0003700884201D34FF0FF3070470268114472
:1025B0001378016018467047D1600449516104499D
:1025C000116200211161114600F05AB8AD250008D2
:1025D00077260008426842B1016811F8013B23B137
:1025E000521EC0E90012184670470121C160881EC2
:1025F000704742685AB1C368016843B983688B4227
:1026000005D0491E521CC0E90012002070474FF04F
:10261000FF307047064C074D06E0E06840F00103CC
:1026200094E8070098471034AC42F6D3FFF794FDC6
:10263000E87B0008087C0008202A04DB203A00FA26
:1026400002F1002070479140C2F1200320FA03F309
:10265000194390407047202A04DB203A21FA02F007
:102660000021704721FA02F3D040C2F120029140CC
:10267000084319467047C0B24FF4F05100F096B9C4
:102680002DE9F34F8BB04FF0000801F10C000C4620
:102690004FF0010B46460DF1080A019062690121D5
:1026A0000198904705002DD0252D2CD0216A884710
:1026B000C0B16269012101989047216A88470028CA
:1026C000F7D1411E62690198904700E0761CA1692C
:1026D0000B988847216A88470028F7D1E1690B9851
:1026E0008847DBE7A1690B9888470746A84201D1D4
:1026F000761CD3E7E1690B9888477F1C02D1B8F1BB
:10270000000F6FD046E1002762693D4639460198C7
:1027100090472A2804D16269012101989047012538
:10272000DFF884926269012101989047A0F130019D
:102730000A290AD24F45E5DC07EB870100EB410788
:10274000303FDFD445F01005ECE7E90601D46FF027
:1027500000476C280AD04C2814D0682815D06A2865
:102760000DD074281CD07A281AD01DE0626901218E
:10277000019890476C2802D045F0040514E045F01C
:1027800002050DE045F020050AE06269012101988B
:102790009047682802D045F0080505E045F400653B
:1027A0006269012101989047C4E9015765283DD02D
:1027B00019DC58287AD00CDC452837D004DC2528D1
:1027C00026D0412831D131E046282FD047282CD1BE
:1027D0002CE05B2877D0612828D063287CD064283F
:1027E00023D15AE0D0E06F2848D008DC66281DD0FD
:1027F00067281BD0692821D06E2816D127E07028C1
:1028000045D0732868D0752847D078280DD14DE081
:10281000A1690B988847054625283FF469AFE1690F
:102820000B9888476D1C3FF46AAFB3E023466A46B5
:102830006FF001000B99AFF300809EE045F040007F
:102840006060A80723464FF0000236D43EE0E80758
:102850007FF447AF2068011D21600068290501D57C
:1028600006701BE7290701D5068017E7A90703D5DE
:10287000F117C0E9006111E706600FE745F040007D
:102880006060A80723464FF0080216D41EE040F609
:102890000E0125EA0100606016E045F0400060602E
:1028A000A80723464FF00A0207D40FE045F0400086
:1028B0006060A80708D5234610226FF001000B992D
:1028C000AFF3008059E007E0234610226FF00100CB
:1028D0000B99FFF7C9FC50E04FF000094F464B46FB
:1028E000632802D05B2806D040E0E80601D401202E
:1028F000A06001273AE062690121019890475E28B3
:1029000005D14FF001096269494601989047216954
:1029100039B900210A46534643F82120491C0829A9
:10292000FADBB0B3216969B9C11700EBD162531169
:102930000AEB830122F01F02821A01200B689040EB
:1029400003430B6062690121019890475D28E8D13B
:10295000B9F1000F09D00020514651F82020D24390
:1029600041F82020401C0828F7DB02AB22460097E4
:102970006FF001000B99FFF71DFD00280CDA401CD9
:1029800008D1BBF1000F05D04FF0FF300DB0BDE80E
:10299000F08FFFE74046F9E7E90701D108F10108A8
:1029A00006444FF0000B79E6CCCCCC0C7F2801D943
:1029B000002208E0064A02EB5002C007127800D15C
:1029C000120902F00F0201209040084070470000F9
:1029D000197B000870B50446AA202070552060704D
:1029E00010480D4610F8291F61710178491C0170CB
:1029F000681D608001202071281DA27181B2E371E1
:102A0000201D01F04FFB014660190B3501720D21AD
:102A100041720A218172AAB22146BDE870400120AC
:102A200003F07ABB2C0700200021A0F13002092A14
:102A300001D8D1B20BE0A0F14102052A01D8373804
:102A400004E0A0F16102052A01D85738C1B2084656
:102A50007047000070B586B016460C460546142235
:102A600010A16846FFF790FB002318460CB1002E1A
:102A700002DC002006B070BD69460CE0E25C01EBB0
:102A8000121212782A54E25C401C02F00F028A5C97
:102A90002A54401C5B1CB342F0DB00212954284619
:102AA000E8E70000303132333435363738394142C7
:102AB00043444546000000002DE9FF4F8DB000243F
:102AC0001F4692468B464FF0FF392646DDF8688058
:102AD00001F0F4FA41463846FFF76FFBB2E03220CE
:102AE00000F070FE01F0EAFA05461BE001F0E6FA9C
:102AF000054601F091FA01469DF8300000900190E2
:102B00005823544A54A003F091FB9DF8300018B1AB
:102B1000A04501DD3855641C0CA9574800F082FE21
:102B20000028E3D001F0CAFA05F10A01884203D86F
:102B300001F0C4FAA842EFD259463846FFF748FBE5
:102B400000287DD04DA10D98FFF742FB4E4C10B3ED
:102B5000182101A8FFF731FB01AA4CA13846FFF765
:102B600067FB01A8FFF746FB142805D3142201A92F
:102B7000A01CFFF709FB03E001A9A01CFFF74EFB17
:102B800001F04AFA014640487823801C0090314AFF
:102B900041A003F04BFB49A10D98FFF719FB20B3AF
:102BA000142107A8FFF709FB07AA47A13846FFF73A
:102BB0003FFB07A8FFF71EFB334D16350C2807D344
:102BC000079844F8160F089860600998A06003E021
:102BD00007A92846FFF722FB01F01EFA01468723CA
:102BE0001C4A3CA0009503F021FB43A10D98FFF780
:102BF000EFFAB0B1142101A8FFF7DFFA01AA41A151
:102C00003846FFF715FB01A9414802F093FD01F09A
:102C100003FA014601A8009091230E4A3DA003F05B
:102C200005FB44A10D98FFF7D3FA28B1384A44A117
:102C3000121F3846FFF7FCFA4FF0000905E0FFE7E6
:102C40003236B6B25645FFF44AAF11B04846BDE839
:102C5000F08F0000B07900085B5831304B422025DE
:102C6000735D2025733A2825642920633A5B257813
:102C70002C2025635D2E0A00A409002041542B5608
:102C80004552533F00000000040700202B564552D8
:102C9000533A2025730000005B5831304B42202509
:102CA000735D2025733A2825642920626C756520A0
:102CB0007665723A25732E0A0000000041542B4EAF
:102CC000414D453F000000002B4E414D453A202527
:102CD000730000005B5831304B422025735D202586
:102CE000733A2825642920626C7565206E616D65D4
:102CF0003A25732E0A00000041542B475749443FA0
:102D0000000000002B475749443A2025730000007B
:102D1000240000205B5831304B422025735D202574
:102D2000733A282564292067776D61633A25732EED
:102D30000A00000041542B444556543F0000000057
:102D40002B444556543A2025640000002DE9F041FB
:102D500040F2115004F034FA40F2125004F030FA0C
:102D60004FF4807401224FF09045234611462846C7
:102D700003F0EBFE234603220021284603F009FF5F
:102D8000184E012223461146304603F0DEFE23464C
:102D900003220021304603F0FCFEE7013B460122FE
:102DA0000021304603F0D1FE3B460322002130468D
:102DB00003F0EFFE670001223B461146304603F068
:102DC000C4FE3B4603220021304603F0E2FE2146CA
:102DD000284603F080FD21463046BDE8F04103F06F
:102DE0007ABD0000000400482DE9F043DFF8789038
:102DF0000F4605464FF40078A1B01646012441461F
:102E0000484603F066FD00F0E0FD022000F0DAFC29
:102E100001F002F90146A923144A15A0009503F018
:102E200005FA2846FFF7E6F982B22946002003F0AA
:102E300073F957B14EB18020009001AB324639464C
:102E40002846FFF739FE40B108E04146484603F006
:102E500042FD002021B0BDE8F083002441464846F1
:102E600003F039FD2046F5E700040048BD7900086D
:102E70005B5831304B422025735D2025733A28255D
:102E8000642920B7A2CBCDC3FCC1EE5B25735D2EB8
:102E90000A0000002DE9F0410546002440F6B8364E
:102EA0004FF47A770FE0324609A10AA0FFF79CFFA2
:102EB00000280BD0012D04DD00F087FD384600F01E
:102EC00081FC641CE4B2AC42EDDB0020BDE8F08183
:102ED0004F4B000041540D0A0000000001214FF447
:102EE000E132002003F04CB810B5FFF72FFFBDE82A
:102EF0001040FFF7F3BF000010B501F01FFC03F016
:102F00005BF900F062FD01224FF47A74214610460D
:102F100002F0E0FD02F076FD02F042FB204600F0F8
:102F200051FC03F0F3F802F0E9F9204600F04AFC06
:102F300001F050FC02F09AFC08A003F077F902F0CF
:102F40002BFEFFF7D1FF00F0B1FC08A003F06EF9F3
:102F5000BDE8104009A003F069B900005573617223
:102F600074496E6974204F4B210D0A000D0A2042EE
:102F70007370496E6974206F6B0A00000A3D3D3D15
:102F80003D3D3D3D3D3D3D3D3D3D3D3D3D3D3D3D71
:102F90003D3D3D3D3D3D3D3D3D3D3D3D3D3D3D3D61
:102FA0003D3D3D3D3D3D3D3D3D3D3D3D3D3D3D3D51
:102FB0003D3D3D3D3D3D3D3D0A0A0A0070B50024C2
:102FC00000F042FA1C49012040F6B83548701B4910
:102FD0004FF4FA6648702A4619A11AA0FFF704FFB9
:102FE00000281BD001F018F80146E423174A18A066
:102FF00003F01CF900F0E9FC304600F0E3FB641C30
:10300000E4B2022CE7D301F007F80146E8230F4AA7
:103010001AA003F00BF94FF0FF3070BD00F0FCFF79
:103020000146E023094A1FA003F000F92649087869
:10303000401C0870002070BD040700202E000020F6
:103040004F4B000041540D0A00000000D8790008E1
:103050005B5831304B422025735D2025733A28257B
:10306000642920626C7565207265736574206661E1
:10307000696C2C72657472792E0A00005B583130CD
:103080004B422025735D2025733A28256429206250
:103090006C7565207265736574206661696C2E0AB3
:1030A000000000005B5831304B422025735D202525
:1030B000733A2825642920626C75652074657374E1
:1030C000206F6B2E0A000000140000202DE9F04153
:1030D000002440F6B8354FF49A764FF4FA672A4642
:1030E00017A118A0FFF780FED8B100F095FF0146A8
:1030F0003346174A17A003F099F8384600F062FBF0
:10310000641CE4B2022CEAD300F086FF014640F2D0
:1031100037130F4A19A003F089F84FF0FF30BDE8CC
:10312000F08100F079FF01464FF49873084A1CA023
:1031300003F07CF823490878401C08700020EEE773
:103140004F4B000041542B4E414D453F0D0A0000AE
:10315000157A00085B5831304B422025735D2025DD
:10316000733A2825642920BBF1C8A1C3FBD7D6CA6E
:10317000A7B0DC2C72657472792E0A005B5831306E
:103180004B422025735D2025733A2825642920BBF6
:10319000F1C8A1C3FBD7D6CAA7B0DC2E0A00000035
:1031A0005B5831304B422025735D2025733A28252A
:1031B000642920BBF1C8A1C3FBD7D6206F6B2E0AB0
:1031C00000000000140000202DE9F041002440F62A
:1031D000B8354FF487764FF4FA672A4617A118A03E
:1031E000FFF702FED8B100F017FF01463346174A39
:1031F00017A003F01BF8384600F0E4FA641CE4B2B0
:10320000022CEAD300F008FF014640F211130F4AE6
:1032100019A003F00BF84FF0FF30BDE8F08100F08B
:10322000FBFE01464FF48573084A1BA002F0FEFF27
:1032300021490878401C08700020EEE74F4B000041
:1032400041542B4543484F3D310D0A00EE790008AB
:103250005B5831304B422025735D2025733A282579
:10326000642920C0B6D1C0BBD8CFD4CAA7B0DC2C4B
:1032700072657472792E0A005B5831304B422025FA
:10328000735D2025733A2825642920BBD8CFD4CA82
:10329000A7B0DC2E0A0000005B5831304B422025DD
:1032A000735D2025733A2825642920BBD8CFD4200C
:1032B0006F6B2E0A00000000140000202DE9F04181
:1032C000002440F6B83540F221164FF4FA672A463A
:1032D00017A118A0FFF788FDD8B100F09DFE0146A8
:1032E0003346174A17A002F0A1FF384600F06AFAE9
:1032F000641CE4B2022CEAD300F08EFE01464FF4C7
:1033000092730F4A19A002F091FF4FF0FF30BDE811
:10331000F08100F081FE014640F21D13084A1CA016
:1033200002F084FF23490878401C08700020EEE773
:103330004F4B000041542B564552533F0D0A00009D
:10334000027A00085B5831304B422025735D2025FE
:10335000733A2825642920BBF1C8A1B0E6B1BECAE2
:10336000A7B0DC2C72657472792E0A005B5831307C
:103370004B422025735D2025733A2825642920BB04
:10338000F1C8A1B0E6B1BECAA7B0DC2E0A000000A9
:103390005B5831304B422025735D2025733A282538
:1033A000642920BBF1C8A1B0E6B1BE206F6B2E0A24
:1033B000000000001400002070B500252C466E1E91
:1033C00095B1012D1CD0022D20D0032D24D000F06A
:1033D00023FE01464FF40273134A14A002F026FFA5
:1033E000C82000F0EFF9EBE7FFF7E8FD08B9012589
:1033F00017E02046641CE4B20A28F1D9304670BDBB
:10340000FFF7E2FE0028F4D102250AE0FFF756FF9D
:103410000028EED1032504E0FFF758FE0028E8D18C
:1034200004250024DCE700006B7A00085B5831308B
:103430004B422025735D2025733A2825642920B44A
:10344000EDCEF32E0A00000070B54FF480744FF0FB
:1034500090452146284603F03CFA00F0B6FA4FF4B6
:10346000FA6000F0AFF92146284603F034FA00F084
:10347000ACFABDE870404FF47A7000F0A3B970B5B3
:10348000A0B00E46054680216846FEF796FE6C46C3
:103490008DF80850102231460DF10900FEF774FE38
:1034A00002231A4611212046FFF794FA20B000208B
:1034B00070BD30B5A1B00D46044680216846FEF7C8
:1034C0007CFE8DF808402968CDF809106846012374
:1034D00002220521FFF77EFA21B0002030BD000056
:1034E000FEB5214D002495F8680001281BD102AAE1
:1034F000694601A802F042FC002814D16B461B4A21
:10350000022101F03DFC20B9012469462046FFF765
:10351000D0FF02F04DFC164F00262CB100F0CEFD7E
:10352000386085F86860FEBD02AA694601A802F00D
:1035300025FC0028F7D16B460C4A0C2101F020FC39
:1035400070B10CA002F072FE69460220FFF7B1FFD5
:1035500000F0B4FD386085F8686002F029FCFEBD1B
:1035600069460120F2E700002C0700200800002037
:1035700004000020B7C7C3DCD4BFBFA80A00000006
:1035800070B50D46044601F0B7FE20EA050120465D
:10359000BDE8704002F045BE10B580210A2001F060
:1035A000B3FF0A2001F0A8FE002800D0012010BDC2
:1035B0002DE9FC476B4C00F081FD07464FF00808F1
:1035C0000025694EC0E000F000FADFF8A091B4E0F9
:1035D00000F0FBF900F072FD07463078092837D279
:1035E000DFE800F0050D183D4D5B6A7F91009DF806
:1035F0000400AA28EBD12070012070805AE09DF8C9
:103600000400552824D1708855212154401C708015
:1036100002204FE07088022802D0032804D01AE06C
:103620009DF80410B18016E0B1889DF8042041EAAD
:103630000221B180757005290BD200F0EDFC014626
:10364000B088009040F22E33494A4AA002F0EEFDC5
:1036500072E0032131709DF8041021543EE09DF882
:103660000410012968D17078401C70707088215452
:10367000B188491EB180401C708004201AE0707827
:103680009DF804100844707070882154B188491E58
:10369000B180401C708005200CE070789DF804100B
:1036A0000844707070882154B188491EB180401C54
:1036B00070800620307040E070789DF80410084457
:1036C000707070882154B188491E0904090CB180BA
:1036D00002D00721317001E086F80080401C708024
:1036E0002BE070789DF804100844707070882154A5
:1036F000401C7080B088401E80B2B08001281CD170
:1037000086F8008019E070889DF804102154401C50
:1037100081B271809DF804007278904203D12046F6
:1037200001F00EFB08E000F077FC014640F2833325
:103730000F4A1AA002F07AFD357001A9484600F040
:1037400071F800283FF444AF00F0B8FC07F10A011B
:10375000884204D800F0B2FCB842BFF434AFBDE8F0
:10376000FC870000030100200E000020B0090020AB
:103770008E7900085B5831304B422025735D20253F
:10378000733A28256429206C656E6774683D25644A
:103790002C6572726F722E0A000000005B58313087
:1037A0004B422025735D2025733A28256429204348
:1037B0004220636865636B73756D206572722E0AB3
:1037C0000000000070B5054600244FF47A7603E04F
:1037D000304600F005F8641CAC42F9D370BD00001F
:1037E00070B54FF0E02500216C69094AAB69127889
:1037F0005043AA699A42FCD002D2A3EB020302E032
:10380000A4EB02063344194413468142F1D370BD40
:10381000880000200028FDD00021C1800181418165
:1038200008467047428903899A4213D00289036887
:103830001344521C02811A780A70818802899142CD
:1038400001D800210181C18811B1C188491EC18000
:10385000002070474FF0FF307047002343608360C3
:103860000160828018467047428903899A424289E2
:1038700001D283881A440389D21A8388521C934246
:1038800010D9428903681344521C42811970C188BF
:10389000491CC18081884289914201D8002141811F
:1038A000002070474FF0FF30704700002DE9F041D5
:1038B0000024144D012640F20E2700F086F800F097
:1038C0006FF880B100F081F8641CE4B2AE7000F0D3
:1038D000A3FB01463B460C4A0CA002F0A7FC322C8D
:1038E000EBD3BDE8F08100F070F80020A87000F084
:1038F00093FBBDE8F041014640F20523024A0EA0C9
:1039000002F094BC2E000020CD7A00085B583130C4
:103910004B422025735D2025733A282564292046D3
:103920004D31373558585F496E6974206572726F32
:10393000722E0D0A000000005B5831304B422025EA
:10394000735D2025733A2825642920464D3137358B
:1039500058585F496E6974204F4B2E0D0A000000C5
:1039600010B50E4C4021204602F0B3FF0A20FFF7AD
:1039700029FF00F02AF84021204602F0ACFF0A207F
:10398000FFF720FF00F021F8012001F0B5FC20280E
:1039900001D0012010BD002010BD0000001400481F
:1039A00010B500F012F801F02DFEFFF7D9FF10B1AD
:1039B0004FF0FF3010BD00F008F8002001F0A4FB2C
:1039C000032001F0ADFD002010BD02F047BF10B58F
:1039D000002303E010F8014BCC545B1C9342F9D355
:1039E000002010BD0A4601460148FFF7F0BF000065
:1039F00000F001082DE9F05F154689468346FFF780
:103A0000E4FF02F0C9FEABF10060C0F30906C6F5A1
:103A100080644FEA9028A54200D82C46FFF7D5FFD6
:103A20004FF0006000EB882082464FF48062284906
:103A3000FFF7CDFF00270EE02548F119405CFF2875
:103A400008D000F0E9FA01467D23224A22A002F0C4
:103A5000EDFB02E07F1CA742EED3A74214D25046F2
:103A600002F05CFE342002F04BFE0020184A04E015
:103A700019F800108319401CD154A042F8D35046C5
:103A80004FF48072124906E0A0074FEA940200D07A
:103A9000521C4946584600F071F8A5420CD100F07E
:103AA000BBFA014693230B4A13A002F0BFFB02F0BE
:103AB0002DFE0020BDE8F09F281BA144A344002652
:103AC00085B24FF4806408F10108A542A6D8A4E7A6
:103AD00003030020967A00085B5831304B422025C2
:103AE000735D2025733A2825642920D0E8D2AAB234
:103AF000C1B3FD2E0A0000005B5831304B42202537
:103B0000735D2025733A2825642920D0B4CDEAB30B
:103B1000C9B9A62E0A0000002DE9FC410024124D6F
:103B20000E46074600940194324639462846FFF770
:103B300061FF082269462846FFF749FF32463946A9
:103B40006846FEF75EFB18B1641C052CECD301E05F
:103B5000052C06D305A002F069FB4FF0FF30BDE84D
:103B6000FC810020FBE7000000F00108D0B4666C87
:103B7000617368B4EDCEF321200D0A002DE9F843FE
:103B800090468946064602F007FE00254FF47A77F4
:103B90001AE00024342002F0B3FD59F82510304615
:103BA00002F00AFEB8B10120FFF70CFE2046641CAB
:103BB000B842F8D900F030FA01464123074A08A07C
:103BC000009602F033FB6D1C4545E2D302F09EFDEA
:103BD0000020BDE8F883361DF5E70000877A00086D
:103BE0005B5831304B422025735D2025733A2825E0
:103BF000642920D0B4666C617368B3ACCAB12C2060
:103C00005B307825785D2C20B4EDCEF32121212086
:103C10000A00000010B5022003F0DAFD012003F0D5
:103C200057FD0C4C012802D103F05CFD608009486F
:103C3000618808304088401A202806DD05480B219D
:103C4000801E017004A002F0F1FABDE810400220CD
:103C500003F0DCBC9E0000205B4B65793A202564B4
:103C60005D0A000070B5202003F0B2FD012003F0D2
:103C70002FFD244D012802D103F03AFD6880214E2A
:103C800069880836A6F11A047088401A202804DDD5
:103C9000002121701CA002F0C9FA202003F0B6FC1C
:103CA000402003F095FD012003F012FD012802D110
:103CB00003F01EFDA880B088A988401A202804DDE2
:103CC0000A21217013A002F0B1FA402003F09EFCFB
:103CD000802003F07DFD012003F0FAFC012802D1D1
:103CE00003F006FDE880F088E988401A202804DD0A
:103CF0000921217004A002F099FABDE870408020EB
:103D000003F084BCAE0000205B4B65793A2025644B
:103D10005D0A00005BB7B5BBD84B65793A202564D6
:103D20005D0A00002DE9F0414FF48067384603F04A
:103D30004FFD012003F0CCFC194C012802D103F007
:103D4000DDFCA080164EA1880836A6F12A05B088B1
:103D5000401A202804DD0821297012A002F066FA1A
:103D6000384603F053FC4FF40067384603F030FD4B
:103D7000012003F0ADFC012802D103F0BFFCE0807C
:103D8000F088E188401A202804DD0721297005A069
:103D900002F04CFA3846BDE8F04103F037BC0000B1
:103DA000BE0000205B4B65793A2025645D0A000067
:103DB0002DE9F0414FF40057384603F009FD01208A
:103DC00003F086FC264C012802D103F09DFC6080A4
:103DD000234E61880836A6F13A057088401A2028DB
:103DE00004DD022129701FA002F020FA384603F0FA
:103DF0000DFC4FF48047384603F0EAFC012003F045
:103E000067FC012802D103F07FFCA080B088A18864
:103E1000401A202804DD0121297012A002F006FAC0
:103E2000384603F0F3FB4FF48057384603F0D0FCDC
:103E3000012003F04DFC012802D103F065FC208035
:103E400030882188401A202804DD0321297005A02C
:103E500002F0ECF93846BDE8F04103F0D7BB0000B2
:103E6000CE0000205B4B65793A2025645D0A000096
:103E70002DE9F0414FF40017384603F0A9FC01206A
:103E800003F026FC264C012802D103F043FC60809D
:103E9000234E61880836A6F14A057088401A20280A
:103EA00004DD062129701FA002F0C0F9384603F096
:103EB000ADFB4FF48007384603F08AFC012003F085
:103EC00007FC012802D103F025FCA080B088A1885E
:103ED000401A202804DD0521297012A002F0A6F95D
:103EE000384603F093FB4FF40007384603F070FCAC
:103EF000012003F0EDFB012802D103F00BFCE08070
:103F0000F088E188401A202804DD0421297005A0EA
:103F100002F08CF93846BDE8F04103F077BB0000B1
:103F2000DE0000205B4B65793A2025645D0A0000C5
:103F300010B501462548C6B04078002813D1C8798D
:103F400001F10804012810D0022821D003280AD04A
:103F500004282BD000F060F8014640F297131C4A69
:103F60001CA002F063F946B010BD00F055F8014600
:103F700040F26113164A1EA0009402F057F9204641
:103F800001F030FA10B1012201211AE00022FBE712
:103F90000522214643A8FEF75DFD43A801F04EFA35
:103FA00010B1012202210CE00022FBE7488803281F
:103FB00005D34FF486716846FEF7FFF8D3E7012278
:103FC0000421032001F0EEF9CDE700002E000020CF
:103FD0005A7900085B5831304B422025735D20250B
:103FE000733A2825642920B4EDCEF32E0A00000090
:103FF0005B5831304B422025735D2025733A2825CC
:10400000642920CAD5B5BDC0B6D1C0C3FBD7D65B25
:1040100025735D2E0A0000001FB50D4803F006F958
:104020000B48443890F8461090F84A4090F84930D0
:1040300090F848208DE81E0090F8453090F8442014
:1040400004A10B4802F002F904B0094810BD0000B9
:1040500070070020253278253032782530327820DC
:10406000253032783A253032783A253032780000DF
:10407000D40A002010B5FFF7A8FC094CFF202070DF
:10408000FFF7C8FDFFF7EEFDFFF74CFEFFF790FED0
:10409000FFF7EEFE2078BDE8104000F019BB0000ED
:1040A0009C000020034610B50020024603E09C5C03
:1040B000521C2044C0B28A42F9D310BD0148C068E6
:1040C000704700002C000020064B4FF400411A7886
:1040D000501C187004481AB100221A7002F0F9BB83
:1040E00002F0F9BB90000020000800480A21B0FB54
:1040F000F1F201FB1202B0FBF1F002EB0010C0B2D2
:10410000704700002DE9FE4F4FF0AB094FF001085A
:104110004FF0040A4FF0060B6E4D00266E4CCFE0B8
:10412000607808287ED2DFE800F0041038526592EB
:10413000A2BE9DF80800AB28F1D184F8018085F873
:1041400000904846A4F8048019E09DF80800CD28A6
:104150000CD0AB2815D06670FFF75EFF01464FF418
:1041600028735E4A5EA002F061F8A9E00220607048
:10417000CD206870A088401CA080A078CD30A070B1
:104180009EE085F80090A4F8048084F80290FFF780
:1041900043FF014640F29B23E3E7A0889DF8081007
:1041A0002954401CA080E68041B103206070A178B2
:1041B0009DF808000144A170E07081E0524F84F83E
:1041C00001A087F86980FFF779FFF866EFE7A0881C
:1041D0009DF808102954401CA080A0780844A070C5
:1041E000E088401C80B2E080062869D1E68084F82F
:1041F00001A065E0A0889DF808102954401C80B2F9
:10420000A080A2781144A170E188491C89B2E180A4
:10421000022955D1284430F8020CE0802081FF2883
:104220000ED900E04BE06670FFF7F6FE0146E0882D
:10423000009040F2C923294A34A001F0F7FF3FE083
:1042400010B1052060703BE084F801B038E0A08830
:104250009DF808102954401CA080A0780844A07044
:10426000E088401E0004000CE08029D1ECE7A08823
:104270009DF808102954401CA080A078814203D1E9
:1042800007206070E6801BE0FFF7C6FE01469DF840
:104290000820A078CDE9000240F2E7230F4A244825
:1042A00001F0C4FF0BE0E088401C80B2E0800228EF
:1042B00006D1E07818B92189064801F051FC6670F2
:1042C00002A91C48FFF7AEFA00283FF429AFBDE869
:1042D000FE8F00000302002014000020797A0008FD
:1042E0005B5831304B422025735D2025733A2825D9
:1042F00064292063616E206E6F742066696E64208D
:1043000063642E0A000000002C0700205B58313047
:104310004B422025735D2025733A28256429206CA3
:10432000656E3D25642C6572726F722E0A00000066
:104330005C7B0008A4090020002909D1054A002857
:104340004FF00201104601D002F0C5BA02F0C1BA26
:1043500070470000000400482DE9F041144E00258C
:104360004FF48057022003F033FA012003F0B0F934
:10437000012803D103F0B6F926F81500022003F056
:1043800045F93C46641EFDD16D1C142DEAD3094944
:10439000012036F810304A88401C1A444A801428FC
:1043A000F7D390B21322B0FBF2F04880BDE8F08161
:1043B000F40A0020A60000202DE9F0412E4D002433
:1043C0004FF4805805F1280605F15007202003F02E
:1043D000FFF9012003F07CF9012803D103F088F9EB
:1043E00025F81400202003F011F9402003F0F0F923
:1043F000012003F06DF9012803D103F079F926F8C3
:104400001400402003F002F9802003F0E1F90120BC
:1044100003F05EF9012803D103F06AF927F81400CC
:10442000802003F0F3F84046401EFDD1641C142C9C
:10443000CCD3124901204A8835F810301A444A80FA
:104440008A8836F810301A448A8037F81030CA88C3
:10445000401C1A44CA801428EDD34A881320B2FBAA
:10446000F0F24A808A88B2FBF0F28A80CA88B2FBF6
:10447000F0F0C880BDE8F0811C0B0020B6000020E1
:104480002DE9F047244D00244FF480684FF4006973
:104490004FF4805A05F128064746404603F098F944
:1044A000012003F015F9012803D103F027F925F8BD
:1044B0001400384603F0AAF84F46484603F088F93E
:1044C000012003F005F9012803D103F017F926F8BC
:1044D0001400384603F09AF85046401EFDD1641C83
:1044E000142CD9D30D4901208A8835F810301A448C
:1044F0008A8036F81030CA88401C1A44CA801428B2
:10450000F2D38A881320B2FBF0F28A80CA88B2FB09
:10451000F0F0C880BDE8F087940B0020C6000020B2
:104520002DE9F05F324D00244FF4005A4FF4804BD8
:104530004FF4805905F1280605F1500857465046BA
:1045400003F046F9012003F0C3F8012803D103F07A
:10455000DBF825F81400384603F058F85F46584653
:1045600003F036F9012003F0B3F8012803D103F07A
:10457000CBF826F81400384603F048F84F46484672
:1045800003F026F9012003F0A3F8012803D103F07A
:10459000BBF828F81400384603F038F87F1EFDD128
:1045A000641C142CCAD31349012043464A8835F8A9
:1045B000104022444A808A8836F8104022448A807B
:1045C00033F810400A88401C22440A801428EDD396
:1045D0004A881320B2FBF0F24A808A88B2FBF0F2DC
:1045E0008A800A88B2FBF0F00880BDE8F09F0000E6
:1045F000E40B0020D60000202DE9F05F324D0024AE
:104600004FF400194FF4800A4FF4000B05F128060F
:1046100005F15007C846484603F0DAF8012003F0D8
:1046200057F8012803D103F075F825F81400404627
:1046300002F0ECFFD046504603F0CAF8012003F028
:1046400047F8012803D103F065F826F81400404626
:1046500002F0DCFFD846584603F0BAF8012003F018
:1046600037F8012803D103F055F827F81400404625
:1046700002F0CCFF4FF48050401EFDD1641C142C7E
:10468000C8D3124901204A8835F810301A444A80AC
:104690008A8836F810301A448A8037F81030CA8871
:1046A000401C1A44CA801428EDD34A881320B2FB58
:1046B000F0F24A808A88B2FBF0F28A80CA88B2FBA4
:1046C000F0F0C880BDE8F09F5C0C0020E600002000
:1046D00038B50446FF280CD00B2C0AD800F01CF883
:1046E000FFF79AFC01468E23024A03A0009401F0D2
:1046F0009DFD38BDF67A00085B5831304B422025CD
:10470000735D2025733A28256429205B6B65793A0F
:104710002025645D0D0A000010B5A0B0044680217C
:104720006846FDF74AFD012368468DF808401A46A1
:104730001946FEF74FF920B0002010BD70B540F2C9
:10474000135002F03DFD084D4FF400440122234672
:104750001146284602F0F9F923462846BDE8704084
:104760000322002102F015BA0008004813B50C46D8
:104770006846FDF7C1FE017E2170017D64396170DC
:10478000017C491CA170017BE170017A0831217123
:10479000017961710078A07104E018382071E07827
:1047A000401CE07020791828F7D204E03C38607192
:1047B0002079401C207160793C28F7D204E03C3815
:1047C000A0716079401C6071A0793C28F7D200206C
:1047D0001CBD00002DE9FC4127212D48FDF7EDFC13
:1047E0002C480024082104600E30FFF7FBF828480D
:1047F00078212830FDF7E1FC254901202831264F9A
:1048000081F86800384600F045FE224D234E0E35F3
:104810002868B0420BD122A001F008FDFFF7FCFB95
:10482000014647232E4A2FA001F000FD15E036A0D7
:1048300001F0FCFCFFF7F0FB01464C23284A42A0A4
:1048400001F0F4FC384600F025FE12480821801ED5
:10485000446110302E60FFF75FF9FFF7DDFB0225A2
:10486000CDE90054014653231D4A414801F0DEFCC6
:10487000FFF7D2FB01463FA241A0CDE9000254233D
:10488000174A42A001F0D2FC01480570BDE8FC8146
:10489000040700202E000020FFF3255CAE563412E2
:1048A0000A0A0A3D3D3D3D3D3D3D3D3D3D3D3D3DD1
:1048B0003D3D3D3D3D3D3D3D3D3D3D3D3D3D3D3D28
:1048C0003D3D3D3D3D3D3D3D3D3D3D3D3D3D3D3D18
:1048D0003D3D3D3D3D3D3D3D3D3D3D3D3D3D0A0078
:1048E000A17A00085B5831304B422025735D2025AA
:1048F000733A28256429200D5538537562C6F4B6DD
:10490000AF4170700A0000000A0A0A2A2A2A2A2ADD
:104910002A2A2A2A2A2A2A2A2A2A2A2A2A2A2A2AF7
:104920002A2A2A2A2A2A2A2A2A2A2A2A2A2A2A2AE7
:104930002A2A2A2A2A2A2A2A2A2A2A2A2A2A2A2AD7
:104940002A2A2A2A2A2A0A005B5831304B4220257B
:10495000735D2025733A28256429200D5538537539
:1049600062B3F5B4CEC6F4B6AF4170700A00000071
:10497000A07B000832303A35353A3134000000006F
:104980004A616E2031312032303139005B5831308C
:104990004B422025735D2025733A28256429200A7F
:1049A00020CEC4BCFEB1E0D2EBCAB1BCE42C20D412
:1049B000C2C8D5C4EA20257320CAB1B7D6C3EB2537
:1049C00073200A001CB50446C0792C4B06284DD232
:1049D000DFE800F04C030E2137432949012008701D
:1049E000FFF71AFB014640F22F13264A26A010E0DB
:1049F00000220221104600F0D5FC207A01280BD0BD
:104A0000022808D1FFF708FB014640F23D131D4A7A
:104A100028A001F00BFC1CBDFFF7FEFA01464FF485
:104A20009C73184A2FA001F001FCBFF34F8F384848
:104A30000168384A01F4E06111430160BFF34F8F10
:104A4000FEE7082204F108011846FEF7D3FF002212
:104A50000421104600F0A6FC1CBD08226946184639
:104A6000FEF7B5FF684600F07AFA1CBDFFF7D4FAEE
:104A7000014640F25113034A27A0CAE700F8010893
:104A800000000020477900085B5831304B42202558
:104A9000735D2025733A282564292072656376208A
:104AA00073797374656D20696E666F2061636B2E18
:104AB0002E0A00005B5831304B422025735D2025C3
:104AC000733A2825642920426C7565426C756574BB
:104AD0006F6F74685F526573657420726571202E04
:104AE0000A0000005B5831304B422025735D2025C1
:104AF000733A2825642920CAD5B5BDD6F7B0E5B5E7
:104B0000C4B8B4CEBBCFB5CDB3C7EBC7F32E0A0044
:104B10000CED00E00400FA055B5831304B422025D3
:104B2000735D2025733A2825642920B4EDCEF32E39
:104B30000A000000F0B589B0044600200090019002
:104B400002900390E07901280ED0022812D00328A9
:104B50005DD0FFF761FA014640F24D234D4A4EA069
:104B600001F064FB09B0F0BD207A0028FAD001F012
:104B70001FF9F7E760880828F4D3A0680490A0899B
:104B8000ADF81400062204A94AA000F06DFBA57B35
:104B9000E47B2946224649A001F048FB08AA06A961
:104BA00007A801F0EBF84E4F012648B101F000F9DB
:104BB00069460120FEF763FC87F8686049A01EE0A3
:104BC00006AB04AA2946002000F0DAF838B101F05B
:104BD000EFF869460120FEF752FC45A00FE004EB18
:104BE0008500C0B2694600F00FF958B101F0E0F855
:104BF00069460120FEF743FC87F8686040A001F099
:104C000015FBAFE769460020FEF739FCAFE7A06867
:104C10000490A089ADF81400A67BE07B00EB860031
:104C2000C5B201F0C5F808AA06A907A801F0A6F8C0
:104C300030B906AB04AA3146002000F0A1F840B11B
:104C400033A001F0F3FA01F0B3F8012001F0CAFA41
:104C500088E704F11006082D0BD03146284600F0F5
:104C6000F1F8A0B12EA001F0E1FA012001F0BAFAAA
:104C70007DE70F213046FFF715FAE17F8842C5D165
:104C80003146082000F0DEF808B129A0EBE700204B
:104C9000ECE70000667900085B5831304B42202574
:104CA000735D2025733A2825642920B4EDCEF32EB8
:104CB0000A0000006B65794100000000D1B0BFA878
:104CC0002C20736563746F72203D2025642C206254
:104CD0006C6F636B203D202564200D0A00000000EE
:104CE0002C070020D1B0BFA8CAA7B0DC2E0D0A0047
:104CF000C3DCC2EBC8CFD6A4CAA7B0DC0D0A000043
:104D0000B6C1CAFDBEDDBFE9CAA7B0DC2E0D0A00E0
:104D10005752495445206661696C65642E0D0A003E
:104D2000D0B4BFA8BFE978CAA7B0DC0D0A00000064
:104D3000D0B4BFA8BFE938CAA7B0DC0D0A00000094
:104D400070B50D460446FEF740FEA2795AB1012A1D
:104D500015D0022A0DD0032A11D129462046BDE8DC
:104D60007040FFF7E5B829462046BDE87040FFF7E0
:104D700029BE29462046BDE87040FFF7DBBE70BD66
:104D800000B587B010B1012802D004E0602000E037
:104D900061208DF8040088008DF8050010788DF8EA
:104DA000060050788DF8070090788DF80800D078CC
:104DB0008DF8090010798DF80A0050798DF80B00F4
:104DC00018788DF80C0058788DF80D0098788DF8CB
:104DD0000E00D8788DF80F00012000F01BFAFEF7C6
:104DE000DBFB05A8009004AB0C2201A90E2000F00B
:104DF000CDF838B9082000F07FFA000702D500206E
:104E000007B000BD0120FBE73EB504460D4601207A
:104E100000F000FA30228DF804208DF80540FEF7EE
:104E2000BBFB02A800902B46022201A90C2000F037
:104E3000ADF810B90298802801D001203EBD0020B5
:104E40003EBD000030B504468BB00D46012000F099
:104E5000E1F9A0218DF814108DF8154009AC01ABD3
:104E6000022205A90C20009400F090F8099804286B
:104E700001D0012000E000209DF8041001F00F0196
:104E80000A2901D0012200E00022104307D0FFF7D9
:104E9000C3F8014640F2EB13144A15A021E00520A7
:104EA00000F0B8F901AB102229460C20009400F064
:104EB0006DF80998042801D0012000E000209DF839
:104EC000041001F00F010A2901D0012100E00021A6
:104ED000084309D0FFF7A0F801464FF4FA73034ADC
:104EE0000FA001F0A3F901200BB030BDDC7A00085F
:104EF0005B5831304B422025735D2025733A2825BD
:104F00006429204D69666172655F426C6F636B77DF
:104F10007269746520B4EDCEF3313A0A00000000E6
:104F20005B5831304B422025735D2025733A28258C
:104F30006429204D69666172655F426C6F636B77AF
:104F40007269746520B4EDCEF3323A0A00000000B5
:104F500010B5FEF73AFDBDE81040FEF7C1BA30B516
:104F6000A1B0044680216846FDF727F96D46FEF79B
:104F70002CFD206802906068039005230022082120
:104F80002846FDF727FD21B0002030BD2DE9F04770
:104F900099461446884607460026DDF820A0FEF70D
:104FA000FBFAFEF712FD20210B2001F03AF97F21D8
:104FB000042001F036F90E2F07D14146204601F0BA
:104FC00023F980210D2000F09FFA80212A2000F093
:104FD0009BFA3946012001F024F9FEF7F6FC042083
:104FE00000F08AF90546C00703D020250C2F5CD0BD
:104FF00076E00E2F11D0042F12D00C2FEDD16807C0
:1050000039D5C4B3202C414629D9202001F0FCF821
:10501000203CE4B208F1200825E0E806DDD560E098
:10502000680717D5B4B1202C414604D2204601F0C0
:10503000EBF8002406E0202001F0E6F8203CE4B282
:1050400008F1200880210D2000F05EFA04210846B6
:1050500001F0E7F86806C0D5002CBED141E020463B
:1050600001F0D2F8002480210D2000F04DFA042137
:10507000084601F0D6F8280712D5680610D57CB985
:105080000A2000F039F920280AD909EB060120206E
:1050900000F024F92036F6B20821042001F0C1F80E
:1050A000A8069AD5002C98D100250A2000F024F9F2
:1050B00007460C2000F020F900F007040FB904B1F6
:1050C000012709EB0601384600F008F9F019C0B2D3
:1050D0001CB1C0000838011900E0C100CAF8001076
:1050E0001DB9062000F008F9054680210C2000F0CB
:1050F0000BFA2021012001F094F880210D20FEF709
:105100003FFA2846BDE8F08710B50446FEF75DFC7F
:1051100024B1012C45D0022C5DD05AE010210C2086
:1051200000F0F2F94021152000F0EEF900211220E4
:1051300001F077F80021132001F073F88021392065
:1051400000F0E2F901213C20FEF71AFA07213D2088
:10515000FEF716FA03213E20FEF712FAFF21332054
:1051600001F05FF80721322001F05BF8F1212720E0
:1051700001F057F83F21282001F053F801212920A0
:1051800001F04FF84021262001F04BF80D211920A5
:1051900001F047F88421182001F043F8402136201F
:1051A00015E010210C2001F03CF88321122001F0C1
:1051B00038F88321132001F034F8F421272001F07E
:1051C00030F8F421232001F02CF8002120E001F038
:1051D00028F8002010BD10210C2001F022F89221A7
:1051E000122001F01EF89621132001F01AF8F42184
:1051F000272001F016F82021282001F012F84F2175
:10520000232001F00EF82021292001F00AF80721BF
:105210001520DCE770B540F29F6100244843611E11
:1052200001224FF6FF7301EBC0011D1102EB440098
:10523000B1FBF0F0984202D3641CAC42F6D385B2C5
:10524000C4F307212A2000F05FF9E1B22B2000F01F
:10525000E8FF290A2C2000F0E4FFE9B22D2000F03D
:10526000E0FF002070BD00007CB515460E460446E8
:10527000FEF7D2FE01465C23094A0AA0CDE90045AB
:1052800000F0D4FF002404E0315D11A000F0CEFF57
:10529000641CAC42F8D3BDE87C400FA000F0C6BF50
:1052A000C27A00085B5831304B422025735D2025BF
:1052B000733A282564292063616C6C20627920256B
:1052C000732C6C656E3D25642C70646174613A00CA
:1052D00025303258000000000A00000070B50D466D
:1052E0000646002405E0092000F006F82855641C55
:1052F000E4B2B442F7D370BD00F020B810B502F0AC
:1053000033F8FEF789FE0146BDE810406A23024AE1
:1053100002A000F08BBF0000EE7A00085B5831302D
:105320004B422025735D2025733A2825642920B33C
:10533000F5CABCBBAF205254430A000070B5044606
:105340004FF400454FF090462946304601F0C1FA2F
:10535000802040EA4400C0B200F0BEF900F0B8F985
:1053600004462946304601F0B6FA204670BD2DE9C4
:10537000F0410E4607464FF400444FF09045214659
:10538000284601F0A6FA7E2000EA470000F0A4F9C2
:10539000304600F0A1F921462846BDE8F04101F071
:1053A0009ABA0000F0B5A1B00E4607461546802116
:1053B0006846FCF702FF6C468DF8085033463A46C3
:1053C00001212046FDF706FB0B22214602A0FFF734
:1053D0004BFF21B00020F0BD53656E644D73675FD5
:1053E00041434B0070B588B0054600242021684633
:1053F000FCF7E3FE2A460CA1684600F027FF4FF4B5
:10540000FA656E102A460CA16846FDF7EDFC0028EF
:1054100007D03046FEF7D6F9641C022CF2D34FF0C9
:10542000FF3008B070BD000041542B4E414D453D4A
:1054300025730D0A000000004F4B000070B588B0C6
:105440000546002420216846FCF7B7FE2A460CA139
:10545000684600F0FBFE4FF4FA656E102A460CA178
:105460006846FDF7C1FC002807D03046FEF7AAF9D0
:10547000641C022CF2D34FF0FF3008B070BD000066
:1054800041542B475749443D25730D0A0000000045
:105490004F4B00001CB56946FFF768F99DF8010005
:1054A000FEF724FE164B03F8440F9DF80200FEF7AA
:1054B0001DFE58709DF80300FEF718FE98709DF8C9
:1054C0000000FEF713FED8709DF80400FEF70EFEF4
:1054D00018719DF80500FEF709FE58719DF8060049
:1054E000FEF704FE987107480168198140685881E9
:1054F0000020D86018610248443001F0C5FE1CBD90
:105500002C0700209400002070B50C460546FFF7DC
:10551000F3FE40EA0401284600F083FE002070BD3F
:1055200070B50446FEF751FA1420FFF7E5FE00F0CF
:105530000300A04201D1002070BD34B1012C06D07F
:10554000022C0ED0032C0ED006E0032100E0012136
:105550001420FEF715F80546C820FEF733F9284653
:1055600070BD0221F4E703211420FFF7CDFFF2E71D
:1055700070B540F2135001F023FE084D4FF4005473
:10558000012223461146284601F0DFFA2346284629
:10559000BDE870400322002101F0FBBA000800487A
:1055A00010B5002418210C48FCF707FE0A48092111
:1055B00004EB440200EBC2025170641CF8D00121DC
:1055C00081713421C171FFF7D3FF01223421BDE87D
:1055D0001040002000F07EBABC0A002058B1092813
:1055E0000CD00A280DD00123401E834003EA01009D
:1055F0001146FEF7A1BE11460020FAE71146012030
:10560000F7E770472DE9F04140F2115001F0D8FD65
:1056100040F2165001F0D4FD40F2125001F0D0FDDE
:105620004FF4004401224FF090452346114628468E
:1056300001F08BFA234603220021284601F0A9FA43
:10564000214E012240231146304601F07EFA4023CC
:1056500003220021304601F09CFA1C4F012208234E
:105660001146384601F071FA08230322002138461A
:1056700001F08FFA012220231146384601F065FA25
:10568000202303220021384601F083FA102301224F
:105690000021384601F059FA102303220021384630
:1056A00001F077FA4021304601F015F921462846ED
:1056B00001F011F92021384601F00DF93846BDE816
:1056C000F041082101F005B9001400480004004829
:1056D000A52000F001B800002DE9F041144F054667
:1056E000002428064FF02001384602D501F0F3F8D7
:1056F00001E001F0EEF80821384601F0ECF80A204C
:10570000FEF76EF86806060E1021384601F018FA0A
:1057100040EA06050821384601F0DBF80A20FEF7CA
:105720005FF8641CE4B2082CDBD32846BDE8F081A6
:10573000000400482DE9F04105460C460846FCF7F8
:1057400059FD064600230FE0E05CFDF76DF90746C2
:10575000E0184078FDF768F903EBD37105EB6101C0
:1057600040EA071008709B1CB342EDDB06EBD670D5
:105770004010BDE8F081000030B5A1B0802168463E
:10578000FCF71BFD6C4602ADFEF71FF92722064908
:105790002846FCF7F9FC0123002227212046FDF7CB
:1057A00019F921B0002030BD0407002000B5A1B0D8
:1057B00080216846FCF701FD054968460323096816
:1057C000029100220421FDF705F921B0002000BD5F
:1057D0002E000020704700001E48016841F00101C2
:1057E000016001688907FCD541681B4A114041608E
:1057F00041681A4A11404160416821F4400141600A
:10580000016B174A114001630168164A114001609B
:10581000C16A154A1140C162016B40F20312914303
:105820000163016B21F480310163016B21F00041C0
:105830000163416B21F001014163D0F8C01021F4F4
:105840008031C0F8C01000218160C0F8CC1001F098
:10585000D7BD0000001002400C00FF08FFFFC27718
:10586000BFFFFFBFFFFFF2FEF0FFFF3F10B540F6A6
:105870001A1001F019FC01281ED040F61B1001F08F
:1058800013FC01281FD040F61C1001F00DFC01286C
:1058900020D040F61D1001F007FC012821D040F671
:1058A0001E1001F001FC012822D040F61F1001F06B
:1058B000FBFB012823D02AE0FEF7AEFB01466A235A
:1058C000154A16A021E0FEF7A7FB01466E23124AF7
:1058D0001DA01AE0FEF7A0FB014672230E4A23A08A
:1058E00013E0FEF799FB014676230B4A28A00CE053
:1058F000FEF792FB01467A23074A2FA005E0FEF748
:105900008BFB01467E23044A35A000F08FFCBDE8E6
:10591000104001F0E9BA0000B07A00085B5831305D
:105920004B422025735D2025733A2825642920CF1A
:10593000B5CDB3CDE2B2BFB8B4CEBBB9DCBDCCB847
:10594000B4CEBB0A000000005B5831304B4220252A
:10595000735D2025733A2825642920CFB5CDB3C9BE
:10596000CFB5E7B8B4CEBB0A000000005B583130B9
:105970004B422025735D2025733A2825642920CFCA
:10598000B5CDB3C8EDBCFEB8B4CEBB0A0000000074
:105990005B5831304B422025735D2025733A282512
:1059A000642920CFB5CDB3B6C0C1A2BFB4C3C5B9B9
:1059B000B7B8B4CEBB0A00005B5831304B4220254B
:1059C000735D2025733A2825642920CFB5CDB3B463
:1059D000B0BFDABFB4C3C5B9B7B8B4CEBB0A000014
:1059E0005B5831304B422025735D2025733A2825C2
:1059F000642920CFB5CDB3B5CDB9A6BAC4B8B4CE5D
:105A0000BB0A000010B5042001F03EFD0B480C4914
:105A10000C4B0068B0FBF1F2B0FBF1F14FF47A707F
:105A200041434FF0E0201A70026942F00202026125
:105A30004161016941F00101016110BDF0000020E8
:105A400040420F008800002070B5174D154C012111
:105A5000284601F0D1FD00281BD00121284601F085
:105A6000C7FD617920790022FFF7B8FD2079401C3D
:105A7000207120790B280CD1E08A401C80B2E08292
:105A8000A18A884206D2E18A2069405C60710020C8
:105A9000207170BDA52020702846BDE8704001F03F
:105AA00045BD0000BC0A0020002C014010B50121BA
:105AB0008C07204601F0A0FD002807D001212046D8
:105AC00001F096FD0248C168491CC16010BD00008C
:105AD0002C0000202DE9FF410446204816460F46C1
:105AE00030F8140001F06CFB1C4D123555F8240001
:105AF00001F0DCFC6B20ADF800000020ADF80C00DC
:105B0000ADF80200ADF8040002978DF80E0055F8CC
:105B10002400694601F018FD012E10D155F824002B
:105B2000012101F061FD55F82400012101F008FD7B
:105B3000A5F118000122005D114601F079F955F830
:105B4000240001F0ADFC55F8240001F0F4FC002C19
:105B500002D1286801F0EAFCBDE8FF813200002094
:105B600070B5C0B00E4605464FF480716846FCF72C
:105B700024FB6C46FDF729FF324605F10B0104F1C9
:105B80000800FCF701FB0323B1B21A462046FCF7DC
:105B900021FF40B0002070BD10B540F2115001F05F
:105BA0000FFB40F2125001F00BFB4FF4A36001F029
:105BB00007FB00F093FE01F039FDFEF7CDFBFEF789
:105BC000FBFBFEF75DFCFEF7ABFCFEF715FDFEF7F9
:105BD00023FA0146BDE8104040F21233014A02A008
:105BE00000F024BB027B00085B5831304B4220257B
:105BF000735D2025733A28256429205473694B6509
:105C000079496E6974204F4B0A0000002DE9F0437A
:105C10008DB00646002001900290039004900590FC
:105C2000086008710C4620218DF818108DF81C00B2
:105C30008DF820008DF8240080211220FDF7A0FCB3
:105C400080211320FDF79CFC80210E2000F0E9FA52
:105C500000211D2000F0E5FA0DF128080DF10409DE
:105C600004AD8DF828609DF818008DF829009DF886
:105C70001C100D2000F0D5FA9DF82420214608F1D3
:105C80000200FCF781FA9DF82400801CC7B20120B5
:105C9000FFF7C0FA02AB3A460AA90C20CDF80090F3
:105CA000FFF774F9202867D000072AD50E20FFF7E8
:105CB00023FB00F01F0709AB08AA06A9384600F02D
:105CC0001EF907A9384600F0F9F89DF8242002A92A
:105CD00004A8FCF759FA9DF824009DF820202844D8
:105CE00010F8011D11400170002205E0A05CA95CC4
:105CF0000843A054521CD2B29DF824008242B0D274
:105D0000F4E70198082802D9C0F3C70600E001268D
:105D10009DF8240018B1311806292DD107E0052E71
:105D20002AD1324602A92046FCF72EFA16E0284472
:105D3000324602A9401EFCF727FA00200CE09DF82D
:105D4000241001440A19294412F8013D11F8011CDC
:105D50000B43401C1370C0B2B042F0D3207861787E
:105D6000E2784840A178514048402179884203D1E7
:105D700000200DB0BDE8F0830120FAE770B51546AC
:105D80000E46044600F038F880B9617871B9217880
:105D900089090CD131469320FFF738FF30B92A46E4
:105DA0003146932000F059F8002800D0012070BD42
:105DB0001FB550208DF8040000208DF80500014625
:105DC0000D2000F02EFA80211220FFF79DFB80218C
:105DD0001320FFF799FB08210846FDF7D1FB0120AE
:105DE000FFF718FA03A8009002AB022201A90C20C9
:105DF000FFF7CCF804B010BD1FB504460020029098
:105E000080211220FDF7BCFB80211320FDF7B8FB99
:105E100008211320FFF778FB07210D2000F001FA7D
:105E200026208DF80C000120FFF7F4F902A800905D
:105E300001AB012203A90C20FFF7A8F810B90298C2
:105E4000102802D0012004B010BD9DF8040020707D
:105E50009DF8050060700020F5E770B50C46064619
:105E600086B0154600210D2000F0DBF980211220BC
:105E7000FFF74AFB80211320FFF746FB8DF80460F3
:105E800070208DF80500002001A9225C0B18401C31
:105E9000C0B29A700528F8D30120FFF7BBF905A816
:105EA000009003AB072201A90C20FFF76FF8002830
:105EB00002D19DF80C10297006B070BDE8B1421EE9
:105EC000082A02D200EB001017E0A0F1090302013A
:105ED000082B03D2803A104408380EE0A0F11103D9
:105EE000082B02D21044103807E0A0F11903072B49
:105EF00004D2A2F5C0721044183808707047F0B58B
:105F0000042510B958240C701D70441E0126082C5D
:105F100002D221340C701E70A0F10904082C03D2A7
:105F200031340C7002241C70A0F111040327082CDA
:105F300002D241340C701F70A0F11904072C02D258
:105F4000383008701D70087800F00700092807D263
:105F5000DFE800F0060507090B0D0F11130016709E
:105F6000F0BD1770F0BD072008E00F2006E01F20ED
:105F700004E03F2002E07F2000E0FF201070F0BD31
:105F80002DE9F05F894604463F4900EB440001EBF0
:105F9000800A3E48934630F8140001F011F93B485E
:105FA000001D30F8140001F00BF9384F2837A7F125
:105FB000200606F1100857F8242056F8241058F847
:105FC000240000F05BFC06F1280556F82410183672
:105FD00055F8242056F8240000F050FC57F82430DF
:105FE00058F824000122022100F0AFFD57F82400E8
:105FF0004FF6FF7703463A46002100F0CAFD55F8F8
:10600000243056F824000122022100F09EFD55F8AC
:10601000243056F824003A46002100F0BAFD203D15
:1060200055F8240001F01AFC55F82400594601F0F7
:10603000E1FB55F82400042101F063FC55F824002D
:10604000082101F066FCB9F1010F16D155F82400C2
:10605000052101F02BFCA5F114000122005D0221B5
:1060600000F0E6FE0A484FF4807200EB042150462F
:10607000FDF7F3FB5046FDF7CDFB55F8240001F08A
:1060800005FC0020BDE8F09FA4090020500000207E
:10609000A407002070B50C4E0C4C0A4D314620462A
:1060A00001F017FC00280CD0204601F0CFFBC1B254
:1060B0002846FDF7D9FB31462046BDE8704001F087
:1060C00000BC70BDA4090020050005070038014090
:1060D00070B50C4E0C4D0A4C3146284601F0F9FBC8
:1060E00000280CD0284601F0B1FBC1B22046FDF7D4
:1060F000BBFB31462846BDE8704001F0E2BB70BDF5
:10610000B0090020050005070044004001214FF4BC
:10611000E1320846FFF734BF2DE9F04717468846BD
:10612000054600240E4E40F2077910E0FDF74DFCC5
:1061300018F8041056F8250001F08CFB56F82500DD
:10614000494601F0A8FB0028F8D0641CA4B2BC4268
:10615000ECD31420FDF736FB0020BDE8F0870000EB
:10616000600000202DE9F041124F05464FF4005623
:1061700000243146384600F0ACFB0820FDF730FB28
:10618000E8073146384602D000F0A5FB01E000F0F8
:10619000A0FB0820FDF724FB641C6D08E4B2082C6A
:1061A000EED33146384600F096FBBDE8F0410820BA
:1061B000FDF716BB0008004810B54FF410642046E8
:1061C00000F082FF204600F08DFF0128FAD1042163
:1061D0004FF47F6000F01AFB00F040FBBDE8104078
:1061E00000F044BB10B5A0B0044680216846FBF720
:1061F000E4FF68468DF80840032302220121FCF7E2
:10620000E9FB20B0002010BD70B50D460646002405
:1062100004E0295D092000F004F8641CB442F8D3BE
:1062200070BD10B5FFF7A3F8002010BD0FB4054BEB
:1062300010B503A9044A029800F02CF810BC5DF8D0
:1062400014FB0000ED670008F40000200FB4084BB9
:1062500010B504A902AA039800F01CF8044602A98C
:10626000002000F048FA204610BC5DF814FB000046
:10627000F766000802E008C8121F08C1002AFAD118
:1062800070477047002001E001C1121F002AFBD1B6
:10629000704700002DE9FF4F8DB00F4605460026E0
:1062A00006E025280BD0DDE90F1290476D1C761C07
:1062B00028780028F5D111B03046BDE8F08F0024D1
:1062C000A246A1460122EC4900E0044315F8013F33
:1062D000203B02FA03F00842F7D128782A2810D090
:1062E0006FF02F022878A0F13001092914D80AEBA9
:1062F0008A0102EB410144F0020400EB010A6D1C2B
:10630000F0E701CF5FEA000A03D544F40054CAF174
:10631000000A44F002046D1C28782E2817D115F8C5
:10632000010F44F004042A280ED06FF02F022878C1
:10633000A0F1300109290AD809EB890102EB4101DA
:1063400000EB01096D1CF2E757F8049B6D1C2878DF
:106350006C280FD006DC4C2817D068280DD06A288E
:1063600014D104E0742810D07A280FD10DE044F441
:1063700000140AE044F4801401E044F44014697805
:10638000814202D104F580146D1C6D1C2A786E2A9E
:106390001FD00CDC632A31D004DC002A8BD0582AB1
:1063A00011D1A3E0642A68D0692A0CD165E0732A70
:1063B0002ED004DC6F2A73D0702A04D19BE0752A9A
:1063C0006FD0782A6ED01046DDE90F129047761C08
:1063D00050E1C4F30250022806D0032809D0042853
:1063E00001CF09D0066045E101CFF117C0E9006196
:1063F00040E101CF06803DE106703BE117F8040B58
:106400008DF8000000208DF80100EB46012003E02C
:1064100057F804BB4FF0FF3061074FF0000102D482
:106420000DE008F10101884649450FDA8045F8DBA7
:106430001BF808100029F4D108E008F10101884692
:106440008142FADB1BF808100029F6D1DDE90F23A1
:10645000AAEB08008146214600F036F9304400EBF3
:10646000080604E0DDE90F121BF8010B9047B8F1B4
:106470000108F7D221464846F7E00A21C4F3025347
:106480004FF0000B0891022B04D001CFC117032B52
:1064900009D00AE0FF1D27F00707F7E8020108E02E
:1064A00032E01FE020E000B2C117042B01D140B25E
:1064B000C117031E71F1000307DA4FF0000CD0EB97
:1064C0000C006CEB01012D2302E0230504D52B23E6
:1064D0008DF82430012303E0E30701D02023F7E700
:1064E000984658E00A2110E010210EE010204FF0ED
:1064F000000B08900CE010214FF0000B44F0040456
:106500004FF00809089103E008214FF0000B0891B3
:10651000C4F30253022B04D001CF0021032B06D079
:1065200006E0FF1D27F00707F7E8020103E080B24D
:10653000042B00D1C0B24FF0000823072BD5702ADE
:1065400007D0DDF820C08CF0100C5CEA0B0C05D0F5
:106550000EE040238DF82430012308E050EA0103C7
:1065600006D030238DF824308DF82520022398465C
:10657000DDF820C08CF0080C5CEA0B0C0BD150EA63
:10658000010301D1630706D530238DF824304FF085
:106590000108A9F10109582A04D038A20B9208AACF
:1065A0000A920BE03AA2F9E75B46089AFBF772FF02
:1065B0000B9B9B5C0A9A521E0A92137050EA0102CE
:1065C000F2D10A98ADEB000000F1200B600702D574
:1065D00024F4803401E04FF00109D94502DDA9EB34
:1065E0000B0000E0002000EB0B0141440890AAEBF7
:1065F000010AE00306D4DDE90F232146504600F0EE
:1066000063F806444FF0000908E009A911F80900F1
:10661000DDE90F12904709F10109761CC145F4DB51
:10662000E0030CD5DDE90F232146504600F04CF87D
:10663000064404E0DDE90F1230209047761C0899EB
:10664000481E08900029F5DC08E00A980A990078AD
:10665000491C0A91DDE90F129047761CBBF100013D
:10666000ABF1010BF1DC21465046DDE90F2300F0D0
:1066700019F806446D1C1BE609280100303132333D
:10668000343536373839616263646566000000006E
:106690003031323334353637383941424344454658
:1066A000000000002DE9F041044600251E46174673
:1066B000880404D405E039462020B0476D1C641ED0
:1066C000F9D52846BDE8F0812DE9F04104460025C2
:1066D0001E469046C80301D5302700E020278804D5
:1066E00004D505E041463846B0476D1C641EF9D517
:1066F0002846BDE8F0810A68531C0B601070704793
:106700000149C8607047000000200240024801694A
:1067100041F08001016170470020024070B50546DC
:106720004FF47026304600F017F8002810D1094CBD
:10673000206940F0020020616561206940F040005E
:106740002061304600F008F8216921F00201216142
:1067500070BD00000020024000B5034600F008F8BC
:106760005B1E012802D1002BF8D1042000BD0000DF
:1067700008490020CA68D20701D001207047CA68C2
:10678000D20601D503207047C9684907FBD502200E
:10679000704700000020024004480169090603D543
:1067A00003494160034941607047000000200240F6
:1067B00023016745AB89EFCDF0B506464FF470274E
:1067C0000D463846FFF7C8FF00280CD1064C20695B
:1067D00040F00100206135603846FFF7BDFF2169B8
:1067E00021F001012161F0BD0020024010B50446F6
:1067F000FDF7EBF80449A52081F83900E0B2FFF776
:10680000B1FC204610BD00002C07002030B5124D11
:10681000104B45F255541A462C60EC68521E04F099
:10682000010402D0002CF8D100E04CB96960E9689D
:106830005B1E01F0020102D00029F8D102E009B18B
:10684000002030BDC0F30B00A8604AF6AA202860E3
:10685000012030BDFFFF0F000030004002494AF622
:10686000AA200860704700000030004002494CF642
:10687000CC4008607047000000300040F0B5046A6A
:10688000456A00234FF0010C4FF00F0E0CFA03F68F
:10689000164206D09E000EFA06F7BC4301FA06F730
:1068A0003C435B1C9BB2082BF0D308230CFA03F685
:1068B000164207D09E00203E0EFA06F7BD4301FAAD
:1068C00006F73D435B1C9BB2102BEFD3046245627D
:1068D000F0BD816270478161704700002DE9F0478B
:1068E0004FF09048012300220221404600F02DF98C
:1068F000012300221946404600F04BF902230022F2
:106900001946404600F021F9002202231146404674
:1069100000F03FF9012203214046FFF7AFFF0222BA
:1069200003214046FFF7AAFF102300220221404620
:1069300000F00BF9102300220121404600F029F954
:10694000202300220221404600F0FFF800222023ED
:106950001146404600F01DF9402300220221404626
:1069600000F0F3F8002240231146404600F011F9F0
:10697000802300220221404600F0E7F80022802315
:106980001146404600F005F9102203214046FFF76A
:1069900075FF202203214046FFF770FF40220321AC
:1069A0004046FFF76BFF802203214046FFF766FF5A
:1069B000DFF88891012300220221484600F0C5F843
:1069C000012300221946484600F0E3F80223002282
:1069D0001946484600F0B9F80022022311464846FD
:1069E00000F0D7F8042300220221484600F0ADF859
:1069F000002204231146484600F0CBF8012203216F
:106A00004846FFF73BFF022203214846FFF736FFC7
:106A1000042203214846FFF731FF4FF480542346F8
:106A200000220221404600F090F823460022012176
:106A3000404600F0AEF8A5102B4600220221404649
:106A400000F083F800222B461146404600F0A1F8E2
:106A50006610334600220221404600F076F80022FC
:106A600033461146404600F094F8E7103B460022BA
:106A70000221404600F069F800223B46114640469C
:106A800000F087F83A4603214046FFF7F7FE2A4612
:106A900003214046FFF7F2FE324603214046FFF74E
:106AA000EDFE224603214046FFF7E8FE3346002272
:106AB0000221484600F049F83346002201214846A9
:106AC00000F067F8234600220221484600F03DF816
:106AD000002223461146484600F05BF865002B462D
:106AE00000220221484600F030F800222B461146D1
:106AF000484600F04EF8A7003B46002202214846D7
:106B000000F023F800223B461146484600F041F8C9
:106B1000324603214846FFF7B1FE2246032148468C
:106B2000FFF7ACFE2A4603214846FFF7A7FE3A4688
:106B30004846BDE8F0470321FFF7A0BE0004004827
:106B40000069084000D0012070472DE9F047056832
:106B5000C66800244FF0010A4FF003090AFA04F74F
:106B60001F420ED0670009FA07FC25EA0C0526EA49
:106B70000C0601FA07F802FA07FC48EA05054CEA98
:106B80000606641CA4B2102CE8D30560C660BDE8FC
:106B9000F087F0B50129416830D09943416084689D
:106BA00001260327A2F57F41FF3913D0002106FA01
:106BB00001F51D4208D04D0007FA05FC24EA0C043B
:106BC00002FA05FC4CEA0404491C89B21029EED3F0
:106BD0008460F0BDC26B002106FA01F51D4206D0AB
:106BE0004FEA410C07FA0CFC4CEA04042A43491C06
:106BF00089B21029F0D38460C263F0BD1943CDE798
:106C0000FDF75CFA82460546D146FDF757FA674C18
:106C10002F464FF400513E468803656000F052F95C
:106C20004FF4407000F044F9FCF766F9FCF7C4FB40
:106C3000DFF87CB1FCF7C9FEFDF764FAFDF73EFA18
:106C40000446FDF73BFA01460AF5FA70814203D289
:106C5000FDF734FA504504D2FDF730FA8246FDF7CD
:106C600033FAFDF72BFA014609F5AF70814203D2E2
:106C7000FDF724FA484504D2FDF720FA8146FDF7D6
:106C8000F9F9FCF795FC05F16400A04201D9A54291
:106C90000BD94848807840B99BF82B002546A52899
:106CA00001D0FEF755F9FCF790FEFDF707FADFF883
:106CB000FC8041F28831D8F804201144884205D282
:106CC000FDF7FCF9D8F80410884206D2FDF7F6F972
:106CD000C8F8040001208BF8680098F8000048B953
:106CE00041F288303844A04201D9A74202D9274650
:106CF000FEF742FD47F230503044A04201D9A6428F
:106D000002D92646FEF752FDDFF8A88098F8010068
:106D100008BB9BF869005C46E8B9FDF7CFF9216F25
:106D2000401A4EF66021884223D3FDF7C7F9206749
:106D30000120FCF7AFF878B1FDF76EF90146B223F8
:106D40001D4A1EA0FFF772FA012088F8010014F80E
:106D5000740F401C20700CE0002088F8010084F8BB
:106D60007400FDF759F90146BA23134A1CA0FFF736
:106D70005DFA9BF869005C4601287FF45BAFFDF784
:106D80009DF9E16E401A1F4988427FF653AFFDF727
:106D900095F9E066002084F86900FDF73DF90146A9
:106DA000D023054A18A0FFF741FA43E7000000206E
:106DB0002C0700202E000020227900085B5831307B
:106DC0004B422025735D2025733A2825642920BC79
:106DD000ECB2E2C0B6D1C0B4EDCEF32E0A00000092
:106DE0005B5831304B422025735D2025733A2825AE
:106DF000642920C0B6D1C0BCECB2E2B3C9B9A62E9A
:106E00000A000000C0D401005B5831304B422025FD
:106E1000735D2025733A2825642920B4F2BFAABCEB
:106E2000ECB2E2C0B6D1C0B1EAD6BE2E0A00000074
:106E300030B51E4D002423462D6805F4E065B5F5F8
:106E4000A06F12D006DCB5F5407F14D0B5F5806F89
:106E500012D10DE0B5F5C06F04D0B5F5E06F0BD1E0
:106E6000042309E00124032306E00224234603E06F
:106E70000324012300E00424C4F10404A140C3F16D
:106E800004040F23E34013400B4300F1E0221901F7
:106E900082F8001400F01F02012191404009800097
:106EA00000F1E020C0F8001130BD00000CED00E062
:106EB0000249084302490860704700000000FA05D3
:106EC0000CED00E0024A11400143024801607047A6
:106ED00080FFFF1F08ED00E00248016841F4807167
:106EE00001607047007000400248416A41F08071C3
:106EF00041627047001002402DE9F04760A288B05F
:106F000074CA8DE874005FA2614ED2E90042CDE9F7
:106F100004425CA28046D2E90042CDE9064200204C
:106F20007268014603465B4DC2F381021AB1012A21
:106F300001D0022A01D02A4623E072687468C2F3A5
:106F40008342C4F3C067F46AE40F0FB1113200E06A
:106F5000921C04B11F327468F76AC4F30044C7F38B
:106F6000807764B1F46A04F00F04641C27B14A4FBF
:106F7000B7FBF4F4624304E0B5FBF4F4FAE7474CE2
:106F800062437468C4F303141DF8047022FA07F412
:106F900077680DF1100CC7F302271CF8077024FA6C
:106FA00007F977680DF1180CC7F3C2274FF4004AB0
:106FB0001CF8077024FA07F7B8F1070F06D2DFE8CC
:106FC00008F004080A0C0E3C4400104608B0BDE866
:106FD000F0872046FAE74846F8E73846F6E7306B90
:106FE000C00506D4306BC00301D42D4923E02D49E0
:106FF00021E07068C0F38132306BC00F32B1012ADA
:1070000009D0022A0ED0032A15D110E008B10320BE
:1070100003E079080FE018B10520B7FBF0F10AE0B2
:10702000B90808E008B10720F7E70620F5E708B13E
:107030000920F2E7F9080846C8E7306B400602D499
:1070400048F21200C2E75046C0E7306B80070ED00E
:10705000306B00F0030001280BD0306B00F0030010
:10706000022808D0306BC043800706D006E03B46BC
:1070700004E0134602E0534600E02B461846A5E71D
:1070800000000000000000000102030406070809D8
:107090000010024000127A00006CDC0200093D0082
:1070A000809FD500003FAB01064A02EB90110968B2
:1070B00000F01F0201209040014201D001207047E2
:1070C0000020704700100240054901EB90110A684A
:1070D00000F01F030120984002430A60704700003F
:1070E0000010024070B500234FF40066334D1C467B
:1070F000B0421BD005DC30B310280ED018285AD16E
:107100004DE0B0F5106F3FD0B0F5506F26D000F5D0
:107110007F60B0F5804F4ED12BE01120FFF7C4FF08
:107120005B1C08B9B342F8D1112040E040F60106DB
:107130006FF07C453046FFF7B7FF5B1C08B9AB42E8
:10714000F8D1304633E04FF4A0650120FFF7ACFFE3
:107150005B1C08B9AB42F8D1012028E040F601568B
:107160003046FFF7A1FF5B1C0028EAD1AB42F7D104
:10717000E7E743F211063046FFF796FF5B1C002855
:10718000DFD1AB42F7D1DCE740F601163046FFF71E
:107190008BFF5B1C0028D4D1AB42F7D1D1E719207B
:1071A000FFF782FF5B1C08B9AB42F8D11920FFF74B
:1071B0007BFF00B10124204670BD0000FFFF0F00DF
:1071C000054901EB90110A6800F01F030120984067
:1071D00002430A607047000000100240054901EBBD
:1071E00090110A6800F01F030120984082430A6052
:1071F0007047000000100240054901EB90110A6839
:1072000000F01F030120984002430A60704700000D
:107210000010024004490A6A22F440720A620A6AB3
:1072200002430A62704700000010024030B5154961
:107230000B68091D0968134A10321268114C083492
:1072400024680D0C0570C1F30425457001F03F055D
:107250008570C1F34231C170C3F305410171C3F3BD
:107260000621417103F07F018171C2F30641018162
:10727000C2F30E01418102F48001C16004F04001BB
:10728000016130BD00280040F0B504460078E17887
:10729000E6684D0360F31F4560784FF4F85101EA4A
:1072A00000200543A0784FF47C1100F03F00054317
:1072B00020791B4F01EA0040064360794FF4FE41FC
:1072C00001EA0020A17901F07F0108430643CA20AA
:1072D00038605320386000F025F8E8B120894FF479
:1072E000FE0101EA00406189C1F30E0108430C4927
:1072F000143908600A4824380660001D0560001D26
:10730000016821F0400101600168226911430160B8
:1073100000F022F800F04CF8FF213960F0BD0000C9
:10732000242800400B4B4FF4804100201A6852067D
:107330000DD41A6842F080021A601A68491E02F0E1
:10734000400202D0002AF8D001E0002A00D001203B
:10735000704700000C2800400248016821F08001BD
:10736000016070470C28004010B540F21C70FFF718
:1073700027FFFFF7B1FD4FF410642046FFF7A4FE8E
:107380002046FFF7AFFE4FF40070FFF743FF0748BA
:1073900040F28F1141606321016040F60F00FFF75A
:1073A0000FFFBDE8104000F003B80000940000207B
:1073B00018B512494FF40040009009680020890672
:1073C0001AD40E4CCA211C342160532121600B4B6E
:1073D0001B1D196821F020011960196801F02002B5
:1073E0000099491E009102D0002AF6D000E002B1B7
:1073F0000120FF21216018BD012018BD0828004090
:107400001E480021026842F480320260C314026800
:10741000491C12F4003F01D19942F8D10168890357
:107420002BD541684160416841F400514160416899
:1074300041F4806141604168114A11404160C16A74
:1074400021F04041C162C16A41F00101C16241685D
:107450000C4A11434160016841F08071016001688C
:107460008901FCD5416821F003014160416841F088
:107470000201416041680907FCD5704700100240D5
:10748000FFFFC277000029084FF0E02104280869B7
:1074900003D020F004000861704740F00400FAE7D0
:1074A000016841F080010160704700001D4A10B57D
:1074B000811A4FF4E053904220D00DDCB0F1804FA0
:1074C0001FD0194940181FD0B0F5406F1FD0984207
:1074D00026D14FF4816409E0B1F5A05F1AD0B1F56F
:1074E000C05F1AD099421BD140F212342046FFF7F8
:1074F00083FE2046BDE81040FFF770BE40F20B341B
:10750000F4E74FF48064F1E740F20144EEE740F223
:107510000444EBE74FF44474E8E740F21134E5E744
:1075200010BD0000002C014000FCFFBF016821F0ED
:10753000010101607047016841F00101016070477D
:1075400002698A4302617047F0B50A888262204A64
:10755000204B4FF08047904203D0B84201D0984270
:107560000BD1046824F07004046004684D882C4337
:10757000046004688D882C4304608C68C462164CD7
:10758000164D174E90420CD0B8420AD0984208D0FF
:10759000144B984205D0A04203D0A84201D0B0427B
:1075A00007D1036823F44073036003688F893B436A
:1075B0000360904205D0A04203D0A84201D0B0425F
:1075C00001D1897B0163416941F001014161F0BD55
:1075D000002C0140000400400040014000440140F4
:1075E0000048014000200040C2680A43C260704762
:1075F00002698A4302617047C26800690A40084212
:1076000002D00AB1012070470020704702498A6AFF
:1076100082438A62704700000040024002498A6A41
:1076200002438A62704700000040024010B54FF0EC
:10763000807260231101052000F082F800F0B4F898
:10764000012000F0A7F8012000F06AF8032000F004
:107650006FF8102000F09EF8022000F061F8F02092
:1076600000F066F84FF4007000F094F8042000F089
:1076700057F84FF4606000F05BF84FF4004000F002
:1076800089F8082000F04CF84FF4704000F050F8F2
:107690004FF4801000F07EF8202000F041F84FF405
:1076A000700000F045F8BDE8104000F001B800009F
:1076B0000248016841F0010101607047004002404A
:1076C00002498A6802438A60704700000040024015
:1076D0000349C968014201D001207047002070476A
:1076E000004002400148406B80B2704700400240B9
:1076F0000148806B80B27047004002400148C06B77
:1077000080B27047004002400148006C80B2704770
:10771000004002400148806C80B270470040024047
:1077200002490A6B02430A637047000000400240AE
:1077300002490A6982430A61704700000040024022
:1077400070B5124C2568AD071ED4114E2568082867
:107750000BD241EA003010433540184328432060E3
:10776000D4F8000320F080700CE020F0080041EA1B
:10777000003010433540184328432060D4F80003FC
:1077800040F08070C4F8000370BD0000004002406B
:107790001F8FFF0003490A68920702D40A6A024356
:1077A0000A6270470040024004480168890703D418
:1077B000016821F0040101607047000000400240B0
:1077C0000248016841F00201016070470040024038
:1077D00010B5FFF723FF4FF45060401EFDD103208A
:1077E000FFF76EFFFFF7ECFF0320FFF771FF0028A4
:1077F000FAD010BD70B50D4604461349002061183B
:1078000004D0B1F5744F04D1062000E00220FFF748
:1078100073FB21680A044FF6F07108D5400000EBB5
:107820005500B0FBF5F0014000F0070206E000EB68
:107830005500B0FBF5F0014000F00F02E068114385
:107840000843E06070BD000000BCFFBF406AC0F3A9
:1078500008007047C1F30801816270470A4910B5FA
:10786000401805D0B0F5744F0CD140F20E3401E051
:1078700040F211442046FFF7BFFC2046BDE810400F
:10788000FFF7ACBC10BD000000BCFFBF016841F0B9
:1078900001010160704700EB9110006801F01F02C8
:1078A00001219140084000D00120704710B5C1F37C
:1078B0008912835801F01F040121A1400B4383501A
:1078C00010BD026AC1F30443012199400A430262D8
:1078D000704730B5C1F38912825800EB915001F026
:1078E0001F05012404FA05F300681A40C1F304419E
:1078F00004FA01F3184202D00AB1012030BD002081
:1079000030BD026822F00402026002680A4302608D
:107910007047026822F00802026002680A430260AF
:1079200070476D61696E00557067726164655F577D
:107930007269746500434F4D5F557067726164658D
:107940005F5772697465004D61696E426F61726460
:107950004261736963496E666F00476574426C7576
:1079600065496E666F004D61696E426F6172644376
:10797000617264496E666F0055706772616465522A
:1079800065717565737448616E646C657200436FF0
:107990006D526563764D61696E426F6172644461D8
:1079A00074610053656E64434B423234506B740013
:1079B000426C7565436865636B52657300426C7514
:1079C0006553656E64436D640042756C654368651C
:1079D000636B52657365740042756C6543686563DB
:1079E0006B526573657450726F6365737300427593
:1079F0006C654D6F64654563686F50726F63657346
:107A0000730042756C654D6F646556657250726F98
:107A1000636573730042756C654765744E616D658F
:107A200050726F636573730042756C654D6F64656A
:107A30004563686F0042756C654D6F64655665728D
:107A4000730042756C654D6F64654765744E616D7A
:107A5000650042756C655365744E616D65004275D5
:107A60006C654D6F6465506169720042756C65525A
:107A700065636F6E6E6563740048616E646C654229
:107A80006C75654D736700466C61736857726974F5
:107A900065576F726400466C6173685772697465EC
:107AA000004C6F616453797374656D496E666F0045
:107AB00053797374656D52657365745265636F7243
:107AC00064005072696E74664461746100464D31A1
:107AD000373558585F436F6E666967004D69666158
