:020000040800F2
:10200000A80E0020652100086D2100086F2100083E
:1020100071210008732100087521000800000000EC
:102020000000000000000000000000007721000810
:1020300079210008000000007B210008754F00088E
:102040007F2100087F2100087F2100087F210008F0
:102050007F2100087F2100087F2100087F210008E0
:102060007F2100087F2100087F2100087F210008D0
:102070007F210008E95100087F2100084D52000827
:102080007F2100087F210008000000007F21000858
:102090007F2100087F2100087F2100087F210008A0
:1020A0007F2100087F2100087F2100088557000854
:1020B000C1570008000000007F2100080000000058
:1020C0007F210008000000007F2100087F21000818
:1020D0007F21000800000000000000000000000058
:1020E00000000000000000007F2100080000000048
:1020F00000000000000000000000000000000000E0
:102100007F21000800000000000000007F2100087F
:1021100000000000000000000000000000000000BF
:1021200000000000000000000000000000000000AF
:10213000000000000000000000000000000000009F
:102140000000000000000000000000007F210008E7
:10215000DFF80CD000F022F900480047696500085C
:10216000A80E00200648804706480047FEE7FEE725
:10217000FEE7FEE7FEE7FEE7FEE7FEE7FEE7FEE737
:10218000794F00085121000838B5D0E90221491ED5
:1021900001EB410102EBC1014268C1EB011102EB0D
:1021A00081010268C1EB011102EB8102D0E9043127
:1021B00001EB410103EB81013023A1F5527191FB49
:1021C000F3F4174D6C4302EBC41291FBF3F403FBE1
:1021D000141100921A2902DB124B1A4400920C22AD
:1021E00091FBF2F3104C6343009C04EBC313009388
:1021F00091FBF2F302FB13110C4A08E0491E40F276
:10220000A324535C6343009C04EBC3130093002995
:10221000F4DC0146684600F07BF8009838BD000009
:102220003F0C0F008051010067C20300F9910008C4
:1022300040EA01039B0703D009E008C9121F08C048
:10224000042AFAD203E011F8013B00F8013B521EC8
:10225000F9D27047D2B201E000F8012B491EFBD23F
:1022600070470022F6E710B513460A4604461946A1
:10227000FFF7F0FF204610BD421C10F8011B00299B
:10228000FBD1801A704730B504460020034600E0B9
:102290005B1C934203D2E05CCD5C401BF8D030BDA8
:1022A0002DE9F05F0546002092469B46884606468B
:1022B000814640241BE0284641464746224600F01E
:1022C0008EF853465A46C01A914110D3114618460B
:1022D000224600F075F82D1A67EB01084F4622469A
:1022E0000120002100F06CF817EB00094E41201E80
:1022F000A4F10104DFDC484631462A464346BDE8E6
:10230000F09F0000014900F003B80000780A0020A7
:1023100010B500683C22B0FBF2F302FB1303B0FBE4
:10232000F2F00B60B0FBF2F302FB1303B0FBF2F030
:1023300018224B60B0FBF2F302FB1303B0FBF2F088
:10234000021D8B600723B2FBF3F403FB1422800011
:1023500040F2B55300F66C308A61B0FBF3F2B0FB8B
:10236000F3F403FB1400443280084A61C8613B283F
:1023700002D3920700D0401C0022074C13460A618A
:10238000E25C824203D8801A5B1C0B61F8E7401CB8
:10239000C860084610BD000005920008064C074DB5
:1023A00006E0E06840F0010394E807009847103425
:1023B000AC42F6D3FFF7D0FED0930008F0930008AC
:1023C000202A04DB203A00FA02F1002070479140F5
:1023D000C2F1200320FA03F3194390407047202AEA
:1023E00004DB203A21FA02F00021704721FA02F3BF
:1023F000D040C2F1200291400843194670470000C6
:102400002DE9F84FC3780478857883EA046344782B
:10241000E24E240484EA052463401468857983EA43
:102420000409C379047983EA04634479240484EABF
:10243000052463405468857A83EA040AC37A047ADF
:1024400083EA0464437A1B0483EA05235C409368AF
:10245000057B5C40C37B83EA0565437B807B1B0473
:1024600083EA00204540D0684540D2F8F000401093
:102470000090DFF82CB34FEA1963CAF307400BF55D
:10248000806E5BF823305EF820004340C4F30720E1
:1024900087000BF50060C059EFB256F827707840FE
:1024A000434010694FEA1A6743405BF82700C4F3C2
:1024B00007475EF827707840C5F307274FEA870C77
:1024C0000BF5006757F80C7009F0FF0C56F82CC09C
:1024D00087EA0C07784057694FEA146C78405BF83C
:1024E0002C70C5F3074CE4B25EF82CC056F82440BB
:1024F00087EA0C07C9F3072C4FEA8C080BF5006C30
:102500005CF808C00AF0FF0856F828808CEA080C2E
:1025100087EA0C07D2F818C087EA0C074FEA156C57
:102520005BF82C50C9F3074C5EF82CC085EA0C050B
:10253000CAF3072C4FEA8C080BF5006C5CF808C056
:102540008CEA040CD46985EA0C056540009C02F114
:102550002002641E4FEA136C009472D05BF82C408A
:10256000C0F3074C4FEA8C08F4460BF5006E5CF89C
:1025700008C005F0FF0884EA0C04C7F3072C56F8DE
:1025800028805EF82CC08CEA080C84EA0C04D2F88F
:1025900000C084EA0C094FEA106C5BF82C40C7F3CA
:1025A000074C4FEA8C080BF5806C5CF808C003F010
:1025B000FF0884EA0C04C5F3072C56F828805EF85F
:1025C0002CC08CEA080C84EA0C04D2F804C084EA1B
:1025D0000C0A4FEA176C5BF82C40C5F3074C4FEA26
:1025E0008C080BF5806C5CF808C000F0FF0884EAEA
:1025F0000C04C3F3072C56F828805EF82CC0C3F3F4
:1026000007438CEA080C84EA0C04D2F808C0C0F333
:10261000072084EA0C044FEA156C5EF820005BF892
:102620002C504FEA830C0BF5806353F80C305D405F
:10263000FBB256F8233058404540D068454018E773
:10264000FFE7DFF860B1B246DFF854915BF82C4049
:10265000C0F3074C04F07F4456F82C6005F0FF0CE3
:1026600006F47F067440C7F3072639F8266006F49F
:102670007F46744009F5806616F82CC084EA0C0485
:10268000D2F800C084EA0C044FEA146C81F800C050
:102690004FEA144C81F801C04FEA142C81F802C0B3
:1026A0004FEA106CCC705BF82C40C7F3074C04F079
:1026B0007F445AF82CC00CF47F0C84EA0C04C5F358
:1026C000072C39F82CC00CF47F4C84EA0C0403F07E
:1026D000FF0C16F82CC084EA0C04D2F804C084EA7B
:1026E0000C044FEA146C81F804C04FEA144C81F8D2
:1026F00005C04FEA142C81F806C04FEA176CCC7164
:102700005BF82C40C5F3074C04F07F445AF82CC00A
:102710002D0E0CF47F0C84EA0C04C3F3072C39F85B
:102720002CC00CF47F4C84EA0C0400F0FF0C16F86B
:102730002CC084EA0C04D2F808C084EA0C044FEAE6
:10274000146C81F808C04FEA144C81F809C04FEAB4
:10275000142C81F80AC0CC725BF8254004F07F4449
:10276000C3F30743C0F307205AF8233039F8200099
:1027700003F47F035C4000F47F404440F8B216F855
:1027800020004440D0684440200E0873200C487359
:10279000200A8873CC73BDE8F88F0000B87C00086D
:1027A000B8700008B87800082DE9F04F002358B140
:1027B00052B14FF4807B802909D0C02907D05945F8
:1027C00005D0981EBDE8F08F4FF0FF30FAE7802962
:1027D0007ED0C0297DD00E25C2F8F050C47805788F
:1027E000867884EA05644578DFF878A22D0485EAC6
:1027F00006256C401460C4790579867984EA0564FD
:1028000045792D0485EA06256C405460C47A057A22
:10281000867A84EA0564457A2D0485EA06256C40AB
:102820009460C47B057B867B84EA0564457B2D042C
:1028300085EA06256C40AAF5C856D46006F5806482
:10284000A4F54065A4F5006980297CD0C77C90F888
:1028500010C090F8128087EA0C6790F811C0C02968
:102860004FEA0C4C8CEA082C87EA0C071761C77DED
:1028700090F814C090F8168087EA0C6790F815C09D
:102880004FEA0C4C8CEA082C87EA0C0757617DD084
:10289000C77E90F818C090F81A8087EA0C6790F805
:1028A00019C04FEA0C4C8CEA082C87EA0C07976198
:1028B000C77F90F81CC087EA0C6790F81DC0807F26
:1028C0004FEA0C4C8CEA00204740D761594501E0A3
:1028D0005DE05EE07DD1D346B246C846D16910685E
:1028E000C1F3074601F0FF0C5AF8266035F82CC0FA
:1028F00006F07F467040C1F307260CF47F4C54F875
:10290000266006F47F0686EA0C0670400E0E18F864
:10291000266070405BF823605B1C70401062566854
:1029200046405662D2F808C0072B8CEA060CC2F863
:1029300028C0D06880EA0C00D0624AD04FEA106C00
:102940005AF82C7000E026E0166907F07F477E40B9
:10295000C0F30747C0F3072C54F8277035F82CC094
:10296000C0B207F47F070CF47F4C87EA0C0718F815
:1029700020007E404640166350697040506396695F
:1029800046407140C2E90E612032A7E733E00A25D4
:1029900022E70C2520E7C846D0681168C0F3074736
:1029A00000F0FF0C56F8277035F82CC007F07F4771
:1029B0007940C0F307270CF47F4C54F8277007F4D4
:1029C0007F0787EA0C077940070E18F827707940CF
:1029D00000E044E05AF823705B1C794011615768AD
:1029E0004F405761916879404840C2E906100A2B70
:1029F00035D01032D0E7C84650691168C0F3074798
:102A000000F0FF0C56F8277035F82CC007F07F4710
:102A10007940C0F307270CF47F4C54F8277007F473
:102A20007F0787EA0C077940070E18F8277079406E
:102A30005AF823705B1C7940916157684F40D76109
:102A4000916879401162D7684F405762082B06D0D1
:102A5000116979404840C2E90A101832CCE70020D9
:102A6000B0E60000B891000870B50446AA202070B6
:102A7000552060700E480D4610F8221F61710178D4
:102A8000491C0170681D608001202071281DA27101
:102A900081B2E371201D01F0ABFA611909350872AA
:102AA000AAB22146BDE87040012003F02DB9000014
:102AB000C40600200021A0F13002092A01D8D1B2B9
:102AC0000BE0A0F14102052A01D8373804E0A0F15B
:102AD0006102052A01D85738C1B20846704700F094
:102AE0000F01000900EB800001EB4000C0B270470D
:102AF0002DE9FC4700270546914688463C46AA46F4
:102B0000960801972CE05FEA897020D0721C41463C
:102B1000504601F0F3F9042201A9504601F0B7F83C
:102B2000D8F800000199884216D02046641CE4B20F
:102B300032280ED901F02EFA014639230A4A0BA099
:102B4000009503F059F94FF0FF30BDE8FC8732469D
:102B5000DDE701F09AF8D6E72D1D08F104083F1DC6
:102B60004F45D0D30020F0E78E7000085B5831301D
:102B70004B422025735D2025733A28256429206661
:102B80006C617368D0B4CAFDBEDDB3F6B4ED5B25ED
:102B900023785D21200A000010B5A0B0802168468E
:102BA000FFF75FFB0F486C46417D0020A52915D03B
:102BB0008DF80800CDF8090001F026FA0A494FF017
:102BC00002034018CDF809004FF001024FF0050153
:102BD0002046FFF749FF20B0002010BD01218DF8ED
:102BE0000810E7E7C40600200073EEBB10B500F143
:102BF0000804007A20B107A003F0FEF8002010BD01
:102C00000AA003F0F9F8D4F801000028F6D001F08A
:102C1000F7FFF3E7D6F7B0E5D0C4CCF8D3A6B4F00D
:102C20002C20B4EDCEF3210D0A000000CAD5B5BDAD
:102C3000D6F7B0E5D0C4CCF8D3A6B4F0210D0A0085
:102C400010B5A0B080216846FFF70BFB02208DF87D
:102C5000080012486C46417D0020A52919D08DF846
:102C60000900CDF80A0001F0CFF90D494FF001033A
:102C70004018CDF80A001A464FF006012046FFF72B
:102C8000F3FE1022214607A001F0E4FD20B0002051
:102C900010BD01218DF80910E3E70000C4060020F3
:102CA0000073EEBB4261736963496E666F5368617E
:102CB0006B6548616E64000010B5007A20B105A014
:102CC00003F09AF8002010BD0849A52081F82300E0
:102CD00007A0F5E7D6F7B0E5CED5CAD6D3A6B4F0AF
:102CE0002C20B4EDCEF3210D0A000000C406002014
:102CF000CAD5B5BDD6F7B0E5CED5CAD6D3A6B4F001
:102D0000210D0A0010B501F0E9F903F04DF800F0CB
:102D1000BCFF01224FF47A742146104602F0AAFA51
:102D200002F040FA01F0F2FF204600F0ACFE02F0A3
:102D3000DBFF01F00DFE204600F0A5FE01F01AFABF
:102D400002F064F906A003F057F800F00FFF08A0A6
:102D500003F052F8BDE8104009A003F04DB80000A0
:102D60005573617274496E6974204F4B210D0A00CE
:102D70000D0A20427370496E6974206F6B0A00005F
:102D80000A3D3D3D3D3D3D3D3D3D3D3D3D3D3D3DA6
:102D90003D3D3D3D3D3D3D3D3D3D3D3D3D3D3D3D63
:102DA0003D3D3D3D3D3D3D3D3D3D3D3D3D3D3D3D53
:102DB0003D3D3D3D3D3D3D3D3D3D3D3D0A0A0A0019
:102DC00070B505460024012001F0C0FD00F01000A0
:102DD000A84223D015B1012D1CD01FE010210120E5
:102DE00000F0E4F90A2000F04EFE012001F0AEFDF3
:102DF000C00613D52046641CE4B25028F2D301F07B
:102E0000C9F801463223064A06A002F0F5FF4FF04A
:102E1000FF3070BD1021012001F02CFF002070BD9B
:102E2000876F00085B5831304B422025735D2025A9
:102E3000733A2825642920536574506F776572446E
:102E40006F776E206572726F722E0D0A000000009F
:102E50007CB50A390478421C8DB2402D0BD901F0A3
:102E600099F8CDE9005401469223104A10A002F0CF
:102E7000C3FF01207CBD1948816A01290ED0C16AB7
:102E8000A1420BD101F086F8CDE900540146992307
:102E9000064A134802F0B0FF00207CBDC4622946F8
:102EA0001046BDE87C4002F06BBD0000E76F0008F3
:102EB0005B5831304B422025735D2025733A28251D
:102EC0006429206C656E205B25645D2C205B256485
:102ED0005D2C6572726F72210A000000C40600202A
:102EE0009892000810B5D4B052AA4CA951A802F08B
:102EF000BFFA00287ED14CAB6D4A022101F070FA76
:102F0000F8B10024489449944A94F42105A84B94BC
:102F1000FFF7A7F9664805AA8021801DFFF744FC4A
:102F20004C984D904E944F94509405AA48A94DA8A2
:102F3000FFF766FA52AA4CA951A802F099FA48B1D3
:102F40009BE001F027F801464D235A4A5AA002F0AF
:102F500053FF92E04294439444944CAB48AA0C2112
:102F60000020459401F03CFA30B152AA4CA951A876
:102F700002F07EFA18B180E042A9312014E04CAB97
:102F800048AA0221002001F02BFA58B101F002F802
:102F900001467923474A52A002F02EFF0A2001F091
:102FA0001FFC6AE042A9092001F05EFA002864D102
:102FB0009DF80E019DF80C219DF810319DF80F1120
:102FC0008DE80B009DF80D310F2A19D94FA15548F6
:102FD00002F022FF00F0DEFF01469DF80D010DF129
:102FE000040C9DF810419DF80F319DF80E218CE8DE
:102FF0001D0000E043E09DF80C018D23009016E0D9
:1030000049A1484802F008FF00F0C4FF01469DF8BE
:103010000D010DF1040C9DF810419DF80F319DF844
:103020000E218CE81D009DF80C0194230090214A8C
:10303000434802F0E1FE3B4946A801F031FF9DF80C
:103040001C0100071DD000F0A5FF01469DF81901E5
:103050000DF1040C9DF81C419DF81B319DF81A21BF
:103060008CE81D009DF818010090A523114A35A099
:1030700002F0C2FE2B49A520887502F013FA54B065
:1030800010BD00F087FF01469DF81C019DF81B2133
:1030900000099DF81A419DF81931CDE90320CDE9C9
:1030A00001349DF818010090A123024A32A0DFE705
:1030B00000000020A36F00085B5831304B422025F0
:1030C000735D2025733A282564292074686973206C
:1030D000697320536563726574436172642E0A00DC
:1030E0005B5831304B422025735D2025733A2825EB
:1030F000642920BFA8C6ACC3DCC2EBC8CFD6A4CA23
:10310000A7B0DC2E2E2E0D0A0000000025303278EC
:1031100025303278253032782530327825303278B3
:1031200000000000C40600202530317825303278B8
:103130002530327825303278253032780000000092
:10314000149200085B5831304B422025735D2025D6
:10315000733A28256429205BBFA8BAC53A202530D8
:103160003278253032782530327825303278253063
:103170003278205D0A0000005B5831304B42202538
:10318000735D2025733A28256429205BBFA8BAC542
:103190003A20253032782530327825303278253083
:1031A000327825303178205D0A00000070B50D4678
:1031B000044601F0CBFB20EA05012046BDE8704043
:1031C00002F015BE10B580210A2001F053FD0A203F
:1031D00001F0BCFB002800D0012010BD2DE9FC4708
:1031E0006B4C00F047FF07464FF008080025694E7A
:1031F000C0E000F04AFDDFF8A091B4E000F045FD2A
:1032000000F038FF07463078092837D2DFE800F0B1
:10321000050D183D4D5B6A7F91009DF80400AA28BA
:10322000EBD12070012070805AE09DF804005528F1
:1032300024D1708855212154401C708002204FE019
:103240007088022802D0032804D01AE09DF80410E8
:10325000B18016E0B1889DF8042041EA0221B180D6
:10326000757005290BD200F095FE0146B0880090DC
:1032700040F28523494A4AA002F0BEFD72E00321D4
:1032800031709DF8041021543EE09DF8041001298E
:1032900068D17078401C707070882154B188491EC4
:1032A000B180401C708004201AE070789DF80410F2
:1032B0000844707070882154B188491EB180401C48
:1032C000708005200CE070789DF804100844707040
:1032D00070882154B188491EB180401C708006203E
:1032E000307040E070789DF8041008447070708869
:1032F0002154B188491E0904090CB18002D007216C
:10330000317001E086F80080401C70802BE07078FE
:103310009DF804100844707070882154401C70801F
:10332000B088401E80B2B08001281CD186F8008091
:1033300019E070889DF804102154401C81B27180FE
:103340009DF804007278904203D1204600F0C8FF37
:1033500008E000F01FFE014640F2DA230F4A1AA0EF
:1033600002F04AFD357001A9484600F0BBFB002879
:103370003FF444AF00F07EFE07F10A01884204D812
:1033800000F078FEB842BFF434AFBDE8FC8700001F
:10339000970100201C000020340900203370000831
:1033A0005B5831304B422025735D2025733A282528
:1033B0006429206C656E6774683D25642C657272A3
:1033C0006F722E0A000000005B5831304B422025FE
:1033D000735D2025733A28256429204342206368C1
:1033E00065636B73756D206572722E0A00000000B4
:1033F0002DE9F04389B00F4604460126002500F070
:10340000C9FD0146207CA37C627C8DE80D00282349
:10341000874A88A002F0F0FC7A1C214692A001F0B5
:1034200019FA207C4FF0010816285FD008DC052827
:103430003BD00A286ED013286DD015280BD140E060
:10344000172869D08C4F282867D04FF0A5092B2862
:103450007ED099280AD000F09DFD0146207C009086
:103460009623734A85A002F0C7FCD7E0607C68B160
:1034700000F090FD014637236D4A8DA002F0BCFCA0
:1034800084F8128087F835500226CBE000F082FDE8
:1034900001463023664A8FA002F0AEFCA57487F87F
:1034A000359000F0E7FDB863EEE700F073FD0146EC
:1034B00040235F4A90A002F09FFC022001F090F9A7
:1034C000AFE000F067FD01464623594A94A002F0A0
:1034D00093FC207D617CE27C00EB0160A17C09040F
:1034E00001EB0221084401F08BFB9AE000F052FD51
:1034F000014651234E4A94A002F07EFC00F084FD68
:103500009B4A851841F1000600F044FD0146552311
:10351000474A03E03DE05BE078E07BE095A0009562
:1035200002F06AFC280E40EA06206074280C40EA8B
:103530000640A074280A40EA0660E074257503A8D6
:1035400003F098FA9DF80C00FFF7C9FA607500E0E7
:103550001AE09DF80D00FFF7C2FAA0759DF80E0065
:10356000FFF7BDFAE0759DF81000FFF7B8FA207676
:103570009DF81100FFF7B3FA60769DF81200FFF78F
:10358000AEFAA0760A264DE087F8349009B0BDE87F
:10359000F08300F0FFFC0146607C00906C23244A1D
:1035A0007EA002F029FC607C80B10220A074E5744A
:1035B000257500F0EFFC0146A07C237DE27C8DE8C0
:1035C0000D0077231A4A82A002F016FC042629E097
:1035D000657401222146002001F00EFA00F0DAFCA9
:1035E00001467F23124A84A002F006FC4FF47A7051
:1035F00000F049FABFF34F8F8B4908688B4A00F4FB
:10360000E06010430860BFF34F8FFEE700F052FB0D
:10361000607407E097F82300A52802D084F8118091
:1036200000E0657432462146002001F0E5F9ADE77F
:10363000BE6F00085B5831304B422025735D20255A
:10364000733A2825642920636F6D636F6D20636D65
:1036500064203D205B2523785D2C205B25645D2C58
:10366000205B25645D0A00004465627567BDD3CAAE
:10367000D5CAFDBEDD000000C40600205B58313015
:103680004B422025735D2025733A2825642920B4F8
:10369000EDCEF3636F6D636F6D20636D64203D202D
:1036A0005B2523785D2C206572726F720A00000022
:1036B0005B5831304B422025735D2025733A282515
:1036C000642920B9D8B1D5C9CFCEBBBBFABCECB206
:1036D000E2210A005B5831304B422025735D2025E2
:1036E000733A2825642920B4F2BFAAC9CFCEBBBB48
:1036F000FABCECB2E2210A005B5831304B42202583
:10370000735D2025733A2825642920444542554796
:103710005F434D445F5452554D505445200A0000BC
:103720005B5831304B422025735D2025733A2825A4
:1037300064292044454255475F434D445F534554F7
:103740005F525443200A00005B5831304B42202521
:10375000735D2025733A2825642920444542554746
:103760005F434D445F5245445F525443200A00007A
:103770000073EEBB5B5831304B422025735D202532
:10378000733A282564292047455420525443CAB12E
:10379000BCE4B4C15B25645D0A0000005B583130B5
:1037A0004B422025735D2025733A28256429204447
:1037B000454255475F434D445F4745545356455234
:1037C00020646174615B305D3D2564200A00000067
:1037D0005B5831304B422025735D2025733A2825F4
:1037E000642920B0E6B1BEBAC55B25642E25642CE1
:1037F00025645D0A000000005B5831304B422025F3
:10380000735D2025733A2825642920444542554795
:103810005F434D445F5245424F4F54D6D8C6F4CF14
:10382000B5CDB3A3A10A00000CED00E00400FA0539
:103830002DE9FE43714C00F01DFC07464FF00108D6
:1038400000266F4DCEE000F015FC074628780C28C6
:103850002AD2DFE800F0060FC0C01A2A395B68756B
:103860008DA09DF80800AA281ED120704046A5F81A
:1038700002807BE09DF808105529F5D104202870BE
:1038800068882154401C68800DE068889DF8081005
:103890002154401C6880A888401C80B2A88005285C
:1038A00002D305200EE0AE8095E068889DF80810F0
:1038B0002154401C6880A888401C80B2A88005283C
:1038C000F2D306202870EEE768889DF8081021548E
:1038D000401C80B26880A988491C89B2A98002294D
:1038E00079D3204430F8020CA880FF280AD900F0D0
:1038F00051FB0146A8880090E623424A42A002F00C
:103900007BFA67E0072028706E7064E068889DF895
:1039100008102154401C688068789DF808100844FD
:103920006870082022E068889DF808102154401C27
:10393000688068789DF8081008446870092015E0D0
:1039400068889DF808102154401C688068789DF8AC
:10395000081008446870A888042801D3001F00E0FC
:1039600000200004000CA88013D00A20287032E048
:1039700068889DF808102154401C688068789DF87C
:10398000081008446870A888401E0004000CA88035
:1039900021D10B20EAE768789DF8081088420BD106
:1039A0006A88214621A000F055FF244806716988E5
:1039B0002046FFF71DFD0DE000F0ECFA01469DF8F2
:1039C00008206878CDE900024FF48B730D4A1CA0E3
:1039D00002F012FA2E7002A9284800F083F800289D
:1039E0003FF431AF00F046FB07F10A01884203D8EB
:1039F00000F040FBB842EED2BDE8FE838C00002010
:103A000016000020CB6F00085B5831304B42202558
:103A1000735D2025733A28256429206C656E3D2549
:103A2000642C6572726F722E0A0000004465627524
:103A3000675265637650726F63000000980600203D
:103A40005B5831304B422025735D2025733A282581
:103A500064292073756D3D253032782C706B74208D
:103A600073756D3D253032782C6572726F722C64DF
:103A7000726F7020706B742E0A00000028090020FD
:103A8000642000F00DB870B5054600244FF47A7636
:103A900003E0304600F004F8641CAC42F9D370BD7A
:103AA00070B54FF0E02500216C69094AAB691278C6
:103AB0005043AA699A42FCD002D2A3EB020302E06F
:103AC000A4EB02063344194413468142F1D370BD7E
:103AD000700000200028FDD00021C18001814181BB
:103AE00008467047428903899A4213D002890368C5
:103AF0001344521C02811A780A708188028991420B
:103B000001D800210181C18811B1C188491EC1803D
:103B1000002070474FF0FF30704700234360836000
:103B20000160828018467047428903899A4242891F
:103B300001D283881A440389D21A8388521C934283
:103B400010D9428903681344521C42811970C188FC
:103B5000491CC18081884289914201D8002141815C
:103B6000002070474FF0FF30704700002DE9F04112
:103B70000024144D012640F20A2700F086F800F0D8
:103B80006FF880B100F081F8641CE4B26E7500F04B
:103B900001FA01463B460C4A0CA002F02DF9322CEA
:103BA000EBD3BDE8F08100F070F8A520687500F057
:103BB000F1F9BDE8F041014640F20223024A0EA0AD
:103BC00002F01AB9C4060020A67000085B58313014
:103BD0004B422025735D2025733A28256429204611
:103BE0004D31373558585F496E6974206572726F70
:103BF000722E0D0A000000005B5831304B42202528
:103C0000735D2025733A2825642920464D313735C8
:103C100058585F496E6974204F4B2E0D0A00000002
:103C200010B50E4C4021204602F039FC0A20FFF767
:103C30002AFF00F02AF84021204602F032FC0A2038
:103C4000FFF721FF00F021F8012000F07FFE20287F
:103C500001D0012010BD002010BD0000001400485C
:103C600010B500F012F801F083F8FFF7D9FF10B19A
:103C70004FF0FF3010BD00F008F8002000F001FD0B
:103C8000032001F003F8002010BD02F0CDBB10B5F9
:103C9000002303E010F8014BCC545B1C9342F9D392
:103CA000002010BD0A4601460148FFF7F0BF0000A2
:103CB00000F00108F8B516480024164D009002F0F7
:103CC00051FB284602F010FB342002F0FFFA02F00C
:103CD00003FB6E14042269462846FEF709FF48B12B
:103CE00000F058F9014656230B4A0CA002F084F864
:103CF0000120F8BD241D2D1DB442EBD300F04AF97C
:103D000001465D23044A10A002F076F80020F8BDB9
:103D10006655443300FC01089C7000085B58313044
:103D20004B422025735D2025733A282564292046BF
:103D30006C61736854657374206661696C65642195
:103D40002121200A000000005B5831304B42202521
:103D5000735D2025733A2825642920466C617368B9
:103D600054657374204F4B212121200A000000006C
:103D70002DE9F05F154689468346FFF786FF02F07E
:103D8000F1FAABF10060C0F30906C6F580644FEAB2
:103D90009028A54200D82C46FFF777FF4FF000602F
:103DA00000EB882082464FF480622849FFF76FFFBE
:103DB00000270EE02548F119405CFF2808D000F0EC
:103DC000E9F801467D23224A22A002F015F802E01C
:103DD0007F1CA742EED3A74214D2504602F084FAC9
:103DE000342002F073FA0020184A04E019F8001099
:103DF0008319401CD154A042F8D350464FF480722E
:103E0000124906E0A0074FEA940200D0521C49462E
:103E1000584600F073F8A5420CD100F0BBF80146FB
:103E200093230B4A13A001F0E7FF02F055FA00209C
:103E3000BDE8F09F281BA144A344002685B24FF49F
:103E4000806408F10108A542A6D8A4E797020020E3
:103E5000577000085B5831304B422025735D202598
:103E6000733A2825642920D0E8D2AAB2C1B3FD2E26
:103E70000A0000005B5831304B422025735D20253D
:103E8000733A2825642920D0B4CDEAB3C9B9A62E47
:103E90000A000000F0B58BB00E46074600242C2126
:103EA0006846FEF7DEF9104D324639462846FFF7E0
:103EB0005FFF2C2269462846FFF7E9FE3246394665
:103EC0006846FEF7E0F918B1641C052CECD301E05C
:103ED000052C06D305A001F08FFF4FF0FF300BB08B
:103EE000F0BD0020FBE7000000F00108D0B4666CD4
:103EF000617368B4EDCEF321200D0A002DE9F8437B
:103F000090468946064602F02DFA00254FF47A774E
:103F10001AE00024342002F0D9F959F8251030466F
:103F200002F030FAB8B10120FFF7ADFD2046641C65
:103F3000B842F8D900F02EF801464123074A08A0FC
:103F4000009601F059FF6D1C4545E2D302F0C4F91B
:103F50000020BDE8F883361DF5E700004870000832
:103F60005B5831304B422025735D2025733A28255C
:103F7000642920D0B4666C617368B3ACCAB12C20DC
:103F80005B307825785D2C20B4EDCEF32121212003
:103F90000A0000001FB50D4802F06CFD0B484038C8
:103FA00090F8421090F8464090F8453090F8442040
:103FB0008DE81E0090F8413090F8402004A10B4895
:103FC00001F02AFF04B0094810BD000004070020DA
:103FD00025327825303278253032782025303278F5
:103FE0003A253032783A253032780000580A0020DD
:103FF000034610B50020024603E09C5C521C20449E
:10400000C0B28A42F9DB10BD00B591B014210BA8F3
:10401000FEF727F90BA802F02DFD2C216846FEF7CC
:1040200020F99DF82C00FEF75AFD05909DF82D0013
:10403000FEF755FD04909DF82E00FEF750FD03900D
:104040009DF82F00FEF74BFD06909DF83000FEF71F
:1040500046FD02909DF83100FEF741FD01909DF86C
:104060003200FEF73CFD00906846FEF78DF811B077
:10407000002100BD0148C0687047000024000020F6
:10408000064B4FF400411A78501C187004481AB1BE
:1040900000221A7002F003BA02F003BA780000207E
:1040A000000800480A21B0FBF1F201FB1202B0FB4C
:1040B000F1F002EB0010C0B270470000002909D1F6
:1040C000054A00284FF00201104601D002F0E9B97C
:1040D00002F0E5B9704700000004004870B540F2F6
:1040E000135002F091FC084D4FF400440122234686
:1040F0001146284602F0DCF923462846BDE8704008
:104100000322002102F0F8B90008004813B50C465C
:104110006846FEF7F7F8017E2170017D6439617011
:10412000017C491CA170017BE170017A0831217189
:10413000017961710078A07104E018382071E0788D
:10414000401CE07020791828F7D204E03C386071F8
:104150002079401C207160793C28F7D204E03C387B
:10416000A0716079401C6071A0793C28F7D20020D2
:104170001CBD00003EB52C212048FEF772F82048F7
:1041800000242C2104601D48FFF78CFD1B4864218E
:104190002C30FEF766F81BA001F02EFEFFF7FAFEAA
:1041A00001464A23274A28A001F026FE304800F0A5
:1041B00027FD2C211148FEF754F810492D480860BE
:1041C0002C210E48FFF766FEFFF7E4FE01460220B1
:1041D000CDE9000453231B4A2748029401F00CFE4A
:1041E000FFF7D8FE014625A227A0CDE900025423FF
:1041F000144A28A001F000FE3EBD000098060020F1
:10420000260000200A0A0A2A2A2A2A2A2A2A2A2AD0
:104210002A2A2A2A2A2A2A2A2A2A2A2A2A2A2A2AFE
:104220002A2A2A2A2A2A2A2A2A2A2A2A2A2A2A2AEE
:104230002A2A2A2A2A2A2A2A2A2A2A2A2A2A2A2ADE
:104240002A2A0A00627000085B5831304B42202550
:10425000735D2025733A28256429200D5538537540
:1042600062B3F5B4CEC6F4B6AF4170700A00000078
:10427000FFF3255CAE5634127893000831393A3199
:10428000313A303900000000446563203238203272
:10429000303138005B5831304B422025735D20258A
:1042A000733A28256429200A0DCEC4BCFEB1E0D2A1
:1042B000EBCAB1BCE42C20D4C2C8D5C4EA20257313
:1042C00020CAB1B7D6C3EB2573200A00C279012AF0
:1042D00003D0022A03D1FEF789BCFEF7EDBC70477C
:1042E00070B50D460446FFF7D0FCA279012A09D02B
:1042F000022A0DD0032A11D129462046BDE870407C
:1043000000F01CB829462046BDE87040FFF7DEBF2C
:1043100029462046BDE8704000F001B870BDC27962
:10432000012A08D0022A08D00021012301720222AA
:104330001946FEF799BB00F0F9BD704770B5054608
:10434000C07900240E46012806D0022825D128462F
:10435000BDE8704000F0C6BB0A4629460FA000F039
:1043600079FA3146284601F06BFA70B1FFF712FE78
:1043700001464FF40B730F4A0FA001F03DFD0124DD
:104380002046BDE8704001F039BA052000F028FA57
:104390001249A52081F82400F2E770BD454E554D25
:1043A0005F555047524144455F524551554553541E
:1043B00000000000227000085B5831304B4220257D
:1043C000735D2025733A2825642920B2BBBFC9D26A
:1043D000D4C9FDBCB62121210A000000C40600207A
:1043E00000B587B010B1012802D004E0602000E0E1
:1043F00061208DF8040088008DF8050010788DF894
:10440000060050788DF8070090788DF80800D07875
:104410008DF8090010798DF80A0050798DF80B009D
:1044200018788DF80C0058788DF80D0098788DF874
:104430000E00D8788DF80F00012000F0A8F9FEF7E3
:10444000C1FE05A8009004AB0C2201A90E2000F0CB
:104450005AF838B9082000F079FA000702D5002090
:1044600007B000BD0120FBE77FB504460D460120E3
:1044700000F08DF930228DF808208DF80940FEF704
:10448000A1FE03A800902B46022202A90C2000F0F6
:104490003AF80446FFF77EFD01460398CDE9000493
:1044A0004FF4E373064A07A001F0A6FC14B9039881
:1044B000802802D0012004B070BD0020FBE700007E
:1044C000E09100085B5831304B422025735D202578
:1044D000733A2825642920726563655F6269746C8C
:1044E000656E3A202564202C726573756C74203DCE
:1044F000202564200A00000010B5FFF7C6FBBDE8C8
:10450000104000F0E1B92DE9F0479946144688467D
:1045100007460026DDF820A0FEF754FEFFF7B5FBA6
:1045200020210B2001F063FC7F21042001F05FFCBF
:104530000E2F07D14146204601F04CFC80210D2072
:1045400000F098FB80212A2000F094FB39460120DE
:1045500001F04DFCFFF799FB042000F0F7F9054648
:10456000C00703D020250C2F5CD076E00E2F11D091
:10457000042F12D00C2FEDD1680739D5C4B3202CED
:10458000414629D9202001F025FC203CE4B208F165
:10459000200825E0E806DDD560E0680717D5B4B14E
:1045A000202C414604D2204601F014FC002406E0F1
:1045B000202001F00FFC203CE4B208F1200880210B
:1045C0000D2000F057FB0421084601F010FC68069E
:1045D000C0D5002CBED141E0204601F0FBFB0024F9
:1045E00080210D2000F046FB0421084601F0FFFB6E
:1045F000280712D5680610D57CB90A2000F0A6F964
:1046000020280AD909EB0601202000F091F9203674
:10461000F6B20821042001F0EAFBA8069AD5002C86
:1046200098D100250A2000F091F907460C2000F0EF
:104630008DF900F007040FB904B1012709EB060159
:10464000384600F075F9F019C0B21CB1C000083846
:10465000011900E0C100CAF800101DB9062000F0E1
:1046600075F9054680210C2000F004FB2021012073
:1046700001F0BDFB80210D20FEF798FD2846BDE826
:10468000F08710B50446FFF700FB24B1012C45D09C
:10469000022C5DD05AE010210C2000F0EBFA4021F2
:1046A000152000F0E7FA0021122001F0A0FB002104
:1046B000132001F09CFB8021392000F0DBFA01215E
:1046C0003C20FEF773FD07213D20FEF76FFD03211F
:1046D0003E20FEF76BFDFF21332001F088FB072110
:1046E000322001F084FBF121272001F080FB3F21E3
:1046F000282001F07CFB0121292001F078FB4021DA
:10470000262001F074FB0D21192001F070FB84219B
:10471000182001F06CFB4021362015E010210C2000
:1047200001F065FB8321122001F061FB832113203E
:1047300001F05DFBF421272001F059FBF421232037
:1047400001F055FB002120E001F051FB002010BDDD
:1047500010210C2001F04BFB9221122001F047FBAD
:104760009621132001F043FBF421272001F03FFBA9
:104770002021282001F03BFB4F21232001F037FBB3
:104780002021292001F033FB07211520DCE770B53B
:1047900040F29F6100244843611E01224FF6FF73DF
:1047A00001EBC0011D1102EB4400B1FBF0F0984297
:1047B00002D3641CAC42F6D385B2C4F307212A208D
:1047C00000F058FAE1B22B2001F011FB290A2C204D
:1047D00001F00DFBE9B22D2001F009FB002070BDB6
:1047E00070B5054600241A4E09E00A20FFF74BF980
:1047F0002046641CC82802DD4FF0FF3070BD202128
:10480000304601F050FE0028EFD10821304601F07B
:1048100048FEFFF735F90821304601F040FEFFF76A
:104820002FF900240FE0FFF730FA1021304601F095
:1048300038FEFFF725F91021304601F030FEFFF772
:104840001FF9641CE4B2AC42EDD3002070BD00003F
:10485000000400487CB515460E460446FFF79AFB57
:1048600001465C23094A0AA0CDE9004501F0C4FADB
:10487000002404E0315D11A001F0BEFA641CAC42DA
:10488000F8D3BDE87C400FA001F0B6BA83700008F1
:104890005B5831304B422025735D2025733A282523
:1048A00064292063616C6C2062792025732C6C650F
:1048B0006E3D25642C70646174613A002530325875
:1048C000000000000A00000010B5FEF70BFB174CBB
:1048D000A07DA52829D1FFF7D8F90020A07594F86C
:1048E0003410A52915D0FFF7C5FBE16B01F6B831EF
:1048F000884204D2FFF7BEFBE16B884215D2FFF776
:10490000B9FBE0630620FFF76BFFBDE8104000F045
:10491000E9BA84F834000620FFF762FF1022BDE8F0
:10492000104002492B2000F0C1B810BDC406002081
:1049300070B50D460646002405E0092000F006F893
:104940002855641CE4B2B442F7D370BD00F020B81F
:1049500010B502F02DF9FFF71DFB0146BDE8104030
:104960006A23024A02A001F047BA0000F191000850
:104970005B5831304B422025735D2025733A282542
:10498000642920B3F5CABCBBAF205254430A0000CF
:1049900070B504464FF400454FF090462946304626
:1049A00001F07DFD802040EA4400C0B200F04AFAE8
:1049B00000F044FA04462946304601F072FD2046D4
:1049C00070BD2DE9F0410E4607464FF400444FF00C
:1049D00090452146284601F062FD7E2000EA47000E
:1049E00000F030FA304600F02DFA21462846BDE8A6
:1049F000F04101F056BD00003EB50C46AA212170E1
:104A000055216170E071101DA0810120A073D01CA0
:104A100081B2154604F10E00FFF7EAFA61194874F5
:104A2000FFF7B8FA0146207CA37C627C8DE80D007C
:104A30001023094A09A001F0DFF905F11202154619
:104A4000214615A0FFF706FF03B0AAB22146BDE834
:104A50003040002001F058B9B16F00085B58313088
:104A60004B422025735D2025733A28256429207048
:104A70004672616D652D3E686561642E636D6420CC
:104A80003D205B2523785D2C205B25645D2C205B1D
:104A900025645D0A00000000B7A2CBCDCAFDBEDDD3
:104AA000B8F8B2FAB2E2C8EDBCFE0000F0B5A1B0B1
:104AB0000F460646154680216846FDF7D2FB8DF865
:104AC000106001208DF811006C462A4639460DF120
:104AD0001200FDF7ADFB6A1C21460020FFF78CFF9A
:104AE00021B0F0BD70B5234E00F10804002596F802
:104AF0002400A52801D001250FE02046FEF7A8F9E3
:104B0000022810D048B10125FFF744FA014640F2CF
:104B10001123194A19A001F06FF92178284600F0F5
:104B200059F8002070BD2178002000F053F84FF4B0
:104B30007A742046FEF7A7FF2F20FFF751FEFFF7FC
:104B400029FA014640F205230B4A14A001F054F95A
:104B5000002086F824002046FEF795FFBFF34F8F14
:104B60001A4801681A4A01F4E06111430160BFF379
:104B70004F8FFEE7C40600200F7000085B583130ED
:104B80004B422025735D2025733A2825642920C9CE
:104B9000FDBCB6B4EDCEF32121210A005B583130C3
:104BA0004B422025735D2025733A28256429204433
:104BB000454255475F434D445F5245424F4F54D69F
:104BC000D8C6F4CFB5CDB3A3A10A00000CED00E028
:104BD0000400FA0530B5A1B00C46054680216846B0
:104BE000FDF73FFB8DF80850022368468DF8094019
:104BF00003221946FDF738FF21B0002030BD000028
:104C00001CB56946FFF782FA9DF80100FFF74AFAE2
:104C1000164B03F8400F9DF80200FFF743FA587057
:104C20009DF80300FFF73EFA98709DF80000FFF72B
:104C300039FAD8709DF80400FFF734FA18719DF81E
:104C40000500FFF72FFA58719DF80600FFF72AFAC2
:104C50009871074801681981406858810020D86020
:104C600018610248403001F033FF1CBDC40600202B
:104C70007C00002070B50C460546FFF767FE40EA51
:104C80000401284601F0B3F8002070BD70B5044659
:104C9000FEF7FBFF1420FFF759FE00F00300A042CF
:104CA00001D1002070BD34B1012C06D0022C0ED0F1
:104CB000032C0ED006E0032100E001211420FEF7B2
:104CC00075FA0546C820FEF7DEFE284670BD0221B3
:104CD000F4E703211420FFF7CDFFF2E770B540F2AF
:104CE000135001F091FE084D4FF400540122234669
:104CF0001146284601F0DCFB23462846BDE87040FB
:104D00000322002101F0F8BB0008004810B5002480
:104D100018210C48FDF7A5FA0A48092104EB4402C2
:104D200000EBC2025170641CF8D001218171342162
:104D3000C171FFF7D3FF01223421BDE810400020EC
:104D400000F098BA400A002058B109280CD00A286F
:104D50000DD00123401E834003EA01001146FFF7F6
:104D6000ADB911460020FAE711460120F7E7704778
:104D70002DE9F04140F2115001F046FE40F216508C
:104D800001F042FE40F2125001F03EFE4FF40044AA
:104D900001224FF0904523461146284601F088FB3A
:104DA000234603220021284601F0A6FB214E0122C2
:104DB00040231146304601F07BFB402303220021B3
:104DC000304601F099FB1C4F01220823114638465A
:104DD00001F06EFB082303220021384601F08CFB12
:104DE000012220231146384601F062FB20230322D2
:104DF0000021384601F080FB1023012200213846B3
:104E000001F056FB102303220021384601F074FB09
:104E10004021304601F045FB2146284601F041FB88
:104E20002021384601F03DFB3846BDE8F04108211D
:104E300001F035BB0014004800040048A52000F034
:104E400001B800002DE9F041144F05460024280662
:104E50004FF02001384602D501F023FB01E001F0BC
:104E60001EFB0821384601F01CFB0120FEF718FE4E
:104E70006806060E1021384601F015FB40EA0605CB
:104E80000821384601F00BFB0120FEF709FE641CE7
:104E9000E4B2082CDBD32846BDE8F08100040048CA
:104EA0002DE9F04105460C460846FDF7E5F90646B2
:104EB00000230FE0E05CFDF7FDFD0746E0184078B9
:104EC000FDF7F8FD03EBD37105EB610140EA071034
:104ED00008709B1CB342EDDB06EBD6704010BDE8BA
:104EE000F081000010B5A0B080216846FDF7B9F947
:104EF00000218DF808106C46102208490DF10900B8
:104F0000FDF796F90123022215212046FDF7ACFD9D
:104F100003A000F071FF20B0002010BDC4060020E7
:104F2000BFA8BAC5C9CFB1A8210D0A0010B5007A33
:104F300028B105A000F060FF4FF0FF3010BD08A0C1
:104F400000F05AFF002010BDD6F7B0E5B6C1BFA8EB
:104F5000D3A6B4F02C20B4EDCEF3210D0A0000004E
:104F6000CAD5B5BDD6F7B0E5B6C1BFA8D3A6B4F0D3
:104F7000210D0A00704700001E48016841F0010140
:104F8000016001688907FCD541681B4A11404160F6
:104F900041681A4A11404160416821F44001416072
:104FA000016B174A114001630168164A1140016004
:104FB000C16A154A1140C162016B40F2031291436C
:104FC0000163016B21F480310163016B21F0004129
:104FD0000163416B21F001014163D0F8C01021F45D
:104FE0008031C0F8C01000218160C0F8CC1001F001
:104FF0002BBE0000001002400C00FF08FFFFC2772C
:10500000BFFFFFBFFFFFF2FEF0FFFF3F10B540F60E
:105010001A1001F06DFC01281ED040F61B1001F0A3
:1050200067FC01281FD040F61C1001F061FC01282C
:1050300020D040F61D1001F05BFC012821D040F685
:105040001E1001F055FC012822D040F61F1001F07F
:105050004FFC012823D02AE0FEF79CFF014669237C
:10506000154A16A021E0FEF795FF01466D23124A6E
:105070001DA01AE0FEF78EFF014671230E4A23A001
:1050800013E0FEF787FF014675230B4A28A00CE0CA
:10509000FEF780FF01467923074A2FA005E0FEF7BF
:1050A00079FF01467D23044A35A000F0A5FEBDE846
:1050B000104001F03DBB0000717000085B583130BA
:1050C0004B422025735D2025733A2825642920CF83
:1050D000B5CDB3CDE2B2BFB8B4CEBBB9DCBDCCB8B0
:1050E000B4CEBB0A000000005B5831304B42202593
:1050F000735D2025733A2825642920CFB5CDB3C927
:10510000CFB5E7B8B4CEBB0A000000005B58313021
:105110004B422025735D2025733A2825642920CF32
:10512000B5CDB3C8EDBCFEB8B4CEBB0A00000000DC
:105130005B5831304B422025735D2025733A28257A
:10514000642920CFB5CDB3B6C0C1A2BFB4C3C5B921
:10515000B7B8B4CEBB0A00005B5831304B422025B3
:10516000735D2025733A2825642920CFB5CDB3B4CB
:10517000B0BFDABFB4C3C5B9B7B8B4CEBB0A00007C
:105180005B5831304B422025735D2025733A28252A
:10519000642920CFB5CDB3B5CDB9A6BAC4B8B4CEC5
:1051A000BB0A000010B5042001F092FD0B480C4929
:1051B0000C4B0068B0FBF1F2B0FBF1F14FF47A70E8
:1051C00041434FF0E0201A70026942F0020202618E
:1051D0004161016941F00101016110BD84000020BD
:1051E00040420F007000002070B5174D154C012192
:1051F000284601F025FE00281BD00121284601F099
:105200001BFE617920790022FFF79EFD2079401C6A
:10521000207120790B280CD1E08A401C80B2E082FA
:10522000A18A884206D2E18A2069405C6071002030
:10523000207170BDA52020702846BDE8704001F0A7
:1052400099BD0000400A0020002C014010B501214A
:105250008C07204601F0F4FD002807D001212046EC
:1052600001F0EAFD0248C168491CC16010BD0000A0
:10527000240000202DE9FF410446204816460F4631
:1052800030F8140001F0C0FB1C4D0A3555F824001D
:1052900001F030FD6B20ADF800000020ADF80C00EF
:1052A000ADF80200ADF8040002978DF80E0055F835
:1052B0002400694601F06CFD012E10D155F8240040
:1052C000012101F0B5FD55F82400012101F05CFD3C
:1052D000A5F110000122005D114601F0CDF955F84D
:1052E000240001F001FD55F8240001F048FD002CD8
:1052F00002D1286801F03EFDBDE8FF812A000020B0
:105300002DE9F0438DB006460020019002900390F5
:1053100004900590086008710C4620218DF8181043
:105320008DF81C008DF820008DF8240080211220BB
:10533000FDF73CFF80211320FDF738FF80210E2070
:1053400000F055FD00211D2000F051FD0DF1280851
:105350000DF1040904AD8DF828609DF818008DF852
:1053600029009DF81C100D2000F041FD9DF824201F
:10537000214608F10200FCF75BFF9DF82400801C29
:10538000C7B20120FFF703FA02AB3A460AA90C2084
:10539000CDF80090FFF7B7F8202867D000072AD58E
:1053A0000E20FFF7D3FA00F01F0709AB08AA06A9E1
:1053B000384600F01EF907A9384600F0F9F89DF8C4
:1053C000242002A904A8FCF733FF9DF824009DF8CF
:1053D0002020284410F8011D11400170002205E032
:1053E000A05CA95C0843A054521CD2B29DF82400D2
:1053F0008242B0D2F4E70198082802D9C0F3C70668
:1054000000E001269DF8240018B1311806292DD19D
:1054100007E0052E2AD1324602A92046FCF708FFF4
:1054200016E02844324602A9401EFCF701FF002086
:105430000CE09DF8241001440A19294412F8013D9A
:1054400011F8011C0B43401C1370C0B2B042F0D3E2
:1054500020786178E2784840A1785140484021792D
:10546000884203D100200DB0BDE8F0830120FAE7A7
:1054700070B515460E46044600F038F880B96178DC
:1054800071B9217889090CD131469320FFF738FF93
:1054900030B92A463146932000F059F8002800D050
:1054A000012070BD1FB550208DF8040000208DF83C
:1054B000050001460D2000F09AFC80211220FFF724
:1054C000D9FB80211320FFF7D5FB08210846FDF703
:1054D0006DFE0120FFF75BF903A8009002AB0222EA
:1054E00001A90C20FFF70FF804B010BD1FB504464A
:1054F0000020029080211220FDF758FE8021132009
:10550000FDF754FE08211320FFF7B4FB07210D20FF
:1055100000F06DFC26208DF80C000120FFF737F914
:1055200002A8009001AB012203A90C20FEF7EBFFBB
:1055300010B90298102802D0012004B010BD9DF8C7
:10554000040020709DF8050060700020F5E770B53C
:105550000C46064686B0154600210D2000F047FC9B
:1055600080211220FFF786FB80211320FFF782FBAA
:105570008DF8046070208DF80500002001A9225CE0
:105580000B18401CC0B29A700528F8D30120FFF711
:10559000FEF805A8009003AB072201A90C20FEF736
:1055A000B2FF002802D19DF80C10297006B070BD22
:1055B000E8B1421E082A02D200EB001017E0A0F169
:1055C00009030201082B03D2803A104408380EE088
:1055D000A0F11103082B02D21044103807E0A0F10B
:1055E0001903072B04D2A2F5C072104418380870B2
:1055F0007047F0B5042510B958240C701D70441E76
:105600000126082C02D221340C701E70A0F109046E
:10561000082C03D231340C7002241C70A0F1110448
:105620000327082C02D241340C701F70A0F119041A
:10563000072C02D2383008701D70087800F007007F
:10564000092807D2DFE800F0060507090B0D0F1146
:1056500013001670F0BD1770F0BD072008E00F2092
:1056600006E01F2004E03F2002E07F2000E0FF2052
:105670001070F0BD2DE9F05F894604463E4900EB0D
:10568000440001EB800A3D48934630F8140001F0D5
:10569000BBF93A48001D30F8140001F0B5F9374F56
:1056A00001212037A7F1100857F8242058F82400CA
:1056B00000F0CAFE07F10805A5F1100655F82420F0
:1056C00056F82400012100F0BFFE57F8243058F8A6
:1056D00024000122022100F0EBFE57F824004FF6CF
:1056E000FF7703463A46002100F006FF55F82430C4
:1056F00056F824000122022100F0DAFE55F8243089
:1057000056F824003A46002100F0F6FE203D55F8F8
:10571000240001F0D3FB55F82400594601F09AFB10
:1057200055F82400042101F01CFC55F82400082140
:1057300001F01FFCB9F1010F16D155F82400052125
:1057400001F0E4FBA5F10C000122005D022100F054
:1057500093FF0B484FF4807200EB04215046FEF794
:10576000DCF95046FEF7B6F955F8240001F0BEFB0F
:105770000020BDE8F09F0000280900204000002024
:105780002807002070B50C4E0C4C0A4D31462046BF
:1057900001F0CFFB00280CD0204601F087FBC1B2FE
:1057A0002846FEF7C1F931462046BDE8704001F0B9
:1057B000B8BB70BD2809002005000507003801406E
:1057C00070B50C4E0C4D0A4C3146284601F0B1FB29
:1057D00000280CD0284601F069FBC1B22046FEF734
:1057E000A3F931462846BDE8704001F09ABB70BD70
:1057F00034090020050005070044004030B5A1B081
:10580000054680216846FCF72CFD6C4601238DF887
:105810000850032219462046FDF726F90B2221469F
:1058200002A0FFF717F821B0002030BD5570677255
:105830006164655265717565737441636B00000046
:105840007FB5204D816800242960C1686960018AA4
:105850002981807CA872FEF79DFB01462868AE7AFC
:105860002B896A688DE84D004FF4DF73164A17489C
:1058700000F0C2FA1648012181620021C162016371
:10588000286898B1686888B100F06CFD114D05EB8F
:10589000842000F029FD342000F018FD641C3A2C0F
:1058A000F5D300F019FD002004B070BDFEF772FBC7
:1058B00001464FF4E373044A07A000F09DFA4FF04D
:1058C000FF30F1E78C010020F96F0008DC9200083E
:1058D000C4060020000801085B5831304B422025E7
:1058E000735D2025733A282564292066696C6573E9
:1058F000697A65206F72207061636B616765206FE4
:10590000722066775F766572736F6E2C2065727297
:105910006F72212121000000F8B500258DF800509C
:105920002C46FEF7B2F90D4E0D4F09E001226946F3
:10593000E019FEF7ACF99DF80000641C284485B21C
:105940003068A042F2D83289AA4205D0294605A083
:1059500000F052FA0120F8BD0020F8BD8C010020B3
:1059600000080108D0A3D1E9B3F6B4ED2121215BF1
:105970002523785D2C205B2523785D0D0A0000002F
:105980002DE9F0416D4F0D4601466D4A386B8CB0E4
:10599000104400242A46FEF7EBF901284AD0386B60
:1059A000684E2844642148433168B0FBF1F8FEF7A3
:1059B000F1FA3A6B33682A44CDE900320146CDF85A
:1059C00008803923604A61A000F016FAB86A71684D
:1059D00088427DD100297BD03A6B31682A449142BC
:1059E000F7D1FEF7D7FA01463D23574A63A000F0EE
:1059F00003FA72686EA0B96A00F0FEF9386B32687B
:105A0000411973A000F0F8F9FEF7C4FA0146386BAB
:105A1000009040234C4A75A000F0EEF9FFF77CFFA0
:105A200060B1FEF7B7FA01464423474A7FA000F071
:105A3000E3F97AE088A000F0DFF976E08D4F8E4D33
:105A40004FF00008CDF82880CDF81480CDF81880EC
:105A5000CDF81C803089ADF828003068CDE90850B9
:105A600000F080FC384600F03FFC342000F02EFCB3
:105A700000F032FC0A2208A93846FEF779F90A221A
:105A800005A93846FEF703F91420FDF7FCFF0A22AA
:105A900008A93846FEF7FBF8BDF82800318988428E
:105AA00023D10999326891421FD10899A9421CD18A
:105AB000BDF81C10884218D106990998884214D163
:105AC00005990898884210D1FEF764FA014600E073
:105AD0002DE05E231C4A69A000F08EF93020FEF70D
:105AE0007FFE02200CB0BDE8F081FEF753FA0146BC
:105AF000DDE90832BDF828008DE80D006523124A63
:105B000068A000F079F9FEF745FA0146326830895D
:105B1000CDE9000266230C4A724800F06DF9032CAF
:105B200003D0641C032C8DD306E00120DAE7401C6F
:105B3000B862386B284438630020D3E7C4060020DD
:105B4000000801088C010020D96F00085B58313033
:105B50004B422025735D2025733A28256429207443
:105B60006F74616C2025642C6765742025642C207B
:105B70005B256425255D2E0A000000005B5831304E
:105B80004B422025735D2025733A2825642920D7B0
:105B9000EEBAF3D2BBB8F6B0FCD2D1BEADD0B4CD24
:105BA000EA2C20BFAACABCD0A3D1E92E0A0000006B
:105BB00043757272656E745061636B616765203DF9
:105BC000205B25645D2C205B25645D0A00000000DD
:105BD0005265636569766553697A65203D205B256A
:105BE000645D2C205B25645D0A0000005B58313049
:105BF0004B422025735D2025733A282564292047D0
:105C00006C6F62616C496E666F2E5570677261646D
:105C10006546772E416464724F6666736574203DF5
:105C2000205B2523785D2E0A000000005B58313090
:105C30004B422025735D2025733A28256429207561
:105C400070677261646520636865636B73756D204E
:105C50006572726F722E0A0031313131313131315A
:105C60003131313131313131312C206572726F7205
:105C70002100000000FC0108DEBC55AA5B58313051
:105C80004B422025735D2025733A28256429207511
:105C900070677261646520737563636573732E0A40
:105CA000000000005B5831304B422025735D2025F9
:105CB000733A2825642920757067726164652065D0
:105CC00072726F722C205B2523785D2C205B25235C
:105CD000785D2C205B2523785D2C206572726F72B5
:105CE0002E0A00002C93000810B54FF496420121B3
:105CF0000020FFF7BFFC0121BDE810404FF4E13266
:105D00000846FFF7B7BC00002DE9F0471746884664
:105D1000054600240E4E40F2077910E0FDF7B5FF6E
:105D200018F8041056F8250001F0C4F856F82500BC
:105D3000494601F0E0F80028F8D0641CA4B2BC4247
:105D4000ECD31420FDF79FFE0020BDE8F087000093
:105D5000480000202DE9F041124F05464FF400564F
:105D600000243146384600F09AFB0820FDF798FEE3
:105D7000E8073146384602D000F093FB01E000F01E
:105D80008EFB0820FDF78CFE641C6D08E4B2082C25
:105D9000EED33146384600F084FBBDE8F0410820E0
:105DA000FDF77EBE0008004810B54FF41064204691
:105DB00000F0AEFD204600F0B9FD0128FAD1042123
:105DC0004FF47F6000F008FB00F02EFBBDE81040B0
:105DD00000F032BB70B50D460646002404E0295D94
:105DE000092000F004F8641CB442F8D370BD10B56B
:105DF000FEF7E7FD002010BD0FB4054B10B503A959
:105E0000044A029800F02CF810BC5DF814FB000066
:105E1000B9630008880000200FB4084B10B504A92E
:105E200002AA039800F01CF8044602A9002000F022
:105E300048FA204610BC5DF814FB0000C36200085D
:105E400002E008C8121F08C1002AFAD17047704743
:105E5000002001E001C1121F002AFBD170470000A1
:105E60002DE9FF4F8DB00F460546002606E0252898
:105E70000BD0DDE90F1290476D1C761C28780028A6
:105E8000F5D111B03046BDE8F08F0024A246A146FE
:105E90000122EC4900E0044315F8013F203B02FADF
:105EA00003F00842F7D128782A2810D06FF02F028B
:105EB0002878A0F13001092914D80AEB8A0102EBF5
:105EC000410144F0020400EB010A6D1CF0E701CF30
:105ED0005FEA000A03D544F40054CAF1000A44F012
:105EE00002046D1C28782E2817D115F8010F44F0F4
:105EF00004042A280ED06FF02F022878A0F1300178
:105F000009290AD809EB890102EB410100EB0109DB
:105F10006D1CF2E757F8049B6D1C28786C280FD095
:105F200006DC4C2817D068280DD06A2814D104E06C
:105F3000742810D07A280FD10DE044F400140AE040
:105F400044F4801401E044F440146978814202D1A1
:105F500004F580146D1C6D1C2A786E2A1FD00CDC91
:105F6000632A31D004DC002A8BD0582A11D1A3E057
:105F7000642A68D0692A0CD165E0732A2ED004DC2B
:105F80006F2A73D0702A04D19BE0752A6FD0782ACB
:105F90006ED01046DDE90F129047761C50E1C4F335
:105FA0000250022806D0032809D0042801CF09D0C6
:105FB000066045E101CFF117C0E9006140E101CF82
:105FC00006803DE106703BE117F8040B8DF80000F8
:105FD00000208DF80100EB46012003E057F804BBD8
:105FE0004FF0FF3061074FF0000102D40DE008F1DF
:105FF0000101884649450FDA8045F8DB1BF8081097
:106000000029F4D108E008F1010188468142FADB59
:106010001BF808100029F6D1DDE90F23AAEB0800D0
:106020008146214600F036F9304400EB080604E0D2
:10603000DDE90F121BF8010B9047B8F10108F7D208
:1060400021464846F7E00A21C4F302534FF0000B03
:106050000891022B04D001CFC117032B09D00AE00D
:10606000FF1D27F00707F7E8020108E032E01FE014
:1060700020E000B2C117042B01D140B2C117031EAA
:1060800071F1000307DA4FF0000CD0EB0C006CEB61
:1060900001012D2302E0230504D52B238DF82430A4
:1060A000012303E0E30701D02023F7E7984658E0F7
:1060B0000A2110E010210EE010204FF0000B089094
:1060C0000CE010214FF0000B44F004044FF00809DD
:1060D000089103E008214FF0000B0891C4F302532C
:1060E000022B04D001CF0021032B06D006E0FF1DB8
:1060F00027F00707F7E8020103E080B2042B00D184
:10610000C0B24FF0000823072BD5702A07D0DDF866
:1061100020C08CF0100C5CEA0B0C05D00EE0402384
:106120008DF82430012308E050EA010306D0302323
:106130008DF824308DF8252002239846DDF820C004
:106140008CF0080C5CEA0B0C0BD150EA010301D176
:10615000630706D530238DF824304FF00108A9F1EC
:106160000109582A04D038A20B9208AA0A920BE01F
:106170003AA2F9E75B46089AFCF792F80B9B9B5C06
:106180000A9A521E0A92137050EA0102F2D10A983A
:10619000ADEB000000F1200B600702D524F4803441
:1061A00001E04FF00109D94502DDA9EB0B0000E049
:1061B000002000EB0B0141440890AAEB010AE00328
:1061C00006D4DDE90F232146504600F063F806446B
:1061D0004FF0000908E009A911F80900DDE90F12E4
:1061E000904709F10109761CC145F4DBE0030CD5A9
:1061F000DDE90F232146504600F04CF8064404E048
:10620000DDE90F1230209047761C0899481E08904F
:106210000029F5DC08E00A980A990078491C0A91DF
:10622000DDE90F129047761CBBF10001ABF1010BC9
:10623000F1DC21465046DDE90F2300F019F8064451
:106240006D1C1BE6092801003031323334353637F6
:1062500038396162636465660000000030313233B2
:106260003435363738394142434445460000000052
:106270002DE9F041044600251E461746880404D443
:1062800005E039462020B0476D1C641EF9D528462C
:10629000BDE8F0812DE9F041044600251E469046F8
:1062A000C80301D5302700E02027880404D505E085
:1062B00041463846B0476D1C641EF9D52846BDE8F6
:1062C000F0810A68531C0B60107070470149C86068
:1062D00070470000002002400248016941F080013F
:1062E000016170470020024070B505464FF47026EA
:1062F000304600F017F8002810D1094C206940F012
:10630000020020616561206940F040002061304654
:1063100000F008F8216921F00201216170BD000040
:106320000020024000B5034600F008F85B1E01287B
:1063300002D1002BF8D1042000BD00000849002044
:10634000CA68D20701D001207047CA68D20601D5B9
:1063500003207047C9684907FBD502207047000039
:106360000020024004480169090603D50349416041
:106370000349416070470000002002402301674547
:10638000AB89EFCDF0B506464FF470270D46384681
:10639000FFF7C8FF00280CD1064C206940F001002F
:1063A000206135603846FFF7BDFF216921F001010A
:1063B0002161F0BD0020024010B50446FDF765FCE8
:1063C0000449A52081F83500E0B2FFF7C3FC204660
:1063D00010BD0000C406002030B5124D104B45F230
:1063E00055541A462C60EC68521E04F0010402D089
:1063F000002CF8D100E04CB96960E9685B1E01F03F
:10640000020102D00029F8D102E009B1002030BD1C
:10641000C0F30B00A8604AF6AA202860012030BD16
:10642000FFFF0F000030004002494AF6AA20086032
:10643000704700000030004002494CF6CC40086034
:106440007047000000300040F0B5046A456A002340
:106450004FF0010C4FF00F0E0CFA03F6164206D067
:106460009E000EFA06F7BC4301FA06F73C435B1C9C
:106470009BB2082BF0D308230CFA03F6164207D080
:106480009E00203E0EFA06F7BD4301FA06F73D4393
:106490005B1C9BB2102BEFD304624562F0BD81629E
:1064A0007047816170470069084000D00120704743
:1064B0002DE9F0470568C66800244FF0010A4FF047
:1064C00003090AFA04F71F420ED0670009FA07FC15
:1064D00025EA0C0526EA0C0601FA07F802FA07FC81
:1064E00048EA05054CEA0606641CA4B2102CE8D361
:1064F0000560C660BDE8F087F0B50129416830D07D
:1065000099434160846801260327A2F57F41FF3942
:1065100013D0002106FA01F51D4208D04D0007FAFC
:1065200005FC24EA0C0402FA05FC4CEA0404491CAC
:1065300089B21029EED38460F0BDC26B002106FA47
:1065400001F51D4206D04FEA410C07FA0CFC4CEA5B
:1065500004042A43491C89B21029F0D38460C26321
:10656000F0BD1943CDE7000008B5FDF783FD0746F0
:106570003E460546B046FDF77DFD4FF400518803C9
:1065800000F0C4F84FF4407000F0B6F8FCF7BAFB26
:10659000DFF8B0904EF6602AFDF777FBFDF76AFD55
:1065A0000446FDF767FD014608F5FA70814203D203
:1065B000FDF760FD40450FD2FDF75CFD8046FDF71D
:1065C0005FFDFDF7E7FC01461F4860231F4A006896
:1065D00000901FA0FFF710FC05F5FA70A04201D94A
:1065E000A5420FD999F824002546A52805D00020FA
:1065F000FCF7E6FB08B9FDF77FFF0120FCF7E0FBA5
:10660000FDF743FB99F82300A5280BD041F2883011
:106610003044A04201D9A64204D9FDF736FB2646F4
:10662000FCF70EFBFDF704F9FCF7D8FD07EB0A00B9
:10663000A04201D9A742AFD9FDF727FB2746FCF7B7
:10664000ABFAA9E7C406002084000020826F00088E
:106650005B5831304B422025735D2025733A282545
:1066600064292053797374656D436F7265436C6F51
:10667000636B5B25645D0A0030B51E4D0024234624
:106680002D6805F4E065B5F5A06F12D006DCB5F510
:10669000407F14D0B5F5806F12D10DE0B5F5C06F15
:1066A00004D0B5F5E06F0BD1042309E001240323E6
:1066B00006E00224234603E00324012300E004242F
:1066C000C4F10404A140C3F104040F23E3401340C8
:1066D0000B4300F1E022190182F8001400F01F02C0
:1066E000012191404009800000F1E020C0F8001134
:1066F00030BD00000CED00E002490843024908608B
:10670000704700000000FA050CED00E0024A11405D
:10671000014302480160704780FFFF1F08ED00E061
:106720000248016841F480710160704700700040C8
:106730000248416A41F08071416270470010024096
:106740002DE9F04760A288B074CA8DE874005FA29A
:10675000614ED2E90042CDE904425CA28046D2E912
:106760000042CDE9064200207268014603465B4DB7
:10677000C2F381021AB1012A01D0022A01D02A46AD
:1067800023E072687468C2F38342C4F3C067F46A9A
:10679000E40F0FB1113200E0921C04B11F32746893
:1067A000F76AC4F30044C7F3807764B1F46A04F075
:1067B0000F04641C27B14A4FB7FBF4F4624304E0B2
:1067C000B5FBF4F4FAE7474C62437468C4F303146E
:1067D0001DF8047022FA07F477680DF1100CC7F366
:1067E00002271CF8077024FA07F977680DF1180CD6
:1067F000C7F3C2274FF4004A1CF8077024FA07F7C2
:10680000B8F1070F06D2DFE808F004080A0C0E3CC6
:106810004400104608B0BDE8F0872046FAE7484635
:10682000F8E73846F6E7306BC00506D4306BC00396
:1068300001D42D4923E02D4921E07068C0F3813255
:10684000306BC00F32B1012A09D0022A0ED0032AC0
:1068500015D110E008B1032003E079080FE018B16A
:106860000520B7FBF0F10AE0B90808E008B10720FD
:10687000F7E70620F5E708B10920F2E7F90808462E
:10688000C8E7306B400602D448F21200C2E7504617
:10689000C0E7306B80070ED0306B00F0030001289A
:1068A0000BD0306B00F00300022808D0306BC043DF
:1068B000800706D006E03B4604E0134602E053465C
:1068C00000E02B461846A5E700000000000000008D
:1068D00001020304060708090010024000127A00B2
:1068E000006CDC0200093D00809FD500003FAB0139
:1068F000064A02EB9011096800F01F020120904047
:10690000014201D001207047002070470010024072
:10691000054901EB90110A6800F01F03012098401F
:1069200002430A60704700000010024070B5002367
:106930004FF40066334D1C46B0421BD005DC30B32B
:1069400010280ED018285AD14DE0B0F5106F3FD066
:10695000B0F5506F26D000F57F60B0F5804F4ED176
:106960002BE01120FFF7C4FF5B1C08B9B342F8D13C
:10697000112040E040F601066FF07C453046FFF7FD
:10698000B7FF5B1C08B9AB42F8D1304633E04FF497
:10699000A0650120FFF7ACFF5B1C08B9AB42F8D142
:1069A000012028E040F601563046FFF7A1FF5B1CAE
:1069B0000028EAD1AB42F7D1E7E743F211063046AF
:1069C000FFF796FF5B1C0028DFD1AB42F7D1DCE775
:1069D00040F601163046FFF78BFF5B1C0028D4D130
:1069E000AB42F7D1D1E71920FFF782FF5B1C08B952
:1069F000AB42F8D11920FFF77BFF00B101242046FC
:106A000070BD0000FFFF0F00054901EB90110A68FF
:106A100000F01F030120984002430A607047000005
:106A200000100240054901EB90110A6800F01F03B5
:106A30000120984082430A60704700000010024025
:106A4000054901EB90110A6800F01F0301209840EE
:106A500002430A60704700000010024004490A6ABD
:106A600022F440720A620A6A02430A627047000016
:106A70000010024030B515490B68091D0968134A1A
:106A800010321268114C083424680D0C0570C1F3E3
:106A90000425457001F03F058570C1F34231C17096
:106AA000C3F305410171C3F30621417103F07F0176
:106AB0008171C2F306410181C2F30E01418102F4EA
:106AC0008001C16004F04001016130BD0028004038
:106AD000F0B504460078E178E6684D0360F31F45A1
:106AE00060784FF4F85101EA00200543A0784FF494
:106AF0007C1100F03F00054320791B4F01EA004064
:106B0000064360794FF4FE4101EA0020A17901F0CB
:106B10007F0108430643CA2038605320386000F0E4
:106B200025F8E8B120894FF4FE0101EA00406189AF
:106B3000C1F30E0108430C49143908600A4824388F
:106B40000660001D0560001D016821F04001016024
:106B5000016822691143016000F022F800F04CF84E
:106B6000FF213960F0BD0000242800400B4B4FF49A
:106B7000804100201A6852060DD41A6842F0800243
:106B80001A601A68491E02F0400202D0002AF8D0AA
:106B900001E0002A00D00120704700000C280040CE
:106BA0000248016821F08001016070470C28004014
:106BB00010B540F21C70FFF727FFFFF7B1FD4FF44F
:106BC00010642046FFF7A4FE2046FFF7AFFE4FF407
:106BD0000070FFF743FF074840F28F1141606321C7
:106BE000016040F60F00FFF70FFFBDE8104000F016
:106BF00003B800007C00002018B512494FF4004093
:106C000000900968002089061AD40E4CCA211C3451
:106C10002160532121600B4B1B1D196821F02001BD
:106C20001960196801F020020099491E009102D0F4
:106C3000002AF6D000E002B10120FF21216018BD3A
:106C4000012018BD082800401E480021026842F4B7
:106C500080320260C3140268491C12F4003F01D163
:106C60009942F8D1016889032BD541684160416898
:106C700041F400514160416841F4806141604168E4
:106C8000114A11404160C16A21F04041C162C16AAC
:106C900041F00101C16241680C4A11434160016841
:106CA00041F08071016001688901FCD5416821F0E3
:106CB00003014160416841F00201416041680907F8
:106CC000FCD5704700100240FFFFC2770000290882
:106CD0004FF0E0210428086903D020F00400086187
:106CE000704740F00400FAE7016841F0800101605C
:106CF000704700001D4A10B5811A4FF4E0539042CE
:106D000020D00DDCB0F1804F1FD0194940181FD0A2
:106D1000B0F5406F1FD0984226D14FF4816409E04E
:106D2000B1F5A05F1AD0B1F5C05F1AD099421BD15E
:106D300040F212342046FFF783FE2046BDE81040A3
:106D4000FFF770BE40F20B34F4E74FF48064F1E7D4
:106D500040F20144EEE740F20444EBE74FF44474A0
:106D6000E8E740F21134E5E710BD0000002C0140D7
:106D700000FCFFBF016821F001010160704701685C
:106D800041F001010160704702698A430261704766
:106D9000F0B50A888262204A204B4FF0804790422B
:106DA00003D0B84201D098420BD1046824F070049B
:106DB000046004684D882C43046004688D882C436B
:106DC00004608C68C462164C164D174E90420CD06D
:106DD000B8420AD0984208D0144B984205D0A0423D
:106DE00003D0A84201D0B04207D1036823F4407316
:106DF000036003688F893B430360904205D0A04243
:106E000003D0A84201D0B04201D1897B016341691E
:106E100041F001014161F0BD002C0140000400403F
:106E20000040014000440140004801400020004073
:106E3000C2680A43C260704702698A4302617047B0
:106E4000C26800690A40084202D00AB101207047B6
:106E50000020704770B50D460446134900206118A4
:106E600004D0B1F5744F04D1062000E00220FFF7F2
:106E700067FC21680A044FF6F07108D5400000EB6A
:106E80005500B0FBF5F0014000F0070206E000EB12
:106E90005500B0FBF5F0014000F00F02E06811432F
:106EA0000843E06070BD000000BCFFBF406AC0F353
:106EB00008007047C1F30801816270470A4910B5A4
:106EC000401805D0B0F5744F0CD140F20E3401E0FB
:106ED00040F211442046FFF7B3FD2046BDE81040C4
:106EE000FFF7A0BD10BD000000BCFFBF016841F06E
:106EF00001010160704700EB9110006801F01F0272
:106F000001219140084000D00120704710B5C1F325
:106F10008912835801F01F040121A1400B438350C3
:106F200010BD026AC1F30443012199400A43026281
:106F3000704730B5C1F38912825800EB915001F0CF
:106F40001F05012404FA05F300681A40C1F3044147
:106F500004FA01F3184202D00AB1012030BD00202A
:106F600030BD026822F00402026002680A43026037
:106F70007047026822F00802026002680A43026059
:106F800070476D61696E004273774472765F464D5B
:106F900031373558585F536574506F776572446F59
:106FA000776E00436865636B5F4D315F4361726468
:106FB0000053656E644465627567506B7400446588
:106FC000627567506B7450726F63004465627567D9
:106FD0005265637650726F630055706772616465C5
:106FE0005F577269746500434F4D5F5570677261FA
:106FF00064655F5772697465005570677261646596
:107000005265717565737448616E646C6572005386
:10701000656E64557067726164655061636B61672A
:1070200065004D61696E426F61726455706772618F
:10703000646500436F6D526563764D61696E426FA2
:107040006172644461746100466C6173685772696F
:107050007465576F726400466C6173685772697427
:1070600065004C6F616453797374656D496E666F2A
:107070000053797374656D52657365745265636FFF
:107080007264005072696E746644617461004253A8
:1070900050466C617368577269746500466C617321
:1070A000685465737400464D31373558585F436FE7
:1070B0006E66696700000000A56363C6847C7CF887
:1070C000997777EE8D7B7BF60DF2F2FFBD6B6BD679
:1070D000B16F6FDE54C5C5915030306003010102BD
:1070E000A96767CE7D2B2B5619FEFEE762D7D7B571
:1070F000E6ABAB4D9A7676EC45CACA8F9D82821F6D
:1071000040C9C989877D7DFA15FAFAEFEB5959B262
:10711000C947478E0BF0F0FBECADAD4167D4D4B35B
:10712000FDA2A25FEAAFAF45BF9C9C23F7A4A45386
:10713000967272E45BC0C09BC2B7B7751CFDFDE1DF
:10714000AE93933D6A26264C5A36366C413F3F7EBD
:1071500002F7F7F54FCCCC835C343468F4A5A55125
:1071600034E5E5D108F1F1F9937171E273D8D8AB48
:10717000533131623F15152A0C04040852C7C795D4
:10718000652323465EC3C39D28181830A196963701
:107190000F05050AB59A9A2F0907070E3612122411
:1071A0009B80801B3DE2E2DF26EBEBCD6927274E7B
:1071B000CDB2B27F9F7575EA1B0909129E83831DAC
:1071C000742C2C582E1A1A342D1B1B36B26E6EDC02
:1071D000EE5A5AB4FBA0A05BF65252A44D3B3B764C
:1071E00061D6D6B7CEB3B37D7B2929523EE3E3DD2A
:1071F000712F2F5E97848413F55353A668D1D1B9AC
:10720000000000002CEDEDC1602020401FFCFCE3DD
:10721000C8B1B179ED5B5BB6BE6A6AD446CBCB8DA3
:10722000D9BEBE674B393972DE4A4A94D44C4C9869
:10723000E85858B04ACFCF856BD0D0BB2AEFEFC506
:10724000E5AAAA4F16FBFBEDC5434386D74D4D9AE1
:107250005533336694858511CF45458A10F9F9E990
:1072600006020204817F7FFEF05050A0443C3C782F
:10727000BA9F9F25E3A8A84BF35151A2FEA3A35D9B
:10728000C04040808A8F8F05AD92923FBC9D9D216A
:107290004838387004F5F5F1DFBCBC63C1B6B67789
:1072A00075DADAAF63212142301010201AFFFFE5B2
:1072B0000EF3F3FD6DD2D2BF4CCDCD81140C0C1862
:1072C000351313262FECECC3E15F5FBEA297973511
:1072D000CC4444883917172E57C4C493F2A7A75536
:1072E000827E7EFC473D3D7AAC6464C8E75D5DBA52
:1072F0002B191932957373E6A06060C098818119CB
:10730000D14F4F9E7FDCDCA3662222447E2A2A5482
:10731000AB90903B8388880BCA46468C29EEEEC71B
:10732000D3B8B86B3C14142879DEDEA7E25E5EBCED
:107330001D0B0B1676DBDBAD3BE0E0DB5632326437
:107340004E3A3A741E0A0A14DB4949920A06060CA0
:107350006C242448E45C5CB85DC2C29F6ED3D3BD8C
:10736000EFACAC43A66262C4A8919139A495953163
:1073700037E4E4D38B7979F232E7E7D543C8C88B99
:107380005937376EB76D6DDA8C8D8D0164D5D5B1F7
:10739000D24E4E9CE0A9A949B46C6CD8FA5656ACB2
:1073A00007F4F4F325EAEACFAF6565CA8E7A7AF47A
:1073B000E9AEAE4718080810D5BABA6F887878F0E9
:1073C0006F25254A722E2E5C241C1C38F1A6A65768
:1073D000C7B4B47351C6C69723E8E8CB7CDDDDA102
:1073E0009C7474E8211F1F3EDD4B4B96DCBDBD61D4
:1073F000868B8B0D858A8A0F907070E0423E3E7CB2
:10740000C4B5B571AA6666CCD84848900503030692
:1074100001F6F6F7120E0E1CA36161C25F35356AE4
:10742000F95757AED0B9B9699186861758C1C19935
:10743000271D1D3AB99E9E2738E1E1D913F8F8EBD4
:10744000B398982B33111122BB6969D270D9D9A98D
:10745000898E8E07A7949433B69B9B2D221E1E3CCB
:107460009287871520E9E9C949CECE87FF5555AAED
:10747000782828507ADFDFA58F8C8C03F8A1A159DA
:1074800080898909170D0D1ADABFBF6531E6E6D785
:10749000C6424284B86868D0C3414182B0999929F4
:1074A000772D2D5A110F0F1ECBB0B07BFC5454A872
:1074B000D6BBBB6D3A16162C6363C6A57C7CF884DC
:1074C0007777EE997B7BF68DF2F2FF0D6B6BD6BD75
:1074D0006F6FDEB1C5C591543030605001010203B9
:1074E0006767CEA92B2B567DFEFEE719D7D7B5626D
:1074F000ABAB4DE67676EC9ACACA8F4582821F9D69
:10750000C9C989407D7DFA87FAFAEF155959B2EB5E
:1075100047478EC9F0F0FB0BADAD41ECD4D4B36757
:10752000A2A25FFDAFAF45EA9C9C23BFA4A453F782
:107530007272E496C0C09B5BB7B775C2FDFDE11CDB
:1075400093933DAE26264C6A36366C5A3F3F7E41B9
:10755000F7F7F502CCCC834F3434685CA5A551F421
:10756000E5E5D134F1F1F9087171E293D8D8AB7344
:107570003131625315152A3F0404080CC7C79552D0
:1075800023234665C3C39D5E18183028969637A1FD
:1075900005050A0F9A9A2FB507070E09121224360D
:1075A00080801B9BE2E2DF3DEBEBCD2627274E6977
:1075B000B2B27FCD7575EA9F0909121B83831D9EA8
:1075C0002C2C58741A1A342E1B1B362D6E6EDCB2FE
:1075D0005A5AB4EEA0A05BFB5252A4F63B3B764D48
:1075E000D6D6B761B3B37DCE2929527BE3E3DD3E26
:1075F0002F2F5E71848413975353A6F5D1D1B968A8
:1076000000000000EDEDC12C20204060FCFCE31FD9
:10761000B1B179C85B5BB6ED6A6AD4BECBCB8D469F
:10762000BEBE67D93939724B4A4A94DE4C4C98D465
:107630005858B0E8CFCF854AD0D0BB6BEFEFC52A02
:10764000AAAA4FE5FBFBED16434386C54D4D9AD7DD
:10765000333366558585119445458ACFF9F9E9108C
:10766000020204067F7FFE815050A0F03C3C78442B
:107670009F9F25BAA8A84BE35151A2F3A3A35DFE97
:10768000404080C08F8F058A92923FAD9D9D21BC66
:1076900038387048F5F5F104BCBC63DFB6B677C185
:1076A000DADAAF752121426310102030FFFFE51AAE
:1076B000F3F3FD0ED2D2BF6DCDCD814C0C0C18145E
:1076C00013132635ECECC32F5F5FBEE1979735A20D
:1076D000444488CC17172E39C4C49357A7A755F232
:1076E0007E7EFC823D3D7A476464C8AC5D5DBAE74E
:1076F0001919322B7373E6956060C0A081811998C7
:107700004F4F9ED1DCDCA37F222244662A2A547E7E
:1077100090903BAB88880B8346468CCAEEEEC72917
:10772000B8B86BD31414283CDEDEA7795E5EBCE2E9
:107730000B0B161DDBDBAD76E0E0DB3B3232645633
:107740003A3A744E0A0A141E494992DB06060C0A9C
:107750002424486C5C5CB8E4C2C29F5DD3D3BD6E88
:10776000ACAC43EF6262C4A6919139A8959531A45F
:10777000E4E4D3377979F28BE7E7D532C8C88B4395
:1077800037376E596D6DDAB78D8D018CD5D5B164F3
:107790004E4E9CD2A9A949E06C6CD8B45656ACFAAE
:1077A000F4F4F307EAEACF256565CAAF7A7AF48E76
:1077B000AEAE47E908081018BABA6FD57878F088E5
:1077C00025254A6F2E2E5C721C1C3824A6A657F164
:1077D000B4B473C7C6C69751E8E8CB23DDDDA17CFE
:1077E0007474E89C1F1F3E214B4B96DDBDBD61DCD0
:1077F0008B8B0D868A8A0F857070E0903E3E7C42AE
:10780000B5B571C46666CCAA484890D8030306058E
:10781000F6F6F7010E0E1C126161C2A335356A5FE0
:107820005757AEF9B9B969D086861791C1C1995831
:107830001D1D3A279E9E27B9E1E1D938F8F8EB13D0
:1078400098982BB3111122336969D2BBD9D9A97089
:107850008E8E0789949433A79B9B2DB61E1E3C22C7
:1078600087871592E9E9C920CECE87495555AAFFE9
:1078700028285078DFDFA57A8C8C038FA1A159F8D6
:10788000898909800D0D1A17BFBF65DAE6E6D73181
:10789000424284C66868D0B8414182C3999929B0F0
:1078A0002D2D5A770F0F1E11B0B07BCB5454A8FC6E
:1078B000BBBB6DD616162C3A63C6A5637CF8847CD8
:1078C00077EE99777BF68D7BF2FF0DF26BD6BD6B71
:1078D0006FDEB16FC59154C53060503001020301B5
:1078E00067CEA9672B567D2BFEE719FED7B562D769
:1078F000AB4DE6AB76EC9A76CA8F45CA821F9D8265
:10790000C98940C97DFA877DFAEF15FA59B2EB595A
:10791000478EC947F0FB0BF0AD41ECADD4B367D453
:10792000A25FFDA2AF45EAAF9C23BF9CA453F7A47E
:1079300072E49672C09B5BC0B775C2B7FDE11CFDD7
:10794000933DAE93264C6A26366C5A363F7E413FB5
:10795000F7F502F7CC834FCC34685C34A551F4A51D
:10796000E5D134E5F1F908F171E29371D8AB73D840
:1079700031625331152A3F1504080C04C79552C7CC
:1079800023466523C39D5EC3183028189637A196F9
:10799000050A0F059A2FB59A070E09071224361209
:1079A000801B9B80E2DF3DE2EBCD26EB274E692773
:1079B000B27FCDB275EA9F7509121B09831D9E83A4
:1079C0002C58742C1A342E1A1B362D1B6EDCB26EFA
:1079D0005AB4EE5AA05BFBA052A4F6523B764D3B44
:1079E000D6B761D6B37DCEB329527B29E3DD3EE322
:1079F0002F5E712F8413978453A6F553D1B968D1A4
:107A000000000000EDC12CED20406020FCE31FFCD5
:107A1000B179C8B15BB6ED5B6AD4BE6ACB8D46CB9B
:107A2000BE67D9BE39724B394A94DE4A4C98D44C61
:107A300058B0E858CF854ACFD0BB6BD0EFC52AEFFE
:107A4000AA4FE5AAFBED16FB4386C5434D9AD74DD9
:107A50003366553385119485458ACF45F9E910F988
:107A6000020406027FFE817F50A0F0503C78443C27
:107A70009F25BA9FA84BE3A851A2F351A35DFEA393
:107A80004080C0408F058A8F923FAD929D21BC9D62
:107A900038704838F5F104F5BC63DFBCB677C1B681
:107AA000DAAF75DA2142632110203010FFE51AFFAA
:107AB000F3FD0EF3D2BF6DD2CD814CCD0C18140C5A
:107AC00013263513ECC32FEC5FBEE15F9735A29709
:107AD0004488CC44172E3917C49357C4A755F2A72E
