:020000040800F2
:1020000008110020652100086D2100086F210008DB
:1020100071210008732100087521000800000000EC
:102020000000000000000000000000007721000810
:1020300079210008000000007B210008BD5B00083A
:102040007F2100087F2100087F2100087F210008F0
:102050007F2100087F2100087F2100087F210008E0
:102060007F2100087F2100087F2100087F210008D0
:102070007F210008315E00087F210008955E00087E
:102080007F2100087F210008000000007F21000858
:102090007F2100087F2100087F2100087F210008A0
:1020A0007F2100087F2100087F2100087D6400084F
:1020B000B9640008000000007F2100080000000053
:1020C0007F210008000000007F2100087F21000818
:1020D0007F21000800000000000000000000000058
:1020E00000000000000000007F2100080000000048
:1020F00000000000000000000000000000000000E0
:102100007F21000800000000000000007F2100087F
:1021100000000000000000000000000000000000BF
:1021200000000000000000000000000000000000AF
:10213000000000000000000000000000000000009F
:102140000000000000000000000000007F210008E7
:10215000DFF80CD000F05EFA00480047D5740008A4
:10216000081100200648804706480047FEE7FEE7C2
:10217000FEE7FEE7FEE7FEE7FEE7FEE7FEE7FEE737
:10218000C15B00085121000840EA01039B0703D00E
:1021900009E008C9121F08C0042AFAD203E011F8A6
:1021A000013B00F8013B521EF9D27047D2B201E068
:1021B00000F8012B491EFBD270470022F6E710B54C
:1021C00013460A4604461946FFF7F0FF204610BDA5
:1021D00030B505462A460B4612F8010B13F8014BA1
:1021E00008B1A042F8D01CB1002802D06D1CF1E764
:1021F000284630BD421C10F8011B0029FBD1801A73
:10220000704730B504460020034600E05B1C934253
:1022100003D2E05CCD5C401BF8D030BD034611F822
:10222000012B00F8012B002AF9D118467047000055
:102230000FB400B58DB010A909900B9000914FF02C
:10224000FF300A9000200C90054806900548079042
:102250006A4609A80F9900F0AFF90DB05DF814FBBC
:10226000D5250008F32500082DE9FF5F1D464FF036
:10227000FF3BD5E9014691465F464FF00008A9694A
:102280007F1C01988847296A824688470028F6D132
:10229000BAF1FF3F0CD024F4C064002E19DD6006B3
:1022A00014D5BAF12B0F09D0BAF12D0F0ED103E0DE
:1022B000584604B0BDE8F09F44F48064A9697F1CCF
:1022C00001988847761E8246002E02DDBAF1300F53
:1022D00003D0B9F1000F26D032E0A969761E44F48C
:1022E00000747F1C019888478246002E05DDBAF1F4
:1022F000780F06D0BAF1580F03D0B9F1000F10D003
:102300001EE0B9F1000F02D0B9F1100F18D1A96980
:10231000761E24F400747F1C0198884782461020A2
:1023200002E0082000E00A20814609E008FB0908D5
:10233000A969761E44F400747F1C01988847824680
:10234000002E05DD4946504600F022F90028EDDA5E
:10235000E96901988847A00502D46FF00100A8E759
:10236000E00725D1600613D5600502D5C8F100004D
:1023700000E0404629680A1D2A600968220501D547
:10238000087015E0220701D5088011E008600FE011
:102390002868011D29600068210502D580F80080A9
:1023A00006E0210702D5A0F8008001E0C0F8008017
:1023B00038467EE72DE9FF5FD2E901A74FF000081C
:1023C000916999461446DDF838B046460198884729
:1023D000054659EA0B0005D009E0A169761C019871
:1023E00088470546216A284688470028F5D1681C99
:1023F00003D05FEACA7005D015E04FF0FF3004B09B
:10240000BDE8F09F2068011D2160D0F800800AE03F
:102410005FEACA7001D108F8015BA169761C7F1ED2
:10242000019888470546002F1ADD681C18D0B9F1BD
:10243000000F0DD0E81705EBD060421120F01F000F
:1024400059F822102A1A012090400142E0D107E0F9
:10245000BBF1000FDCD1216A284688470028D7D07D
:10246000E16901988847BBF1000F07D1002E05DD17
:102470005FEACA7002D1002188F80010A068B84253
:1024800003DDBBF1000F03D017B16FF00100B6E719
:102490003046B4E72DE9F05F0546002092469B46A2
:1024A00088460646814640241BE02846414647466A
:1024B000224600F0D0F853465A46C01A914110D334
:1024C00011461846224600F0B7F82D1A67EB0108AE
:1024D0004F4622460120002100F0AEF817EB00091C
:1024E0004E41201EA4F10104DFDC484631462A4655
:1024F0004346BDE8F09F0000014900F003B800002A
:10250000D80C002010B500683C22B0FBF2F302FBAF
:102510001303B0FBF2F00B60B0FBF2F302FB13030A
:10252000B0FBF2F018224B60B0FBF2F302FB130396
:10253000B0FBF2F0021D8B600723B2FBF3F403FB48
:102540001422800040F2B55300F66C308A61B0FB73
:10255000F3F2B0FBF3F403FB1400443280084A6149
:10256000C8613B2802D3920700D0401C0022074CD0
:1025700013460A61E25C824203D8801A5B1C0B613D
:10258000F8E7401CC860084610BD00001984000828
:102590003A2800D2303820F02002412A01D3A2F19B
:1025A0003700884201D34FF0FF3070470268114472
:1025B0001378016018467047D1600449516104499D
:1025C000116200211161114600F05AB8AD250008D2
:1025D00077260008426842B1016811F8013B23B137
:1025E000521EC0E90012184670470121C160881EC2
:1025F000704742685AB1C368016843B983688B4227
:1026000005D0491E521CC0E90012002070474FF04F
:10261000FF307047064C074D06E0E06840F00103CC
:1026200094E8070098471034AC42F6D3FFF794FDC6
:10263000D4850008F4850008202A04DB203A00FA3B
:1026400002F1002070479140C2F1200320FA03F309
:10265000194390407047202A04DB203A21FA02F007
:102660000021704721FA02F3D040C2F120029140CC
:10267000084319467047C0B24FF4F05100F096B9C4
:102680002DE9F34F8BB04FF0000801F10C000C4620
:102690004FF0010B46460DF1080A019062690121D5
:1026A0000198904705002DD0252D2CD0216A884710
:1026B000C0B16269012101989047216A88470028CA
:1026C000F7D1411E62690198904700E0761CA1692C
:1026D0000B988847216A88470028F7D1E1690B9851
:1026E0008847DBE7A1690B9888470746A84201D1D4
:1026F000761CD3E7E1690B9888477F1C02D1B8F1BB
:10270000000F6FD046E1002762693D4639460198C7
:1027100090472A2804D16269012101989047012538
:10272000DFF884926269012101989047A0F130019D
:102730000A290AD24F45E5DC07EB870100EB410788
:10274000303FDFD445F01005ECE7E90601D46FF027
:1027500000476C280AD04C2814D0682815D06A2865
:102760000DD074281CD07A281AD01DE0626901218E
:10277000019890476C2802D045F0040514E045F01C
:1027800002050DE045F020050AE06269012101988B
:102790009047682802D045F0080505E045F400653B
:1027A0006269012101989047C4E9015765283DD02D
:1027B00019DC58287AD00CDC452837D004DC2528D1
:1027C00026D0412831D131E046282FD047282CD1BE
:1027D0002CE05B2877D0612828D063287CD064283F
:1027E00023D15AE0D0E06F2848D008DC66281DD0FD
:1027F00067281BD0692821D06E2816D127E07028C1
:1028000045D0732868D0752847D078280DD14DE081
:10281000A1690B988847054625283FF469AFE1690F
:102820000B9888476D1C3FF46AAFB3E023466A46B5
:102830006FF001000B99AFF300809EE045F040007F
:102840006060A80723464FF0000236D43EE0E80758
:102850007FF447AF2068011D21600068290501D57C
:1028600006701BE7290701D5068017E7A90703D5DE
:10287000F117C0E9006111E706600FE745F040007D
:102880006060A80723464FF0080216D41EE040F609
:102890000E0125EA0100606016E045F0400060602E
:1028A000A80723464FF00A0207D40FE045F0400086
:1028B0006060A80708D5234610226FF001000B992D
:1028C000AFF3008059E007E0234610226FF00100CB
:1028D0000B99FFF7C9FC50E04FF000094F464B46FB
:1028E000632802D05B2806D040E0E80601D401202E
:1028F000A06001273AE062690121019890475E28B3
:1029000005D14FF001096269494601989047216954
:1029100039B900210A46534643F82120491C0829A9
:10292000FADBB0B3216969B9C11700EBD162531169
:102930000AEB830122F01F02821A01200B689040EB
:1029400003430B6062690121019890475D28E8D13B
:10295000B9F1000F09D00020514651F82020D24390
:1029600041F82020401C0828F7DB02AB22460097E4
:102970006FF001000B99FFF71DFD00280CDA401CD9
:1029800008D1BBF1000F05D04FF0FF300DB0BDE80E
:10299000F08FFFE74046F9E7E90701D108F10108A8
:1029A00006444FF0000B79E6CCCCCC0C7F2801D943
:1029B000002208E0064A02EB5002C007127800D15C
:1029C000120902F00F0201209040084070470000F9
:1029D0002584000870B50446AA2020705520607038
:1029E00010480D4610F8291F61710178491C0170CB
:1029F000681D608001202071281DA27181B2E371E1
:102A0000201D01F02BFC014660190B3501720D21D0
:102A100041720A218172AAB22146BDE870400120AC
:102A200003F0E4BF300700200021A0F13002092AA2
:102A300001D8D1B20BE0A0F14102052A01D8373804
:102A400004E0A0F16102052A01D85738C1B2084656
:102A50007047000070B586B016460C460546142235
:102A600010A16846FFF790FB002318460CB1002E1A
:102A700002DC002006B070BD69460CE0E25C01EBB0
:102A8000121212782A54E25C401C02F00F028A5C97
:102A90002A54401C5B1CB342F0DB00212954284619
:102AA000E8E70000303132333435363738394142C7
:102AB00043444546000000002DE9FF4F8DB000243F
:102AC0001F4692468B464FF0FF392646DDF8688058
:102AD00001F0D0FB41463846FFF76FFBA6E03220FD
:102AE00000F047FF01F0C6FB05460FE001F0C2FB16
:102AF00005469DF8300018B1A04501DD3855641C2D
:102B00000CA94E4800F064FF0028EFD001F0B2FBA2
:102B100005F10A01884203D801F0ACFBA842EFD2CC
:102B200059463846FFF754FB00287DD044A10D9844
:102B3000FFF74EFB454C10B3182101A8FFF73DFBF2
:102B400001AA43A13846FFF773FB01A8FFF752FB28
:102B5000142805D3142201A9A01CFFF715FB03E0DC
:102B600001A9A01CFFF75AFB01F032FB01463748D0
:102B70007823801C0090394A39A003F0C1FF41A19D
:102B80000D98FFF725FB20B3142107A8FFF715FBCD
:102B900007AA3FA13846FFF74BFB07A8FFF72AFB20
:102BA0002A4D16350C2807D3079844F8160F0898B5
:102BB00060600998A06003E007A92846FFF72EFB94
:102BC00001F006FB01468723244A34A0009503F058
:102BD00097FF3BA10D98FFF7FBFAB0B1142101A8B4
:102BE000FFF7EBFA01AA39A13846FFF721FB01A94B
:102BF000394802F08FFF01F0EBFA014601A800907E
:102C00009123164A35A003F07BFF3CA10D98FFF7F6
:102C1000DFFA28B1304A3CA1121F3846FFF708FB03
:102C20004FF0000905E0FFE73236B6B25645FFF433
:102C300056AF11B04846BDE8F08F0000A80900204B
:102C400041542B564552533F000000000807002016
:102C50002B564552533A202573000000A8820008E5
:102C60005B5831304B422025735D2025733A28256F
:102C7000642920626C7565207665723A25732E0A88
:102C80000000000041542B4E414D453F0000000024
:102C90002B4E414D453A2025730000005B583130E2
:102CA0004B422025735D2025733A28256429206234
:102CB0006C7565206E616D653A25732E0A00000003
:102CC00041542B475749443F000000002B475749C8
:102CD000443A202573000000240000205B58313066
:102CE0004B422025735D2025733A282564292067EF
:102CF000776D61633A25732E0A00000041542B441E
:102D00004556543F000000002B444556543A2025B8
:102D1000640000002DE9F04140F2115004F0BAFEC9
:102D200040F2125004F0B6FE4FF4807401224FF0CE
:102D3000904523461146284604F071FB23460322A2
:102D40000021284604F08FFB184E0122234611462D
:102D5000304604F064FB234603220021304604F091
:102D600082FBE7013B4601220021304604F057FB7D
:102D70003B4603220021304604F075FB6700012228
:102D80003B461146304604F04AFB3B4603220021F5
:102D9000304604F068FB2146284604F006FA214636
:102DA0003046BDE8F04104F000BA000000040048DD
:102DB0002DE9F043DFF878900F4605464FF4007890
:102DC000A1B0164601244146484604F0ECF900F053
:102DD000D2FE022000F0CDFD01F0FAF90146A92350
:102DE000144A15A0009503F08BFE2846FFF702FA5F
:102DF00082B22946002003F0F9FD57B14EB1802080
:102E0000009001AB324639462846FFF755FE40B1E7
:102E100008E04146484604F0C8F9002021B0BDE86A
:102E2000F08300244146484604F0BFF92046F5E708
:102E300000040048B58200085B5831304B42202521
:102E4000735D2025733A2825642920B7A2CBCDC312
:102E5000FCC1EE5B25735D2E0A0000002DE9F041F8
:102E60000546002440F6B8364FF47A770FE0324634
:102E700009A10AA0FFF79CFF00280BD0012D04DD5B
:102E800000F079FE384600F074FD641CE4B2AC42F8
:102E9000EDDB0020BDE8F0814F4B000041540D0AEE
:102EA0000000000001214FF4E132002003F05CBA81
:102EB00010B5FFF72FFFBDE81040FFF7F3BF00008C
:102EC00010B501F017FD03F0E1FD00F054FE012202
:102ED0004FF47A742146104602F0F0FF02F086FFAC
:102EE00002F04EFD204600F044FD03F079FD02F0B3
:102EF00075FB204600F03DFD01F048FD02F0AAFE02
:102F000008A003F0FDFD03F03BF8FFF7D1FF00F050
:102F1000A3FD08A003F0F4FDBDE8104009A003F0F4
:102F2000EFBD00005573617274496E6974204F4B98
:102F3000210D0A000D0A20427370496E6974206FDA
:102F40006B0A00000A3D3D3D3D3D3D3D3D3D3D3D63
:102F50003D3D3D3D3D3D3D3D3D3D3D3D3D3D3D3DA1
:102F60003D3D3D3D3D3D3D3D3D3D3D3D3D3D3D3D91
:102F70003D3D3D3D3D3D3D3D3D3D3D3D3D3D3D3D81
:102F80000A0A0A0070B5002400F0E8FA1C49012082
:102F900040F6B83548701B494FF4FA6648702A4627
:102FA00019A11AA0FFF704FF00281BD001F010F9A7
:102FB0000146E423174A18A003F0A2FD00F0DBFD50
:102FC000304600F0D6FC641CE4B2022CE7D301F0DA
:102FD000FFF80146E8230F4A1AA003F091FD4FF0D5
:102FE000FF3070BD01F0F4F80146E023094A1FA04C
:102FF00003F086FD26490878401C0870002070BD4B
:1030000008070020380000204F4B000041540D0AF3
:1030100000000000D08200085B5831304B42202570
:10302000735D2025733A2825642920626C7565201C
:103030007265736574206661696C2C72657472794F
:103040002E0A00005B5831304B422025735D20254D
:10305000733A2825642920626C7565207265736552
:1030600074206661696C2E0A000000005B583130E4
:103070004B422025735D2025733A28256429206260
:103080006C75652074657374206F6B2E0A000000E8
:10309000140000202DE9F041002440F6B8354FF42B
:1030A0009A764FF4FA672A4617A118A0FFF780FE18
:1030B000D8B101F08DF801463346174A17A003F046
:1030C0001FFD384600F055FC641CE4B2022CEAD324
:1030D00001F07EF8014640F237130F4A19A003F0C1
:1030E0000FFD4FF0FF30BDE8F08101F071F80146AF
:1030F0004FF49873084A1CA003F002FD2349087896
:10310000401C08700020EEE74F4B000041542B4E4E
:10311000414D453F0D0A00000D8300085B583130DA
:103120004B422025735D2025733A2825642920BB56
:10313000F1C8A1C3FBD7D6CAA7B0DC2C72657472E4
:10314000792E0A005B5831304B422025735D2025D3
:10315000733A2825642920BBF1C8A1C3FBD7D6CA7E
:10316000A7B0DC2E0A0000005B5831304B4220250E
:10317000735D2025733A2825642920BBF1C8A1C3BB
:10318000FBD7D6206F6B2E0A000000001400002031
:103190002DE9F041002440F6B8354FF487764FF41E
:1031A000FA672A4617A118A0FFF702FED8B101F06E
:1031B0000FF801463346174A17A003F0A1FC384622
:1031C00000F0D7FB641CE4B2022CEAD301F000F853
:1031D000014640F211130F4A19A003F091FC4FF081
:1031E000FF30BDE8F08100F0F3FF01464FF4857336
:1031F000084A1BA003F084FC21490878401C087091
:103200000020EEE74F4B000041542B4543484F3D13
:10321000310D0A00E68200085B5831304B42202510
:10322000735D2025733A2825642920C0B6D1C0BB20
:10323000D8CFD4CAA7B0DC2C72657472792E0A007C
:103240005B5831304B422025735D2025733A282589
:10325000642920BBD8CFD4CAA7B0DC2E0A00000056
:103260005B5831304B422025735D2025733A282569
:10327000642920BBD8CFD4206F6B2E0A0000000039
:10328000140000202DE9F041002440F6B8354FF439
:10329000A4764FF4FA672A4617A118A0FFF788FD15
:1032A000D8B100F095FF01463346174A17A003F046
:1032B00027FC384600F05DFB641CE4B2022CEAD324
:1032C00000F086FF014640F24B130F4A19A003F0AD
:1032D00017FC4FF0FF30BDE8F08100F079FF0146A8
:1032E0004FF4A273084A1CA003F00AFC2349087893
:1032F000401C08700020EEE74F4B000041542B505B
:103300004149523D310D0A00208300085B5831309D
:103310004B422025735D2025733A2825642920C05F
:10332000B6D1C0C6A5C5E4CAA7B0DC2C726574725C
:10333000792E0A005B5831304B422025735D2025E1
:10334000733A2825642920C0B6D1C0C6A5C5E4CAF1
:10335000A7B0DC2E0A0000005B5831304B4220251C
:10336000735D2025733A2825642920C0B6D1C0C6D4
:10337000A5C5E4B3C9B9A62E0A00000014000020B8
:103380002DE9F041002440F6B83540F221164FF403
:10339000FA672A4617A118A0FFF70AFDD8B100F076
:1033A00017FF01463346174A17A003F0A9FB38461A
:1033B00000F0DFFA641CE4B2022CEAD300F008FF4C
:1033C00001464FF492730F4A19A003F099FB4FF096
:1033D000FF30BDE8F08100F0FBFE014640F21D1316
:1033E000084A1CA003F08CFB23490878401C087095
:1033F0000020EEE74F4B000041542B564552533FFF
:103400000D0A0000FA8200085B5831304B4220253B
:10341000735D2025733A2825642920BBF1C8A1B02B
:10342000E6B1BECAA7B0DC2C72657472792E0A00B0
:103430005B5831304B422025735D2025733A282597
:10344000642920BBF1C8A1B0E6B1BECAA7B0DC2E8A
:103450000A0000005B5831304B422025735D202567
:10346000733A2825642920BBF1C8A1B0E6B1BE207B
:103470006F6B2E0A000000001400002070B50025BC
:103480002C466E1E052D36D2DFE805F0030F151B06
:103490002200FFF777FD08B9012517E02046641CDC
:1034A000E4B20A2830D9304670BDFFF771FE00281B
:1034B000F4D102250AE0FFF763FF0028EED10325CF
:1034C00004E0FFF7E7FD0028E8D1042500241BE015
:1034D000FFF7D8FE0028E1D10D4948700D4948702A
:1034E00000F076FE014640F239230B4A0BA003F0B0
:1034F00007FB002070BD00F06BFE014640F2452343
:10350000054A0FA003F0FCFAC82000F032FAB9E730
:103510000807002038000020778300085B5831300E
:103520004B422025735D2025733A2825642920C04D
:10353000B6D1C0B3F5CABCBBAFB3C9B9A62E0A0099
:103540005B5831304B422025735D2025733A282586
:10355000642920B4EDCEF32E0A00000070B54FF4BC
:1035600080744FF090452146284603F01CFE00F081
:1035700002FB4FF4FA6000F0FCF92146284603F004
:1035800014FE00F0F8FABDE870404FF47A7000F0D5
:10359000F0B900007CB50A390478421C8DB2402D88
:1035A0000BD900F015FECDE9005401469523104AD1
:1035B00010A003F0A5FA01207CBD1948C16A0129B9
:1035C0000ED0016BA1420BD100F002FECDE90054F8
:1035D00001469C23064A134803F092FA00207CBD62
:1035E000046329461046BDE87C4003F045B800005E
:1035F000098200085B5831304B422025735D20253D
:10360000733A28256429206C656E205B25645D2C47
:10361000205B25645D2C6572726F72210A000000C8
:10362000300700206884000870B5A0B00E4605463B
:1036300080216846FEF7C1FD6C468DF808501022C7
:1036400031460DF10900FEF79FFD02231A461121B4
:103650002046FFF7BFF920B0002070BD30B5A1B003
:103660000D46044680216846FEF7A7FD8DF8084008
:103670002968CDF809106846012302220521FFF7C9
:10368000A9F921B0002030BDFEB5214D002495F8E8
:10369000680001281BD102AA694601A802F062FD58
:1036A000002814D16B461B4A022101F08FFC20B97F
:1036B000012469462046FFF7D1FF02F06DFD164F49
:1036C00000262CB100F0D6FD386085F86860FEBD9C
:1036D00002AA694601A802F045FD0028F7D16B4611
:1036E0000C4A0C2101F072FC70B10CA003F008FA36
:1036F00069460220FFF7B2FF00F0BCFD386085F894
:10370000686002F049FDFEBD69460120F2E7000055
:10371000300700200800002004000020B7C7C3DCE9
:10372000D4BFBFA80A00000070B50D46044601F0E2
:1037300053FF20EA05012046BDE8704003F0DBB9E5
:1037400010B580210A2002F0CFF80A2001F044FFD2
:10375000002800D0012010BD2DE9FC476B4C00F083
:1037600089FD07464FF008080025694EC0E000F0CB
:1037700002FADFF8A091B4E000F0FDF900F07AFD64
:1037800007463078092837D2DFE800F0050D183DEC
:103790004D5B6A7F91009DF80400AA28EBD1207050
:1037A000012070805AE09DF80400552824D17088CB
:1037B00055212154401C708002204FE0708802285F
:1037C00002D0032804D01AE09DF80410B18016E05E
:1037D000B1889DF8042041EA0221B1807570052965
:1037E0000BD200F0F5FC0146B088009040F2973310
:1037F000494A4AA003F084F972E0032131709DF830
:10380000041021543EE09DF80410012968D170781D
:10381000401C707070882154B188491EB180401CD2
:10382000708004201AE070789DF8041008447070CD
:1038300070882154B188491EB180401C70800520D9
:103840000CE070789DF80410084470707088215462
:10385000B188491EB180401C70800620307040E065
:1038600070789DF804100844707070882154B188F5
:10387000491E0904090CB18002D00721317001E012
:1038800086F80080401C70802BE070789DF8041052
:103890000844707070882154401C7080B088401EAD
:1038A00080B2B08001281CD186F8008019E07088B1
:1038B0009DF804102154401C81B271809DF80400D1
:1038C0007278904203D1204601F008FB08E000F036
:1038D0007FFC01464FF47B730F4A1AA003F010F9E6
:1038E000357001A9484600F073F800283FF444AF52
:1038F00000F0C0FC07F10A01884204D800F0BAFCCD
:10390000B842BFF434AFBDE8FC87000007010020D7
:103910000E000020B4090020868200085B58313078
:103920004B422025735D2025733A28256429206C9D
:10393000656E6774683D25642C6572726F722E0A1D
:10394000000000005B5831304B422025735D20257C
:10395000733A2825642920434220636865636B73AA
:10396000756D206572722E0A00000000642000F060
:103970000DB870B5054600244FF47A7603E0304662
:1039800000F004F8641CAC42F9D370BD70B54FF080
:10399000E02500216C69094AAB6912785043AA6995
:1039A0009A42FCD002D2A3EB020302E0A4EB02068F
:1039B0003344194413468142F1D370BD8C0000207A
:1039C0000028FDD00021C180018141810846704757
:1039D000428903899A4213D0028903681344521C16
:1039E00002811A780A7081880289914201D80021E7
:1039F0000181C18811B1C188491EC1800020704772
:103A00004FF0FF3070470023436083600160828085
:103A100018467047428903899A42428901D28388B5
:103A20001A440389D21A8388521C934210D94289BE
:103A300003681344521C42811970C188491CC1801B
:103A400081884289914201D800214181002070473C
:103A50004FF0FF30704700002DE9F0410024144D75
:103A6000012640F20E2700F086F800F06FF880B1D2
:103A700000F081F8641CE4B2AE7000F0A9FB0146CE
:103A80003B460C4A0CA003F03BF8322CEBD3BDE8CC
:103A9000F08100F070F80020A87000F099FBBDE8FC
:103AA000F041014640F20523024A0EA003F028B877
:103AB00038000020D98300085B5831304B42202564
:103AC000735D2025733A2825642920464D3137350A
:103AD00058585F496E6974206572726F722E0D0AB4
:103AE000000000005B5831304B422025735D2025DB
:103AF000733A2825642920464D31373558585F4997
:103B00006E6974204F4B2E0D0A00000010B50E4C4C
:103B10004021204603F047FB0A20FFF72AFF00F070
:103B20002AF84021204603F040FB0A20FFF721FF3E
:103B300000F021F8012001F04FFD202801D00120E4
:103B400010BD002010BD00000014004810B500F0AA
:103B500012F801F047FFFFF7D9FF10B14FF0FF3027
:103B600010BD00F008F8002001F005FC032001F072
:103B7000C7FE002010BD03F0DBBA10B5002303E040
:103B800010F8014BCC545B1C9342F9D3002010BDBC
:103B90000A4601460148FFF7F0BF000000F00108A7
:103BA0002DE9F05F154689468346FFF7E4FF03F0F1
:103BB0005DFAABF10060C0F30906C6F580644FEA18
:103BC0009028A54200D82C46FFF7D5FF4FF00060A3
:103BD00000EB882082464FF480622449FFF7CDFF36
:103BE00000270EE02148F119405CFF2808D000F0C2
:103BF000EFFA01467D231E4A1EA002F081FF02E07B
:103C00007F1CA742EED3A74214D2504603F0F0F92E
:103C1000342003F0DFF90020144A04E019F8001002
:103C20008319401CD154A042F8D350464FF48072FF
:103C30000E4906E0A0074FEA940200D0521C494604
:103C4000584600F059F8A5420BD0281BA144A344C4
:103C5000002685B24FF4806408F10108A542B3D86C
:103C6000B1E703F0BDF90020BDE8F09F0703002095
:103C7000A28300085B5831304B422025735D20251C
:103C8000733A2825642920D0E8D2AAB2C1B3FD2E08
:103C90000A0000002DE9FC410024124D0E460746A3
:103CA00000940194324639462846FFF779FF0822EE
:103CB00069462846FFF761FF324639466846FEF7F7
:103CC000A0FA18B1641C052CECD301E0052C06D336
:103CD00005A002F015FF4FF0FF30BDE8FC81002089
:103CE000FBE7000000F00108D0B4666C617368B4B3
:103CF000EDCEF321200D0A002DE9F84390468946C8
:103D0000064603F0B3F900254FF47A771AE0002451
:103D1000342003F05FF959F82510304603F0B6F966
:103D2000B8B10120FFF725FE2046641CB842F8D93F
:103D300000F04EFA01464123074A08A0009602F01F
:103D4000DFFE6D1C4545E2D303F04AF90020BDE8D3
:103D5000F883361DF5E70000938300085B58313087
:103D60004B422025735D2025733A2825642920D0F5
:103D7000B4666C617368B3ACCAB12C205B30782533
:103D8000785D2C20B4EDCEF3212121200A00000023
:103D900010B5022004F086F9012004F003F90C4C60
:103DA000012802D104F008F96080094861880830D0
:103DB0004088401A202806DD05480B21801E01702E
:103DC00004A002F09DFEBDE81040022004F088B877
:103DD000A20000205B4B65793A2025645D0A000053
:103DE00070B5202004F05EF9012004F0DBF8244DCA
:103DF000012802D104F0E6F86880214E698808366F
:103E0000A6F11A047088401A202804DD00212170D0
:103E10001CA002F075FE202004F062F8402004F09F
:103E200041F9012004F0BEF8012802D104F0CAF8DB
:103E3000A880B088A988401A202804DD0A212170B2
:103E400013A002F05DFE402004F04AF8802004F048
:103E500029F9012004F0A6F8012802D104F0B2F8F3
:103E6000E880F088E988401A202804DD09212170C3
:103E700004A002F045FEBDE87040802004F030B898
:103E8000B20000205B4B65793A2025645D0A000092
:103E90005BB7B5BBD84B65793A2025645D0A000055
:103EA0002DE9F0414FF48067384604F0FBF801201B
:103EB00004F078F8194C012802D104F089F8A080A8
:103EC000164EA1880836A6F12A05B088401A202887
:103ED00004DD0821297012A002F012FE384603F01A
:103EE000FFFF4FF40067384604F0DCF8012004F0CF
:103EF00059F8012802D104F06BF8E080F088E188DD
:103F0000401A202804DD0721297005A002F0F8FDE1
:103F10003846BDE8F04103F0E3BF0000C2000020D6
:103F20005B4B65793A2025645D0A00002DE9F0417C
:103F30004FF40057384604F0B5F8012004F032F889
:103F4000264C012802D104F049F86080234E618894
:103F50000836A6F13A057088401A202804DD0221AF
:103F600029701FA002F0CCFD384603F0B9FF4FF4D2
:103F70008047384604F096F8012004F013F8012831
:103F800002D104F02BF8A080B088A188401A202824
:103F900004DD0121297012A002F0B2FD384603F0C1
:103FA0009FFF4FF48057384604F07CF8012003F05F
:103FB000F9FF012802D104F011F82080308821880F
:103FC000401A202804DD0321297005A002F098FD85
:103FD0003846BDE8F04103F083BF0000D200002066
:103FE0005B4B65793A2025645D0A00002DE9F041BC
:103FF0004FF40017384604F055F8012003F0D2FFC3
:10400000264C012802D103F0EFFF6080234E618827
:104010000836A6F14A057088401A202804DD0621DA
:1040200029701FA002F06CFD384603F059FF4FF4D1
:104030008007384604F036F8012003F0B3FF01286A
:1040400002D103F0D1FFA080B088A188401A2028B7
:1040500004DD0521297012A002F052FD384603F05C
:104060003FFF4FF40007384604F01CF8012003F02E
:1040700099FF012802D103F0B7FFE080F088E188C2
:10408000401A202804DD0421297005A002F038FD23
:104090003846BDE8F04103F023BF0000E2000020F5
:1040A0005B4B65793A2025645D0A000010B5014636
:1040B0002A48C6B04078002813D1C87901F1080415
:1040C000012810D0022821D003280AD0042835D096
:1040D00000F07EF8014640F29B13214A21A002F035
:1040E0000FFD46B010BD00F073F801464FF4B273F7
:1040F0001B4A23A0009402F003FD204601F062FB5E
:1041000010B10122012124E00022FBE700F060F859
:10411000014640F26F13124A23A0009402F0F0FC13
:104120000522214643A8FEF795FC43A801F076FB43
:1041300010B1012202210CE00022FBE7488803288D
:1041400005D34FF486716846FEF737F8C9E70122B8
:104150000421032001F096FAC3E700003800002094
:104160002E8200085B5831304B422025735D20259C
:10417000733A2825642920B4EDCEF32E0A000000FE
:104180005B5831304B422025735D2025733A28253A
:10419000642920CAD5B5BDC0B6D1C0C3FBD7D65B94
:1041A00025735D2E0A0000005B5831304B422025FC
:1041B000735D2025733A2825642920C9E8D6C3CD2C
:1041C000F8B9D8B5D8D6B75B25735D2E0A000000C4
:1041D0001FB50D4803F094FC0B48443890F8461086
:1041E00090F84A4090F8493090F848208DE81E0039
:1041F00090F8453090F8442004A10B4802F090FC60
:1042000004B0094810BD000074070020253278254D
:104210003032782530327820253032783A253032E5
:10422000783A253032780000D80A002010B5FFF720
:10423000A2FC094CFF202070FFF7AAFDFFF7D0FD7C
:10424000FFF72EFEFFF772FEFFF7D0FE2078BDE8E5
:10425000104000F019BB0000A0000020034610B57C
:104260000020024603E09C5C521C2044C0B28A42FB
:10427000F9D310BD01488068704700002C00002071
:10428000064B4FF400411A78501C187004481AB1BC
:1042900000221A7002F087BF02F087BF940000204E
:1042A000000800480A21B0FBF1F201FB1202B0FB4A
:1042B000F1F002EB0010C0B2704700002DE9FE4F94
:1042C0004FF0AB094FF001084FF0040A4FF0060B16
:1042D0006E4D00266E4CCFE0607808287ED2DFE875
:1042E00000F0041038526592A2BE9DF80800AB2879
:1042F000F1D184F8018085F800904846A4F8048044
:1043000019E09DF80800CD280CD0AB2815D06670B8
:10431000FFF75EFF014640F2DD235E4A5EA002F039
:10432000EFFBA9E002206070CD206870A088401CDF
:10433000A080A078CD30A0709EE085F80090A4F811
:10434000048084F80290FFF743FF01464FF4367370
:10435000E3E7A0889DF808102954401CA080E6805F
:1043600041B103206070A1789DF808000144A1705C
:10437000E07081E0524F84F801A087F86980FFF770
:1043800079FFF866EFE7A0889DF808102954401CD3
:10439000A080A0780844A070E088401C80B2E08033
:1043A000062869D1E68084F801A065E0A0889DF820
:1043B00008102954401C80B2A080A2781144A1703A
:1043C000E188491C89B2E180022955D1284430F89E
:1043D000020CE0802081FF280ED900E04BE06670DF
:1043E000FFF7F6FE0146E088009040F20633294AC6
:1043F00034A002F085FB3FE010B1052060703BE087
:1044000084F801B038E0A0889DF808102954401CB9
:10441000A080A0780844A070E088401E0004000C32
:10442000E08029D1ECE7A0889DF808102954401CB1
:10443000A080A078814203D107206070E6801BE055
:10444000FFF7C6FE01469DF80820A078CDE90002DE
:104450004FF449730F4A244802F052FB0BE0E08806
:10446000401C80B2E080022806D1E07818B921898A
:10447000064801F069FD667002A91C48FFF7A8FA1A
:1044800000283FF429AFBDE8FE8F0000070200209E
:1044900014000020858300085B5831304B422025F2
:1044A000735D2025733A282564292063616E206E90
:1044B0006F742066696E642063642E0A0000000039
:1044C000300700205B5831304B422025735D20259A
:1044D000733A28256429206C656E3D25642C65722D
:1044E000726F722E0A00000048850008A80900209B
:1044F000002909D1054A00284FF00201104601D0D9
:1045000002F053BE02F04FBE7047000000040048A6
:104510002DE9F041144E00254FF48057022003F09E
:10452000C1FD012003F03EFD012803D103F044FD4D
:1045300026F81500022003F0D3FC3C46641EFDD192
:104540006D1C142DEAD30949012036F810304A8831
:10455000401C1A444A801428F7D390B21322B0FBAF
:10456000F2F04880BDE8F081F80A0020AA0000209F
:104570002DE9F0412E4D00244FF4805805F1280616
:1045800005F15007202003F08DFD012003F00AFD06
:10459000012803D103F016FD25F81400202003F0B4
:1045A0009FFC402003F07EFD012003F0FBFC01286E
:1045B00003D103F007FD26F81400402003F090FC1F
:1045C000802003F06FFD012003F0ECFC012803D1F3
:1045D00003F0F8FC27F81400802003F081FC40462B
:1045E000401EFDD1641C142CCCD3124901204A88F2
:1045F00035F810301A444A808A8836F810301A4448
:104600008A8037F81030CA88401C1A44CA8014289F
:10461000EDD34A881320B2FBF0F24A808A88B2FBBD
:10462000F0F28A80CA88B2FBF0F0C880BDE8F08161
:10463000200B0020BA0000202DE9F047244D002473
:104640004FF480684FF400694FF4805A05F1280652
:104650004746404603F026FD012003F0A3FC012855
:1046600003D103F0B5FC25F81400384603F038FCFC
:104670004F46484603F016FD012003F093FC012845
:1046800003D103F0A5FC26F81400384603F028FCFB
:104690005046401EFDD1641C142CD9D30D49012075
:1046A0008A8835F810301A448A8036F81030CA8863
:1046B000401C1A44CA801428F2D38A881320B2FB03
:1046C000F0F28A80CA88B2FBF0F0C880BDE8F087BB
:1046D000980B0020CA0000202DE9F05F324D002425
:1046E0004FF4005A4FF4804B4FF4805905F12806DF
:1046F00005F150085746504603F0D4FC012003F062
:1047000051FC012803D103F069FC25F81400384658
:1047100003F0E6FB5F46584603F0C4FC012003F0BB
:1047200041FC012803D103F059FC26F81400384657
:1047300003F0D6FB4F46484603F0B4FC012003F0DB
:1047400031FC012803D103F049FC28F81400384655
:1047500003F0C6FB7F1EFDD1641C142CCAD3134981
:10476000012043464A8835F8104022444A808A880E
:1047700036F8104022448A8033F810400A88401CE2
:1047800022440A801428EDD34A881320B2FBF0F2A9
:104790004A808A88B2FBF0F28A800A88B2FBF0F085
:1047A0000880BDE8F09F0000E80B0020DA00002040
:1047B0002DE9F05F324D00244FF400194FF4800AC8
:1047C0004FF4000B05F1280605F15007C84648468E
:1047D00003F068FC012003F0E5FB012803D103F09E
:1047E00003FC25F81400404603F07AFBD0465046FF
:1047F00003F058FC012003F0D5FB012803D103F09E
:10480000F3FB26F81400404603F06AFBD8465846EE
:1048100003F048FC012003F0C5FB012803D103F09D
:10482000E3FB27F81400404603F05AFB4FF4805096
:10483000401EFDD1641C142CC8D3124901204A88A3
:1048400035F810301A444A808A8836F810301A44F5
:104850008A8037F81030CA88401C1A44CA8014284D
:10486000EDD34A881320B2FBF0F24A808A88B2FB6B
:10487000F0F28A80CA88B2FBF0F0C880BDE8F09FF1
:10488000600C0020EA00002038B50446FF280CD058
:104890000B2C0AD800F01CF8FFF79AFC01468E2377
:1048A000024A03A0009402F02BF938BD02840008EC
:1048B0005B5831304B422025735D2025733A282503
:1048C0006429205B6B65793A2025645D0D0A000040
:1048D00010B5A0B0044680216846FDF76EFC0123A8
:1048E00068468DF808401A461946FEF773F820B05E
:1048F000002010BD70B540F2135003F0CBF8084D06
:104900004FF40044012223461146284602F087FD59
:1049100023462846BDE870400322002102F0A3BDD3
:104920000008004813B50C466846FDF7E5FD017E1A
:104930002170017D64396170017C491CA170017B8B
:10494000E170017A08312171017961710078A071FB
:1049500004E018382071E078401CE07020791828B5
:10496000F7D204E03C3860712079401C20716079F6
:104970003C28F7D204E03C38A0716079401C60719B
:10498000A0793C28F7D200201CBD00002DE9FC4195
:1049900027212E48FDF711FC2D4800240821046032
:1049A00004710830FFF7F4F8284878212830FDF723
:1049B00004FC264901202831264F81F8680038463A
:1049C00000F058FF224D244E08352868B0420BD124
:1049D00022A002F095F8FFF7FBFB014647232F4A80
:1049E0002FA002F08DF815E036A002F089F8FFF74D
:1049F000EFFB01464C23294A42A002F081F83846D9
:104A000000F038FF124808210C38846114302E6001
:104A1000FFF740F9FFF7DCFB0225CDE90054014622
:104A200053231E4A414802F06BF8FFF7D1FB0146C1
:104A30003FA242A0CDE900025423184A42A002F04E
:104A40005FF802480570BDE8FC81000008070020FF
:104A500038000020FFF3255CAE5634120A0A0A3DE6
:104A60003D3D3D3D3D3D3D3D3D3D3D3D3D3D3D3D76
:104A70003D3D3D3D3D3D3D3D3D3D3D3D3D3D3D3D66
:104A80003D3D3D3D3D3D3D3D3D3D3D3D3D3D3D3D56
:104A90003D3D3D3D3D3D3D3D3D3D0A00AD83000872
:104AA0005B5831304B422025735D2025733A282511
:104AB0006429200D5538537562C6F4B6AF41707045
:104AC0000A0000000A0A0A2A2A2A2A2A2A2A2A2A44
:104AD0002A2A2A2A2A2A2A2A2A2A2A2A2A2A2A2A36
:104AE0002A2A2A2A2A2A2A2A2A2A2A2A2A2A2A2A26
:104AF0002A2A2A2A2A2A2A2A2A2A2A2A2A2A2A2A16
:104B00002A2A0A005B5831304B422025735D20254C
:104B1000733A28256429200D5538537562B3F5B4CE
:104B2000CEC6F4B6AF4170700A0000008C85000854
:104B300031353A30323A3238000000004A616E2096
:104B400031352032303139005B5831304B4220252D
:104B5000735D2025733A28256429200A20CEC4BC21
:104B6000FEB1E0D2EBCAB1BCE42C20D4C2C8D5C49B
:104B7000EA20257320CAB1B7D6C3EB2573200A00FB
:104B80001CB50446C079274B062843D2DFE800F065
:104B900042030E212D39244901200870FFF718FB2C
:104BA00001464FF49873214A21A010E0002202210F
:104BB000104600F067FD207A01280BD0022808D1AA
:104BC000FFF706FB01464FF49F73184A22A001F03D
:104BD00097FF1CBDFFF7FCFA014640F23913134A58
:104BE00029A001F08DFF00F0E1FA082204F108018C
:104BF0001846FEF7D5FF00220421104600F042FDC2
:104C00001CBD082269461846FEF7B7FF684600F04B
:104C1000DDFA1CBDFFF7DCFA014640F25313034AEC
:104C200024A0D4E700F80108000000201B8200083F
:104C30005B5831304B422025735D2025733A28257F
:104C4000642920BDD3CAD5B5BDBBF9B1BED0C5CF8F
:104C5000A2D3A6B4F02E0A005B5831304B42202577
:104C6000735D2025733A2825642920426C756542BE
:104C70006C7565746F6F74685F52657365742072CC
:104C80006571202E0A0000005B5831304B42202510
:104C9000735D2025733A2825642920CAD5B5BDD671
:104CA000F7B0E5B5C4B8B4CEBBCFB5CDB3C7EBC78D
:104CB000F32E0A005B5831304B422025735D2025CE
:104CC000733A2825642920B4EDCEF32E0A000000A3
:104CD000F0B589B004460020009001900290039046
:104CE000E07901280ED0022812D003285DD0FFF70A
:104CF0006FFA014640F2D5234D4A4EA001F000FF65
:104D000009B0F0BD207A0028FAD001F045FAF7E7A3
:104D100060880828F4D3A0680490A089ADF8140036
:104D2000062204A94AA000F00FFCA57BE47B2946DB
:104D3000224649A001F0E4FE08AA06A907A801F04E
:104D400011FA4E4F012648B101F026FA69460120BA
:104D5000FEF76AFC87F8686049A01EE006AB04AA6B
:104D60002946002000F032F938B101F015FA694601
:104D70000120FEF759FC45A00FE004EB8500C0B20E
:104D8000694600F067F958B101F006FA694601205A
:104D9000FEF74AFC87F8686040A001F0B1FEAFE77B
:104DA00069460020FEF740FCAFE7A0680490A089A8
:104DB000ADF81400A67BE07B00EB8600C5B201F0E5
:104DC000EBF908AA06A907A801F0CCF930B906AB9F
:104DD00004AA3146002000F0F9F840B133A001F0F8
:104DE0008FFE01F0D9F9012001F066FE88E704F199
:104DF0001006082D0BD03146284600F049F9A0B125
:104E00002EA001F07DFE012001F056FE7DE70F216E
:104E10003046FFF723FAE17F8842C5D131460820AA
:104E200000F036F908B129A0EBE70020ECE700001C
:104E3000748200085B5831304B422025735D202579
:104E4000733A2825642920B4EDCEF32E0A00000021
:104E50006B65794100000000D1B0BFA82C207365BC
:104E600063746F72203D2025642C20626C6F636B2D
:104E7000203D202564200D0A00000000300700209E
:104E8000D1B0BFA8CAA7B0DC2E0D0A00C3DCC2EBAC
:104E9000C8CFD6A4CAA7B0DC0D0A0000B6C1CAFDAF
:104EA000BEDDBFE9CAA7B0DC2E0D0A005752495437
:104EB00045206661696C65642E0D0A00D0B4BFA8F8
:104EC000BFE978CAA7B0DC0D0A000000D0B4BFA8C3
:104ED000BFE938CAA7B0DC0D0A00000070B50D4666
:104EE0000446FEF748FEA279052A1CD2DFE802F04C
:104EF000031B090F150029462046BDE87040FFF747
:104F00003FBE29462046BDE87040FFF7E1BE294676
:104F10002046BDE87040FFF7C9B829462046BDE8E5
:104F2000704000F001B870BD70B50546C07900242E
:104F30000E46012806D0022825D12846BDE870403B
:104F400000F0C0BB0A4629460FA000F0FDFA31462A
:104F5000284601F0F1FA70B1FFF73AF9014640F244
:104F600019230F4A0FA001F0CBFD01242046BDE814
:104F7000704001F0BFBA052000F0ACFA1249A5203C
:104F800081F82B00F2E770BD454E554D5F555047F7
:104F9000524144455F52455155455354000000006D
:104FA000638200085B5831304B422025735D202519
:104FB000733A2825642920B2BBBFC9D2D4C9FDBC2D
:104FC000B62121210A0000003007002000B587B07B
:104FD00010B1012802D004E0602000E061208DF8CB
:104FE000040088008DF8050010788DF806005078D0
:104FF0008DF8070090788DF80800D0788DF80900BA
:1050000010798DF80A0050798DF80B0018788DF81A
:105010000C0058788DF80D0098788DF80E00D8782F
:105020008DF80F00012000F02CFAFEF789FB05A88F
:10503000009004AB0C2201A90E2000F0DEF838B974
:10504000082000F0C9FA000702D5002007B000BD13
:105050000120FBE73EB504460D46012000F011FAA1
:1050600030228DF804208DF80540FEF769FB02A878
:1050700000902B46022201A90C2000F0BEF810B9C6
:105080000298802801D001203EBD00203EBD0000D6
:1050900030B504468BB00D46012000F0F2F9A02196
:1050A0008DF814108DF8154009AC01AB022205A94A
:1050B0000C20009400F0A1F80998042801D00120E8
:1050C00000E000209DF8041001F00F010A2901D032
:1050D000012200E00022104307D0FFF779F80146D3
:1050E00040F2EB13144A15A021E0052000F0C9F9A5
:1050F00001AB102229460C20009400F07EF809989C
:10510000042801D0012000E000209DF8041001F0E7
:105110000F010A2901D0012100E00021084309D034
:10512000FFF756F801464FF4FA73034A0FA001F057
:10513000E7FC01200BB030BDE88300085B5831303C
:105140004B422025735D2025733A28256429204D84
:1051500069666172655F426C6F636B7772697465D3
:1051600020B4EDCEF3313A0A000000005B58313034
:105170004B422025735D2025733A28256429204D54
:1051800069666172655F426C6F636B7772697465A3
:1051900020B4EDCEF3323A0A0000000010B5FEF75D
:1051A000EAFCBDE81040FEF76FBA0000BFF34F8F76
:1051B00004480168044A01F4E06111430160BFF34F
:1051C0004F8FFEE70CED00E00400FA0530B5A1B00A
:1051D000044680216846FCF7F0FF6D46FEF7CBFCE5
:1051E0002068029060680390052300220821284669
:1051F000FDF7F0FB21B0002030BD2DE9F0479946C6
:105200001446884607460026DDF820A0FEF798FAE7
:10521000FEF7B1FC20210B2001F06DFC7F21042062
:1052200001F069FC0E2F07D14146204601F056FCE3
:1052300080210D2000F058FB80212A2000F054FB33
:105240003946012001F057FCFEF795FC042000F0E0
:10525000C3F90546C00703D020250C2F5CD076E0AB
:105260000E2F11D0042F12D00C2FEDD1680739D595
:10527000C4B3202C414629D9202001F02FFC203C2A
:10528000E4B208F1200825E0E806DDD560E0680713
:1052900017D5B4B1202C414604D2204601F01EFCA3
:1052A000002406E0202001F019FC203CE4B208F1C3
:1052B000200880210D2000F017FB0421084601F092
:1052C0001AFC6806C0D5002CBED141E0204601F092
:1052D00005FC002480210D2000F006FB0421084677
:1052E00001F009FC280712D5680610D57CB90A2000
:1052F00000F072F920280AD909EB0601202000F0FD
:105300005DF92036F6B20821042001F0F4FBA8066E
:105310009AD5002C98D100250A2000F05DF90746A7
:105320000C2000F059F900F007040FB904B101276F
:1053300009EB0601384600F041F9F019C0B21CB182
:10534000C0000838011900E0C100CAF800101DB9FA
:10535000062000F041F9054680210C2000F0C4FA37
:105360002021012001F0C7FB80210D20FEF7DCF990
:105370002846BDE8F08710B50446FEF7FCFB24B1D3
:10538000012C45D0022C5DD05AE010210C2000F0F9
:10539000ABFA4021152000F0A7FA0021122001F0FD
:1053A000AAFB0021132001F0A6FB8021392000F088
:1053B0009BFA01213C20FEF7B7F907213D20FEF7BB
:1053C000B3F903213E20FEF7AFF9FF21332001F0AE
:1053D00092FB0721322001F08EFBF121272001F002
:1053E0008AFB3F21282001F086FB0121292001F0C2
:1053F00082FB4021262001F07EFB0D21192001F0C7
:105400007AFB8421182001F076FB4021362015E03C
:1054100010210C2001F06FFB8321122001F06BFBA7
:105420008321132001F067FBF421272001F063FBA7
:10543000F421232001F05FFB002120E001F05BFB61
:10544000002010BD10210C2001F055FB92211220EC
:1054500001F051FB9621132001F04DFBF421272090
:1054600001F049FB2021282001F045FB4F2123209A
:1054700001F041FB2021292001F03DFB07211520EF
:10548000DCE770B540F29F6100244843611E0122B1
:105490004FF6FF7301EBC0011D1102EB4400B1FB9D
:1054A000F0F0984202D3641CAC42F6D385B2C4F348
:1054B00007212A2000F018FAE1B22B2001F01BFB93
:1054C000290A2C2001F017FBE9B22D2001F013FB73
:1054D000002070BD70B5054600241A4E09E00A2070
:1054E000FEF747FA2046641CC82802DD4FF0FF3063
:1054F00070BD2021304601F08DFF0028EFD108213A
:10550000304601F052FEFEF731FA0821304601F034
:105510004AFEFEF72BFA00240FE0FEF72CFB1021C9
:10552000304601F042FEFEF721FA1021304601F02C
:105530003AFEFEF71BFA641CE4B2AC42EDD3002045
:1055400070BD0000000400487CB515460E460446B8
:10555000FEF73EFE01465C23094A0AA0CDE900455C
:1055600001F0CEFA002404E0315D11A001F0C8FA88
:10557000641CAC42F8D3BDE87C400FA001F0C0BA77
:10558000CE8300085B5831304B422025735D2025C7
:10559000733A282564292063616C6C206279202588
:1055A000732C6C656E3D25642C70646174613A00E7
:1055B00025303258000000000A00000070B50D468A
:1055C0000646002405E0092000F006F82855641C72
:1055D000E4B2B442F7D370BD00F020B810B502F0C9
:1055E0002DFBFEF7F5FD0146BDE810406A23024A97
:1055F00002A001F085BA0000FA8300085B58313040
:105600004B422025735D2025733A2825642920B359
:10561000F5CABCBBAF205254430A000070B5044623
:105620004FF400454FF090462946304601F0BBFD4F
:10563000802040EA4400C0B200F03EFA00F038FAA0
:1056400004462946304601F0B0FD204670BD2DE9E4
:10565000F0410E4607464FF400444FF09045214676
:10566000284601F0A0FD7E2000EA470000F024FA61
:10567000304600F021FA21462846BDE8F04101F00D
:1056800094BD0000F0B5A1B00E4607461546802136
:105690006846FCF792FD6C468DF8085033463A4652
:1056A00001212046FDF796F90B22214602A0FFF7C3
:1056B0004BFF21B00020F0BD53656E644D73675FF2
:1056C00041434B0070B51E4E00F10804002596F8CA
:1056D0002B00A52801D001250FE02046FDF75AFF39
:1056E000022810D048B10125FEF772FD014640F2B4
:1056F000FF13144A14A001F003FA2178284600F0A1
:105700004BF8002070BD2178002000F045F84FF4E0
:105710007A742046FEF72DF92F20FFF7DBFEFEF707
:1057200057FD014640F2F313064A0FA001F0E8F9D5
:10573000002086F82B002046FEF71BF9FFF736FD08
:1057400030070020508200085B5831304B42202542
:10575000735D2025733A2825642920C9FDBCB6B4A1
:10576000EDCEF32121210A005B5831304B42202538
:10577000735D2025733A2825642920444542554706
:105780005F434D445F5245424F4F54D6D8C6F4CF85
:10579000B5CDB3A3A10A000030B5A1B00C460546B3
:1057A00080216846FCF709FD8DF808500223684601
:1057B0008DF8094004221946FDF70CF921B00020AC
:1057C00030BD000070B588B0054600242021684631
:1057D000FCF7F3FC2A460CA1684601F0A1F94FF44E
:1057E000FA656E102A460CA16846FDF7E1FA00281A
:1057F00007D03046FEF7BDF8641C022CF2D34FF000
:10580000FF3008B070BD000041542B4E414D453D66
:1058100025730D0A000000004F4B000070B588B0E2
:105820000546002420216846FCF7C7FC2A460CA147
:10583000684601F075F94FF4FA656E102A460CA11E
:105840006846FDF7B5FA002807D03046FEF791F814
:10585000641C022CF2D34FF0FF3008B070BD000082
:1058600041542B475749443D25730D0A0000000061
:105870004F4B00001CB56946FFF754F89DF8010036
:10588000FEF710FD164B03F8440F9DF80200FEF7DB
:1058900009FD58709DF80300FEF704FD98709DF80F
:1058A0000000FEF7FFFCD8709DF80400FEF7FAFC3C
:1058B00018719DF80500FEF7F5FC58719DF806007B
:1058C000FEF7F0FC9871074801681981406858811B
:1058D0000020D86018610248443002F03FF91CBD36
:1058E000300700209800002070B50C460546FFF7F1
:1058F00073FE40EA0401284601F0FDF8002070BD67
:1059000070B50446FEF737F91420FFF765FE00F086
:105910000300A04201D1002070BD34B1012C06D09B
:10592000022C0ED0032C0ED006E0032100E0012152
:105930001420FDF7F9FE0546C820FEF71AF82846A0
:1059400070BD0221F4E703211420FFF7CDFFF2E739
:1059500070B540F2135002F09DF8084D4FF400541A
:10596000012223461146284601F059FD23462846C8
:10597000BDE870400322002101F075BD0008004819
:1059800010B5002418210C48FCF717FC0A4809211F
:1059900004EB440200EBC2025170641CF8D00121F8
:1059A00081713421C171FFF7D3FF01223421BDE899
:1059B0001040002000F082BAC00A002058B1092827
:1059C0000CD00A280DD00123401E834003EA0100B9
:1059D0001146FEF78DBD11460020FAE71146012061
:1059E000F7E770472DE9F04140F2115002F052F80C
:1059F00040F2165002F04EF840F2125002F04AF80F
:105A00004FF4004401224FF09045234611462846AA
:105A100001F005FD234603220021284601F023FD65
:105A2000214E012240231146304601F0F8FC40236C
:105A300003220021304601F016FD1C4F01220823ED
:105A40001146384601F0EBFC0823032200213846BA
:105A500001F009FD012220231146384601F0DFFC48
:105A6000202303220021384601F0FDFC10230122EF
:105A70000021384601F0D3FC1023032200213846D0
:105A800001F0F1FC4021304601F08FFB2146284611
:105A900001F08BFB2021384601F087FB3846BDE83A
:105AA000F041082101F07FBB0014004800040048C9
:105AB000A52000F001B800002DE9F041144F054683
:105AC000002428064FF02001384602D501F06DFB76
:105AD00001E001F068FB0821384601F066FB0A206E
:105AE000FDF754FF6806060E1021384601F092FCBF
:105AF00040EA06050821384601F055FB0A20FDF76B
:105B000045FF641CE4B2082CDBD32846BDE8F081D5
:105B1000000400482DE9F04105460C460846FCF714
:105B200069FB064600230FE0E05CFCF77DFF0746BB
:105B3000E0184078FCF778FF03EBD37105EB6101C7
:105B400040EA071008709B1CB342EDDB06EBD670F1
:105B50004010BDE8F081000030B5A1B0802168465A
:105B6000FCF72BFB6C4602ADFEF705F82722064931
:105B70002846FCF709FB0123002227212046FCF7D9
:105B800029FF21B0002030BD0807002000B5A1B0DA
:105B900080216846FCF711FB074968460323096822
:105BA000029102218DF80C1000220521FCF712FF52
:105BB00021B0002000BD0000380000207047000028
:105BC0001E48016841F00101016001688907FCD5A8
:105BD00041681B4A1140416041681A4A11404160C6
:105BE000416821F440014160016B174A1140016393
:105BF0000168164A11400160C16A154A1140C1622C
:105C0000016B40F2031291430163016B21F4803177
:105C10000163016B21F000410163416B21F001013F
:105C20004163D0F8C01021F48031C0F8C0100021C9
:105C30008160C0F8CC1002F04DB8000000100240A6
:105C40000C00FF08FFFFC277BFFFFFBFFFFFF2FEA0
:105C5000F0FFFF3F10B540F61A1001F08FFE01284B
:105C60001ED040F61B1001F089FE01281FD040F61F
:105C70001C1001F083FE012820D040F61D1001F019
:105C80007DFE012821D040F61E1001F077FE01288C
:105C900022D040F61F1001F071FE012823D02AE027
:105CA000FEF796FA01466A23154A16A021E0FEF790
:105CB0008FFA01466E23124A1DA01AE0FEF788FAF9
:105CC000014672230E4A23A013E0FEF781FA014633
:105CD00076230B4A28A00CE0FEF77AFA01467A23D5
:105CE000074A2FA005E0FEF773FA01467E23044A17
:105CF00035A000F005FFBDE8104001F05FBD0000D9
:105D0000BC8300085B5831304B422025735D202551
:105D1000733A2825642920CFB5CDB3CDE2B2BFB800
:105D2000B4CEBBB9DCBDCCB8B4CEBB0A0000000019
:105D30005B5831304B422025735D2025733A28256E
:105D4000642920CFB5CDB3C9CFB5E7B8B4CEBB0A6F
:105D5000000000005B5831304B422025735D202548
:105D6000733A2825642920CFB5CDB3C8EDBCFEB861
:105D7000B4CEBB0A000000005B5831304B422025F6
:105D8000735D2025733A2825642920CFB5CDB3B69D
:105D9000C0C1A2BFB4C3C5B9B7B8B4CEBB0A000076
:105DA0005B5831304B422025735D2025733A2825FE
:105DB000642920CFB5CDB3B4B0BFDABFB4C3C5B981
:105DC000B7B8B4CEBB0A00005B5831304B42202537
:105DD000735D2025733A2825642920CFB5CDB3B54E
:105DE000CDB9A6BAC4B8B4CEBB0A000010B5042021
:105DF00001F0B4FF0B480C490C4B0068B0FBF1F20A
:105E0000B0FBF1F14FF47A7041434FF0E0201A708B
:105E1000026942F0020202614161016941F001013F
:105E2000016110BDF400002040420F008C000020F2
:105E300070B5174D154C0121284602F047F800288F
:105E40001BD00121284602F03DF86179207900221B
:105E5000FFF7B4FD2079401C207120790B280CD16C
:105E6000E08A401C80B2E082A18A884206D2E18AA0
:105E70002069405C60710020207170BDA5202070F9
:105E80002846BDE8704001F0BBBF0000C00A0020FA
:105E9000002C014010B501218C07204602F016F8B5
:105EA000002807D00121204602F00CF80248816842
:105EB000491C816010BD00002C0000202DE9FF412D
:105EC0000446204816460F4630F8140001F0E2FD63
:105ED0001C4D1A3555F8240001F052FF6B20ADF827
:105EE00000000020ADF80C00ADF80200ADF8040091
:105EF00002978DF80E0055F82400694601F08EFFD8
:105F0000012E10D155F82400012101F0D7FF55F8DA
:105F10002400012101F07EFFA5F11C000122005D9B
:105F2000114601F0EFFB55F8240001F023FF55F86E
:105F3000240001F06AFF002C02D1286801F060FF04
:105F4000BDE8FF812E00002070B5C0B00E460546AA
:105F50004FF480716846FCF730F96C46FDF70BFE94
:105F6000324605F10B0104F10800FCF70DF903239B
:105F7000B1B21A462046FCF72DFD40B0002070BD9E
:105F800010B540F2115001F085FD40F2125001F0C1
:105F900081FD4FF4A36001F07DFD01F009F901F0EE
:105FA000AFFFFEF7B5FAFEF7E3FAFEF745FBFEF7A3
:105FB00093FBFEF7FDFBFEF70BF90146BDE8104031
:105FC00040F21233014A02A000F09ABD0E8400088C
:105FD0005B5831304B422025735D2025733A2825CC
:105FE0006429205473694B6579496E6974204F4B5D
:105FF0000A0000002DE9F0438DB006460020019014
:106000000290039004900590086008710C462021CE
:106010008DF818108DF81C008DF820008DF82400E4
:1060200080211220FDF780FB80211320FDF77CFBEF
:1060300080210E2000F05FFD00211D2000F05BFD9F
:106040000DF128080DF1040904AD8DF828609DF8C4
:1060500018008DF829009DF81C100D2000F04BFD54
:106060009DF82420214608F10200FCF78DF89DF8E8
:106070002400801CC7B20120FFF703FA02AB3A46A6
:106080000AA90C20CDF80090FFF7B7F8202867D0B8
:1060900000072AD50E20FFF79FFA00F01F0709AB73
:1060A00008AA06A9384600F01EF907A9384600F0EC
:1060B000F9F89DF8242002A904A8FCF765F89DF8DA
:1060C00024009DF82020284410F8011D1140017083
:1060D000002205E0A05CA95C0843A054521CD2B287
:1060E0009DF824008242B0D2F4E70198082802D932
:1060F000C0F3C70600E001269DF8240018B131184E
:1061000006292DD107E0052E2AD1324602A92046C4
:10611000FCF73AF816E02844324602A9401EFCF784
:1061200033F800200CE09DF8241001440A1929449A
:1061300012F8013D11F8011C0B43401C1370C0B252
:10614000B042F0D320786178E2784840A17851409D
:1061500048402179884203D100200DB0BDE8F0838A
:106160000120FAE770B515460E46044600F038F8EF
:1061700080B9617871B9217889090CD131469320B1
:10618000FFF738FF30B92A463146932000F059F81E
:10619000002800D0012070BD1FB550208DF80400EC
:1061A00000208DF8050001460D2000F0A4FC8021A0
:1061B0001220FFF799FB80211320FFF795FB0821A0
:1061C0000846FDF7B1FA0120FFF75BF903A800903C
:1061D00002AB022201A90C20FFF70FF804B010BD9A
:1061E0001FB504460020029080211220FDF79CFA82
:1061F00080211320FDF798FA08211320FFF774FB84
:1062000007210D2000F077FC26208DF80C000120DE
:10621000FFF737F902A8009001AB012203A90C2077
:10622000FEF7EBFF10B90298102802D0012004B04D
:1062300010BD9DF8040020709DF8050060700020DE
:10624000F5E770B50C46064686B0154600210D20D0
:1062500000F051FC80211220FFF746FB8021132023
:10626000FFF742FB8DF8046070208DF805000020D8
:1062700001A9225C0B18401CC0B29A700528F8D303
:106280000120FFF7FEF805A8009003AB072201A943
:106290000C20FEF7B2FF002802D19DF80C102970E7
:1062A00006B070BDE8B1421E082A02D200EB001011
:1062B00017E0A0F109030201082B03D2803A104431
:1062C00008380EE0A0F11103082B02D21044103858
:1062D00007E0A0F11903072B04D2A2F5C072104405
:1062E000183808707047F0B5042510B958240C70A0
:1062F0001D70441E0126082C02D221340C701E7021
:10630000A0F10904082C03D231340C7002241C7053
:10631000A0F111040327082C02D241340C701F7025
:10632000A0F11904072C02D2383008701D700878CB
:1063300000F00700092807D2DFE800F0060507098A
:106340000B0D0F1113001670F0BD1770F0BD072074
:1063500008E00F2006E01F2004E03F2002E07F203D
:1063600000E0FF201070F0BD2DE9F05F8946044683
:106370003F4900EB440001EB800A3E48934630F869
:10638000140001F087FB3B48001D30F8140001F0B9
:1063900081FB384F2837A7F1200606F1100857F87F
:1063A000242056F8241058F8240000F0D1FE06F1FD
:1063B000280556F82410183655F8242056F82400DD
:1063C00000F0C6FE57F8243058F8240001220221BC
:1063D00001F025F857F824004FF6FF7703463A46B8
:1063E000002101F040F855F8243056F8240001222D
:1063F000022101F014F855F8243056F824003A46EA
:10640000002101F030F8203D55F8240001F090FE05
:1064100055F82400594601F057FE55F82400042190
:1064200001F0D9FE55F82400082101F0DCFEB9F195
:10643000010F16D155F82400052101F0A1FEA5F1A8
:1064400014000122005D022101F05CF90A484FF4BA
:10645000807200EB04215046FDF7D5FA5046FDF757
:10646000AFFA55F8240001F07BFE0020BDE8F09F54
:10647000A809002054000020A807002070B50C4E89
:106480000C4C0A4D3146204601F08DFE00280CD000
:10649000204601F045FEC1B22846FDF7BBFA314661
:1064A0002046BDE8704001F076BE70BDA80900200E
:1064B000050005070038014070B50C4E0C4D0A4C24
:1064C0003146284601F06FFE00280CD0284601F026
:1064D00027FEC1B22046FDF79DFA31462846BDE8A9
:1064E000704001F058BE70BDB409002005000507DA
:1064F0000044004030B5A1B0054680216846FBF756
:106500005CFE6C4601238DF8085004221946204693
:10651000FCF760FA0B22214602A0FFF715F821B024
:10652000002030BD55706772616465526571756594
:10653000737441636B0000007FB5204D81680024B7
:106540002960C1686960018A2981807CA872FDF791
:106550003FFE01462868AE7A2B896A688DE84D00B7
:106560004FF4DC73164A174800F0CAFA16480121A6
:10657000C162002101634163286898B1686888B1ED
:1065800000F074FD114D05EB842000F031FD342046
:1065900000F020FD641C3A2CF5D300F021FD002012
:1065A00004B070BDFDF714FE01464FF4E073044AD9
:1065B00007A000F0A5FA4FF0FF30F1E7FC00002043
:1065C0003A820008AC840008300700200008010867
:1065D0005B5831304B422025735D2025733A2825C6
:1065E00064292066696C6573697A65206F72207012
:1065F00061636B616765206F722066775F76657295
:10660000736F6E2C206572726F7221212100000061
:10661000F8B500258DF800502C46FDF7ACFA0D4E6C
:106620000D4F09E001226946E019FDF7A6FA9DF831
:106630000000641C284485B23068A042F2D8328938
:10664000AA4205D0294605A000F05AFA0120F8BD5B
:106650000020F8BDFC00002000080108D0A3D1E90B
:10666000B3F6B4ED2121215B2523785D2C205B2539
:1066700023785D0D0A0000002DE9F0416D4F0D46B5
:1066800001466D4A786B8CB0104400242A46FDF711
:1066900087FA01284AD0786B684E28446421484321
:1066A0003168B0FBF1F8FDF793FD7A6B33682A444B
:1066B000CDE900320146CDF808803C23604A61A054
:1066C00000F01EFAF86A716888427DD100297BD0FB
:1066D0007A6B31682A449142F7D1FDF779FD014682
:1066E0004023574A63A000F00BFA72686EA0F96A63
:1066F00000F006FA786B3268411973A000F000FAD6
:10670000FDF766FD0146786B009043234C4A75A067
:1067100000F0F6F9FFF77CFF60B1FDF759FD014687
:106720004723474A7FA000F0EBF97AE088A000F009
:10673000E7F976E08D4F8E4D4FF00008CDF82880B8
:10674000CDF81480CDF81880CDF81C803089ADF8D4
:1067500028003068CDE9085000F088FC384600F089
:1067600047FC342000F036FC00F03AFC0A2208A96D
:106770003846FDF715FA0A2205A93846FDF7FDF956
:106780001420FDF7F6F80A2208A93846FDF7F5F9B6
:10679000BDF828003189884223D109993268914295
:1067A0001FD10899A9421CD1BDF81C10884218D1EC
:1067B00006990998884214D105990898884210D101
:1067C000FDF706FD014600E02DE061231C4A69A0AB
:1067D00000F096F93020FEF77DFE02200CB0BDE8F7
:1067E000F081FDF7F5FC0146DDE90832BDF828002F
:1067F0008DE80D006823124A68A000F081F9FDF7CA
:10680000E7FC014632683089CDE9000269230C4A71
:10681000724800F075F9032C03D0641C032C8DD34F
:1068200006E00120DAE7401CF862786B28447863C0
:106830000020D3E73007002000080108FC000020FA
:10684000FB8100085B5831304B422025735D2025C9
:10685000733A2825642920746F74616C2025642C98
:106860006765742025642C205B256425255D2E0A30
:10687000000000005B5831304B422025735D20251D
:10688000733A2825642920D7EEBAF3D2BBB8F6B004
:10689000FCD2D1BEADD0B4CDEA2C20BFAACABCD0A8
:1068A000A3D1E92E0A00000043757272656E745020
:1068B00061636B616765203D205B25645D2C205B17
:1068C00025645D0A000000005265636569766553C2
:1068D000697A65203D205B25645D2C205B25645D25
:1068E0000A0000005B5831304B422025735D2025A3
:1068F000733A2825642920476C6F62616C496E6683
:106900006F2E5570677261646546772E41646472BC
:106910004F6666736574203D205B2523785D2E0AE3
:10692000000000005B5831304B422025735D20256C
:10693000733A282564292075706772616465206345
:106940006865636B73756D206572726F722E0A00D5
:106950003131313131313131313131313131313127
:10696000312C206572726F722100000000FC01085A
:10697000DEBC55AA5B5831304B422025735D202583
:10698000733A2825642920757067726164652073E5
:106990007563636573732E0A000000005B58313025
:1069A0004B422025735D2025733A282564292075E4
:1069B000706772616465206572726F722C205B254E
:1069C00023785D2C205B2523785D2C205B252378A4
:1069D0005D2C206572726F722E0A0000FC84000824
:1069E00001214FF4E1320846FFF7BEBC2DE9F04724
:1069F00017468846054600240E4E40F2077910E0FF
:106A0000FDF7B9F818F8041056F8250001F08CFBD2
:106A100056F82500494601F0A8FB0028F8D0641C70
:106A2000A4B2BC42ECD31420FCF7A3FF0020BDE8C5
:106A3000F0870000640000202DE9F041124F054668
:106A40004FF4005600243146384600F0ACFB0820D5
:106A5000FCF79CFFE8073146384602D000F0A5FB62
:106A600001E000F0A0FB0820FCF790FF641C6D081B
:106A7000E4B2082CEED33146384600F096FBBDE870
:106A8000F0410820FCF782BF0008004810B54FF421
:106A90001064204600F082FF204600F08DFF0128A0
:106AA000FAD104214FF47F6000F01AFB00F040FBA4
:106AB000BDE8104000F044BB10B5A0B004468021F2
:106AC0006846FBF77AFB68468DF8084003230222EC
:106AD0000121FBF77FFF20B0002010BD70B50D46EF
:106AE0000646002404E0295D092000F004F8641C37
:106AF000B442F8D370BD10B5FEF7A9FD002010BD5B
:106B00000FB4054B10B503A9044A029800F02CF805
:106B100010BC5DF814FB0000C1700008F8000020F4
:106B20000FB4084B10B504A902AA039800F01CF892
:106B3000044602A9002000F048FA204610BC5DF887
:106B400014FB0000CB6F000802E008C8121F08C148
:106B5000002AFAD170477047002001E001C1121FDE
:106B6000002AFBD1704700002DE9FF4F8DB00F4682
:106B70000546002606E025280BD0DDE90F129047D8
:106B80006D1C761C28780028F5D111B03046BDE880
:106B9000F08F0024A246A1460122EC4900E0044304
:106BA00015F8013F203B02FA03F00842F7D128789C
:106BB0002A2810D06FF02F022878A0F1300109297F
:106BC00014D80AEB8A0102EB410144F0020400EB05
:106BD000010A6D1CF0E701CF5FEA000A03D544F417
:106BE0000054CAF1000A44F002046D1C28782E28D3
:106BF00017D115F8010F44F004042A280ED06FF0C5
:106C00002F022878A0F1300109290AD809EB89015F
:106C100002EB410100EB01096D1CF2E757F8049B00
:106C20006D1C28786C280FD006DC4C2817D06828FB
:106C30000DD06A2814D104E0742810D07A280FD11E
:106C40000DE044F400140AE044F4801401E044F43C
:106C500040146978814202D104F580146D1C6D1CCA
:106C60002A786E2A1FD00CDC632A31D004DC002A7B
:106C70008BD0582A11D1A3E0642A68D0692A0CD19C
:106C800065E0732A2ED004DC6F2A73D0702A04D1F9
:106C90009BE0752A6FD0782A6ED01046DDE90F127E
:106CA0009047761C50E1C4F30250022806D0032816
:106CB00009D0042801CF09D0066045E101CFF117C2
:106CC000C0E9006140E101CF06803DE106703BE193
:106CD00017F8040B8DF8000000208DF80100EB463A
:106CE000012003E057F804BB4FF0FF3061074FF07D
:106CF000000102D40DE008F10101884649450FDA90
:106D00008045F8DB1BF808100029F4D108E008F1F1
:106D1000010188468142FADB1BF808100029F6D1F0
:106D2000DDE90F23AAEB08008146214600F036F981
:106D3000304400EB080604E0DDE90F121BF8010BFC
:106D40009047B8F10108F7D221464846F7E00A21FA
:106D5000C4F302534FF0000B0891022B04D001CF73
:106D6000C117032B09D00AE0FF1D27F00707F7E83A
:106D7000020108E032E01FE020E000B2C117042B5E
:106D800001D140B2C117031E71F1000307DA4FF0C1
:106D9000000CD0EB0C006CEB01012D2302E023056D
:106DA00004D52B238DF82430012303E0E30701D021
:106DB0002023F7E7984658E00A2110E010210EE062
:106DC00010204FF0000B08900CE010214FF0000B4A
:106DD00044F004044FF00809089103E008214FF043
:106DE000000B0891C4F30253022B04D001CF002101
:106DF000032B06D006E0FF1D27F00707F7E8020186
:106E000003E080B2042B00D1C0B24FF0000823078A
:106E10002BD5702A07D0DDF820C08CF0100C5CEA6E
:106E20000B0C05D00EE040238DF82430012308E040
:106E300050EA010306D030238DF824308DF8252048
:106E400002239846DDF820C08CF0080C5CEA0B0C9D
:106E50000BD150EA010301D1630706D530238DF829
:106E600024304FF00108A9F10109582A04D038A2B2
:106E70000B9208AA0A920BE03AA2F9E75B46089A3D
:106E8000FBF708FB0B9B9B5C0A9A521E0A9213703D
:106E900050EA0102F2D10A98ADEB000000F1200B9C
:106EA000600702D524F4803401E04FF00109D94590
:106EB00002DDA9EB0B0000E0002000EB0B014144D8
:106EC0000890AAEB010AE00306D4DDE90F2321466E
:106ED000504600F063F806444FF0000908E009A9A5
:106EE00011F80900DDE90F12904709F10109761C3C
:106EF000C145F4DBE0030CD5DDE90F232146504604
:106F000000F04CF8064404E0DDE90F123020904711
:106F1000761C0899481E08900029F5DC08E00A98BC
:106F20000A990078491C0A91DDE90F129047761CF6
:106F3000BBF10001ABF1010BF1DC21465046DDE96C
:106F40000F2300F019F806446D1C1BE60928010008
:106F500030313233343536373839616263646566CF
:106F60000000000030313233343536373839414291
:106F700043444546000000002DE9F0410446002549
:106F80001E461746880404D405E039462020B04741
:106F90006D1C641EF9D52846BDE8F0812DE9F0414D
:106FA000044600251E469046C80301D5302700E060
:106FB0002027880404D505E041463846B0476D1CBB
:106FC000641EF9D52846BDE8F0810A68531C0B60A1
:106FD000107070470149C8607047000000200240EF
:106FE0000248016941F080010161704700200240C0
:106FF00070B505464FF47026304600F017F80028AB
:1070000010D1094C206940F00200206165612069BF
:1070100040F040002061304600F008F8216921F07E
:107020000201216170BD00000020024000B503464E
:1070300000F008F85B1E012802D1002BF8D10420D3
:1070400000BD000008490020CA68D20701D0012015
:107050007047CA68D20601D503207047C96849073E
:10706000FBD502207047000000200240044801695F
:10707000090603D503494160034941607047000098
:107080000020024023016745AB89EFCDF0B50646ED
:107090004FF470270D463846FFF7C8FF00280CD183
:1070A000064C206940F00100206135603846FFF74A
:1070B000BDFF216921F001012161F0BD00200240E6
:1070C00010B50446FCF757FD0449A52081F83900A6
:1070D000E0B2FFF7B1FC204610BD000030070020F1
:1070E00030B5124D104B45F255541A462C60EC68E1
:1070F000521E04F0010402D0002CF8D100E04CB97B
:107100006960E9685B1E01F0020102D00029F8D134
:1071100002E009B1002030BDC0F30B00A8604AF6C0
:10712000AA202860012030BDFFFF0F000030004082
:1071300002494AF6AA20086070470000003000406B
:1071400002494CF6CC400860704700000030004017
:10715000F0B5046A456A00234FF0010C4FF00F0EA2
:107160000CFA03F6164206D09E000EFA06F7BC4350
:1071700001FA06F73C435B1C9BB2082BF0D30823B3
:107180000CFA03F6164207D09E00203E0EFA06F7D0
:10719000BD4301FA06F73D435B1C9BB2102BEFD3B6
:1071A00004624562F0BD81627047816170470000F2
:1071B0002DE9F0474FF0904801230022022140467C
:1071C00000F02DF9012300221946404600F04BF94A
:1071D000022300221946404600F021F90022022332
:1071E0001146404600F03FF9012203214046FFF7D7
:1071F000AFFF022203214046FFF7AAFF102300221F
:107200000221404600F00BF91023002201214046E4
:1072100000F029F9202300220221404600F0FFF867
:10722000002220231146404600F01DF94023002291
:107230000221404600F0F3F8002240231146404668
:1072400000F011F9802300220221404600F0E7F807
:10725000002280231146404600F005F91022032148
:107260004046FFF775FF202203214046FFF770FFDD
:10727000402203214046FFF76BFF80220321404656
:10728000FFF766FFDFF888910123002202214846BC
:1072900000F0C5F8012300221946484600F0E3F843
:1072A000022300221946484600F0B9F800220223C2
:1072B0001146484600F0D7F8042300220221484630
:1072C00000F0ADF8002204231146484600F0CBF848
:1072D000012203214846FFF73BFF022203214846D3
:1072E000FFF736FF042203214846FFF731FF4FF432
:1072F0008054234600220221404600F090F82346A5
:1073000000220121404600F0AEF8A5102B460022D5
:107310000221404600F083F800222B4611464046E9
:1073200000F0A1F86610334600220221404600F02A
:1073300076F8002233461146404600F094F8E710F4
:107340003B4600220221404600F069F800223B46FD
:107350001146404600F087F83A4603214046FFF7C1
:10736000F7FE2A4603214046FFF7F2FE324603218C
:107370004046FFF7EDFE224603214046FFF7E8FEB8
:10738000334600220221484600F049F833460022E5
:107390000121484600F067F82346002202214846B2
:1073A00000F03DF8002223461146484600F05BF805
:1073B00065002B4600220221484600F030F80022EA
:1073C0002B461146484600F04EF8A7003B460022E7
:1073D0000221484600F023F800223B461146484669
:1073E00000F041F8324603214846FFF7B1FE22463D
:1073F00003214846FFF7ACFE2A4603214846FFF723
:10740000A7FE3A464846BDE8F0470321FFF7A0BE75
:10741000000400480069084000D0012070472DE9B1
:10742000F0470568C66800244FF0010A4FF00309D1
:107430000AFA04F71F420ED0670009FA07FC25EA92
:107440000C0526EA0C0601FA07F802FA07FC48EADE
:1074500005054CEA0606641CA4B2102CE8D30560AE
:10746000C660BDE8F087F0B50129416830D0994386
:107470004160846801260327A2F57F41FF3913D0BC
:10748000002106FA01F51D4208D04D0007FA05FC5F
:1074900024EA0C0402FA05FC4CEA0404491C89B2F3
:1074A0001029EED38460F0BDC26B002106FA01F50D
:1074B0001D4206D04FEA410C07FA0CFC4CEA0404CA
:1074C0002A43491C89B21029F0D38460C263F0BDFD
:1074D0001943CDE7FCF7CEFE82460546D146FCF7C0
:1074E000C9FE674C2F464FF400513E468803656045
:1074F00000F052F94FF4407000F044F9FBF7E0FC63
:10750000FBF7BCFFDFF87CB1FCF735FBFCF7D6FEE0
:10751000FCF7B0FE0446FCF7ADFE01460AF5FA7032
:10752000814203D2FCF7A6FE504504D2FCF7A2FE2E
:107530008246FCF7A5FEFCF79DFE014609F5AF70FB
:10754000814203D2FCF796FE484504D2FCF792FE36
:107550008146FCF76BFEFCF7FFF805F16400A042E2
:1075600001D9A5420BD94848807840B99BF82B0037
:107570002546A52801D0FDF711FEFCF7FCFAFCF723
:1075800079FEDFF8FC8041F28831D8F804201144FC
:10759000884205D2FCF76EFED8F80410884206D265
:1075A000FCF768FEC8F8040001208BF8680098F822
:1075B000000048B941F288303844A04201D9A742BE
:1075C00002D92746FEF7C8FA47F230503044A042AD
:1075D00001D9A64202D92646FEF7D8FADFF8A880DC
:1075E00098F8010008BB9BF869005C46E8B9FCF715
:1075F00041FE216F401A4EF66021884223D3FCF7EA
:1076000039FE20670120FBF729FC78B1FCF7E0FD8B
:107610000146B2231D4A1EA0FFF772FA012088F826
:10762000010014F8740F401C20700CE0002088F852
:10763000010084F87400FCF7CBFD0146BA23134A1D
:107640001CA0FFF75DFA9BF869005C4601287FF4F7
:107650005BAFFCF70FFEE16E401A1F4988427FF6D0
:1076600053AFFCF707FEE066002084F86900FCF7E2
:10767000AFFD0146D023054A18A0FFF741FA43E7C2
:10768000000000203007002038000020F6810008AC
:107690005B5831304B422025735D2025733A2825F5
:1076A000642920BCECB2E2C0B6D1C0B4EDCEF32E5A
:1076B0000A0000005B5831304B422025735D2025C5
:1076C000733A2825642920C0B6D1C0BCECB2E2B31D
:1076D000C9B9A62E0A000000C0D401005B583130A1
:1076E0004B422025735D2025733A2825642920B458
:1076F000F2BFAABCECB2E2C0B6D1C0B1EAD6BE2E8F
:107700000A00000030B51E4D002423462D6805F404
:10771000E065B5F5A06F12D006DCB5F5407F14D05A
:10772000B5F5806F12D10DE0B5F5C06F04D0B5F599
:10773000E06F0BD1042309E00124032306E00224B7
:10774000234603E00324012300E00424C4F10404DD
:10775000A140C3F104040F23E34013400B4300F1A5
:10776000E022190182F8001400F01F02012191406B
:107770004009800000F1E020C0F8001130BD000099
:107780000CED00E002490843024908607047000020
:107790000000FA050CED00E0024A114001430248E6
:1077A0000160704780FFFF1F08ED00E0024801689C
:1077B00041F4807101607047007000400248416AE6
:1077C00041F0807141627047001002402DE9F0479E
:1077D00060A288B074CA8DE874005FA2614ED2E9DD
:1077E0000042CDE904425CA28046D2E90042CDE9E4
:1077F000064200207268014603465B4DC2F38102D7
:107800001AB1012A01D0022A01D02A4623E0726867
:107810007468C2F38342C4F3C067F46AE40F0FB123
:10782000113200E0921C04B11F327468F76AC4F38D
:107830000044C7F3807764B1F46A04F00F04641C59
:1078400027B14A4FB7FBF4F4624304E0B5FBF4F40C
:10785000FAE7474C62437468C4F303141DF80470DC
:1078600022FA07F477680DF1100CC7F302271CF811
:10787000077024FA07F977680DF1180CC7F3C227CF
:107880004FF4004A1CF8077024FA07F7B8F1070F05
:1078900006D2DFE808F004080A0C0E3C440010464B
:1078A00008B0BDE8F0872046FAE74846F8E73846D2
:1078B000F6E7306BC00506D4306BC00301D42D4908
:1078C00023E02D4921E07068C0F38132306BC00F96
:1078D00032B1012A09D0022A0ED0032A15D110E0B4
:1078E00008B1032003E079080FE018B10520B7FBC9
:1078F000F0F10AE0B90808E008B10720F7E7062030
:10790000F5E708B10920F2E7F9080846C8E7306B47
:10791000400602D448F21200C2E75046C0E7306B7E
:1079200080070ED0306B00F0030001280BD0306BC5
:1079300000F00300022808D0306BC043800706D057
:1079400006E03B4604E0134602E0534600E02B46C7
:107950001846A5E700000000000000000102030433
:10796000060708090010024000127A00006CDC02D1
:1079700000093D00809FD500003FAB01064A02EBA5
:107980009011096800F01F0201209040014201D0CF
:10799000012070470020704700100240054901EBAC
:1079A00090110A6800F01F030120984002430A600A
:1079B000704700000010024070B500234FF40066CD
:1079C000334D1C46B0421BD005DC30B310280ED01E
:1079D00018285AD14DE0B0F5106F3FD0B0F5506F78
:1079E00026D000F57F60B0F5804F4ED12BE01120FE
:1079F000FFF7C4FF5B1C08B9B342F8D1112040E087
:107A000040F601066FF07C453046FFF7B7FF5B1C80
:107A100008B9AB42F8D1304633E04FF4A0650120FD
:107A2000FFF7ACFF5B1C08B9AB42F8D1012028E09E
:107A300040F601563046FFF7A1FF5B1C0028EAD153
:107A4000AB42F7D1E7E743F211063046FFF796FF66
:107A50005B1C0028DFD1AB42F7D1DCE740F6011612
:107A60003046FFF78BFF5B1C0028D4D1AB42F7D127
:107A7000D1E71920FFF782FF5B1C08B9AB42F8D1B0
:107A80001920FFF77BFF00B10124204670BD0000E4
:107A9000FFFF0F00054901EB90110A6800F01F037A
:107AA0000120984002430A60704700000010024025
:107AB000054901EB90110A6800F01F03012098406E
:107AC00082430A607047000000100240054901EB44
:107AD00090110A6800F01F030120984002430A60D9
