:020000040800F2
:10000000F8100020650100086D0100086F0100086C
:10001000710100087301000875010008000000006C
:100020000000000000000000000000007701000850
:1000300079010008000000007B0100087D390008FC
:100040007F0100087F0100087F0100087F01000890
:100050007F0100087F0100087F0100087F01000880
:100060007F0100087F0100087F0100087F01000870
:100070007F010008F13B00087F010008553C0008A3
:100080007F0100087F010008000000007F010008D8
:100090007F0100087F0100087F0100087F01000840
:1000A0007F0100087F0100087F010008014200086D
:1000B0003D420008000000007F0100080000000031
:1000C0007F010008000000007F0100087F01000898
:1000D0007F01000800000000000000000000000098
:1000E00000000000000000007F0100080000000088
:1000F0000000000000000000000000000000000000
:100100007F01000800000000000000007F010008DF
:1001100000000000000000000000000000000000DF
:1001200000000000000000000000000000000000CF
:1001300000000000000000000000000000000000BF
:100140000000000000000000000000007F01000827
:10015000DFF80CD000F022F900480047514D0008AC
:10016000F81000200648804706480047FEE7FEE7F3
:10017000FEE7FEE7FEE7FEE7FEE7FEE7FEE7FEE757
:10018000813900085101000838B5D0E90221491E23
:1001900001EB410102EBC1014268C1EB011102EB2D
:1001A00081010268C1EB011102EB8102D0E9043147
:1001B00001EB410103EB81013023A1F5527191FB69
:1001C000F3F4174D6C4302EBC41291FBF3F403FB01
:1001D000141100921A2902DB124B1A4400920C22CD
:1001E00091FBF2F3104C6343009C04EBC3130093A8
:1001F00091FBF2F302FB13110C4A08E0491E40F296
:10020000A324535C6343009C04EBC31300930029B5
:10021000F4DC0146684600F07BF8009838BD000029
:100220003F0C0F008051010067C20300CA7B000829
:1002300040EA01039B0703D009E008C9121F08C068
:10024000042AFAD203E011F8013B00F8013B521EE8
:10025000F9D27047D2B201E000F8012B491EFBD25F
:1002600070470022F6E710B513460A4604461946C1
:10027000FFF7F0FF204610BD421C10F8011B0029BB
:10028000FBD1801A704730B504460020034600E0D9
:100290005B1C934203D2E05CCD5C401BF8D030BDC8
:1002A0002DE9F05F0546002092469B4688460646AB
:1002B000814640241BE0284641464746224600F03E
:1002C0008EF853465A46C01A914110D3114618462B
:1002D000224600F075F82D1A67EB01084F462246BA
:1002E0000120002100F06CF817EB00094E41201EA0
:1002F000A4F10104DFDC484631462A464346BDE806
:10030000F09F0000014900F003B80000CC0C002071
:1003100010B500683C22B0FBF2F302FB1303B0FB04
:10032000F2F00B60B0FBF2F302FB1303B0FBF2F050
:1003300018224B60B0FBF2F302FB1303B0FBF2F0A8
:10034000021D8B600723B2FBF3F403FB1422800031
:1003500040F2B55300F66C308A61B0FBF3F2B0FBAB
:10036000F3F403FB1400443280084A61C8613B285F
:1003700002D3920700D0401C0022074C13460A61AA
:10038000E25C824203D8801A5B1C0B61F8E7401CD8
:10039000C860084610BD0000D67B0008064C074D1B
:1003A00006E0E06840F0010394E807009847103445
:1003B000AC42F6D3FFF7D0FEB07C0008D07C00083A
:1003C000202A04DB203A00FA02F100207047914015
:1003D000C2F1200320FA03F3194390407047202A0A
:1003E00004DB203A21FA02F00021704721FA02F3DF
:1003F000D040C2F1200291400843194670470000E6
:100400002DE9F84FC3780478857883EA046344784B
:10041000E24E240484EA052463401468857983EA63
:100420000409C379047983EA04634479240484EADF
:10043000052463405468857A83EA040AC37A047AFF
:1004400083EA0464437A1B0483EA05235C409368CF
:10045000057B5C40C37B83EA0565437B807B1B0493
:1004600083EA00204540D0684540D2F8F0004010B3
:100470000090DFF82CB34FEA1963CAF307400BF57D
:10048000806E5BF823305EF820004340C4F3072001
:1004900087000BF50060C059EFB256F8277078401E
:1004A000434010694FEA1A6743405BF82700C4F3E2
:1004B00007475EF827707840C5F307274FEA870C97
:1004C0000BF5006757F80C7009F0FF0C56F82CC0BC
:1004D00087EA0C07784057694FEA146C78405BF85C
:1004E0002C70C5F3074CE4B25EF82CC056F82440DB
:1004F00087EA0C07C9F3072C4FEA8C080BF5006C50
:100500005CF808C00AF0FF0856F828808CEA080C4E
:1005100087EA0C07D2F818C087EA0C074FEA156C77
:100520005BF82C50C9F3074C5EF82CC085EA0C052B
:10053000CAF3072C4FEA8C080BF5006C5CF808C076
:100540008CEA040CD46985EA0C056540009C02F134
:100550002002641E4FEA136C009472D05BF82C40AA
:10056000C0F3074C4FEA8C08F4460BF5006E5CF8BC
:1005700008C005F0FF0884EA0C04C7F3072C56F8FE
:1005800028805EF82CC08CEA080C84EA0C04D2F8AF
:1005900000C084EA0C094FEA106C5BF82C40C7F3EA
:1005A000074C4FEA8C080BF5806C5CF808C003F030
:1005B000FF0884EA0C04C5F3072C56F828805EF87F
:1005C0002CC08CEA080C84EA0C04D2F804C084EA3B
:1005D0000C0A4FEA176C5BF82C40C5F3074C4FEA46
:1005E0008C080BF5806C5CF808C000F0FF0884EA0A
:1005F0000C04C3F3072C56F828805EF82CC0C3F314
:1006000007438CEA080C84EA0C04D2F808C0C0F353
:10061000072084EA0C044FEA156C5EF820005BF8B2
:100620002C504FEA830C0BF5806353F80C305D407F
:10063000FBB256F8233058404540D068454018E793
:10064000FFE7DFF860B1B246DFF854915BF82C4069
:10065000C0F3074C04F07F4456F82C6005F0FF0C03
:1006600006F47F067440C7F3072639F8266006F4BF
:100670007F46744009F5806616F82CC084EA0C04A5
:10068000D2F800C084EA0C044FEA146C81F800C070
:100690004FEA144C81F801C04FEA142C81F802C0D3
:1006A0004FEA106CCC705BF82C40C7F3074C04F099
:1006B0007F445AF82CC00CF47F0C84EA0C04C5F378
:1006C000072C39F82CC00CF47F4C84EA0C0403F09E
:1006D000FF0C16F82CC084EA0C04D2F804C084EA9B
:1006E0000C044FEA146C81F804C04FEA144C81F8F2
:1006F00005C04FEA142C81F806C04FEA176CCC7184
:100700005BF82C40C5F3074C04F07F445AF82CC02A
:100710002D0E0CF47F0C84EA0C04C3F3072C39F87B
:100720002CC00CF47F4C84EA0C0400F0FF0C16F88B
:100730002CC084EA0C04D2F808C084EA0C044FEA06
:10074000146C81F808C04FEA144C81F809C04FEAD4
:10075000142C81F80AC0CC725BF8254004F07F4469
:10076000C3F30743C0F307205AF8233039F82000B9
:1007700003F47F035C4000F47F404440F8B216F875
:1007800020004440D0684440200E0873200C487379
:10079000200A8873CC73BDE8F88F00003C6600081F
:1007A0003C5A00083C6200082DE9F04F002358B184
:1007B00052B14FF4807B802909D0C02907D0594518
:1007C00005D0981EBDE8F08F4FF0FF30FAE7802982
:1007D0007ED0C0297DD00E25C2F8F050C4780578AF
:1007E000867884EA05644578DFF878A22D0485EAE6
:1007F00006256C401460C4790579867984EA05641D
:1008000045792D0485EA06256C405460C47A057A42
:10081000867A84EA0564457A2D0485EA06256C40CB
:100820009460C47B057B867B84EA0564457B2D044C
:1008300085EA06256C40AAF5C856D46006F58064A2
:10084000A4F54065A4F5006980297CD0C77C90F8A8
:1008500010C090F8128087EA0C6790F811C0C02988
:100860004FEA0C4C8CEA082C87EA0C071761C77D0D
:1008700090F814C090F8168087EA0C6790F815C0BD
:100880004FEA0C4C8CEA082C87EA0C0757617DD0A4
:10089000C77E90F818C090F81A8087EA0C6790F825
:1008A00019C04FEA0C4C8CEA082C87EA0C079761B8
:1008B000C77F90F81CC087EA0C6790F81DC0807F46
:1008C0004FEA0C4C8CEA00204740D761594501E0C3
:1008D0005DE05EE07DD1D346B246C846D16910687E
:1008E000C1F3074601F0FF0C5AF8266035F82CC01A
:1008F00006F07F467040C1F307260CF47F4C54F895
:10090000266006F47F0686EA0C0670400E0E18F884
:10091000266070405BF823605B1C70401062566874
:1009200046405662D2F808C0072B8CEA060CC2F883
:1009300028C0D06880EA0C00D0624AD04FEA106C20
:100940005AF82C7000E026E0166907F07F477E40D9
:10095000C0F30747C0F3072C54F8277035F82CC0B4
:10096000C0B207F47F070CF47F4C87EA0C0718F835
:1009700020007E404640166350697040506396697F
:1009800046407140C2E90E612032A7E733E00A25F4
:1009900022E70C2520E7C846D0681168C0F3074756
:1009A00000F0FF0C56F8277035F82CC007F07F4791
:1009B0007940C0F307270CF47F4C54F8277007F4F4
:1009C0007F0787EA0C077940070E18F827707940EF
:1009D00000E044E05AF823705B1C794011615768CD
:1009E0004F405761916879404840C2E906100A2B90
:1009F00035D01032D0E7C84650691168C0F30747B8
:100A000000F0FF0C56F8277035F82CC007F07F4730
:100A10007940C0F307270CF47F4C54F8277007F493
:100A20007F0787EA0C077940070E18F8277079408E
:100A30005AF823705B1C7940916157684F40D76129
:100A4000916879401162D7684F405762082B06D0F1
:100A5000116979404840C2E90A101832CCE70020F9
:100A6000B0E600003C7B000870B50446AA20207068
:100A7000552060700E480D4610F8221F61710178F4
:100A8000491C0170681D608001202071281DA27121
:100A900081B2E371201D01F067FC6119093508720C
:100AA000AAB22146BDE87040012003F0F5BB00006A
:100AB000380700200021A0F13002092A01D8D1B264
:100AC0000BE0A0F14102052A01D8373804E0A0F17B
:100AD0006102052A01D85738C1B20846704700F0B4
:100AE0000F01000900EB800001EB4000C0B270472D
:100AF0002DE9FC4700270546914688463C46AA4614
:100B0000960801972CE05FEA897020D0721C41465C
:100B1000504601F017F9042201A9504600F0DCFF0D
:100B2000D8F800000199884216D02046641CE4B22F
:100B300032280ED901F0D4FB014639230A4A0BA012
:100B4000009503F02DFC4FF0FF30BDE8FC873246E6
:100B5000DDE700F0C0FFD6E72D1D08F104083F1DBA
:100B60004F45D0D30020F0E7125A00085B583130CF
:100B70004B422025735D2025733A28256429206681
:100B80006C617368D0B4CAFDBEDDB3F6B4ED5B250D
:100B900023785D21200A000010B501F029FE03F042
:100BA000CBFB00F098FF01224FF47A7421461046E7
:100BB00003F064F802F0FAFF02F0C8FD204600F0EE
:100BC00088FE03F059FB02F06DFC204600F081FE28
:100BD00001F05AFE02F01EFF07A003F0E1FB03F054
:100BE00093F800F0E9FE08A003F0DAFBBDE810403E
:100BF00009A003F0D5BB00005573617274496E699A
:100C000074204F4B210D0A000D0A20427370496E6B
:100C10006974206F6B0A00000A3D3D3D3D3D3D3D3E
:100C20003D3D3D3D3D3D3D3D3D3D3D3D3D3D3D3DF4
:100C30003D3D3D3D3D3D3D3D3D3D3D3D3D3D3D3DE4
:100C40003D3D3D3D3D3D3D3D3D3D3D3D3D3D3D3DD4
:100C50003D3D3D3D0A0A0A0070B5054600240120CD
:100C600002F01EFC00F01000A84223D015B1012DA7
:100C70001CD01FE01021012000F0C2F90A2000F072
:100C800028FE012002F00CFCC00613D52046641C8F
:100C9000E4B25028F2D301F023FB01463423064A84
:100CA00006A003F07DFB4FF0FF3070BD1021012046
:100CB00002F000FD002070BD0A5900085B58313079
:100CC0004B422025735D2025733A28256429205343
:100CD0006574506F776572446F776E206572726FBE
:100CE000722E0D0A0000000070B5A0B00E46054639
:100CF00080216846FFF7B5FA6C468DF8085010223F
:100D000031460DF10900FFF793FA02231A4611212B
:100D10002046FFF7A9FE1B22214603A002F078FB24
:100D200020B0002070BD000050434242756D5570E8
:100D30004C6F61640000000010B5D4B052AA4CA9F9
:100D400051A803F0D3F800287ED14CAB6D4A0221A4
:100D500002F0C6F8F8B10024489449944A94F4216A
:100D600005A84B94FFF77DFA664805AA8021801DEF
:100D7000FFF71AFD4C984D904E944F94509405AA4D
:100D800048A94DA8FFF73CFB52AA4CA951A803F073
:100D9000ADF848B19BE001F0A3FA014650235A4A4E
:100DA0005AA003F0FDFA92E04294439444944CAB71
:100DB00048AA0C210020459402F092F830B152AAC2
:100DC0004CA951A803F092F818B180E042A9312053
:100DD00014E04CAB48AA0221002002F081F858B17F
:100DE00001F07EFA01467C23474A52A003F0D8FA6C
:100DF0000A2002F0D3FA6AE042A9092002F0B4F80E
:100E0000002864D19DF80E019DF80C219DF8103149
:100E10009DF80F118DE80B009DF80D310F2A19D99F
:100E20004FA1554803F0CCFA01F05AFA01469DF85B
:100E30000D010DF1040C9DF810419DF80F319DF846
:100E40000E218CE81D0000E043E09DF80C0190238A
:100E5000009016E049A1484803F0B2FA01F040FAC8
:100E600001469DF80D010DF1040C9DF810419DF80F
:100E70000F319DF80E218CE81D009DF80C01972381
:100E80000090214A434803F08BFA3B4946A802F000
:100E900027FD9DF81C0100071DD001F021FA014635
:100EA0009DF819010DF1040C9DF81C419DF81B31B2
:100EB0009DF81A218CE81D009DF818010090A823C8
:100EC000114A35A003F06CFA2B49A520887503F070
:100ED00027F854B010BD01F003FA01469DF81C013B
:100EE0009DF81B2100099DF81A419DF81931CDE9A3
:100EF0000320CDE901349DF818010090A423024A93
:100F000032A0DFE708000020265900085B58313086
:100F10004B422025735D2025733A282564292074CF
:100F200068697320697320536563726574436172E5
:100F3000642E0A005B5831304B422025735D20251A
:100F4000733A2825642920BFA8C6ACC3DCC2EBC80D
:100F5000CFD6A4CAA7B0DC2E2E2E0D0A00000000AA
:100F60002530327825303278253032782530327885
:100F70002530327800000000380700202530317815
:100F80002530327825303278253032782530327865
:100F900000000000E47B00085B5831304B42202504
:100FA000735D2025733A28256429205BBFA8BAC544
:100FB0003A20253032782530327825303278253085
:100FC000327825303278205D0A0000005B583130DD
:100FD0004B422025735D2025733A28256429205B28
:100FE000BFA8BAC53A20253032782530327825306E
:100FF00032782530327825303178205D0A000000C3
:1010000070B50D46044602F04BFA20EA0501204671
:10101000BDE8704003F0BFB910B580210A2002F08E
:1010200049FB0A2002F03CFA002800D0012010BD44
:101030002DE9FC476B4C01F0D9F907464FF0080841
:101040000025694EC0E000F046FDDFF8A091B4E055
:1010500000F041FD01F0CAF907463078092837D27F
:10106000DFE800F0050D183D4D5B6A7F91009DF8AB
:101070000400AA28EBD12070012070805AE09DF86E
:101080000400552824D1708855212154401C7080BB
:1010900002204FE07088022802D0032804D01AE012
:1010A0009DF80410B18016E0B1889DF8042041EA53
:1010B0000221B180757005290BD201F011F90146AA
:1010C000B088009040F2DF23494A4AA003F068F953
:1010D00072E0032131709DF8041021543EE09DF828
:1010E0000410012968D17078401C707070882154F8
:1010F000B188491EB180401C708004201AE07078CD
:101100009DF804100844707070882154B188491EFD
:10111000B180401C708005200CE070789DF80410B0
:101120000844707070882154B188491EB180401CF9
:1011300070800620307040E070789DF804100844FC
:10114000707070882154B188491E0904090CB1805F
:1011500002D00721317001E086F80080401C7080C9
:101160002BE070789DF8041008447070708821544A
:10117000401C7080B088401E80B2B08001281CD115
:1011800086F8008019E070889DF804102154401CF6
:1011900081B271809DF804007278904203D120469C
:1011A00001F086FE08E001F09BF801464FF44D7314
:1011B0000F4A1AA003F0F4F8357001A9484600F070
:1011C000B7FB00283FF444AF01F010F907F10A0122
:1011D000884204D801F00AF9B842BFF434AFBDE840
:1011E000FC8700000F02002024000020A809002036
:1011F000B75900085B5831304B422025735D2025DC
:10120000733A28256429206C656E6774683D2564EF
:101210002C6572726F722E0A000000005B5831302C
:101220004B422025735D2025733A282564292043ED
:101230004220636865636B73756D206572722E0A58
:10124000000000002DE9F04389B00F460446012656
:10125000002501F045F80146207CA37C627C8DE8E6
:101260000D002823864A87A003F09AF87A1C2146AD
:1012700091A002F0CDF8207C4FF0010816285FD035
:1012800008DC05283BD00A286ED013286DD015281D
:101290000BD140E0172869D08B4F282867D04FF03A
:1012A000A5092B287ED099280AD001F019F801460B
:1012B000207C00909423724A84A003F071F8D5E05A
:1012C000607C68B101F00CF8014637236C4A8CA0B1
:1012D00003F066F884F8128087F835500226C9E0DA
:1012E00000F0FEFF01463023654A8EA003F058F857
:1012F000A57487F8359001F079F8B863EEE700F04F
:10130000EFFF014640235E4A8FA003F049F8022018
:1013100002F044F8ADE000F0E3FF01464623584AEE
:1013200093A003F03DF8207D617CE27C00EB01603E
:10133000A17C090401EB0221084402F081F998E044
:1013400000F0CEFF014651234D4A93A003F028F848
:1013500001F016F89A4A851841F1000600F0C0FF26
:1013600001465523464A03E03DE059E076E079E046
:1013700094A0009503F014F8280E40EA062060744B
:10138000280C40EA0640A074280A40EA0660E0748F
:10139000257503A803F03EFF9DF80C00FFF79FFBA7
:1013A000607500E01AE09DF80D00FFF798FBA0754E
:1013B0009DF80E00FFF793FBE0759DF81000FFF716
:1013C0008EFB20769DF81100FFF789FB60769DF873
:1013D0001200FFF784FBA0760A264BE087F83490D2
:1013E00009B0BDE8F08300F07BFF0146607C00900F
:1013F0006C23234A7DA002F0D3FF607C70B10220F1
:10140000A074E57400F06CFF0146E27CA07CCDE99D
:10141000000275231A4A82A002F0C2FF032629E0C7
:10142000657401222146002002F090F800F058FF78
:1014300001467D23124A83A002F0B2FF4FF47A7076
:1014400000F047FABFF34F8F8A4908688A4A00F4D0
:10145000E06010430860BFF34F8FFEE700F050FBE1
:10146000607407E097F82300A52802D084F8118063
:1014700000E0657432462146002002F067F8AFE7CD
:10148000415900085B5831304B422025735D2025BF
:10149000733A2825642920636F6D636F6D20636D37
:1014A00064203D205B2523785D2C205B25645D2C2A
:1014B000205B25645D0A00004465627567BDD3CA80
:1014C000D5CAFDBEDD000000380700205B58313072
:1014D0004B422025735D2025733A2825642920B4CA
:1014E000EDCEF3636F6D636F6D20636D64203D20FF
:1014F0005B2523785D2C206572726F720A000000F4
:101500005B5831304B422025735D2025733A2825E6
:10151000642920B9D8B1D5C9CFCEBBBBFABCECB2D7
:10152000E2210A005B5831304B422025735D2025B3
:10153000733A2825642920B4F2BFAAC9CFCEBBBB19
:10154000FABCECB2E2210A005B5831304B42202554
:10155000735D2025733A2825642920444542554768
:101560005F434D445F5452554D505445200A00008E
:101570005B5831304B422025735D2025733A282576
:1015800064292044454255475F434D445F534554C9
:101590005F525443200A00005B5831304B422025F3
:1015A000735D2025733A2825642920444542554718
:1015B0005F434D445F5245445F525443200A00004C
:1015C0000073EEBB5B5831304B422025735D202504
:1015D000733A282564292047455420525443CAB100
:1015E000BCE4B4C15B25645D0A0000005B58313087
:1015F0004B422025735D2025733A28256429204419
:10160000454255475F434D445F4745545356455205
:1016100020646174615B305D3D2564200A00000038
:101620005B5831304B422025735D2025733A2825C5
:10163000642920B0E6B1BEBAC55B25642E25645D81
:101640000A0000005B5831304B422025735D202595
:10165000733A282564292044454255475F434D4449
:101660005F5245424F4F54D6D8C6F4CFB5CDB3A341
:10167000A10A00000CED00E00400FA052DE9FE438C
:10168000714C00F0B3FE07464FF0010800266F4D85
:10169000CEE000F0ABFE074628780C282AD2DFE81F
:1016A00000F0060FC0C01A2A395B68758DA09DF83E
:1016B0000800AA281ED120704046A5F802807BE0D1
:1016C0009DF808105529F5D1042028706888215408
:1016D000401C68800DE068889DF808102154401C6B
:1016E0006880A888401C80B2A880052802D3052005
:1016F0000EE0AE8095E068889DF808102154401CEB
:101700006880A888401C80B2A8800528F2D30620F3
:101710002870EEE768889DF808102154401C80B2BC
:101720006880A988491C89B2A980022979D32044FC
:1017300030F8020CA880FF280AD900F0D1FD01463C
:10174000A8880090E423424A42A002F029FE67E004
:10175000072028706E7064E068889DF80810215496
:10176000401C688068789DF808100844687008205C
:1017700022E068889DF808102154401C6880687831
:101780009DF8081008446870092015E068889DF8E5
:1017900008102154401C688068789DF8081008449F
:1017A0006870A888042801D3001F00E0002000040E
:1017B000000CA88013D00A20287032E068889DF8B9
:1017C00008102154401C688068789DF8081008446F
:1017D0006870A888401E0004000CA88021D10B204E
:1017E000EAE768789DF8081088420BD16A8821469C
:1017F00021A001F00DFE2448067169882046FFF7FC
:1018000021FD0DE000F06CFD01469DF80820687890
:10181000CDE900024FF48A730D4A1CA002F0C0FD0E
:101820002E7002A9284800F083F800283FF431AF59
:1018300000F0DCFD07F10A01884203D800F0D6FD74
:10184000B842EED2BDE8FE83040100201E00002055
:101850004E5900085B5831304B422025735D2025DE
:10186000733A28256429206C656E3D25642C6572C9
:10187000726F722E0A0000004465627567526563DC
:101880007650726F630000003C0000205B583130DE
:101890004B422025735D2025733A28256429207347
:1018A000756D3D253032782C706B742073756D3DED
:1018B000253032782C6572726F722C64726F7020D2
:1018C000706B742E0A0000009C090020642000F058
:1018D0000DB870B5054600244FF47A7603E0304623
:1018E00000F004F8641CAC42F9D370BD70B54FF041
:1018F000E02500216C69094AAB6912785043AA6956
:101900009A42FCD002D2A3EB020302E0A4EB02064F
:101910003344194413468142F1D370BD8000002046
:101920000028FDD00021C180018141810846704717
:10193000428903899A4213D0028903681344521CD6
:1019400002811A780A7081880289914201D80021A7
:101950000181C18811B1C188491EC1800020704732
:101960004FF0FF3070470023436083600160828046
:1019700018467047428903899A42428901D2838876
:101980001A440389D21A8388521C934210D942897F
:1019900003681344521C42811970C188491CC180DC
:1019A00081884289914201D80021418100207047FD
:1019B0004FF0FF30704700002DE9F0410024144D36
:1019C000012640F20A2700F086F800F06FF880B197
:1019D00000F081F8641CE4B26E7500F081FC0146F1
:1019E0003B460C4A0CA002F0DBFC322CEBD3BDE8EA
:1019F000F08100F070F8A520687500F071FCBDE87A
:101A0000F041014640F20223024A0EA002F0C8BC97
:101A1000380700202A5A00085B5831304B422025F5
:101A2000735D2025733A2825642920464D313735CA
:101A300058585F496E6974206572726F722E0D0A74
:101A4000000000005B5831304B422025735D20259B
:101A5000733A2825642920464D31373558585F4957
:101A60006E6974204F4B2E0D0A00000010B50E4C0D
:101A70004021204602F0AFFF0A20FFF72AFF00F0C6
:101A80002AF84021204602F0A8FF0A20FFF721FF94
:101A900000F021F8012001F003FD202801D00120F1
:101AA00010BD002010BD00000014004810B500F06B
:101AB00012F801F07DFEFFF7D9FF10B14FF0FF30B3
:101AC00010BD00F008F8002001F0B8FB032001F081
:101AD000FDFD002010BD704710B5002303E010F895
:101AE000014BCC545B1C9342F9D3002010BD000085
:101AF0000A4601460148FFF7EFBF000000F0010869
:101B0000F8B516480024164D009002F0FFFE284656
:101B100002F0BEFE342002F0ADFE02F0B1FE6E1403
:101B2000042269462846FEF7E3FF48B100F0D8FBDF
:101B3000014656230B4A0CA002F032FC0120F8BDEE
:101B4000241D2D1DB442EBD300F0CAFB01465D23DA
:101B5000044A10A002F024FC0020F8BD665544336E
:101B600000FC0108205A00085B5831304B42202508
:101B7000735D2025733A2825642920466C617368BB
:101B800054657374206661696C6564212121200AA3
:101B9000000000005B5831304B422025735D20254A
:101BA000733A2825642920466C6173685465737400
:101BB000204F4B212121200A000000002DE9F05F79
:101BC000154689468346FFF786FF02F09FFEABF17C
:101BD0000060C0F30906C6F580644FEA9028A5426C
:101BE00000D82C46FFF777FF4FF0006000EB88200D
:101BF00082464FF480622849FFF76EFF00270EE00F
:101C00002548F119405CFF2808D000F069FB014627
:101C10007D23224A22A002F0C3FB02E07F1CA742E0
:101C2000EED3A74214D2504602F032FE342002F026
:101C300021FE0020184A04E019F800108319401C06
:101C4000D154A042F8D350464FF48072124906E0B6
:101C5000A0074FEA940200D0521C4946584600F0B3
:101C600071F8A5420CD100F03BFB014693230B4ACF
:101C700013A002F095FB02F003FE0020BDE8F09FE8
:101C8000281BA144A344002685B24FF4806408F1C8
:101C90000108A542A6D8A4E70F030020DB590008DD
:101CA0005B5831304B422025735D2025733A28253F
:101CB000642920D0E8D2AAB2C1B3FD2E0A000000E8
:101CC0005B5831304B422025735D2025733A28251F
:101CD000642920D0B4CDEAB3C9B9A62E0A00000009
:101CE0002DE9FC410024124D0E4607460094019454
:101CF000324639462846FFF761FF082269462846E2
:101D0000FFF7EAFE324639466846FEF7BCFA18B1DC
:101D1000641C052CECD301E0052C06D305A002F0D1
:101D20003FFB4FF0FF30BDE8FC810020FBE70000E7
:101D300000F00108D0B4666C617368B4EDCEF32195
:101D4000200D0A002DE9F84390468946064602F028
:101D5000DDFD00254FF47A771AE00024342002F0EC
:101D600089FD59F82510304602F0E0FDB8B1012098
:101D7000FFF7AFFD2046641CB842F8D900F0B0FA76
:101D800001464123074A08A0009602F009FB6D1C9A
:101D90004545E2D302F074FD0020BDE8F883361D0E
:101DA000F5E70000CC5900085B5831304B42202544
:101DB000735D2025733A2825642920D0B4666C61B0
:101DC0007368B3ACCAB12C205B307825785D2C20C9
:101DD000B4EDCEF3212121200A00000038B5022005
:101DE00003F0EAFC012003F067FC144C012802D147
:101DF00003F06CFC60801148618808304088411A0B
:101E00000E481538202911DD0C4C01214170163C7B
:101E10000B20207000F064FA01462078009040F218
:101E20006923074A07A002F0BBFA01E000214170D4
:101E3000BDE83840022003F0DDBB0000AA0000200E
:101E4000A47B00085B5831304B422025735D202570
:101E5000733A28256429205B4B65793A2025645D17
:101E60000A0000002DE9F843202003F0A5FC012022
:101E700003F022FC3A4F012802D103F02DFC7880B8
:101E8000DFF8DC90798809F10809A9F12E06B9F884
:101E900002000025401A741D4FF0010820280EDDB5
:101EA00084F80180357000F01BFA0146307800900C
:101EB00040F2BA232B4A2CA002F072FA00E06570BF
:101EC000202003F097FB402003F076FC012003F074
:101ED000F3FB012802D103F0FFFBB880B9F804003E
:101EE000B988401A20280FDD84F802800A2030705B
:101EF00000F0F6F901463078009040F2CF23194AFD
:101F000021A002F04DFA00E0A570402003F072FB22
:101F1000802003F051FC012003F0CEFB012802D108
:101F200003F0DAFBF880B9F80600F988401A202897
:101F30000FDD84F803800920307000F0D1F90146EC
:101F40003078009040F2E323064A07A002F028FA16
:101F500000E0E570BDE8F843802003F04BBB0000D3
:101F6000BA000020AD7B00085B5831304B42202581
:101F7000735D2025733A28256429205B4B65793AE7
:101F80002025645D0A0000005B5831304B4220255B
:101F9000735D2025733A28256429205BB7B5BBD82B
:101FA0004B65793A2025645D0A0000002DE9F84F61
:101FB0004FF4806A504603F0FFFB012003F07CFBE6
:101FC000294D012802D103F08DFBA880264FA98856
:101FD0000837A7F13E06B8884FF00109401A4FF0C4
:101FE000000806F1090420280FDD84F8029008207B
:101FF000307000F075F901463078009040F22633D9
:102000001A4A1BA002F0CCF901E084F80280504685
:1020100003F0F0FA4FF4006A504603F0CDFB0120C4
:1020200003F04AFB012802D103F05CFBE880F8884A
:10203000E988401A20280FDD84F8039007203070CB
:1020400000F04EF901463078009040F23A33074AEA
:1020500007A002F0A5F901E084F803805046BDE82E
:10206000F84F03F0C7BA0000CA000020B67B000892
:102070005B5831304B422025735D2025733A28256B
:102080006429205B4B65793A2025645D0A000000D5
:102090002DE9F8434FF40057384603F08DFB01203B
:1020A00003F00AFB374D012802D103F021FB6880C1
:1020B000344E69880836A6F14E047088401A2028EC
:1020C0000CDD0220207000F00BF901462078009012
:1020D00040F289132C4A2DA002F062F9384603F031
:1020E00089FA4FF48049484603F066FB012003F06B
:1020F000E3FA012802D103F0FBFAA880B088A9888E
:10210000DFF88080401A0027A8F1390820280DDD6B
:102110000120207000F0E4F80146207800904FF490
:10212000CF73194A19A002F03BF901E088F8027058
:10213000484603F05FFA4FF48059484603F03CFBF1
:10214000012003F0B9FA012802D103F0D1FA288066
:1021500030882988401A20280DDD0320207000F0E7
:10216000BFF80146207800904FF4DA73064A07A0C2
:1021700002F016F901E088F800704846BDE8F8431F
:1021800003F038BADA000020927B00085B58313047
:102190004B422025735D2025733A28256429205B56
:1021A0004B65793A2025645D0A0000002DE9F84F5F
:1021B0004FF4001A504603F0FFFA012003F07CFAB6
:1021C0003D4E012802D103F099FA7080DFF8E890C3
:1021D000718809F108090127B9F80200A9F15E0523
:1021E000401A4FF0000805F1110420280EDD0620EA
:1021F000287000F075F801462878009040F2062318
:102200002E4A2FA002F0CCF8677001E084F801801C
:10221000504603F0EFF94FF4800A504603F0CCFA31
:10222000012003F049FA012802D103F067FAB080D7
:10223000B9F80400B188401A20280EDD0520287066
:1022400000F04EF801462878009040F21B231B4A0C
:102250001BA002F0A5F8A77001E084F802805046A8
:1022600003F0C8F94FF4000A504603F0A5FA012024
:1022700003F022FA012802D103F040FAF080B9F805
:102280000600F188401A20280EDDE770042028702F
:1022900000F026F801462878009040F23123074AE2
:1022A00007A002F07DF801E084F803805046BDE805
:1022B000F84F03F09FB90000EA0000209B7B000864
:1022C0005B5831304B422025735D2025733A282519
:1022D0006429205B4B65793A2025645D0A00000083
:1022E0001FB50D4802F096FF0B48403890F8421099
:1022F00090F8464090F8453090F844208DE81E0054
:1023000090F8413090F8402004A10B4802F058F8B2
:1023100004B0094810BD0000780700202532782558
:102320003032782530327820253032783A253032F4
:10233000783A253032780000CC0A002010B5094CDC
:10234000FF202070FFF74AFDFFF78CFDFFF72EFE00
:10235000FFF79EFEFFF72AFF2078BDE8104002F04D
:10236000D1BC000094000020034610B500200246B6
:1023700003E09C5C521C2044C0B28A42F9DB10BDD1
:1023800000B591B014210BA8FDF76BFF0BA802F06C
:1023900041FF2C216846FDF764FF9DF82C00FEF7F5
:1023A0009EFB05909DF82D00FEF799FB04909DF88B
:1023B0002E00FEF794FB03909DF82F00FEF78FFB95
:1023C00006909DF83000FEF78AFB02909DF83100E0
:1023D000FEF785FB01909DF83200FEF780FB009030
:1023E0006846FDF7D1FE11B0002100BD0148C0686C
:1023F000704700002C000020064B4FF400411A7873
:10240000501C187004481AB100221A7002F0E3BA86
:1024100002F0E3BA88000020000800480A21B0FB5F
:10242000F1F201FB1202B0FBF1F002EB0010C0B2BE
:1024300070470000002909D1054A00284FF0020129
:10244000104601D002F0C9BA02F0C5BA70470000C8
:10245000000400482DE9F041144E00254FF4805748
:10246000022003F0A9F9012003F026F9012803D185
:1024700003F02CF926F81500022003F0BBF83C46C7
:10248000641EFDD16D1C142DEAD30949012036F8D4
:1024900010304A88401C1A444A801428F7D390B25E
:1024A0001322B0FBF2F04880BDE8F081EC0A002076
:1024B000B20000202DE9F0412E4D00244FF4805849
:1024C00005F1280605F15007202003F075F90120D9
:1024D00003F0F2F8012803D103F0FEF825F8140008
:1024E000202003F087F8402003F066F9012003F074
:1024F000E3F8012803D103F0EFF826F81400402098
:1025000003F078F8802003F057F9012003F0D4F8A5
:10251000012803D103F0E0F827F81400802003F02D
:1025200069F84046401EFDD1641C142CCCD31249DE
:1025300001204A8835F810301A444A808A8836F8D3
:1025400010301A448A8037F81030CA88401C1A4468
:10255000CA801428EDD34A881320B2FBF0F24A80D7
:102560008A88B2FBF0F28A80CA88B2FBF0F0C88099
:10257000BDE8F081140B0020C20000202DE9F047D7
:10258000244D00244FF480684FF400694FF4805AC2
:1025900005F128064746404603F00EF9012003F0F6
:1025A0008BF8012803D103F09DF825F81400384674
:1025B00003F020F84F46484603F0FEF8012003F0F0
:1025C0007BF8012803D103F08DF826F81400384673
:1025D00003F010F85046401EFDD1641C142CD9D3D2
:1025E0000D4901208A8835F810301A448A8036F85F
:1025F0001030CA88401C1A44CA801428F2D38A8832
:102600001320B2FBF0F28A80CA88B2FBF0F0C880D7
:10261000BDE8F0878C0B0020D20000202DE9F05F90
:10262000324D00244FF4005A4FF4804B4FF4805940
:1026300005F1280605F150085746504603F0BCF84E
:10264000012003F039F8012803D103F051F825F8EF
:102650001400384602F0CEFF5F46584603F0ACF84F
:10266000012003F029F8012803D103F041F826F8EE
:102670001400384602F0BEFF4F46484603F09CF86F
:10268000012003F019F8012803D103F031F828F8EC
:102690001400384602F0AEFF7F1EFDD1641C142CDE
:1026A000CAD31349012043464A8835F810402244D2
:1026B0004A808A8836F8104022448A8033F81040D5
:1026C0000A88401C22440A801428EDD34A8813202B
:1026D000B2FBF0F24A808A88B2FBF0F28A800A8864
:1026E000B2FBF0F00880BDE8F09F0000DC0B00209A
:1026F000E20000202DE9F05F324D00244FF4001974
:102700004FF4800A4FF4000B05F1280605F150073D
:10271000C846484603F050F8012002F0CDFF0128DA
:1027200003D102F0EBFF25F81400404602F062FFEF
:10273000D046504603F040F8012002F0BDFF0128CA
:1027400003D102F0DBFF26F81400404602F052FFEE
:10275000D846584603F030F8012002F0ADFF0128BA
:1027600003D102F0CBFF27F81400404602F042FFED
:102770004FF48050401EFDD1641C142CC8D3124964
:1027800001204A8835F810301A444A808A8836F881
:1027900010301A448A8037F81030CA88401C1A4416
:1027A000CA801428EDD34A881320B2FBF0F24A8085
:1027B0008A88B2FBF0F28A80CA88B2FBF0F0C88047
:1027C000BDE8F09F540C0020F200002010B5A0B02E
:1027D000044680216846FDF744FD012368468DF8D4
:1027E00008401A461946FEF73FF920B0002010BDF8
:1027F00070B540F2135002F0D7FC084D4FF400447E
:10280000012223461146284602F021FA2346284693
:10281000BDE870400322002102F03DBA00080048E4
:1028200013B50C466846FDF76DFD017E2170017DF4
:1028300064396170017C491CA170017BE170017AEF
:1028400008312171017961710078A07104E01838B4
:102850002071E078401CE07020791828F7D204E05D
:102860003C3860712079401C207160793C28F7D297
:1028700004E03C38A0716079401C6071A0793C286C
:10288000F7D200201CBD00002DE9FC4127212A4879
:10289000FDF7E7FC29480024082104600E30FFF70B
:1028A00027F9254864212830FDF7DBFC244F384602
:1028B00000F0C6FE214D234E0E352868B0420BD1E4
:1028C00021A001F06DFDFFF70BFD014646232E4AC6
:1028D0002EA001F065FD15E035A001F061FDFFF7C8
:1028E000FFFC01464B23284A41A001F059FD384620
:1028F00000F0A6FE11480821801E446110302E60B1
:10290000FFF7EEF9FFF7ECFC01460220CDE90004E9
:1029100052231D4A404801F043FDFFF7E1FC014608
:102920003EA241A0CDE900025323174A41A001F085
:1029300037FDBDE8FC810000100700202E000020BC
:10294000FFF3255CAE5634120A0A0A3D3D3D3D3D7B
:102950003D3D3D3D3D3D3D3D3D3D3D3D3D3D3D3DA7
:102960003D3D3D3D3D3D3D3D3D3D3D3D3D3D3D3D97
:102970003D3D3D3D3D3D3D3D3D3D3D3D3D3D3D3D87
:102980003D3D3D3D3D3D0A00E65900085B58313074
:102990004B422025735D2025733A28256429200D9C
:1029A0005538537562C6F4B6AF4170700A00000026
:1029B0000A0A0A2A2A2A2A2A2A2A2A2A2A2A2A2AD7
:1029C0002A2A2A2A2A2A2A2A2A2A2A2A2A2A2A2A67
:1029D0002A2A2A2A2A2A2A2A2A2A2A2A2A2A2A2A57
:1029E0002A2A2A2A2A2A2A2A2A2A2A2A2A2A0A0091
:1029F0005B5831304B422025735D2025733A2825E2
:102A00006429200D5538537562B3F5B4CEC6F4B6BB
:102A1000AF4170700A000000687C000831313A3123
:102A2000323A3037000000004A616E2020332032F5
:102A3000303139005B5831304B422025735D202501
:102A4000733A28256429200A20CEC4BCFEB1E0D206
:102A5000EBCAB1BCE42C20D4C2C8D5C4EA2025738B
:102A600020CAB1B7D6C3EB2573200A001CB50446B3
:102A7000C0792C4B06284DD2DFE800F04C030E2124
:102A80003743294901200870FFF72AFC01464FF41B
:102A90009573264A26A010E000220221104600F07D
:102AA000AFFD207A01280BD0022808D1FFF718FCCF
:102AB00001464FF49C731D4A28A001F071FC1CBD17
:102AC000FFF70EFC014640F23313184A2FA001F025
:102AD00067FCBFF34F8F38480168384A01F4E06162
:102AE00011430160BFF34F8FFEE7082204F1080194
:102AF0001846FFF763F800220421104600F080FD1D
:102B00001CBD082269461846FEF7E6FF684600F03D
:102B1000B5FA1CBDFFF7E4FB01464FF4A673034A68
:102B200027A0CAE700F80108010000207C5900082E
:102B30005B5831304B422025735D2025733A2825A0
:102B4000642920726563762073797374656D2069DA
:102B50006E666F2061636B2E2E0A00005B58313069
:102B60004B422025735D2025733A28256429204295
:102B70006C7565426C7565746F6F74685F526573D0
:102B8000657420726571202E0A0000005B58313098
:102B90004B422025735D2025733A2825642920CADD
:102BA000D5B5BDD6F7B0E5B5C4B8B4CEBBCFB5CDBD
:102BB000B3C7EBC7F32E0A000CED00E00400FA05E2
:102BC0005B5831304B422025735D2025733A282510
:102BD000642920B4EDCEF32E0A00000070B58AB04F
:102BE000044600200090019002900390E0790128B3
:102BF0000BD0022810D0032878D0FFF771FB0146D4
:102C000040F202236B4A6CA041E0207A002801D0F8
:102C100001F086F90AB070BD60880828FAD3A06870
:102C20000490A089ADF81400062204A969A000F060
:102C3000EFFBA57BE47BFFF753FB014640F26F13EC
:102C40005C4A66A001F0ACFB08AA07A906A801F03F
:102C50004DF958B101F064F969460120FEF744F8D6
:102C6000FFF73EFB014640F275130EE09DF8180099
:102C700004280FD001F054F969460120FEF734F81A
:102C8000FFF72EFB014640F281134A4A5AA001F099
:102C900087FBBFE707AB04AA2946002000F020F914
:102CA00058B101F03DF969460120FEF71DF8FFF724
:102CB00017FB014640F28B13E7E704EB8500C0B237
:102CC000694600F051F960B101F02AF96946012026
:102CD000FEF70AF8FFF704FB01464FF4CC73D4E784
:102CE00004E069460020FDF7FFFF91E7A06804902B
:102CF000A089ADF81400A67BE07B00EB8600C5B28E
:102D0000FFF7EEFA014640F2C1132A4A45A001F04E
:102D100047FB01F005F908AA06A907A801F0E6F8A3
:102D200028B1FFF7DDFA01464FF4E3730BE006AB81
:102D300004AA3146002000F0D3F870B1FFF7D0FAB2
:102D400001464FF4E8731B4A3EA001F029FB01F055
:102D5000E7F8012001F0F2FA5CE704F11006082D13
:102D600011D03146284600F047F900B3FFF7B8FA12
:102D700001464FF4FA730F4A3BA001F011FB01200A
:102D800001F0DCFA44E70F213046FFF7EDFAE17F6E
:102D90008842AAD13146082000F02EF938B1FFF759
:102DA0009FFA01464FF4F473024A38A0E5E7002089
:102DB000E6E700008F5900085B5831304B42202570
:102DC000735D2025733A2825642920B4EDCEF32EB7
:102DD0000A0000006B657941000000005B5831304B
:102DE0004B422025735D2025733A2825642920D184
:102DF000B0BFA80D0A0000005B5831304B422025BF
:102E0000735D2025733A282564292043617264206C
:102E1000417574686F72206661696C65642E0D0A75
:102E2000000000005B5831304B422025735D2025A7
:102E3000733A2825642920D0B4BFA8D1B0BFA80D0B
:102E40000A0000005B5831304B422025735D20257D
:102E5000733A2825642920575249544520666169F0
:102E60006C65642E0D0A00005B5831304B42202502
:102E7000735D2025733A2825642920D0B4BFA8BFEC
:102E8000E978CAA7B0DC0D0A000000005B583130B9
:102E90004B422025735D2025733A2825642920D0D4
:102EA000B4BFA8BFE938CAA7B0DC0D0A0000000013
:102EB00070B50D460446FEF70EFEA2794AB1012A0E
:102EC0000DD0022A0BD129462046BDE87040FFF7FD
:102ED00085BE29462046BDE87040FFF7C7BD70BDDE
:102EE00000B587B010B1012802D004E0602000E0F6
:102EF00061208DF8040088008DF8050010788DF8A9
:102F0000060050788DF8070090788DF80800D0788A
:102F10008DF8090010798DF80A0050798DF80B00B2
:102F200018788DF80C0058788DF80D0098788DF889
:102F30000E00D8788DF80F00012000F005FAFEF79A
:102F40006BF805A8009004AB0C2201A90E2000F03C
:102F5000B7F838B9082000F0A3FA000702D500201E
:102F600007B000BD0120FBE77FB504460D460120F8
:102F700000F0EAF930228DF808208DF80940FEF7BC
:102F80004BF803A800902B46022202A90C2000F067
:102F900097F80446FFF7A4F901460398CDE9000429
:102FA00040F2C713064A07A001F0FAF914B90398D2
:102FB000802802D0012004B070BD0020FBE7000093
:102FC000647B00085B5831304B422025735D20251F
:102FD000733A2825642920726563655F6269746CA1
:102FE000656E3A202564202C726573756C74203DE3
:102FF000202564200A00000030B504468BB00D4641
:10300000012000F0A1F9A0218DF814108DF81540D1
:1030100009AC01AB022205A90C20009400F050F885
:1030200000B101209DF8041001F00F010A2901D020
:10303000012200E00022104316D1052000F084F99F
:1030400001AB102229460C20009400F039F800B1A1
:1030500001209DF8041001F00F010A2901D001217F
:1030600000E00021084300D001200BB030BD10B5B6
:10307000FEF731FDBDE81040FDF75EBE30B5A1B0F2
:10308000044680216846FDF7ECF8206802906068ED
:103090006D4603900523002208212846FDF7E4FC35
:1030A0001222294602A000F0B3F921B0002030BD61
:1030B00050434242756D55704C6F616400000000D2
:1030C0002DE9F04799461446884607460026DDF864
:1030D00020A0FDF7A1FFFEF7FEFC20210B2001F050
:1030E0005AF97F21042001F056F90E2F07D14146ED
:1030F000204601F043F980210D2000F0DBFA802109
:103100002A2000F0D7FA3946012001F044F9FEF7F1
:10311000E2FC042000F0C4F90546C00703D02025D6
:103120000C2F5CD076E00E2F11D0042F12D00C2F74
:10313000EDD1680739D5C4B3202C414629D92020C8
:1031400001F01CF9203CE4B208F1200825E0E80673
:10315000DDD560E0680717D5B4B1202C414604D214
:10316000204601F00BF9002406E0202001F006F9CA
:10317000203CE4B208F1200880210D2000F09AFAEA
:103180000421084601F007F96806C0D5002CBED11D
:1031900041E0204601F0F2F8002480210D2000F0EB
:1031A00089FA0421084601F0F6F8280712D56806C6
:1031B00010D57CB90A2000F073F920280AD909EB50
:1031C0000601202000F05EF92036F6B20821042026
:1031D00001F0E1F8A8069AD5002C98D100250A2024
:1031E00000F05EF907460C2000F05AF900F00704E1
:1031F0000FB904B1012709EB0601384600F042F986
:10320000F019C0B21CB1C0000838011900E0C100BB
:10321000CAF800101DB9062000F042F905468021C9
:103220000C2000F047FA2021012001F0B4F88021A1
:103230000D20FDF7E5FE2846BDE8F08710B50446F1
:10324000FEF749FC24B1012C45D0022C5DD05AE098
:1032500010210C2000F02EFA4021152000F02AFA4F
:103260000021122001F097F80021132001F093F8BB
:103270008021392000F01EFA01213C20FDF7C0FE1C
:1032800007213D20FDF7BCFE03213E20FDF7B8FEDF
:10329000FF21332001F07FF80721322001F07BF875
:1032A000F121272001F077F83F21282001F073F861
:1032B0000121292001F06FF84021262001F06BF850
:1032C0000D21192001F067F88421182001F063F81E
:1032D0004021362015E010210C2001F05CF88321FC
:1032E000122001F058F88321132001F054F8F42142
:1032F000272001F050F8F421232001F04CF80021A0
:1033000020E001F048F8002010BD10210C2001F051
:1033100042F89221122001F03EF89621132001F08C
:103320003AF8F421272001F036F82021282001F076
:1033300032F84F21232001F02EF82021292001F01E
:103340002AF807211520DCE770B540F29F610024C0
:103350004843611E01224FF6FF7301EBC0011D11AE
:1033600002EB4400B1FBF0F0984202D3641CAC4283
:10337000F6D385B2C4F307212A2000F09BF9E1B20D
:103380002B2001F008F8290A2C2001F004F8E9B2FA
:103390002D2001F000F8002070BD000070B505463A
:1033A00000241A4E09E00A20FEF793FA2046641C16
:1033B000C82802DD4FF0FF3070BD2021304601F0FB
:1033C00041FC0028EFD10821304601F006FBFEF752
:1033D0007DFA0821304601F0FEFAFEF777FA002464
:1033E0000FE0FEF778FB1021304601F0F6FAFEF709
:1033F0006DFA1021304601F0EEFAFEF767FA641C10
:10340000E4B2AC42EDD3002070BD000000040048DF
:103410007CB515460E460446FEF762FF01465C2366
:10342000094A0AA0CDE9004500F0BAFF002404E0F3
:10343000315D11A000F0B4FF641CAC42F8D3BDE8CC
:103440007C400FA000F0ACBF075A00085B58313039
:103450004B422025735D2025733A2825642920637B
:10346000616C6C2062792025732C6C656E3D25643F
:103470002C70646174613A002530325800000000FD
:103480000A00000070B50D460646002405E009203C
:1034900000F006F82855641CE4B2B442F7D370BDBE
:1034A00000F020B810B501F053FFFEF719FF0146F8
:1034B000BDE810406A23024A02A000F071BF00007C
:1034C000757B00085B5831304B422025735D202509
:1034D000733A2825642920B3F5CABCBBAF205254E7
:1034E000430A000070B504464FF400454FF0904683
:1034F0002946304601F06FFA802040EA4400C0B20D
:1035000000F0C0F900F0BAF904462946304601F04F
:1035100064FA204670BD2DE9F0410E4607464FF48F
:1035200000444FF090452146284601F054FA7E2091
:1035300000EA470000F0A6F9304600F0A3F9214662
:103540002846BDE8F04101F048BA00003EB50C46FF
:10355000AA21217055216170E071101DA081012008
:10356000A073D01C81B2154604F10E00FEF7FCFEDC
:1035700061194874FEF7B4FE0146207CA37C627C8E
:103580008DE80D001023094A09A000F009FF05F19C
:1035900012021546214615A0FFF73AFF03B0AAB262
:1035A0002146BDE83040002000F076BE34590008C6
:1035B0005B5831304B422025735D2025733A282516
:1035C000642920704672616D652D3E686561642EC8
:1035D000636D64203D205B2523785D2C205B256492
:1035E0005D2C205B25645D0A00000000B7A2CBCDF6
:1035F000CAFDBEDDB8F8B2FAB2E2C8EDBCFE00000A
:10360000F0B5A1B00E460746154680216846FCF786
:1036100028FE6C468DF8085033463A460121204674
:10362000FDF722FA0B22214602A0FFF7F1FE21B09E
:103630000020F0BD53656E644D73675F41434B00DE
:103640001CB56946FFF7ECF89DF80100FEF7E6FEB1
:10365000164B03F8400F9DF80200FEF7DFFE58708E
:103660009DF80300FEF7DAFE98709DF80000FEF763
:10367000D5FED8709DF80400FEF7D0FE18719DF8B5
:103680000500FEF7CBFE58719DF80600FEF7C6FE5A
:103690009871074801681981406858810020D860F6
:1036A00018610248403001F0E3FD1CBD38070020DE
:1036B0008C00002070B50C460546FFF7F1FE40EA8D
:1036C0000401284600F067FE002070BD70B5044676
:1036D000FEF701FA1420FFF7E3FE00F00300A0421A
:1036E00001D1002070BD34B1012C06D0022C0ED0C7
:1036F000032C0ED006E0032100E001211420FDF789
:103700007FFC0546C820FEF7E4F8284670BD02217C
:10371000F4E703211420FFF7CDFFF2E770B540F284
:10372000135001F041FD084D4FF40054012223468F
:103730001146284601F08BFA23462846BDE8704022
:103740000322002101F0A7BA0008004810B50024A8
:1037500018210C48FCF785FD0A48092104EB4402B6
:1037600000EBC2025170641CF8D001218171342138
:10377000C171FFF7D3FF01223421BDE810400020C2
:1037800000F07CBAB40A002058B109280CD00A28ED
:103790000DD00123401E834003EA01001146FEF7CD
:1037A00049BE11460020FAE711460120F7E77047AD
:1037B0002DE9F04140F2115001F0F6FC40F21650B4
:1037C00001F0F2FC40F2125001F0EEFC4FF4004424
:1037D00001224FF0904523461146284601F037FA62
:1037E000234603220021284601F055FA214E0122EA
:1037F00040231146304601F02AFA402303220021DB
:10380000304601F048FA1C4F012208231146384681
:1038100001F01DFA082303220021384601F03BFA8B
:10382000012220231146384601F011FA20230322F9
:103830000021384601F02FFA1023012200213846DA
:1038400001F005FA102303220021384601F023FA83
:103850004021304601F0C1F82146284601F0BDF86C
:103860002021384601F0B9F83846BDE8F04108217A
:1038700001F0B1B80014004800040048A52000F091
:1038800001B800002DE9F041144F05460024280638
:103890004FF02001384602D501F09FF801E001F019
:1038A0009AF80821384601F098F80120FEF71EF832
:1038B0006806060E1021384601F0C4F940EA0605F4
:1038C0000821384601F087F80120FEF70FF8641C44
:1038D000E4B2082CDBD32846BDE8F08100040048A0
:1038E0002DE9F04105460C460846FCF7C5FC0646A6
:1038F00000230FE0E05CFDF7DDF80746E0184078B4
:10390000FDF7D8F803EBD37105EB610140EA07102E
:1039100008709B1CB342EDDB06EBD6704010BDE88F
:10392000F081000010B5A0B080216846FCF799FC3A
:103930006C4602A827220649FCF77AFC01230022E4
:1039400027212046FDF790F820B0002010BD000090
:103950001007002000B5A1B080216846FCF781FC6B
:103960000549684603230968029100220421FDF7F6
:103970007BF821B0002000BD2E0000207047000021
:103980001E48016841F00101016001688907FCD50A
:1039900041681B4A1140416041681A4A1140416028
:1039A000416821F440014160016B174A11400163F5
:1039B0000168164A11400160C16A154A1140C1628E
:1039C000016B40F2031291430163016B21F48031DA
:1039D0000163016B21F000410163416B21F00101A2
:1039E0004163D0F8C01021F48031C0F8C01000212C
:1039F0008160C0F8CC1001F0F7BC0000001002405C
:103A00000C00FF08FFFFC277BFFFFFBFFFFFF2FE02
:103A1000F0FFFF3F10B540F61A1001F039FB012806
:103A20001ED040F61B1001F033FB01281FD040F6DA
:103A30001C1001F02DFB012820D040F61D1001F0D4
:103A400027FB012821D040F61E1001F021FB0128A0
:103A500022D040F61F1001F01BFB012823D02AE0E2
:103A6000FEF73EFC01466823154A16A021E0FEF74A
:103A700037FC01466C23124A1DA01AE0FEF730FC09
:103A8000014670230E4A23A013E0FEF729FC0146ED
:103A900074230B4A28A00CE0FEF722FC0146782391
:103AA000074A2FA005E0FEF71BFC01467C23044AD1
:103AB00035A000F075FCBDE8104001F009BA000027
:103AC000F55900085B5831304B422025735D2025A5
:103AD000733A2825642920CFB5CDB3CDE2B2BFB863
:103AE000B4CEBBB9DCBDCCB8B4CEBB0A000000007C
:103AF0005B5831304B422025735D2025733A2825D1
:103B0000642920CFB5CDB3C9CFB5E7B8B4CEBB0AD1
:103B1000000000005B5831304B422025735D2025AA
:103B2000733A2825642920CFB5CDB3C8EDBCFEB8C3
:103B3000B4CEBB0A000000005B5831304B42202558
:103B4000735D2025733A2825642920CFB5CDB3B6FF
:103B5000C0C1A2BFB4C3C5B9B7B8B4CEBB0A0000D8
:103B60005B5831304B422025735D2025733A282560
:103B7000642920CFB5CDB3B4B0BFDABFB4C3C5B9E3
:103B8000B7B8B4CEBB0A00005B5831304B42202599
:103B9000735D2025733A2825642920CFB5CDB3B5B0
:103BA000CDB9A6BAC4B8B4CEBB0A000010B5042083
:103BB00001F05EFC0B480C490C4B0068B0FBF1F2C5
:103BC000B0FBF1F14FF47A7041434FF0E0201A70EE
:103BD000026942F0020202614161016941F00101A2
:103BE000016110BDFC00002040420F008000002059
:103BF00070B5174D154C0121284601F0F1FC002845
:103C00001BD00121284601F0E7FC617920790022D0
:103C1000FFF7BAFD2079401C207120790B280CD1C8
:103C2000E08A401C80B2E082A18A884206D2E18A02
:103C30002069405C60710020207170BDA52020705B
:103C40002846BDE8704001F065BC0000B40A0020C1
:103C5000002C014010B501218C07204601F0C0FC6A
:103C6000002807D00121204601F0B6FC0248C168B7
:103C7000491CC16010BD00002C0000202DE9FF414F
:103C80000446204816460F4630F8140001F08CFA1E
:103C90001C4D123555F8240001F0FCFB6B20ADF8EB
:103CA00000000020ADF80C00ADF80200ADF80400F3
:103CB00002978DF80E0055F82400694601F038FC93
:103CC000012E10D155F82400012101F081FC55F896
:103CD0002400012101F028FCA5F118000122005D5B
:103CE000114601F0A3F855F8240001F0CDFB55F87A
:103CF000240001F014FC002C02D1286801F00AFC19
:103D0000BDE8FF813200002010B540F2115001F0F3
:103D10004BFA40F2125001F047FA4FF4A36001F061
:103D200043FA00F05DFE01F075FCFEF793FBFEF731
:103D3000C1FBFEF723FCFEF771FCFEF7DBFCFEF790
:103D4000CFFA0146BDE8104040F25533014A02A0C7
:103D500000F026BBBF7B00085B5831304B4220256A
:103D6000735D2025733A28256429205473694B65B7
:103D700079496E6974204F4B0A0000002DE9F04329
:103D80008DB00646002001900290039004900590AB
:103D9000086008710C4620218DF818108DF81C0061
:103DA0008DF820008DF8240080211220FDF728F9DD
:103DB00080211320FDF724F980210E2000F0EBFA7A
:103DC00000211D2000F0E7FA0DF128080DF104098B
:103DD00004AD8DF828609DF818008DF829009DF835
:103DE0001C100D2000F0D7FA9DF82420214608F180
:103DF0000200FCF71DFA9DF82400801CC7B20120C8
:103E0000FFF7A2FA02AB3A460AA90C20CDF80090BF
:103E1000FFF756F9202867D000072AD50E20FFF7B4
:103E20003FFB00F01F0709AB08AA06A9384600F0BF
:103E30001EF907A9384600F0F9F89DF8242002A9D8
:103E400004A8FCF7F5F99DF824009DF820202844EB
:103E500010F8011D11400170002205E0A05CA95C72
:103E60000843A054521CD2B29DF824008242B0D222
:103E7000F4E70198082802D9C0F3C70600E001263C
:103E80009DF8240018B1311806292DD107E0052E20
:103E90002AD1324602A92046FCF7CAF916E0284486
:103EA000324602A9401EFCF7C3F900200CE09DF841
:103EB000241001440A19294412F8013D11F8011C8B
:103EC0000B43401C1370C0B2B042F0D3207861782D
:103ED000E2784840A178514048402179884203D196
:103EE00000200DB0BDE8F0830120FAE770B515465B
:103EF0000E46044600F038F880B9617871B921782F
:103F000089090CD131469320FFF738FF30B92A4692
:103F10003146932000F059F8002800D0012070BDF0
:103F20001FB550208DF8040000208DF805000146D3
:103F30000D2000F030FA80211220FFF7BBFB80211A
:103F40001320FFF7B7FB08210846FDF759F80120B9
:103F5000FFF7FAF903A8009002AB022201A90C2096
:103F6000FFF7AEF804B010BD1FB504460020029064
:103F700080211220FDF744F880211320FDF740F83E
:103F800008211320FFF796FB07210D2000F003FA0C
:103F900026208DF80C000120FFF7D6F902A800902A
:103FA00001AB012203A90C20FFF78AF810B902988F
:103FB000102802D0012004B010BD9DF8040020702C
:103FC0009DF8050060700020F5E770B50C460646C8
:103FD00086B0154600210D2000F0DDF98021122069
:103FE000FFF768FB80211320FFF764FB8DF8046066
:103FF00070208DF80500002001A9225C0B18401CE0
:10400000C0B29A700528F8D30120FFF79DF905A8E2
:10401000009003AB072201A90C20FFF751F80028FC
:1040200002D19DF80C10297006B070BDE8B1421E97
:10403000082A02D200EB001017E0A0F109030201E8
:10404000082B03D2803A104408380EE0A0F1110387
:10405000082B02D21044103807E0A0F11903072BF7
:1040600004D2A2F5C0721044183808707047F0B539
:10407000042510B958240C701D70441E0126082C0C
:1040800002D221340C701E70A0F10904082C03D256
:1040900031340C7002241C70A0F111040327082C89
:1040A00002D241340C701F70A0F11904072C02D207
:1040B000383008701D70087800F00700092807D212
:1040C000DFE800F0060507090B0D0F11130016704D
:1040D000F0BD1770F0BD072008E00F2006E01F209C
:1040E00004E03F2002E07F2000E0FF201070F0BDE0
:1040F0002DE9F05F894604463E4900EB440001EBA0
:10410000800A3D48934630F8140001F04DF83A48D3
:10411000001D30F8140001F047F8374F0121203717
:10412000A7F1100857F8242058F8240000F028FCC4
:1041300007F10805A5F1100655F8242056F82400CB
:10414000012100F01DFC57F8243058F8240001220A
:10415000022100F07CFD57F824004FF6FF7703465C
:104160003A46002100F097FD55F8243056F8240017
:104170000122022100F06BFD55F8243056F824008E
:104180003A46002100F087FD203D55F8240001F05B
:1041900059FB55F82400594601F020FB55F824003E
:1041A000042101F0A2FB55F82400082101F0A5FB31
:1041B000B9F1010F16D155F82400052101F06AFB71
:1041C000A5F10C000122005D022100F02FFE0B483A
:1041D0004FF4807200EB04215046FDF7C4FB5046BB
:1041E000FDF79EFB55F8240001F044FB0020BDE8DC
:1041F000F09F00009C090020500000209C07002038
:1042000070B50C4E0C4C0A4D3146204601F055FB62
:1042100000280CD0204601F00DFBC1B22846FDF766
:10422000A9FB31462046BDE8704001F03EBB70BDA1
:104230009C090020050005070038014070B50C4EB0
:104240000C4D0A4C3146284601F037FB00280CD0B3
:10425000284601F0EFFAC1B22046FDF78BFB31464C
:104260002846BDE8704001F020BB70BDA8090020C1
:10427000050005070044004010B54FF496420121A7
:104280000020FFF735FF0121BDE810404FF4E13277
:104290000846FFF72DBF00002DE9F0471746884676
:1042A000054600240E4E40F2077910E0FDF713FC9E
:1042B00018F8041056F8250001F0C0FA56F8250049
:1042C000494601F0DCFA0028F8D0641CA4B2BC42D4
:1042D000ECD31420FDF7FDFA0020BDE8F0870000C4
:1042E000580000202DE9F041124F05464FF40056CA
:1042F00000243146384600F06EFB0820FDF7F6FA40
:10430000E8073146384602D000F067FB01E000F0D4
:1043100062FB0820FDF7EAFA641C6D08E4B2082C81
:10432000EED33146384600F058FBBDE8F041082096
:10433000FDF7DCBA000800487047000030B5A1B0B6
:10434000054680216846FBF78CFF6C468DF80850C7
:104350000323022201212046FCF786FB0B22214683
:1043600002A0FFF755F821B0002030BD5043424273
:10437000756D55704C6F61640000000070B50D469E
:104380000646002404E0295D092000F004F8641CBE
:10439000B442F8D370BD10B5FFF7BDF8002010BDD2
:1043A0000FB4054B10B503A9044A029800F02CF88D
:1043B00010BC5DF814FB00006149000800010020FA
:1043C0000FB4084B10B504A902AA039800F01CF81A
:1043D000044602A9002000F048FA204610BC5DF80F
:1043E00014FB00006B48000802E008C8121F08C157
:1043F000002AFAD170477047002001E001C1121F66
:10440000002AFBD1704700002DE9FF4F8DB00F4609
:104410000546002606E025280BD0DDE90F1290475F
:104420006D1C761C28780028F5D111B03046BDE807
:10443000F08F0024A246A1460122EC4900E004438B
:1044400015F8013F203B02FA03F00842F7D1287823
:104450002A2810D06FF02F022878A0F13001092906
:1044600014D80AEB8A0102EB410144F0020400EB8C
:10447000010A6D1CF0E701CF5FEA000A03D544F49E
:104480000054CAF1000A44F002046D1C28782E285A
:1044900017D115F8010F44F004042A280ED06FF04C
:1044A0002F022878A0F1300109290AD809EB8901E7
:1044B00002EB410100EB01096D1CF2E757F8049B88
:1044C0006D1C28786C280FD006DC4C2817D0682883
:1044D0000DD06A2814D104E0742810D07A280FD1A6
:1044E0000DE044F400140AE044F4801401E044F4C4
:1044F00040146978814202D104F580146D1C6D1C52
:104500002A786E2A1FD00CDC632A31D004DC002A02
:104510008BD0582A11D1A3E0642A68D0692A0CD123
:1045200065E0732A2ED004DC6F2A73D0702A04D180
:104530009BE0752A6FD0782A6ED01046DDE90F1205
:104540009047761C50E1C4F30250022806D003289D
:1045500009D0042801CF09D0066045E101CFF11749
:10456000C0E9006140E101CF06803DE106703BE11A
:1045700017F8040B8DF8000000208DF80100EB46C1
:10458000012003E057F804BB4FF0FF3061074FF004
:10459000000102D40DE008F10101884649450FDA17
:1045A0008045F8DB1BF808100029F4D108E008F179
:1045B000010188468142FADB1BF808100029F6D178
:1045C000DDE90F23AAEB08008146214600F036F909
:1045D000304400EB080604E0DDE90F121BF8010B84
:1045E0009047B8F10108F7D221464846F7E00A2182
:1045F000C4F302534FF0000B0891022B04D001CFFB
:10460000C117032B09D00AE0FF1D27F00707F7E8C1
:10461000020108E032E01FE020E000B2C117042BE5
:1046200001D140B2C117031E71F1000307DA4FF048
:10463000000CD0EB0C006CEB01012D2302E02305F4
:1046400004D52B238DF82430012303E0E30701D0A8
:104650002023F7E7984658E00A2110E010210EE0E9
:1046600010204FF0000B08900CE010214FF0000BD1
:1046700044F004044FF00809089103E008214FF0CA
:10468000000B0891C4F30253022B04D001CF002188
:10469000032B06D006E0FF1D27F00707F7E802010D
:1046A00003E080B2042B00D1C0B24FF00008230712
:1046B0002BD5702A07D0DDF820C08CF0100C5CEAF6
:1046C0000B0C05D00EE040238DF82430012308E0C8
:1046D00050EA010306D030238DF824308DF82520D0
:1046E00002239846DDF820C08CF0080C5CEA0B0C25
:1046F0000BD150EA010301D1630706D530238DF8B1
:1047000024304FF00108A9F10109582A04D038A239
:104710000B9208AA0A920BE03AA2F9E75B46089AC4
:10472000FBF7BEFD0B9B9B5C0A9A521E0A9213700C
:1047300050EA0102F2D10A98ADEB000000F1200B23
:10474000600702D524F4803401E04FF00109D94517
:1047500002DDA9EB0B0000E0002000EB0B0141445F
:104760000890AAEB010AE00306D4DDE90F232146F5
:10477000504600F063F806444FF0000908E009A92C
:1047800011F80900DDE90F12904709F10109761CC3
:10479000C145F4DBE0030CD5DDE90F23214650468B
:1047A00000F04CF8064404E0DDE90F123020904799
:1047B000761C0899481E08900029F5DC08E00A9844
:1047C0000A990078491C0A91DDE90F129047761C7E
:1047D000BBF10001ABF1010BF1DC21465046DDE9F4
:1047E0000F2300F019F806446D1C1BE60928010090
:1047F0003031323334353637383961626364656657
:104800000000000030313233343536373839414218
:1048100043444546000000002DE9F04104460025D0
:104820001E461746880404D405E039462020B047C8
:104830006D1C641EF9D52846BDE8F0812DE9F041D4
:10484000044600251E469046C80301D5302700E0E7
:104850002027880404D505E041463846B0476D1C42
:10486000641EF9D52846BDE8F0810A68531C0B6028
:10487000107070470149C860704700000020024076
:104880000248016941F08001016170470020024047
:1048900070B505464FF47026304600F017F8002832
:1048A00010D1094C206940F0020020616561206947
:1048B00040F040002061304600F008F8216921F006
:1048C0000201216170BD00000020024000B50346D6
:1048D00000F008F85B1E012802D1002BF8D104205B
:1048E00000BD000008490020CA68D20701D001209D
:1048F0007047CA68D20601D503207047C9684907C6
:10490000FBD50220704700000020024004480169E6
:10491000090603D50349416003494160704700001F
:104920000020024023016745AB89EFCDF0B5064674
:104930004FF470270D463846FFF7C8FF00280CD10A
:10494000064C206940F00100206135603846FFF7D1
:10495000BDFF216921F001012161F0BD002002406D
:1049600010B50446FDF7B7F80449A52081F83500D5
:10497000E0B2FFF7B7FC204610BD0000380700206A
:10498000F0B5046A456A00234FF0010C4FF00F0E9A
:104990000CFA03F6164206D09E000EFA06F7BC4348
:1049A00001FA06F73C435B1C9BB2082BF0D30823AB
:1049B0000CFA03F6164207D09E00203E0EFA06F7C8
:1049C000BD4301FA06F73D435B1C9BB2102BEFD3AE
:1049D00004624562F0BD81627047816170470000EA
:1049E0002DE9F0474FF09048012300220221404674
:1049F00000F02DF9012300221946404600F04BF942
:104A0000022300221946404600F021F90022022329
:104A10001146404600F03FF9012203214046FFF7CE
:104A2000AFFF022203214046FFF7AAFF1023002216
:104A30000221404600F00BF91023002201214046DC
:104A400000F029F9202300220221404600F0FFF85F
:104A5000002220231146404600F01DF94023002289
:104A60000221404600F0F3F8002240231146404660
:104A700000F011F9802300220221404600F0E7F8FF
:104A8000002280231146404600F005F91022032140
:104A90004046FFF775FF202203214046FFF770FFD5
:104AA000402203214046FFF76BFF8022032140464E
:104AB000FFF766FFDFF888910123002202214846B4
:104AC00000F0C5F8012300221946484600F0E3F83B
:104AD000022300221946484600F0B9F800220223BA
:104AE0001146484600F0D7F8042300220221484628
:104AF00000F0ADF8002204231146484600F0CBF840
:104B0000012203214846FFF73BFF022203214846CA
:104B1000FFF736FF042203214846FFF731FF4FF429
:104B20008054234600220221404600F090F823469C
:104B300000220121404600F0AEF8A5102B460022CD
:104B40000221404600F083F800222B4611464046E1
:104B500000F0A1F86610334600220221404600F022
:104B600076F8002233461146404600F094F8E710EC
:104B70003B4600220221404600F069F800223B46F5
:104B80001146404600F087F83A4603214046FFF7B9
:104B9000F7FE2A4603214046FFF7F2FE3246032184
:104BA0004046FFF7EDFE224603214046FFF7E8FEB0
:104BB000334600220221484600F049F833460022DD
:104BC0000121484600F067F82346002202214846AA
:104BD00000F03DF8002223461146484600F05BF8FD
:104BE00065002B4600220221484600F030F80022E2
:104BF0002B461146484600F04EF8A7003B460022DF
:104C00000221484600F023F800223B461146484660
:104C100000F041F8324603214846FFF7B1FE224634
:104C200003214846FFF7ACFE2A4603214846FFF71A
:104C3000A7FE3A464846BDE8F0470321FFF7A0BE6D
:104C4000000400480069084000D0012070472DE9A9
:104C5000F0470568C66800244FF0010A4FF00309C9
:104C60000AFA04F71F420ED0670009FA07FC25EA8A
:104C70000C0526EA0C0601FA07F802FA07FC48EAD6
:104C800005054CEA0606641CA4B2102CE8D30560A6
:104C9000C660BDE8F087F0B50129416830D099437E
:104CA0004160846801260327A2F57F41FF3913D0B4
:104CB000002106FA01F51D4208D04D0007FA05FC57
:104CC00024EA0C0402FA05FC4CEA0404491C89B2EB
:104CD0001029EED38460F0BDC26B002106FA01F505
:104CE0001D4206D04FEA410C07FA0CFC4CEA0404C2
:104CF0002A43491C89B21029F0D38460C263F0BDF5
:104D00001943CDE738B50446FF280CD00B2C0AD840
:104D1000FDF75CFDFDF7E4FA01469923024A03A082
:104D20000094FFF73DFB38BD7D7B00085B583130B8
:104D30004B422025735D2025733A28256429205B8A
:104D40006B657968686868683A2025645D0D0A00BB
:104D5000FDF74CFB05468046FDF748FB314C2F46DE
:104D60003E464FF44070656000F0A0F8FBF714FF7A
:104D7000A14641F2883A47F2305BFCF7ACFEFDF702
:104D800035FB0446FDF732FB014608F5FA70814217
:104D900003D2FDF72BFB404506D2FDF727FB8046EB
:104DA000FDF72AFBFDF7CAFAFCF742F905F5FA70A0
:104DB000A04201D9A54210D91B48254690F82400ED
:104DC000A52805D00020FBF747FF08B9FEF74FF9EB
:104DD0000120FBF741FFFCF77EFED9F8040000EB51
:104DE0000A01A14201D9A04204D90121C9F8044015
:104DF00089F80010FCF742FC99F8010040B907EB74
:104E00000A00A04201D9A74202D92746FEF78AFD2F
:104E100006EB0B00A04201D9A642AED92646FEF70A
:104E200099FDAAE7000000203807002030B51E4D8C
:104E3000002423462D6805F4E065B5F5A06F12D077
:104E400006DCB5F5407F14D0B5F5806F12D10DE0CA
:104E5000B5F5C06F04D0B5F5E06F0BD1042309E0C0
:104E60000124032306E00224234603E00324012354
:104E700000E00424C4F10404A140C3F104040F239E
:104E8000E34013400B4300F1E022190182F80014C3
:104E900000F01F02012191404009800000F1E02054
:104EA000C0F8001130BD00000CED00E002490843DD
:104EB00002490860704700000000FA050CED00E0B0
:104EC0000248016841F48071016070470070004041
:104ED0000248416A41F0807141627047001002400F
:104EE0002DE9F04760A288B074CA8DE874005FA213
:104EF000614ED2E90042CDE904425CA28046D2E98B
:104F00000042CDE9064200207268014603465B4D2F
:104F1000C2F381021AB1012A01D0022A01D02A4625
:104F200023E072687468C2F38342C4F3C067F46A12
:104F3000E40F0FB1113200E0921C04B11F3274680B
:104F4000F76AC4F30044C7F3807764B1F46A04F0ED
:104F50000F04641C27B14A4FB7FBF4F4624304E02A
:104F6000B5FBF4F4FAE7474C62437468C4F30314E6
:104F70001DF8047022FA07F477680DF1100CC7F3DE
:104F800002271CF8077024FA07F977680DF1180C4E
:104F9000C7F3C2274FF4004A1CF8077024FA07F73A
:104FA000B8F1070F06D2DFE808F004080A0C0E3C3F
:104FB0004400104608B0BDE8F0872046FAE74846AE
:104FC000F8E73846F6E7306BC00506D4306BC0030F
:104FD00001D42D4923E02D4921E07068C0F38132CE
:104FE000306BC00F32B1012A09D0022A0ED0032A39
:104FF00015D110E008B1032003E079080FE018B1E3
:105000000520B7FBF0F10AE0B90808E008B1072075
:10501000F7E70620F5E708B10920F2E7F9080846A6
:10502000C8E7306B400602D448F21200C2E750468F
:10503000C0E7306B80070ED0306B00F00300012812
:105040000BD0306B00F00300022808D0306BC04357
:10505000800706D006E03B4604E0134602E05346D4
:1050600000E02B461846A5E7000000000000000005
:1050700001020304060708090010024000127A002A
:10508000006CDC0200093D00809FD500003FAB01B1
:10509000064A02EB9011096800F01F0201209040BF
:1050A000014201D0012070470020704700100240EB
:1050B000054901EB90110A6800F01F030120984098
:1050C00002430A60704700000010024070B50023E0
:1050D0004FF40066334D1C46B0421BD005DC30B3A4
:1050E00010280ED018285AD14DE0B0F5106F3FD0DF
:1050F000B0F5506F26D000F57F60B0F5804F4ED1EF
:105100002BE01120FFF7C4FF5B1C08B9B342F8D1B4
:10511000112040E040F601066FF07C453046FFF775
:10512000B7FF5B1C08B9AB42F8D1304633E04FF40F
:10513000A0650120FFF7ACFF5B1C08B9AB42F8D1BA
:10514000012028E040F601563046FFF7A1FF5B1C26
:105150000028EAD1AB42F7D1E7E743F21106304627
:10516000FFF796FF5B1C0028DFD1AB42F7D1DCE7ED
:1051700040F601163046FFF78BFF5B1C0028D4D1A8
:10518000AB42F7D1D1E71920FFF782FF5B1C08B9CA
:10519000AB42F8D11920FFF77BFF00B10124204674
:1051A00070BD0000FFFF0F00054901EB90110A6878
:1051B00000F01F030120984002430A60704700007E
:1051C00000100240054901EB90110A6800F01F032E
:1051D0000120984082430A6070470000001002409E
:1051E000054901EB90110A6800F01F030120984067
:1051F00002430A60704700000010024004490A6A36
:1052000022F440720A620A6A02430A62704700008E
:105210000010024030B515490B68091D0968134A92
:1052200010321268114C083424680D0C0570C1F35B
:105230000425457001F03F058570C1F34231C1700E
:10524000C3F305410171C3F30621417103F07F01EE
:105250008171C2F306410181C2F30E01418102F462
:105260008001C16004F04001016130BD00280040B0
:10527000F0B504460078E178E6684D0360F31F4519
:1052800060784FF4F85101EA00200543A0784FF40C
:105290007C1100F03F00054320791B4F01EA0040DC
:1052A000064360794FF4FE4101EA0020A17901F044
:1052B0007F0108430643CA2038605320386000F05D
:1052C00025F8E8B120894FF4FE0101EA0040618928
:1052D000C1F30E0108430C49143908600A48243808
:1052E0000660001D0560001D016821F0400101609D
:1052F000016822691143016000F022F800F04CF8C7
:10530000FF213960F0BD0000242800400B4B4FF412
:10531000804100201A6852060DD41A6842F08002BB
:105320001A601A68491E02F0400202D0002AF8D022
:1053300001E0002A00D00120704700000C28004046
:105340000248016821F08001016070470C2800408C
:1053500010B540F21C70FFF727FFFFF7B1FD4FF4C7
:1053600010642046FFF7A4FE2046FFF7AFFE4FF47F
:105370000070FFF743FF074840F28F11416063213F
:10538000016040F60F00FFF70FFFBDE8104000F08E
:1053900003B800008C00002018B512494FF40040FB
:1053A00000900968002089061AD40E4CCA211C34CA
:1053B0002160532121600B4B1B1D196821F0200136
:1053C0001960196801F020020099491E009102D06D
:1053D000002AF6D000E002B10120FF21216018BDB3
:1053E000012018BD082800401E480021026842F430
:1053F00080320260C3140268491C12F4003F01D1DC
:105400009942F8D1016889032BD541684160416810
:1054100041F400514160416841F48061416041685C
:10542000114A11404160C16A21F04041C162C16A24
:1054300041F00101C16241680C4A114341600168B9
:1054400041F08071016001688901FCD5416821F05B
:1054500003014160416841F0020141604168090770
:10546000FCD5704700100240FFFFC27700002908FA
:105470004FF0E0210428086903D020F004000861FF
:10548000704740F00400FAE7016841F080010160D4
:10549000704700001D4A10B5811A4FF4E053904246
:1054A00020D00DDCB0F1804F1FD0194940181FD01B
:1054B000B0F5406F1FD0984226D14FF4816409E0C7
:1054C000B1F5A05F1AD0B1F5C05F1AD099421BD1D7
:1054D00040F212342046FFF783FE2046BDE810401C
:1054E000FFF770BE40F20B34F4E74FF48064F1E74D
:1054F00040F20144EEE740F20444EBE74FF4447419
:10550000E8E740F21134E5E710BD0000002C01404F
:1055100000FCFFBF016821F00101016070470168D4
:1055200041F001010160704702698A4302617047DE
:10553000F0B50A888262204A204B4FF080479042A3
:1055400003D0B84201D098420BD1046824F0700413
:10555000046004684D882C43046004688D882C43E3
:1055600004608C68C462164C164D174E90420CD0E5
:10557000B8420AD0984208D0144B984205D0A042B5
:1055800003D0A84201D0B04207D1036823F440738E
:10559000036003688F893B430360904205D0A042BB
:1055A00003D0A84201D0B04201D1897B0163416997
:1055B00041F001014161F0BD002C014000040040B8
:1055C00000400140004401400048014000200040EC
:1055D000C2680A43C260704702698A430261704729
:1055E000C26800690A40084202D00AB1012070472F
:1055F0000020704702498A6A82438A62704700002D
:105600000040024002498A6A02438A6270470000F1
:105610000040024010B54FF0807260231101052058
:1056200000F082F800F0B4F8012000F0A7F80120A3
:1056300000F06AF8032000F06FF8102000F09EF8E8
:10564000022000F061F8F02000F066F84FF40070DE
:1056500000F094F8042000F057F84FF4606000F078
:105660005BF84FF4004000F089F8082000F04CF897
:105670004FF4704000F050F84FF4801000F07EF8C6
:10568000202000F041F84FF4700000F045F8BDE82C
:10569000104000F001B800000248016841F001012B
:1056A000016070470040024002498A6802438A60F4
:1056B00070470000004002400349C968014201D020
:1056C0000120704700207047004002400148406BB5
:1056D00080B27047004002400148806B80B2704742
:1056E000004002400148C06B80B270470040024059
:1056F0000148006C80B27047004002400148806C55
:1057000080B270470040024002490A6B02430A63BC
:10571000704700000040024002490A6982430A6162
:10572000704700000040024070B5124C2568AD077C
:105730001ED4114E256808280BD241EA00301043D0
:105740003540184328432060D4F8000320F08070CF
:105750000CE020F0080041EA0030104335401843C7
:1057600028432060D4F8000340F08070C4F80003A0
:1057700070BD0000004002401F8FFF0003490A680F
:10578000920702D40A6A02430A627047004002404C
:1057900004480168890703D4016821F0040101600D
:1057A00070470000004002400248016841F00201D9
:1057B000016070470040024010B5FFF723FF4FF42F
:1057C0005060401EFDD10320FFF76EFFFFF7ECFF96
:1057D0000320FFF771FF0028FAD010BD70B50D4609
:1057E000044613490020611804D0B1F5744F04D168
:1057F000062000E00220FFF773FB21680A044FF641
:10580000F07108D5400000EB5500B0FBF5F0014009
:1058100000F0070206E000EB5500B0FBF5F0014098
:1058200000F00F02E06811430843E06070BD000023
:1058300000BCFFBF406AC0F308007047C1F3080115
:10584000816270470A4910B5401805D0B0F5744F11
:105850000CD140F20E3401E040F211442046FFF733
:10586000BFFC2046BDE81040FFF7ACBC10BD0000F7
:1058700000BCFFBF016841F001010160704700EB0F
:105880009110006801F01F0201219140084000D0F2
:105890000120704710B5C1F38912835801F01F042D
:1058A0000121A1400B43835010BD026AC1F30443A0
:1058B000012199400A430262704730B5C1F3891251
:1058C000825800EB915001F01F05012404FA05F302
:1058D00000681A40C1F3044104FA01F3184202D0EF
:1058E0000AB1012030BD002030BD026822F0040260
:1058F000026002680A4302607047026822F00802F0
:10590000026002680A43026070474273774472760D
:105910005F464D31373558585F536574506F776522
:1059200072446F776E00436865636B5F4D315F4310
:105930006172640053656E644465627567506B7490
:10594000004465627567506B7450726F6300446504
:105950006275675265637650726F63005570677247
:105960006164655F577269746500434F4D5F5570A0
:1059700067726164655F5772697465004D61696E35
:10598000426F6172644261736963496E666F004D74
:1059900061696E426F61726443617264496E666FE1
:1059A00000557067726164655265717565737448FE
:1059B000616E646C657200436F6D526563764D6114
:1059C000696E426F6172644461746100466C617318
:1059D000685772697465576F726400466C617368CA
:1059E0005772697465004C6F616453797374656DA7
:1059F000496E666F0053797374656D526573657493
:105A00005265636F7264005072696E7466446174AB
:105A10006100425350466C61736857726974650047
:105A2000466C6173685465737400464D3137355860
:105A3000585F436F6E66696700000000A56363C628
:105A4000847C7CF8997777EE8D7B7BF60DF2F2FF04
:105A5000BD6B6BD6B16F6FDE54C5C59150303060F1
:105A600003010102A96767CE7D2B2B5619FEFEE7C5
:105A700062D7D7B5E6ABAB4D9A7676EC45CACA8FFE
:105A80009D82821F40C9C989877D7DFA15FAFAEF88
:105A9000EB5959B2C947478E0BF0F0FBECADAD4165
:105AA00067D4D4B3FDA2A25FEAAFAF45BF9C9C23ED
:105AB000F7A4A453967272E45BC0C09BC2B7B775DB
:105AC0001CFDFDE1AE93933D6A26264C5A36366C9A
:105AD000413F3F7E02F7F7F54FCCCC835C3434680E
